:020000040C00EE
:10000000D84E0330310B000C9128000C4D0A000C27
:100010004F0A000C510A000C530A000C550A000C40
:10002000000000000000000000000000570A000C63
:10003000590A000C000000005B0A000C5D0A000C6D
:100040005F0A000C610A000C630A000C650A000CD0
:10005000670A000C690A000C6B0A000C6D0A000CA0
:100060006F0A000C710A000C730A000C750A000C70
:10007000770A000C790A000C7B0A000C7D0A000C40
:100080007F0A000C810A000C830A000C850A000C10
:10009000870A000C890A000C8B0A000C8D0A000CE0
:1000A0008F0A000C910A000C930A000C950A000CB0
:1000B000970A000C990A000C9B0A000C9D0A000C80
:1000C0009F0A000CA10A000CA30A000CA50A000C50
:1000D000A70A000CA90A000CAB0A000CAD0A000C20
:1000E000AF0A000CB10A000CB30A000CB50A000CF0
:1000F000B70A000CB90A000CBB0A000CBD0A000CC0
:10010000BF0A000CC10A000CC30A000CC50A000C8F
:10011000C70A000CC90A000CCB0A000CCD0A000C5F
:10012000CF0A000CD10A000CD30A000CD50A000C2F
:10013000D70A000CD90A000CDB0A000CDD0A000CFF
:10014000DF0A000CE10A000CE30A000CE50A000CCF
:10015000E70A000CE90A000CEB0A000CED0A000C9F
:10016000EF0A000CF10A000CF30A000CF50A000C6F
:10017000F70A000C00000000F90A000C0000000063
:10018000FB0A000CFD0A000CFF0A000C010B000C1E
:10019000030B000C050B000C070B000C090B000CEB
:1001A0000B0B000C0D0B000C0F0B000C110B000CBB
:1001B000130B000C00000000150B000C170B000CBB
:1001C000190B000C000000001B0B000C1D0B000C99
:1001D0001F0B000C210B000C230B000C250B000C3B
:1001E000270B000C290B000C2B0B000C2D0B000C0B
:1001F0002F0B000C0348044B834202D0034B03B186
:100200001847704710010330100103300000000050
:10021000064B0749C91A891048BF0131491003D05C
:10022000044B0BB101481847704700BF1001033061
:10023000100103300000000010B5064C237843B9CC
:10024000FFF7D8FF044B13B1044800E000BF0123BF
:10025000237010BD1001033000000000F8A7000C4F
:1002600008B5044B1BB10449044800E000BFBDE8D9
:100270000840CDE70000000014010330F8A7000C8F
:10028000A3F5803A704700BF154B002B08BF114BF8
:100290009D46FFF7F5FF00218B460F461148124A95
:1002A000121A07F069FE0C4B002B00D098470B4B3D
:1002B000002B00D098470020002104000D000B48BF
:1002C00007F0BAFC07F018FD2000290000F06EFAD4
:1002D00007F0C0FC00000800000000000000000063
:1002E000D84E033010010330D83603307D7C000C2B
:1002F00050B1D343994206D8C0681144884234BFF4
:100300000020012070470020704700000B4B30B5E3
:100310001A6800230A4C9A4203DC06D14FF0FF30E2
:1003200008E01D012D5D854205D10020044A02EB45
:1003300003130B6030BD0133EDE700BFE099000C03
:10034000A099000C704700002DE9F34716461A46A5
:1003500007460D461C46FFF7CBFF00286CD07B6894
:100360005B689847364BC0F3410013F82090C9F101
:10037000000303EA050835EA03032AD0D7E9013070
:1003800001225B6901A940449847002816DB2B191C
:10039000A3EB08034B4538BF22464FF0000124BFB2
:1003A000A9EB05024244A5EB08035FFA81F8424538
:1003B00001F1010105D8A41A74B9002002B0BDE80A
:1003C000F08702A84044184410F8040C06F808000E
:1003D000EBE74FF00008EFE74C45B4FBF9FA0ED31A
:1003E000B8687B68284452465B6906EB08014044C4
:1003F00098470028E2DB09FB1A44002CDDD0B868DE
:100400000AFB09F97B680544454401225B6901A99F
:1004100005EB090098470028D0DB0022D3B2A342A5
:1004200002F10102C9D202A8F118034413F8043CF6
:10043000494401F80830F1E74FF0FF30BEE700BF54
:100440009499000C2DE9F04F89B002921A460646A5
:1004500089461D4621F0070A01F00707FFF748FF0C
:1004600028B94FF0FF33184609B0BDE8F08F736824
:100470000DF1180B5B689847584BC0F3410053F8D7
:1004800020305A46009351463B463046FFF75CFF0A
:100490000028E6D1EB1D3B4423F00703AAEB090833
:1004A000A8EB05081A465146304601939844FFF7D9
:1004B0001FFF0028D5D04346304604AA09EB0501AA
:1004C000FFF742FF03460028CBD1002F75D13C46F1
:1004D000AC42C8D2A5EB040A3AF0070A10D0B068C3
:1004E00071689DF800204844D1F818B0BAFBF2F2C8
:1004F000029920440393D8470028B2DB039B54445D
:10050000B8F1000FAFD006A82246002386469542D8
:1005100009D90299013311F802C0082B00F801CB68
:1005200002F10102F3D195429BD10022082B47D161
:100530000837082B274494D1904592D1019ABA42AA
:100540008FD1B0689DF8002075684844B3FBF2F283
:100550007146AD692044A847C31784E7029A125D2B
:10056000013401F80B200131072932D8AC42F5D112
:10057000002204A806AC90453FF473AF10F801CBFD
:10058000013201F804C001310829F4D12C4690450C
:100590007FF467AF082903937FF463AFD6E9013096
:1005A0009DF80020D3F818B0B1FBF2F2504406A930
:1005B000D8470028039B8BDA53E739460446D3E734
:1005C0004245B5D004A9885C01320EF8030001331E
:1005D000ACE7AC42DED10022D9E700BF9499000C11
:1005E0002DE9F04105460E469046FFF781FEA8B181
:1005F0006B689B6A98470468074664B10020BDE8B1
:10060000F081D5E90130DB69304498470028F6D104
:10061000BB681C441E444445F3D3EFE74FF0FF3062
:10062000EDE708B543689B6A9847006908BD00007C
:1006300008B503F0EDFE10B1024B186808BD024B7F
:10064000FBE700BF080003303821033037B50B4DFE
:100650000C462A6861B1011D0AD80330062807D864
:10066000042101AA03F0D6FE28B12A68019B236069
:10067000104603B030BD024B1A68F7E7080003309C
:100680003821033008B5031D0DD8C31C072B1846AD
:1006900028BF0720062B06D803F0D6FE003818BF67
:1006A0000120404208BD4FF0FF30FBE70000000092
:1006B0001FB5082102AA022003F040FF11A3D3E9CD
:1006C0000023DDE90201994208BF904207D1084B9F
:1006D000084A00930849094B094808F00FF9082215
:1006E00000210DEB020007F047FC05B05DF804FBAC
:1006F0004B9A000C049A000C329A000CE499000CFE
:100700003A9A000CA9B454B26D6F90A407B50421B5
:10071000072001AA03F012FF20B9019801288CBF1D
:100720000020012003B05DF804FB000008B5202183
:100730000C20084A03F0A8FF18B14CF25A3290423C
:1007400006D1BDE8084020210D20034A03F09CBFDC
:1007500008BD00BFAF9A000CCF9A000C1FB5042152
:10076000072003AA03F0EAFE044678B9094808F016
:10077000C5F8094B094A009309490A4B0A4808F091
:10078000BDF8039B13B9FFF7D1FF0446204604B020
:1007900010BD00BF509A000C4B9A000C739A000CCD
:1007A000329A000CE499000C3A9A000C30B54FF4E0
:1007B000005185B03B4806F0F1FE03F07DFD01F0ED
:1007C000E9FC18B1384808F099F8FEE7374808F016
:1007D00095F803F081FE18B1354808F08FF8FEE770
:1007E000FFF794FF30B1FFF7B9FF28B1314808F0A7
:1007F00085F8FEE7FFF75CFFFFF71AFF2E4D2A682A
:10080000824203D02D4808F079F8FEE703F030FD6E
:1008100018B12B4808F072F8FEE70124204603F0D7
:100820002EFD30B12146274808F068F8FEE704465F
:10083000F4E7214601A800F0E5FE2B68834203D0CF
:10084000214808F05BF8FEE7204603F01AFD20B1CE
:1008500021461E4808F052F8FEE7002CE7D1039924
:100860001B4808F04BF81B4808F048F869469DF80B
:10087000080000F039F828B14021174B174A1848F2
:1008800007F0B6F9019B1A691C8992065BBF0398B1
:10089000009B5868C018044403F03AFD20460CF051
:1008A000C0FF00BF2C010330EF9A000C0C9B000C22
:1008B000289B000C519B000C382103306D9B000CD1
:1008C000A39B000CC59B000CEF9B000C159C000C1F
:1008D000409C000C729C000C9A9C000CE09C000C4C
:1008E000A29C000C03F0E6BD642808B507D00146C1
:1008F0006422054808F002F84FF0FF3008BD4FF0C1
:10090000406300200B60F9E7EC9C000C012908D043
:1009100002290CD069B978B1012814BFFF20022048
:10092000704758B1012814BFFF20042070470520EC
:1009300070474FF0FF307047012070470320704729
:1009400008B543689B6A9847007D08BD2DE9F341CF
:10095000D1F8008006460D46C0B201A91746FFF740
:10096000D5FC0446002832D12B68CBB1019AD1685E
:1009700028604FF480502B6809B1984506D89845F7
:1009800010D23146134807F0B9FF09E0B1F5805F96
:100990000FD24FF480533146D2680F4807F0AEFFB4
:1009A0004FF0FF340198FFF7CDFC204602B0BDE8C0
:1009B000F0814FEA033C47F833C02B68A1F5805122
:1009C00007EBC30358602B6801332B60D3E74FF06C
:1009D000FF34EAE7519D000C159D000C044B0020EC
:1009E0001A68044B013A5A60052298601A607047F1
:1009F0000C00033010E000E00F49104A104830B5F9
:100A000003688C681568A3422B444FF47A753CBF89
:100A100049685B180B491B1B09681360B1FBF5F1B2
:100A20009942094B04D200251968156001311960FB
:100A30000460186830BD00BF10E000E034210330CE
:100A4000302103300C0003302C210330FEE7FEE799
:100A5000FEE7FEE7FEE7FEE7FEE7FEE7FEE7FEE76E
:100A6000FEE7FEE7FEE7FEE7FEE7FEE7FEE7FEE75E
:100A7000FEE7FEE7FEE7FEE7FEE7FEE7FEE7FEE74E
:100A8000FEE7FEE7FEE7FEE7FEE7FEE7FEE7FEE73E
:100A9000FEE7FEE7FEE7FEE7FEE7FEE7FEE7FEE72E
:100AA000FEE7FEE7FEE7FEE7FEE7FEE7FEE7FEE71E
:100AB000FEE7FEE7FEE7FEE7FEE7FEE7FEE7FEE70E
:100AC000FEE7FEE7FEE7FEE7FEE7FEE7FEE7FEE7FE
:100AD000FEE7FEE7FEE7FEE7FEE7FEE7FEE7FEE7EE
:100AE000FEE7FEE7FEE7FEE7FEE7FEE7FEE7FEE7DE
:100AF000FEE7FEE7FEE7FEE7FEE7FEE7FEE7FEE7CE
:100B0000FEE7FEE7FEE7FEE7FEE7FEE7FEE7FEE7BD
:100B1000FEE7FEE7FEE7FEE7FEE7FEE7FEE7FEE7AD
:100B2000FEE7FEE7FEE7FEE7FEE7FEE7FEE7FEE79D
:100B300008B51B4B83F309881A4B83F30A8883F3A8
:100B40000B8801F0D3FA184B1849A3F10C028A4222
:100B500017D30020164B1749A3F108028A421DD370
:100B6000FFF792FB53F80C0C50F8224053F8080C96
:100B700040F82240013253F8040C8242F2D30C3385
:100B8000E3E70022F7E753F8084C44F8220001326B
:100B900053F8044CA242F6D30833DDE70022F7E70E
:100BA000D84E0330D836033010A8000C1CA8000C17
:100BB00024A8000C2CA8000C002282B000F5BA7307
:100BC00098420BD1074BDA6C42F40032DA64DB6CEA
:100BD00003F400330193019B02B0704700F8012B2E
:100BE000EEE700BF0010025070B5061D0446304607
:100BF0000D4603F0D0F910B16FF06F0070BD2023E7
:100C00003046636003F098F90028F5D1042325608D
:100C100084F8713184F88C00F0E72DE9F84304463C
:100C200094F8713190F88C0040331B1A04F1480796
:100C3000934288461646384409D907F0BFF894F81D
:100C40008C20164484F88C600020BDE8F883A1460F
:100C50001A4607F0B3F894F88C2094F871313244B6
:100C600059F8041B403AD51A03F14002B9B9394684
:100C7000484603F09FFA38BB3F2D15D84FF00009C6
:100C800005F03F0284F8719184F88C20002ADBD0B3
:100C9000B11A3846414407F091F84846D5E739463D
:100CA000484603F075FAE6E794F8711194F88C3031
:100CB0004031C91A23684846414425F03F0233B900
:100CC00003F078FA0028D9D06FF06F00BDE703F089
:100CD0005FFAF7E773B50446032526680B4694F8D8
:100CE0008C20043004F14801009556B903F068FAED
:100CF00020B9002084F88C0002B070BD6FF06F0046
:100D0000FAE703F049FAF3E70020704713B56C23C4
:100D10000446019394F8B8300846ABB1012B21D1B9
:100D2000022901D0042212E0582101FB034201FBF9
:100D30000343526A03F1280401A9FFF707FE08B92B
:100D4000019B236002B010BD0129EDD00322824235
:100D50000AD1582101FB034201FB0343126D03F149
:100D60005404E9E7FF29DFD00120EBE72DE9F0414A
:100D700016464FF0580890F8B8200F463346002129
:100D800002FB0802044600F059FC054668B994F8D5
:100D9000B820334608FB0242012120462C3200F0E5
:100DA0004DFC10B1002F18BF05462846BDE8F08164
:100DB00038B590F8B8500446EDB1012D0CBF0221B2
:100DC000FF212046FFF7A2FFC8B9B5B1012D0CBF26
:100DD0000421FF212046FFF799FF054688B95822D4
:100DE00094F8B83002FB0343186AFFF71AFCC4F802
:100DF000B400284638BD0121E3E70321EAE70125D5
:100E0000F7E70925F5E737B50C46002105460091BF
:100E1000FFF77CFD6946C0B2FFF778FA88B9204633
:100E2000009901AA00F010FF044620B92846019954
:100E3000FFF728FC04460098FFF784FA204603B029
:100E400030BD0124F7E700002DE9F0433C4B89B0A9
:100E5000044690F8B8000E461D68FFF757FD06A936
:100E6000C0B2FFF753FA00285ED194F8B88031463B
:100E70004046FFF74BFD2C2507A9C0B27543FFF78D
:100E800045FA00283BD058222C2702FB08F307FB29
:100E9000063704EB0709D9F8100010F010003FD115
:100EA0004FF4807308FB02520193264BCDE90300F7
:100EB000009394F8B810069B0290224400F0F4FED0
:100EC0000546214BE25906989A420ED1B9F80820FE
:100ED000D9F80C30D1438B4207D81344C2689342EF
:100EE00003D21A4B1B68AB421BD036B30021C26839
:100EF000FFF776FB1649174807F000FD10E007984A
:100F0000FFF71EFD07460798FFF71CFA582394F8D1
:100F1000B82013FB025323445A1E03339A4207D1CD
:100F200001250698FFF70EFA284609B0BDE8F083C0
:100F300012F8011FB942F1D0A5E70749DBE700BF6E
:100F400008000330783303303DB8F396382103307E
:100F50007D9D000C8F9D000C879D000C012303607C
:100F600003F1012343600023C0E902337047437952
:100F7000012B07D10368012B04D10079431E58428D
:100F800058417047002070472DE9F04B0E469046BF
:100F900099460024099FDFF844B0BC4201D30020E9
:100FA0000EE03D1BB5F5806F28BF4FF480653046DD
:100FB0002B460A4A04EB0901FFF7C6F910B10120DC
:100FC000BDE8F08B08992B465A4640466118FFF75A
:100FD00039FA0028F3D12C44DFE700BFF8210330B1
:100FE0002DE9F04F4FF00008044689464FF0FF35D9
:100FF000A34BDFF8B4B21F6895B080F8B88094F8BE
:10100000B860012E18D9B8F1000F00F00481002358
:101010002C264FF0580884F8B83094F8B80001280E
:1010200000F2F880231893F8B920002A00F0D78046
:10103000013084F8B800F0E7A31993F8B91000293B
:1010400040F0AB804FF458735825734305FB0642BC
:101050008C48184450628C48034413653046FFF7AF
:1010600055FC94F8B810C0B205FB01412031FFF7E0
:101070004DF930B140F2AF71844B854A854806F096
:10108000B7FD01213046FFF741FC94F8B810C0B21B
:1010900005FB01414C31FFF739F90028EAD1204620
:1010A000FFF786FE054690B9002220461146FFF75D
:1010B0005DFE0546C8B194F8B810774807F01EFCED
:1010C000012294F8B830234483F8B0200BE06C215F
:1010D000584607F013FC012294F8B8309542234497
:1010E00083F8B020E0D1002557E0204600F0C2FA96
:1010F0000028E5D00AA8FFF731FF0AA8FFF737FF5D
:10110000064698B994F8B83023B10121B034F2B250
:10111000934204D840F2FF61604B614AAEE7227807
:101120000136042A08BF21700134F0E79DF82F1022
:10113000012938D194F8B800029100F001FD821E17
:10114000022A824602990CD82046FFF77DFE554AB6
:101150001268904205D001280CBF4FF0010A4FF0F1
:10116000050A94F8B820224482F8B0A094F8B82078
:1011700052B1224492F8B030012BB4D0042B2CD0C1
:10118000234601219A4220D194F8B830234493F8A1
:10119000B030023B022B98BFB04694F8B830013310
:1011A00084F8B8302BE701212046FFF74DFE3D4B78
:1011B0001B68984218BF052294F8B83008BF9DF804
:1011C0002F20234483F8B020D0E793F8B0000133F8
:1011D000042808BF83F8AF10D4E7B046DDE793F8E2
:1011E000B05005F0FB05013D18BF01252946FFF76A
:1011F0008DFB05A9C0B2FFF789F800285AD0012558
:101200000598FFF79FF8002D00F0B28040F201131F
:10121000A4F8B03000250023DFF89080DFF890A01C
:1012200084F8B83094F8B830012B40F2A78000233E
:101230005826DFF8708084F8B83094F8B830012B65
:1012400040F26581102200210AA806F095FE0023D5
:1012500084F8B83094F8B830012B40F2A1815822BC
:1012600002FB0341096A03FB0243487889F8040042
:101270008968C9F800300B4BC9F808101F686EE187
:1012800008000330F8250330B82C03309A9C000C7A
:101290001CA0000CBA9D000C579E000CA09C000CDA
:1012A000FE9F000C38210330129E000CBB9E000CE8
:1012B000DC9E000C0123754394F8B810059A18FBC6
:1012C00001510093214440230EA800F023FA054663
:1012D000002895D100230DF1120206A90EA800F0F6
:1012E00065FA002892DB05988AD1BDF812300C2BE4
:1012F0003AD1069907AAFFF727F800287FF47FAFB5
:101300009DF81C20012A31D8A31893F8B03008FBAF
:1013100002F2023B022B8CBF0023012306FB0323B6
:101320002344197D9DF820209142D3D80AD3597DBA
:101330009DF821209142CDD804D3DA8ABDF822301D
:101340009A42C7D294F8B830234493F8B020012AC7
:1013500008D0023A012A02D8012283F8B0204FF0C7
:10136000FF354DE70422F8E7032549E7072547E75E
:1013700094F8B830013384F8B8304EE6234493F83B
:10138000B930002B40F0BD800AA8FFF7E7FD94F8C4
:10139000B830234493F8B020042A8DF82F2007D8C2
:1013A000012A07D800F09E80FF2283F8B02099E040
:1013B000052AF7E7894807F0A1FA404607F09EFAA8
:1013C00094F8B85065B1012D0CBF0220FF2007A989
:1013D000FEF79CFF30B140F24641814B814A4DE619
:1013E0000120F4E765B1012D0CBF0420FF200EA9F8
:1013F000FEF78CFF30B140F24A41794B794A3DE625
:101400000320F4E74FF0580B0646054694F8B83031
:101410000BFB03439B6AAB421ED13146504607F09B
:101420006DFA00232046079A0E9901960093FFF764
:10143000ABFD60B9582594F8B80005FB00412C318C
:10144000FFF7E1FC014600B3674807F057FA40F2A6
:101450000161634B654A11E694F8B82031460BFBF5
:101460000242526A079802EBC50252680393029245
:10147000FFF7B6F8DDE9022320B14FF48A61584B3B
:10148000584AFBE516440135C5E794F8B8300E9884
:1014900005FB03431B6D5A68FFF7A2F820B140F229
:1014A000A5414F4B4F4AE9E594F8B83005FB03439B
:1014B000D3E91423013B52F8331002EBC300136845
:1014C0004268C91A0E98FFF78BF8054620B140F222
:1014D000AD41434B434AD1E50798FEF733FF0E98E1
:1014E000FEF730FF94F8B830234493F8B030FF2B68
:1014F00007D13F4807F002FA40F60F013D4B3E4A44
:10150000BCE594F8B830013384F8B8308AE6234457
:1015100093F8B91000293DD193F8B030012B05D0D4
:1015200020460AAAFFF722FC0546C0B90021204642
:10153000FFF78AFC0746D8F8003083420FD194F8B1
:10154000B800231893F8B030012B17D100FB0641E7
:10155000FFF759FC054688B1284807F0CFF900236A
:10156000582684F8B83094F8B830012B20D9002DD3
:1015700018BF2F46384615B0BDE8F08F94F8B80074
:1015800006FB004319461A6A00F0D2F9054608B175
:101590001B48E2E794F8B830013384F8B8304CE6E1
:1015A000E21892F8B920002A3FF459AE01334FE611
:1015B000E21892F8B9205AB906FB0343D86CFEF73B
:1015C000C1FE94F8B83006FB0343186AFEF7BAFE72
:1015D00094F8B830013384F8B830C4E7869E000C24
:1015E0009A9C000CDA9F000C209F000CEA9F000CD4
:1015F0005C9F000CA09C000C1CA0000C6B9F000CBE
:10160000AA9F000C012970B506460C4602D9094B69
:10161000186870BD084D0222012105F1B90006F0DD
:10162000ABFC00232C4484F8B93031462846FFF740
:10163000D7FCEEE7080003303C21033013B590F8E7
:10164000B8001446FFF762F901A9C0B2FEF75EFECA
:10165000014668B9224620230198FEF775FE04462C
:101660000198FEF76FFE201E18BF012002B010BDCA
:101670000120FBE75822F8B590F8B83002FB0300D0
:10168000D0F828C0BCF16C0F02D8466D6C2E33D94F
:101690001D4807F033F90020F8BDAC4215D1476A68
:1016A00007EBC2077F6801323C44076D07EBC307B5
:1016B0007F6801333D446245EFD3B342EDD36245C9
:1016C00001D1B3421ED01148E3E70BD2476A022989
:1016D00007EBC2077F683C4401D10D48D9E70121DF
:1016E0000132E8E7076D012907EBC3077F683D4436
:1016F000F3D002210133DEE700210B460A460D46F6
:101700000C46D8E70120C7E72CA0000C98A0000CDD
:101710005EA0000C2DE9F7430E4617469946044695
:1017200028B94FF0FF38404603B0BDE8F0830029E8
:10173000F7D0002AF5D0CB680D8938461D44042324
:1017400029460DEB0302FEF7FFFD80460028E8D195
:1017500046F60812BDF804107389914223D1BDF8F2
:1017600006109942DDD1042338460DEB03022944CB
:10177000FEF7EAFD0028D4D146F60713BDF8042091
:101780009A42CED19DF82830BDF80620A372738905
:10179000C4E900672B44E36004351344A4F80890BF
:1017A00063612561BFE7002BE6D0BAE72DE9F74377
:1017B0000F4690461E46044620B94FF0FF3003B056
:1017C000BDE8F0830368002BF7D04368002BF4D00A
:1017D0004FF6FF79D4E904239A4216D223685B8935
:1017E00023B1E368934204BF0433236104232169D6
:1017F00060680DEB0302FEF7A7FD0028DDD1A37A98
:10180000256923B1E368AB4201D80120D7E72189DC
:10181000BDF80630494503F1040203D0BDF804C009
:101820008C450BD116B1BDF80410318004353D60F4
:10183000A8F80030236913442361C0E715442561EB
:10184000C8E700002DE9F04F1646002285B0824619
:101850000C461D4603921BB9032005B0BDE8F08F6E
:101860002F4F397859B9DFF8C0804FF48062404675
:1018700006F082FB2B4BC8F8003001233B70DFF8E9
:10188000ACB0294BD8465F881FFA8AF307F140595C
:1018900009F57F39CB4529D3C4F30B0444EA0A3058
:1018A000B4B2DFF884A0ADF80C00ADF80E40BAF881
:1018B0000230211D13FA81F1B1F5803FCCDA89B2F3
:1018C000B1F5806F29D8042203A9484606F076FABC
:1018D0003246294607EB080006F070FABAF80230E3
:1018E000002004331C44AAF80240B6E704225946FB
:1018F00003A8019306F062FABDF80C20019BB3EB3C
:10190000123F03D1C2F30B02A24204D0BDF80E2055
:1019100004329344BEE702209FE701209DE700BF09
:10192000783403301620040000FC033004FC03303C
:101930000023F0B5ADB0009305464FF6FF7305A840
:101940001646FFF7E7FE044618B14FF0FF302DB002
:10195000F0BD07460DF10E0303AA04A905A8FFF781
:1019600025FF0028F1D1BDF80E30602B0ED1BDF857
:101970000C30642BE9D83046049913AAFEF7E4FC36
:101980000028E2D10124BDF80C70E3E7102BE1D16F
:10199000BDF80C30202BD8D8304604990BAAFEF79E
:1019A000D3FC0028D1D1002CCFD013ABA7F120005D
:1019B00004900BA92022184406F000FAA9013A4627
:1019C00013AB41F03F010120FFF73CFFBFE706F0FA
:1019D000C7B938B50C461546FEF7B2FF2146254477
:1019E000A94201D1012038BD11F8013B9842F7D03E
:1019F0000020F8E7C068183820F00700103870475A
:101A0000042809D0052803D1481E18BF01207047BB
:101A1000431A5842584170470120704711B10AB12A
:101A2000FFF7D7BF0020704738B50C460123114699
:101A300022460546FEF788FC002810DB01222146DD
:101A40002846FFF7EBFF18B103230020237038BDB1
:101A50002378012B0CBF012302232370F7E7012019
:101A6000F5E7C268183A22F00702FFF7DDBF000071
:101A700030B50C46C16887B0102302AA103905465C
:101A8000FEF762FC002813DB1022284602A9FFF7AC
:101A9000A0FF78B1032323702846FFF7ABFF012393
:101AA00001460DF107022846FEF74EFC00280BDA2E
:101AB00001202DE01022174902A806F051F9002854
:101AC00014BF02230123E6E79DF80730284603F000
:101AD0000F021B096270237101220DF10701FFF74C
:101AE00078FF10B96378042B03D9012363700023B6
:101AF0002371EA682846183A22F00702083AA11C26
:101B0000FFF792FF0028D3D12846E11CFFF7A9FF79
:101B100007B030BD68A1000C13B50C46C0B201A9D6
:101B2000FEF7F4FB50B921460198FFF7A1FF0446E8
:101B30000198FEF707FC204602B010BD0124FAE729
:101B40002DE9F043044685B058B101280CBF0220AE
:101B5000FF206946FFF7E0FF28B1FF2005B0BDE890
:101B6000F0830120F5E7002C40D0012C0CBF0420AD
:101B7000FF2002A9FFF7D0FF012839D121462948CB
:101B800006F0BCFE284B029300238DF80C30002297
:101B90009DF800509DF808609DF803709DF80B803B
:101BA0009DF80290214C29462078FFF729FF20B3A9
:101BB00031466078FFF724FFF8B1A378042B01D0F9
:101BC000BB421AD1E378042B01D0434515D12379C8
:101BD000042B10D16379022B19D11549154806F051
:101BE0008DFE6079831E022BB8D9B6E70320C0E7CB
:101BF0000028CCD0B1E74B45ECD00132032A04F1E8
:101C00000604D0D10C4806F079FE0120A6E7032B8C
:101C100005D00A490A4A042B18BF1146DEE70949D4
:101C2000DCE700BFECA0000C0301030378A1000C6B
:101C3000D0A0000C3AA1000C50A1000CC9A0000CCF
:101C4000DAA0000CD5A0000C30B50C4615460146B4
:101C50008BB020B31CB312B3438913B903200BB06C
:101C600030BD01232246009304A85023FFF752FD04
:101C70000028F4D103460DF10A0203A904A8FFF7D6
:101C800095FD70B9BDF80A30042BE7D12A462046ED
:101C90000399FEF759FB003818BF0120DFE7072042
:101CA000DDE74FF0FF30DAE72DE9F04FADF2345DBC
:101CB00003911D4600216FF00043DFF864B2E6A8EF
:101CC0000DF5AC66CDE9083196E840031446DDF821
:101CD00058A5DBF80070FEF76FFF0021E6A8FEF7BD
:101CE00083FFCDF810B03EB1B8F1000F04DD4246DD
:101CF0003146E6A8FEF791FF4FF000086389268978
:101D00001E44E3681E4446454CD811A9E6A8FEF7D8
:101D1000E1FFB9F1000F04D02022484611A906F0D6
:101D20004DF80023214600932A464FF6FF730BA877
:101D3000FFF7F0FC0146002840F0CE803E46824688
:101D40004FF0FF34DFF8D48107A90DF11A0306AA7A
:101D50000BA8FFF72BFD011EC0F2BE8040F0C18032
:101D6000BDF81A30102B35D1BDF81890B9F1200FFD
:101D700040F0C68007994B46284686AAFEF7E4FA4B
:101D80000146002840F0A88086A94A4611A8FFF71E
:101D90001EFE0146D8F80030834240F09D804FF08F
:101DA000010AD1E7DDF85C35A6EB080B9B4528BF9F
:101DB0009B4641465B4652462846FEF7C5FA014619
:101DC000002840F089805A465146E6A8FEF725FFD4
:101DD000D84498E7022B3DD1BDF81830B3F5CC7F3D
:101DE00000F28E800DF5667907994A462846FEF77F
:101DF000ABFA014600286FD12023BDF818B005903A
:101E000029A80A93FEF7D8FE059929A8FEF7ECFE4B
:101E10005A46494629A8FEF700FF19A929A8FEF746
:101E200059FF9DF80C000AAA21A9FEF75BFD0446A4
:101E3000002889D10A9A21A919A8FFF7C8FDD8F866
:101E40000030984224D1324BC3F80090314BC3F894
:101E500000B079E7232B1ED1002C19DB2E4B1B6819
:101E6000A34215DDBDF81830B3F5C07F48D10799FE
:101E7000284686AAFEF768FA014668BBE4B220212C
:101E8000BDF81830009486AA11A800F04BF8074658
:101E90004FF0FF3458E7502B7FF456AFBDF81830A1
:101EA000042B2DD10799284609AAFEF74DFA0146C1
:101EB00090B9039808A9FEF7C9FB0646D8F8003088
:101EC000834220D1DDE908239A427FF63DAF049B8F
:101ED000196888423FF438AF08460DF2345DBDE81A
:101EE000F08FBAF1000F10D00C4B1968B9421CBF2B
:101EF0000B4B1F68B1420CBF39464FF0FF31EBE787
:101F00004FF0FF31E8E70146E6E70121E4E700BFD3
:101F100000000330D0360330E89C000C3821033039
:101F2000080003302DE9F04F9846ADF2345D6C4B5C
:101F300007460CA89DF858658A4691461D6805F02D
:101F40001FFC684BECAA53F8364003EBC6035B68F2
:101F50000294196802A80C443023214604F064F866
:101F600068BB029BEC9A13449C4228D121460EAADE
:101F700002A804F06DF810BB0DF1440B5A4621463F
:101F800002A804F065F80646C8B90EA804F059F98D
:101F9000029B0D909C4212D133463246CDE9006B34
:101FA0000EA90CA805F0A8FB48B90CA805F0F2FB97
:101FB00028B90EA804F045F980450D900AD00CA868
:101FC00005F04AFC0CA805F047FC28460DF2345DEC
:101FD000BDE8F08FB8F5C07F02D04FF0FF35F1E7D4
:101FE000BAF1200FF9D14946ECAA0CA805F0F6FB8E
:101FF00004460028F1D19DF82F35BC2BEDD10DF111
:10200000DC0840F25F16454603908FA8FEF7D4FD2A
:1020100000218FA8FEF7E8FD20220DF20F518FA8B6
:10202000FEF7FBFD042203A98FA8FEF7F6FD04A925
:102030008FA8FEF74FFE1F2ED4BFB1464FF02009E8
:102040009DF80F30404601334A4604A9A6EB090625
:102050008DF80F3005F0B2FE002EC844D5DC2846BE
:102060002A4640F25F13ECAE117816F801CB013B23
:1020700081EA0C0102F8011BF6D12B7803F07F03F3
:102080002B7010F8016B002EA7D10134B4F59F7F9F
:10209000F7D195F83E31012B9FD18FA8FEF78CFD2B
:1020A00031468FA8FEF7A0FD08220F498FA8FEF742
:1020B000B4FD394620228FA8FEF7AFFD20220DF295
:1020C0001B218FA8FEF7A9FD04A98FA8FEF702FE29
:1020D00020220DF20F5104A8FFF779FC05467EE798
:1020E00008000330000003308AA1000C7047000094
:1020F000234A2449136810B51B0754BFD2F8943003
:102100001368906858BFC3F3032300F00C0048BF66
:10211000C3F30313082851F823401B4903D00C28AC
:102120000DD0042829D1194B0B60154B184A9B6818
:10213000C3F30313D25C0B68D3400B6010BDD068AF
:10214000D36800F00302023A012A98BF0F4AC3F392
:10215000031303F1010394BFB2FBF3F3B4FBF3F3F6
:10216000074AD068D268C0F306204343C2F34162F5
:1021700001325200B3FBF2F3D6E70C60D5E700BFA3
:1021800000100250ACA1000C0C0003300024F4003D
:1021900092A1000C30B599B000F0AFFB02F012F83C
:1021A00020B13B4806F0AAFB0BF08CFBFEF7ACFD20
:1021B00020B1384806F0A2FB0BF084FB364C142209
:1021C000002101A805F0D8FE4822002106A805F04C
:1021D000D3FEA36D002043F08053A365A36D0225B9
:1021E00003F080530093009B00F026FFA36D0022B4
:1021F00023F08053A3651023069301233021CDE9FA
:1022000011530D931393372306A8CDE90E21CDE981
:1022100016551493159500F0DFFF00B1FEE70F236C
:102220000321CDE9013180230590CDE9033001A8D8
:1022300001F01EFB00B1FEE70390052101A8019506
:1022400001F016FB054600B1FEE702F035F800F09C
:1022500029F800F08BF8A36D43F08053A365A36DBC
:1022600003F080530693069B00F0D2FE00F01AF8AC
:1022700000F07CF8094B28469B68984720B1084835
:1022800006F03CFB0BF01EFB002019B030BD00BF78
:10229000ECA1000C14A2000C0010025008A6000CC7
:1022A0003FA2000C6FF00102294B00B5C3F80021DA
:1022B000284B9DB01A6822F001021A6000229A6031
:1022C0004FF00052DA60E1321A6101229A60224A2C
:1022D000DA6002F57F42E1321A6102229A601F4AF7
:1022E000DA6002F57F42E1321A6103229A601C4AE9
:1022F000DA6002F57B3202F2E1321A61BFF34F8FEE
:10230000BFF36F8F1A68174842F001021A60164B2C
:1023100001A99A6C42F480029A649B6C03F48003D6
:102320000093009B01F0F6FC08B10BF0CBFA1B9B6D
:102330000C4843F0800301A91B9301F0ABFC08B1EA
:102340000BF0C0FA012000F0B3FD1DB05DF804FBF6
:10235000002C0350D0ED00E00000F90B00200240FB
:1023600000100408000003300010025073B5012370
:102370000426724C724D20466360E361266300F0D0
:1023800013FD02232846EB616E6000F00DFD002373
:10239000C5E9003323606360A369002B04DB69484F
:1023A00006F0ACFA0BF08EFAA3695B0204D466481F
:1023B00006F0A4FA0BF086FA616BB1F1406F07D01A
:1023C000624806F09BFA624806F098FA0BF07AFA37
:1023D000D4E90832934202D80BB97F2A15D00021E4
:1023E00000925C487F2206F089FA5B4806F086FA84
:1023F0007F234FF0000CC4E908C3236843F01003A7
:102400002360E36943F01103E361D5E908320BB9B6
:10241000012A12D0002100925048012206F06EFAE3
:102420004F4806F06BFA00260123C5E90863102324
:102430002B60EB6943F01203EB61236AA26A9342BB
:1024400006D8192A04D9E16901F48071194316D01C
:102450000021009243481A2206F050FA424806F042
:102460004DFA002323621A23A362236843F010036A
:102470002360E36923F4807343F0A103E361A3695C
:10248000990104D5394806F039FA0BF01BFA226895
:102490002B68134343D000F05FFA00F091FA2368F1
:1024A0009A0704D5324806F029FA0BF00BFA2B688C
:1024B0009B0704D52E4806F021FA0BF003FA6B684F
:1024C00023B12C4806F01AFA0BF0FCF9636833F0DC
:1024D000010304D0284806F011FA0BF0F3F9236841
:1024E00043B1164800F02EFB20B1244806F006FA4E
:1024F0000BF0E8F92B6843B1114800F023FB20B141
:102500001E4806F0FBF90BF0DDF900F06BFA20B184
:102510001B4806F0F3F90BF0D5F901F0DFFAE16A98
:1025200051B1184806F0EAF9174806F0E7F902B089
:10253000BDE870400BF0C6B902B070BD8034033006
:10254000B834033070A2000C98A2000CCDA2000C8D
:10255000E3A2000C11A3000C44A3000C85A3000C03
:10256000B8A3000CFAA3000C32A4000C77A4000C52
:10257000B0A4000CDFA4000C1AA5000C55A5000C9B
:1025800081A5000CA9A5000CBFA5000C042A09DB3D
:102590000B68036000F1040001F10401A2F10402E0
:1025A000042AF5DA002A09D00B78037000F1010043
:1025B00001F10101A2F10102012AF5DA70470000E0
:1025C000064B82B01868002382B262F30F03000C3E
:1025D00060F31F43184602B0704700BF04A6000C0A
:1025E0000C20704700207047012805D9022814BF2D
:1025F0006FF00400002070476FF0030070476FF029
:1026000003007047014B1868704700BFF034033077
:1026100000487047ECA5000C08B54FF47A7000F044
:10262000EBF9002008BD70B5446994B10023013A6C
:1026300000690A44251D834201D1002070BD54F871
:1026400033608E4203D855F83360B24201D901336A
:10265000F1E70120F2E700002DE9F04114461F4B9D
:102660004FEA82081A6806466FF341021A60421E5A
:1026700002EB8402B2F5002F0D4611D3184A94697B
:102680003CB16FF004001A6842F002021A60BDE823
:10269000F0814246FF21284605F06EFC2046F6E711
:1026A0000023104F424601460D483B60FFF7BBFF39
:1026B000424680B106F140612846FFF767FF3B685C
:1026C00023B142460021284605F056FC002324F0A1
:1026D00040403B60DBE706F10061EDE7F03403309A
:1026E00030000330F43403302DE9F04F374C4FEA1B
:1026F0008208236807466FF341038A46164601465F
:102700004246334885B02360FFF78DFF314B7A1E78
:102710000028424415BF4FF0010999464FF0406B25
:102720004FF0006BB2F5002F0CD248EA070515F008
:10273000070507D1264BD3E902C12B4601F1040E50
:10274000634508D16FF00400236843F0020323605F
:1027500005B0BDE8F08F51F83300874203D35EF82F
:10276000330082422BD90133EAE7002315E0BBB9DD
:1027700008220AEB05010DEB020005F01FFBDDE965
:102780000223591C08BFB2F1FF3FEED00BEB07014B
:102790004846294400F06EF903460835A845E6D1BD
:1027A000226801936FF30002226000F0F5F8019BAC
:1027B00026F04040002B18BF4FF0FF30C8E700F074
:1027C000CBF8236843F001032360D1E7F0340330F2
:1027D000300003300100008030B5B0F5002F014615
:1027E00087B008D2C0F30B032BB9264AD2E9000206
:1027F000141D834208D16FF00400234A136843F08C
:102800000203136007B030BD52F83350A94203D31E
:1028100054F83350A94201D90133EAE70422194898
:10282000FFF701FF0028194B18BF0223B1F5802FD5
:1028300002932CBF0223012303930223B1F5812FBE
:1028400005934FEAD12300D3803B0F4D04932B68AF
:102850006FF341032B6000F07FF82B6801A943F070
:1028600001032B6002A800F063FB04462B686FF3A2
:1028700000032B6000F090F8201E18BF012040429A
:10288000C0E700BF30000330F034033002000080A6
:10289000174B1A6B02F02042B2F1204F27D11A6B6E
:1028A00042F020421A63134A1368013313607346DF
:1028B00003F00F030D2B14D1EFF30982D2E9063197
:1028C000C9010CD523F00101098801F46840B0F575
:1028D000684F04D001F47841B1F5704F04D104334E
:1028E00003E0EFF30882E9E7023393617047FEE704
:1028F00000200250F4340330704710B5042001F07A
:10290000DBF8FFF7F5FB0720FEF768F8044618B977
:10291000FFF7F2FF204610BD0124FBE70B4930B55D
:102920008D680B4C0B4931EA250128BF2146EFF396
:10293000108572B60C6844F001040C600260BFF3AD
:102940006F8F436085F3108830BD00BF14000330E3
:10295000282002402C2002500D4B9A6A002A1A4669
:1029600004DBD36A002B0BDB002070470949996018
:1029700001F1883199609B6A002BF2DA01207047DF
:10298000044BD36003F18833D360D06AC00F704723
:102990000020025023016745084B9A6A42F000422A
:1029A0009A629A6A002ABFBFDA6A002042F00042A7
:1029B000DA62ACBF0120DB6A704700BF0020025022
:1029C000064B986A10F0804007D0054A1A6102F160
:1029D00044321A61986AC0F3807070470020025038
:1029E0003B2A1908034A0120936A43F0006393626B
:1029F000704700BF00200250F8B51A4F0446FDF79B
:102A0000FBFF3D4606197B6ADA031AD4164B174AB8
:102A10009868174931EA200128BF11460A68286AD8
:102A200002F0FA0200F40050024312D0586810433A
:102A3000586093040A6002D54FF400532B620120C2
:102A40000EE0611CDFD0FDF7D7FFB042DBD30320DF
:102A500006E0086810F0010002D0012310460B6068
:102A6000F8BD00BF002002501400033020200240B7
:102A7000242002502DE9F041164C1F4623780546CC
:102A8000012B0E46904623D00123237000234FF4E0
:102A90007A706360FFF7B0FFB0B90F4B0F48A560C5
:102AA00033EA250528BF054642463B463046FFF738
:102AB00035FF4FF47A70FFF79FFFA2682B6822F072
:102AC000004223EA02032B6000232370BDE8F0815B
:102AD0000220FBE7140003302C2002502820024083
:102AE00010B5EFF3108172B6124B134A9C68134B6A
:102AF00033EA240328BF1346114A126C520212D53E
:102B0000C40742BF1A6842F004021A60820703D564
:102B10001A6842F400421A601A6842F480321A605D
:102B200081F3108810BD1A6842F4004242F004029A
:102B3000F1E700BF14000330282002402C2002508F
:102B400000200250F8B5964E05463378012B00F070
:102B500024810123337000234FF47A707360FFF7F0
:102B60004BFF002840F0DB802868C1070DD5D5E970
:102B70000124012AE9688B4B40F0D4809A6D22F041
:102B80007F12224342EA01429A65820706D5854AAE
:102B90002969136C23F0FF030B431364430779D5B2
:102BA000D5E9054114F001030EBF1A464FF4E06267
:102BB00001F4E063A70742BF01F480573B4342F4AE
:102BC0008052670742BF01F400573B4342F4005272
:102BD000270742BF01F480473B4342F48042E706A7
:102BE00042BF01F480373B4342F48032A70642BF24
:102BF00001F400373B4342F40032670642BF01F460
:102C000080273B4342F48022270642BF01F400277D
:102C10003B4342F40022E70542BF01F480173B43E7
:102C200042F48012A70542BF01F400173B4342F46F
:102C30000012270542BF01F080773B4342F08072CB
:102C4000E70442BF01F000773B4342F00072A70463
:102C500042BF01F080673B4342F08062670442BF9D
:102C600001F000673B4342F00062270442BF01F0DD
:102C700080573B4342F08052E4034A4C44BF01F08A
:102C800000410B43216C48BF42F0004221EA02029E
:102C900013432364C30624D5D5E90714D5E909EC09
:102CA00011F001073F4B5CD01A6D5B6D11F0100FF6
:102CB0001EBF44EA0E4422F07F1222438C0644BF1A
:102CC00023F4FE0343EA0C430C0648BF43F00043E1
:102CD000CC0548BF23F00043324C002F48D022657A
:102CE0006365820606D52F4AE96AD36C23F0010397
:102CF0000B43D364030709D5D5E90C21012A294BDD
:102D00003BD15A6C02F07F020A435A64254A4FF4C1
:102D10007A70936A43F400339362FFF76DFE0023E9
:102D20003370F8BD022A07D1DA6D22F07F122243F8
:102D300042EA0142DA6528E7042A07D19A6E22F0B6
:102D40007F12224342EA01429A661EE7082A7FF474
:102D50001CAFDA6E22F07F12224342EA0142DA66A9
:102D600013E711F0020216BF1A6E13465B6E9DE761
:102D7000890744BF22666366B3E7022A05D19A6CCD
:102D800002F07F020A439A64C0E7042A01BFDA6CAA
:102D900002F07F020A43DA64B8E70220C1E700BF0D
:102DA00014000330002002500623426810B5082AA0
:102DB000036011D84FF48B73D340DB070CD5072386
:102DC000012A0360394B4ED19A6D02F07F02826076
:102DD0009B6DC3F30643C360344A136CDBB2AA2B6A
:102DE00004D0552B02D0CC2B18BFBB230361136C2E
:102DF00023F0FF038361C369591E01291AD80168B2
:102E0000012B41F0100101600BBF116D116E526D6D
:102E1000526E01F07F04002AC1F306414162A8BF4F
:102E200043F48073C2F30641B8BF43F080030462E9
:102E30008162C36101681D4A41F020030360D36CC5
:102E400003F00103C362036B5C1E012C01D9042B48
:102E500008D141F02801012B01601CD1536C23F0F3
:102E60007F03436310BD022A05D1DA6D02F07F02B1
:102E70008260DB6DADE7042A05D19A6E02F07F0215
:102E800082609B6EA5E7082AA6D1DA6E02F07F0267
:102E90008260DB6E9DE7022B02D1044B9B6CDEE768
:102EA000042BDFD1014BDB6CD9E700BF00200250BF
:102EB000044AD2F8C43023F001030343C2F8C430FB
:102EC000704700BF0020025030B5EFF3108472B697
:102ED000134B144A9D68144B33EA250328BF13464D
:102EE000124A126C12F4800F1A6813D122F4006295
:102EF0001A601A6822F47E7222F0020242EAC002CC
:102F000042F002021A601A6842F480321A6084F3B6
:102F1000108830BDC907E9D442F40062E8E700BF79
:102F200014000330282002402C20025000200250C0
:102F30002DE9F843264D06462B788946012B45D0CE
:102F400001232B7000234FF47A706B60FFF754FD60
:102F50000446F0B933681F4A1F49AB6031EA2308C1
:102F600028BF904648F2040223F00043934215D153
:102F70007068FFF7B5FD4FF47A70FFF73DFD04462A
:102F8000AA68D8F8003022F0004223EA0203C8F809
:102F9000003000232B702046BDE8F8834FF0FF334C
:102FA000C9F80030B768D6E902321344BB42E7D90A
:102FB00038467168FFF788FF4FF47A70FFF71CFD01
:102FC00010B1C9F80070DAE70137ECE70224E2E754
:102FD00014000330282002402C200250024B1868B5
:102FE00000F4C060704700BF00700050024A536890
:102FF00043F400735360704700700050034A9368B5
:1030000023F4407303439360002070470070005026
:103010004FF48070FFF7F2BF064B1B6913F480502A
:1030200005D113F4004F08BF4FF4004070474FF430
:103030008050704700700050174A10B50146146860
:10304000FFF7EAFFB0F5004F24D0D3681B0421D46A
:1030500004F4C0648C4201D1002010BD136823F435
:10306000C0630B4313600D4B0D491B68B3FBF1F1BB
:1030700032234B430A21B3FBF1F31146013350696C
:10308000400500D523B94B695B05E5D50320E4E78E
:10309000013BF4E70120E0E7007000500C00033032
:1030A000A086010037B51A4C0546A36DDB0015D587
:1030B000FFF794FF30F4007320D1312D28BF022395
:1030C00014490A6822F00F021A430A60086800F0E7
:1030D0000F00C01A18BF012003B030BDA36D43F02C
:1030E0008053A365A36D03F080530193019BFFF709
:1030F00075FFA36D23F08053A365DBE7302D02D865
:1031000003D10223DCE70323DAE70023D8E700BF7B
:103110000010025000200250244A9368D16813F036
:103120000C0305D00C2B16D101F00301012919D194
:103130001168090754BFD2F8942012681C4954BF83
:10314000C2F30322C2F3031251F8220013B10C2B75
:1031500009D000207047042B26D0082B154818BF33
:10316000002070470020114AD168D36801F00301A4
:10317000C3F30313022903F1010305D0032903D08C
:10318000D268C2F3062203E0D2680A48C2F30622DC
:10319000B0FBF3F0054B5043DB68C3F341630133ED
:1031A0005B00B0FBF3F0704702487047001002501C
:1031B000ACA1000C0024F40008B5FFF7ADFF044BF0
:1031C000044A9B68C3F30313D35CD84008BD00BF17
:1031D0000010025092A1000C2DE9F3410446002892
:1031E0005AD09D4B02689D68DE68D70605F00C0535
:1031F00006F0030671D51DB10C2D4FD1012E4DD116
:103200001B68980702D5E369002B45D0924A606A93
:103210001368190756BFD2F8943013681B0903F0DE
:10322000F003984222D9FFF73DFF002834D18A4BA2
:103230001A6842F008021A601A68616A22F0F00205
:103240000A431A605A68216A22F47F4242EA012244
:103250005A60FFF7B1FF814B1860814B1868FDF78A
:10326000BDFB002839D002B0BDE8F081136843F0FF
:1032700008031360136823F0F003034313605368DB
:10328000216A23F47F4343EA01235360002DE0D1F8
:10329000FFF708FF0028DCD00120E4E7E269002AFC
:1032A0003FD01A686C4F42F001021A60FDF7A4FB90
:1032B00080463B689B0729D53B6843F008033B6089
:1032C0003B68626A23F0F00313433B607B68226A29
:1032D00023F47F4343EA02237B602368DA0737D471
:1032E00023689B0700F1828023681D0700F1D080CE
:1032F0002368580700F10F8123689B0600F1D781EE
:10330000E06A002840F00C820020ACE7FDF774FB77
:10331000A0EB08000228CCD93B689A07C9D4032047
:10332000A1E71A68DFF8308122F001021A60FDF788
:1033300063FB0746D8F800309907CED5FDF75CFB54
:10334000C01B0228F6D9D8F800309807E7D4F1E777
:10335000082D414B03D00C2D08D1032E06D11B683C
:103360009F03BDD56368002BBAD195E76268B2F5BB
:10337000803F16D11A6842F480321A60FDF73CFB98
:103380000746DFF8D480D8F800309903A8D4FDF7B9
:1033900033FBC01B6428F6D9D8F800309803BED59B
:1033A000F1E7B2F5A02F04D11A6842F480221A6026
:1033B000E0E7196821F480311960196821F480214F
:1033C0001960002ADAD1FDF717FB0746DFF888807D
:1033D000D8F800309B0383D5FDF70EFBC01B642893
:1033E000F6D9D8F800309A0399D4F1E7042D1A4B96
:1033F00003D00C2D11D1022E0FD11B68580503D517
:10340000E368002B3FF448AF134A2169536823F067
:10341000FE4343EA0163536066E7E26812B31A6849
:103420000D4D42F480721A60FDF7E6FA06462B68ED
:103430005A0507D56B68226923F0FE4343EA02630D
:103440006B6051E7FDF7D8FA801B0228EFD92B6893
:1034500059057FF564AFEAE7001002500C00033015
:10346000100003301A68AC4E22F480721A60FDF727
:10347000C3FA054633685F057FF536AFFDF7BCFA42
:10348000401B0228F6D933685B053FF548AFF1E7EA
:103490006369A14D33B3A369FBB9D5F8943023F028
:1034A0001003C5F89430D5F894309B4E43F00103D7
:1034B000C5F89430FDF7A0FA0546D6F894309A077F
:1034C0003FF516AFFDF798FA401B0728F5D9D6F857
:1034D000943099077FF523AFEFE7D5F8943043F0A8
:1034E0001003DEE7D5F8943023F00103C5F89430DB
:1034F000FDF782FA0646D5F894309F077FF5F8AEBF
:10350000FDF77AFA801B0728F5D9D5F894309B0788
:103510003FF505AFEFE7804B9A6DD00046D4012709
:103520009A6D42F080529A659B6D03F0805301932F
:10353000019B7A4D2B68D9053AD5A368764D13F0D7
:10354000010F49D1D5F8902022F00102C5F8902052
:10355000D5F8902022F00402C5F89020002B4AD123
:10356000FDF74AFA41F288380646D5F890309B07B5
:1035700000F19180D5F89030180657D541F288387F
:10358000D5F8903023F08003C5F89030624DD5F81F
:1035900090301A054AD5FDF72FFA801B4045F6D921
:1035A000D5F8903019053FF5BAAEF0E70027C0E72F
:1035B0002B6843F480732B60FDF71EFA06462B68D8
:1035C000DB05BAD4FDF718FA801B0228F7D92B685F
:1035D000DA057FF5A4AEF2E713F0040FD5F89030CA
:1035E0001EBF43F00403C5F89030D5F8903043F087
:1035F0000103C5F89030FDF7FFF941F2883806461F
:10360000454DD5F89030990719D5A36813F0800F70
:10361000D5F8903029D041F2883843F08003C5F8BE
:1036200090303D4DD5F890301B0513D5002F3FF459
:1036300063AE394A936D23F0805393655CE6FDF7E2
:10364000DBF9801B4045DCD9D5F8903098077FF531
:1036500066AED6E7FDF7D0F9801B4045E2D9D5F834
:1036600090301A057FF55BAEDCE741F2883823F035
:103670008003C5F89030284DD5F890301905D5D580
:10368000FDF7BAF9801B4045F6D9D5F890301805FA
:103690003FF545AEF0E7FDF7AFF9801B40457FF6FB
:1036A00064AFD5F890309A073FF539AE5DE7A36A6D
:1036B000194DC3B1D5F8983043F00103C5F89830DF
:1036C000FDF79AF90646D5F8983098073FF518AEF9
:1036D000FDF792F9801B0228F5D9D5F898309F079D
:1036E0007FF51DAEEFE7D5F8983023F00103C5F85C
:1036F0009830FDF781F90646D5F898309A077FF59E
:10370000FFADFDF779F9801B0228F5D9D5F898307F
:1037100099073FF504AEEFE700100250007000502B
:10372000514DAB6803F00C030C2B69D02B680228B9
:1037300023F080732B6043D1FDF75EF906462B68BA
:103740009F0133D4EA68494B1340226B1343A26BA9
:1037500043EA0223E26B43EAC263626B013A43EA43
:103760000213226C5208013A43EA4253626C520837
:10377000013A43EA4263EB602B6843F080732B60AD
:10378000EB6843F08073EB60FDF736F90446364D85
:103790002B6899013FF5B8ADFDF72EF9001B022803
:1037A000F6D92B6898017FF5BAADF1E7FDF724F95A
:1037B000801B0228C3D92B689B013FF5B0ADBEE743
:1037C0002B68294C13F0205F02BFEB6823F0030342
:1037D000EB60E36823F0887323F48033E360FDF744
:1037E0000BF9054623689B017FF58EADFDF704F9C3
:1037F000401B0228F6D923689A013FF590ADF1E706
:1038000001283FF430ADEB68226B03F003019142D5
:103810007FF442AD616B03F0F0020139B2EB011F9E
:103820007FF43AADA16B03F4FE42B2EB012F7FF4BB
:1038300033ADE16B03F07842B2EBC16F7FF42CAD96
:10384000226C03F4C0015208013AB1EB425F7FF4ED
:1038500023AD626C03F0C0635208013AB3EB426FD0
:103860003FF452AD18E500BF001002500C809F01DC
:103870002DE9F8430D46044610B90120BDE8F88350
:10388000764A136803F00F038B422CD3216811F0A2
:10389000010733D12168880740F1C380704AA068CE
:1038A000936823F0F003034393606C4A136803F0BA
:1038B0000F03AB4200F2BD804A0700F1C6800B0740
:1038C00007D5674A2169936823F4605343EAC1032B
:1038D0009360FFF771FC634B1860634B1868BDE899
:1038E000F843FDF77BB8136823F00F030B43136015
:1038F000136803F00F038B42BFD1C7E76268584BD0
:10390000032A73D11A689201B7D5DA6802F003026C
:10391000012A21D11A68170754BFD3F894301B68C5
:10392000524A54BFC3F30323C3F3031352F82320B3
:103930004B4EF768F36807F00307C3F30313022F36
:1039400003F101000AD0032F08D0B2FBF0F3F668B0
:10395000C6F30626734308E00022E9E7444BF26809
:10396000B3FBF0F3C2F3062253433D48C268C2F3EF
:10397000416201325200B3FBF2F33E4A934223D834
:103980000027374E6268B36841F2883923F0030399
:103990001343B360FDF730F88046B368626803F004
:1039A0000C03B3EB820F3FF475AFFDF725F8A0EBE6
:1039B00008004845F1D9B368626803F00C03B3EB23
:1039C000820FEAD0032059E7836813F0F00F07D184
:1039D000836823F0F00343F0800383608027D0E7FF
:1039E0008E07CDD5A368002BCAD1F1E7022A1B6848
:1039F00010D113F4003F3FF440AFFFF78DFB1D4B98
:103A00009842BDD9164A936823F0F00343F080032F
:103A10009360E3E712B913F0020FECE713F4806F41
:103A2000E9E7802F7FF441AF0D4A936823F0F0035C
:103A30003AE7136823F00F032B431360136803F076
:103A40000F03AB427FF419AF36E7054AE06893688D
:103A500023F4E0630343936031E700BF002002508A
:103A6000001002500C00033010000330ACA1000C19
:103A70000024F40000B4C40408B5FFF79DFB044B18
:103A8000044A9B68C3F30223D35CD84008BD00BF3F
:103A900000100250A2A1000C08B5FFF78DFB044BEB
:103AA000044A9B68C3F3C223D35CD84008BD00BF5F
:103AB00000100250A2A1000C07490302CA6803F4D7
:103AC000E06322F4E0621204120C134343F0BF637C
:103AD00043F40033CB60704700ED00E0BFF34F8F3D
:103AE0000549064BCA6802F4E0621343CB60BFF39A
:103AF0004F8F00BFFDE700BF00ED00E00400FA05B6
:103B000000232DE9F04F5F4CDFF88081DFF88091D2
:103B10000A6832FA03F501D1BDE8F08F4FF0010CCD
:103B20000CFA03FC1CEA020200F09D8003264D689B
:103B30004FEA430E25F0100A0AF1FF3706FA0EF697
:103B4000012F6FEA060611D8876807EA060BCF68CF
:103B500007FA0EF747EA0B078760476827EA0C0C5D
:103B6000C5F300179F4047EA0C074760C768BAF1E2
:103B7000020F07EA060C8F6807FA0EF747EA0C07F0
:103B8000C76016D14FF00F0C4FEAD30A00EB8A0A38
:103B900003F0070BDAF820704FEA8B0B0CFA0BFCE2
:103BA00027EA0C0C0F6907FA0BF747EA0C07CAF86B
:103BB000207007683E4005F0030707FA0EFE4EEA44
:103BC00006060660EE004ED54FF00F0C23F00307FB
:103BD00007F1A04707F53D3703F0030E3E6E4FEAAD
:103BE000CE0E0CFA0EFC26EA0C0C274EB0423CD04E
:103BF00006F58066B0423AD006F58066B04238D00D
:103C000006F58066B04236D006F58066B04234D004
:103C1000404534D048450CBF0626072606FA0EF666
:103C200046EA0C063E66D743D4F8806015F4803F20
:103C30000CBF3E401643C4F88060D4F8846015F48D
:103C4000003F0CBF3E401643C4F88460266815F45C
:103C5000801F0CBF3E40164326606668AD0254BF0D
:103C60003E4016436660013352E70026D6E7012640
:103C7000D4E70226D2E70326D0E70426CEE70526BE
:103C8000CCE700BF00F402500000025200140252C0
:103C90000018025220F08050B0F1005F30B502D021
:103CA000194B98422DD10A6832F0004329D14D6852
:103CB00035F0804425D11543144AB0F1005F144B10
:103CC00008BF13461A6818BF082022F0404242EA93
:103CD00005021A6012BF6FF0FF024FF07F421820FA
:103CE0001D6908312A400D6E2A431A6104F1400211
:103CF00051F8045B0134A04243F82250F6D1002071
:103D000030BD0120FCE700BF00000320002C035061
:103D10000030035020F08050B0F1005F10B521D08A
:103D2000134B984222D14FF48033124802685B0B48
:103D300002F080444C604FF0FF3402F000420A6011
:103D400002699C4022EA04028A660022083102F1DC
:103D5000400450F824400132934241F8044BF6D11C
:103D6000002010BD4FF440330348DFE70120F8E79F
:103D70000000032000300350002C035073B50446AC
:103D8000019100211C4D914221D2019B1B686B6067
:103D9000019B94F8360004330128019301F10403D8
:103DA00027D1934225D26E6AF60722D5002594F8D2
:103DB0002D3084F83650022B01D0042B09D1019B01
:103DC000043A521AE3602262082384F83530002056
:103DD0000DE0032B01D0052B05D1019B043A521AAB
:103DE0006361A262F0E784F8350084F8345002B0D1
:103DF00070BD1946C7E700BF00040C521C2927D02C
:103E000004D8102905D0142911D07047202937D0A3
:103E10007047294BDA6812BA02601A6912BA426016
:103E20005A6912BA82609B691BBAC3607047224B01
:103E3000DA6812BA02601A6912BA42605A6912BA92
:103E400082609A6912BAC260DB691BBA036170476B
:103E5000194BDA6812BA02601A6912BA42605A69DA
:103E600012BA82609A6912BAC260DB69134A1BBA3D
:103E7000036153691BBA436193691BBA836170473D
:103E80000D4BDA6812BA02601A6912BA42605A69B6
:103E900012BA82609A6912BAC260DB691BBA036106
:103EA000064B5A6912BA42619A6912BA8261DB6999
:103EB0001BBAC361704700BF00040C5210070C52BC
:103EC0002DE9F84304460E4691461D46FCF794FD45
:103ED000DFF85C800746B9F1000F20D0D8F8243015
:103EE00036EA030320D16B1CF8D0FCF785FDC01B1C
:103EF000A8420AD8002DF1D107E06A1C0FD0FCF7C8
:103F00007BFDC01BA84200D84DB90123032084F8D3
:103F10003530002384F82C0084F8343005E0D8F8DC
:103F2000243036EA0303E8D10020BDE8F88300BF5F
:103F300000040C527047000038B5044628B390F8CE
:103F4000353003F0FF021BB980F83420FFF7F2FF91
:103F50000020022301210E4A84F83530E0612062FE
:103F600084F82D106062E086A0631368256823F052
:103F700030032B431360136823F40053136084F859
:103F8000351084F82C00E06338BD0120FCE700BF49
:103F900000040C52704738B50546012490B1022345
:103FA00080F82D40002480F83530C461046280F828
:103FB00037404462FFF7EEFF85F8354085F82C4026
:103FC000EC632C64204638BDF8B51E4690F83530B9
:103FD0000446012BD8B201D008287BD101B126B903
:103FE000012584F835502846F8BD94F83430012B6B
:103FF00070D0012594F82D3084F83450AB4247D16D
:104000000227364D84F835702868079B20F4A020DD
:1040100020F0C400184340F004002860A86802F0B3
:10402000030320F01F0040EAC303AB6084F82D7047
:104030002046FFF7A3FE054684F82C000028D2D1C5
:1040400094F83530082B3DD0244F0246BB6802213E
:1040500043F48073BB602046069BFFF731FF0028C6
:104060003AD13A681E4B1A4230D03A681A40B2F53B
:10407000802F2DD03A6893430CBF20211021304669
:10408000FFF7BCFE012384F8353084F82D3019E0A9
:10409000022B15D194F83530082B1DBF0F4D02F0BF
:1040A0000303A868226A1EBF20F01F0040EAC30372
:1040B000AB604FF0020308BFE16884F83530B7E722
:1040C00084F83550002384F834308CE71421D6E787
:1040D0001C21D4E7022586E7032584E700040C525F
:1040E0008000040070B590F8355004469007EDB29A
:1040F0003ED1012D01D0082D3CD101B11AB90120CA
:1041000084F8350070BD94F83400012832D00120C5
:1041100084F8340094F8350008284FF0020084F841
:10412000350013D1E168226A2046FFF727FE84F8A4
:104130002C000028E6D194F83530082B1CBF012351
:1041400084F83530002384F83430DBE794F82D0010
:10415000012809D1084E306820F4A02020F0C400C6
:10416000184340F004003060022384F82D30DBE770
:104170000120C7E70220C5E700040C5213B54FF435
:1041800080240194049C0094FFF71EFF02B010BD30
:104190004FF48023FFF7A6BFFFF7F0BF13B5044C21
:1041A0000194049C0094FFF70FFF02B010BD00BF04
:1041B00080000400014BFFF795BF00BF80000400A2
:1041C000FFF7ECBF30B5A9B01B4CD4E84F3F01332B
:1041D000DBB2C4E8453F002DF7D1012B0AD84FF4DC
:1041E000802303934FF0406303A8229300F054FC14
:1041F00018B125704FF0FF3018E0104B104DDA6CFD
:1042000042F48022DA64DB6C287203F48023029388
:10421000029B0C4B687228462B6001F099FB044608
:1042200030B9284601A901F073FC204629B030BD01
:104230006FF00100FAE700BF0C35033000100250A8
:10424000F834033000080C5208B5064801F0E3FBCF
:10425000054AD36C23F48023D3640022034B1A70E5
:1042600008BD00BFF8340330001002500C35033095
:1042700008B5FCF749FD003818BF012008BD002033
:10428000704700207047000037B5084C63699847B5
:1042900048B9E56AA847C307FCD4236A019303B071
:1042A000BDE830401847002003B030BDACA6000C7C
:1042B00008461146FFF7E8BF10B5114C0020A3686F
:1042C000984728B15B210F4B0F4A104803F090FC30
:1042D00002202369984718B15E210A4B0A4AF4E785
:1042E0004FF4E1310120A46AA04718B16221054BC7
:1042F000054AEAE72346BDE810400121152018478A
:10430000ACA6000C34A6000C8EA6000C49A6000C2E
:1043100010B5074C002023699847E368984728B1F7
:104320006F21044B044A054803F062FC10BD00BF36
:10433000ACA6000C34A6000C99A6000C49A6000CF3
:10434000F0B5A3B00D4601A9064600F0C7F8044633
:1043500000BB019B802B28BF8023B5EBC30F0193CB
:104360001ED802AF80220146384603F005FEFF2228
:10437000EB08A34211D105F00701012522AB8D40C6
:104380001C443A4630460199013D04F8805C00F037
:104390007BF90446204623B0F0BD3A550134E8E7E6
:1043A00045F2A354F6E7F0B5A3B00D4669460646BC
:1043B00000F094F80446D8B9009902AF802928BFCC
:1043C00080213A463046009100F0B8F8044678B9AA
:1043D000014603460246DDF800C0019063450AD15C
:1043E00002B10191042228460DEB020103F0E6FC24
:1043F000204623B0F0BD0020FA5C42FA00F60130FE
:1044000006F0010608283144F7D101220133E5E71F
:10441000002070470B46042B11460FD103380328A8
:104420000FD8DFE800F0020507091020FFF7BBBF37
:104430001120FBE71220F9E71320F7E743F65C2091
:1044400070474CF25A307047C31E37B505460C46CC
:10445000032B1BD8DFE803F0021416181020FFF717
:104460006FFF58B90421284601AAFFF7D3FF28B9E6
:1044700043F65C23019A944218BF184603B030BD3E
:104480001120ECE71220EAE71320E8E74CF25A305B
:10449000F4E737B514460A462168054600F04EF8A1
:1044A00030B9284601A900F019F808B9019B23602A
:1044B00003B030BD03280CD8DFE800F0020507097F
:1044C0000C20FFF7E6BF0D20FBE70E20F9E70F20D9
:1044D000F7E74AF2C530704701F0AEBC1E2819D884
:1044E000DFE800F010181014141010141010101041
:1044F0001010101016161616181818181818181864
:1045000018161000202300200B6070470423FAE7E0
:104510004023F8E74CF25A30704737B50C4601A9F2
:104520001D46FFF7DBFF38B9019B29469A4228BF99
:104530001A46204601F09AFB03B030BD13461E28F0
:1045400070D8DFE800F0106F15191D2125292D31D5
:1045500035393D42474C51565B606F6F6F6F6F6FDF
:104560006F6F6F656A000A4600200421FFF7D5BF10
:104570000A4602202421F9E70A4603204421F5E7F0
:104580000A4604204821F1E70A4605204C21EDE7C0
:104590000A4606206C21E9E70A4607208C21E5E758
:1045A0000A4608209021E1E70A460920B021DDE70C
:1045B0000A460A20D021D9E70A460B20F021D5E788
:1045C0000A460C204FF48871D0E70A460D204FF4BC
:1045D0009871CBE70A460E204FF41471C6E70A46DD
:1045E0000F204FF41C71C1E70A4610204FF4A87148
:1045F000BCE70A4611204FF4C871B7E70A461220FB
:104600004FF4E871B2E70A4613204FF40471ADE7A6
:104610000A461D204FF42471A8E70A461E204FF4D5
:104620003471A3E74CF25A3070472DE9F0411E4631
:1046300082B0D31D23F0070300AF0D46ADEB030D91
:10464000391D1446E846FFF749FF20B97B689342BD
:1046500005D24AF2C5300837BD46BDE8F08169464B
:10466000284601F003FB0028F5D1A04205D10246FF
:104670003146284601F036FBEDE7325C18F8003091
:104680009343E6D10130F0E713461E2870D8DFE8E7
:1046900000F0106F15191D2125292D3135393D42A6
:1046A000474C51565B606F6F6F6F6F6F6F6F6F65C9
:1046B0006A000A4600200421FFF7B7BF0A4602201D
:1046C0002421F9E70A4603204421F5E70A4604209D
:1046D0004821F1E70A4605204C21EDE70A4606206D
:1046E0006C21E9E70A4607208C21E5E70A46082005
:1046F0009021E1E70A460920B021DDE70A460A20B9
:10470000D021D9E70A460B20F021D5E70A460C2034
:104710004FF48871D0E70A460D204FF49871CBE72B
:104720000A460E204FF41471C6E70A460F204FF4D4
:104730001C71C1E70A4610204FF4A871BCE70A4675
:1047400011204FF4C871B7E70A4612204FF4E87100
:10475000B2E70A4613204FF40471ADE70A461D2064
:104760004FF42471A8E70A461E204FF43471A3E7E2
:104770004CF25A3070470000064B82B01868002394
:1047800082B262F30F03000C60F31F43184602B0BD
:10479000704700BFA6A6000C01207047002070479C
:1047A000002070476FF00300704700207047002022
:1047B0007047002382B00193019802B070476FF0F8
:1047C00003007047002382B00193019802B0704744
:1047D00010B50C46014630B12CB10448A2B201F02C
:1047E0008FF8204610BD6FF00400FBE71035033052
:1047F0000A4608B5014640B13AB14FF47A7304480D
:1048000092B200F052FF002008BD6FF00400FBE7F9
:104810001035033030B52C4C8BB0E36C082543F0D9
:104820004003E364E36C03F040030193019BA36D39
:1048300043F08053A365A36D03F080530293029B62
:10484000FEF7D4FBE36C802243F04003E364E36CA7
:1048500005A903F040030393039BE36D43F00103B9
:10486000E365E36D194C03F001030493049B0223F9
:10487000CDE9052308930123204607930995FFF707
:104880003FF94FF48073204605A905930995FFF77A
:1048900037F94FF4E1330E480E490C22C0E90013FA
:1048A0000023C0E905234FF40042C0E90233C0E908
:1048B00007230361436200F088FF003818BF01201E
:1048C00040420BB030BD00BF001002500018025231
:1048D000103503300080005000207047F8B50446C2
:1048E00000680F46022832D0032837D0012833D180
:1048F000374B1B689D0737D5354D2B6823F08063F8
:104900002B60FCF779F806462B68190107D5FCF7F0
:1049100073F8801B0228F7D92B68180123D4A368E9
:10492000D4F800C01E0263682948013B1D01E7B1AD
:10493000012F3FD10369274A27691A4042EA0C0335
:104940007F083343013F2B4343EA475317E0204B93
:104950001B6813F4806FCFD1012005E01C4B1B684E
:1049600013F4C02FF7E70320F8BD03691A49194073
:1049700041EA0C03E168334343EAC1632B43144D1E
:1049800003612B6843F080632B60FCF735F8064623
:104990002B681B0107D4FCF72FF8801B0228F7D9DE
:1049A0002B681A01DFD50A4AA169136900200B435D
:1049B0001361D9E70269094B1340626943EA0C03AA
:1049C000334352082B43013A43EA4263D7E700BF1F
:1049D000001002500C809FFF0C80FF070C80FFF935
:1049E00070B504460068022844D0032849D0012845
:1049F00045D1274B1B689D0749D5254D2B6823F0D2
:104A000080532B60FBF7F8FF06462B68990007D50B
:104A1000FBF7F2FF801B0228F7D92B68980035D4EA
:104A20001B4D1C4B6A69134022681343A26843EA7A
:104A30000223E26843EAC2636268013A43EA02136E
:104A40006B612B6843F080532B60FBF7D5FF064664
:104A50002B689B0007D4FBF7CFFF801B0228F7D9F8
:104A60002B689A0012D50A4A2169536900200B432A
:104A700053610CE0064B1B6813F4806FBDD101201D
:104A800005E0034B1B6813F4C02FF7E7032070BD4C
:104A9000001002500C80FF072DE9F347056804461B
:104AA00015F4006507D0C16E402923D013D839B35F
:104AB00020292CD001252368DB040AD5216FB1F50C
:104AC000007F30D027D8A1B3B1F5807F00F03C81C2
:104AD00001252E463DE0602901D08029EAD1A84A6F
:104AE000E16ED2F89C30002523F0E0030B43C2F8BE
:104AF0009C30E0E7A24AD36843F48033D360EEE70A
:104B00000430FFF7EBFE05460028D4D1E7E720305C
:104B1000FFF766FFF7E7B1F5407F02D0B1F5806F90
:104B2000D6D12E4609E0964AD36843F48033D36049
:104B3000F7E7201DFFF7D2FE0646002E40F0098160
:104B40008F4A216FD2F89C3023F4E0630B43C2F804
:104B50009C3023689F0330D5894B9A6DD00000F1BB
:104B6000FA804FF001089A6D42F080529A659B6D71
:104B700003F080530193019B824F3B6843F48073A1
:104B80003B60FBF739FF81463B68DA0509D4FBF748
:104B900033FFA0EB09000228F6D93B68D90540F1A4
:104BA0001E81002E00F0DA803546B8F1000F04D0E7
:104BB000734A936D23F0805393652368DA0708D511
:104BC0006F49606BD1F8882022F003020243C1F8DC
:104BD00088209F0708D56A49A06BD1F8882022F069
:104BE0000C020243C1F88820580708D56449E06BDD
:104BF000D1F8882022F030020243C1F8882019073A
:104C000008D55F49206CD1F8882022F0C002024309
:104C1000C1F88820DA0608D55949606CD1F8882097
:104C200022F440720243C1F888209F0608D55449F7
:104C3000A06CD1F8882022F440620243C1F8882099
:104C4000980508D54E49E06DD1F8882022F440221D
:104C50000243C1F88820590508D54949206ED1F88A
:104C6000882022F440120243C1F888205A0208D555
:104C70004349606ED1F8882022F440020243C1F813
:104C800088209B010CD5A36EB3F1807F00F0AA8031
:104C9000B3F1007F00F0B680002B00F0A880012562
:104CA00023685F0608D53649E06CD1F8882022F4E5
:104CB00040520243C1F888201E0608D53049206DB5
:104CC000D1F8882022F440420243C1F88820D80558
:104CD00008D52B49606DD1F8882022F44032024378
:104CE000C1F88820D90208D52549A06DD1F89C20AB
:104CF00022F003020243C1F89C209A0410D5204AF6
:104D0000616FD2F88830B1F1006F23F0406343EA5D
:104D10000103C2F888307DD1D36843F48013D36097
:104D200023681B0340F19980A16F154BB1F5804FAB
:104D30007BD1D3F89C2042F48042C3F89C20DA68EF
:104D400042F48032DA6088E004F12000FFF748FE88
:104D5000F2E63546FDE64FF000080DE7084FD7F8BC
:104D6000903013F440730FD1054AD4F89010D2F864
:104D7000903023F440730B43C2F8903015E700BF26
:104D80000010025000700050D4F890209342EBD0F5
:104D9000D7F89020D7F8903022F4407143F4803354
:104DA000C7F89030D7F8903023F48033C7F89030AC
:104DB000D307C7F89010D7D5FBF71EFE41F2883A0B
:104DC0008146D7F890309907CED4FBF715FEA0EBBB
:104DD00009005045F5D9D7F890309807C4D4032579
:104DE0002E46E2E6544AD36843F48013D3607EB97A
:104DF000514AA16ED2F8883023F040730B43C2F8B9
:104E000088304DE70021201DFFF768FD0646EEE7DC
:104E1000354645E7B1F1806F82D10121201DFFF7B2
:104E20005DFD002818BF05467AE7D3F88820B1F168
:104E3000806F22F0406242EA0102C3F88820D3F872
:104E40009C2022F48042C3F89C206ED10121201DB9
:104E5000FFF744FD002818BF054623685F0310D5FF
:104E6000354AE16FD2F88830B1F1006F23F040632A
:104E700043EA0103C2F888304CD1D36843F480136D
:104E8000D36023685E0414D52B49D4F88020D1F870
:104E90008830B2F1805F23F0405343EA0203C1F847
:104EA000883006D10221201DFFF718FD002818BF09
:104EB00005462268D00309D51F49D4F88400D1F8EB
:104EC0009C3023F004030343C1F89C30910209D5C0
:104ED0001949D4F88800D1F89C3023F01803034313
:104EE000C1F89C30D30111D5134AD4F88C10D2F8F4
:104EF0009C30B1F5001F23F4401343EA0103C2F8CC
:104F00009C3003D1D36843F48013D360284602B0A9
:104F1000BDE8F087B1F1806FB3D10121201DFFF70B
:104F2000DDFC002818BF0546ABE7B1F1006F94D156
:104F3000DA6842F4801205E70010025070477047AB
:104F400070477047D0F8882010B5222A04460368BD
:104F500030D15B6A90F86010826D0B401370836DE6
:104F600001338365B0F85E30013B9BB2A0F85E3040
:104F7000B0F85E2092B2CAB90368196821F4907142
:104F80001960996821F0010199602021C0F888100A
:104F90000267C26E012A0AD11A68B0F85C1022F0CA
:104FA00010021A60FFF7CDFF0023E36610BDFFF784
:104FB000C6FFF9E79A6942F008029A61F6E7D0F86D
:104FC000882010B5222A044603682ED1596AB0F809
:104FD00060201140826D22F8021B8265B0F85E20CD
:104FE000013A92B2A0F85E20B0F85E2092B2C2B947
:104FF000196821F490711960996821F00101996094
:105000002021C0F888100267C26E012A0AD11A68EE
:10501000B0F85C1022F010021A60FFF792FF002334
:10502000E36610BDFFF78BFFF9E79A6942F00802CB
:105030009A61F6E72DE9F84F03680446DD69D3F875
:1050400000909E68D0F88820222A40F085800027B2
:10505000B0F86080B0F868A0DFF80CB106F0010687
:10506000BAF1000F01D0AB0614D4B4F85E309BB295
:1050700073B1B4F868209A420AD923689A6822F07A
:1050800080529A60374A22671A6842F020021A60FA
:10509000BDE8F88F2368A26D5B6A03EA080313700A
:1050A000A36D0133A365B4F85E30013B9BB2A4F855
:1050B0005E302368DD696A072AD0E8070AD519F44B
:1050C000807F07D001221A62D4F88C2042F00102BE
:1050D000C4F88C20A90708D53EB102221A62D4F880
:1050E0008C2042F00402C4F88C206A0708D53EB137
:1050F00004221A62D4F88C3043F00203C4F88C30D6
:10510000D4F88C3023B12046FFF71AFFC4F88C7016
:10511000B4F85E2092B2002AA2D12368196821F463
:1051200080711960996801EA0B0199602021C4F827
:1051300088102267E26E012A0AD11A68204622F0FE
:105140001002B4F85C101A60FFF7FBFEE76687E711
:105150002046FFF7F4FEF9E79A6942F008029A61E7
:1051600096E700BF454F000CFEFFFFEF2DE9F84F1B
:1051700003680446DD69D3F800909E68D0F8882063
:10518000222A40F083800027B0F86080B0F868A041
:10519000DFF808B106F00106BAF1000F01D0AB0646
:1051A00014D4B4F85E309BB273B1B4F868209A425C
:1051B0000AD923689A6822F080529A60364A226798
:1051C0001A6842F020021A60BDE8F88F2368A26DC9
:1051D000596A08EA010122F8021BA265B4F85E20B0
:1051E000013A92B2A4F85E20DD696A072AD0E80786
:1051F0000AD519F4807F07D001221A62D4F88C20D6
:1052000042F00102C4F88C20A90708D53EB1022261
:105210001A62D4F88C2042F00402C4F88C206A0789
:1052200008D53EB104221A62D4F88C3043F0020350
:10523000C4F88C30D4F88C3023B12046FFF780FEC0
:10524000C4F88C70B4F85E2092B2002AA4D123680E
:10525000196821F480711960996801EA0B0199605D
:105260002021C4F888102267E26E012A0AD11A6848
:10527000204622F01002B4F85C101A60FFF761FEBD
:10528000E76689E72046FFF75AFEF9E79A6942F098
:1052900008029A6198E700BFBF4F000CFEFFFFEFC6
:1052A000F8B504462169A26803680A4361691D686C
:1052B000C0690A43A149024329400A431A605A6857
:1052C000E16822F440520A435A609D4AA169934220
:1052D0001CBF226A11439A6822F06E4222F43062A7
:1052E0000A439A60DA6A616A22F00F020A43DA62BC
:1052F000944A93421BD1944BD3F8883003F00303B4
:10530000013B022B00F2EA80904AB0F5004FD35CDB
:1053100040F0AC80082B26D8DFE813F0EF00E30064
:10532000A6002500E900250025002500F300884A95
:10533000934206D1844B874AD3F8883003F00C039C
:10534000E3E7854A934219D17F4BD3F8883003F0C5
:105350003003202B00F0BD8007D8002B00F0CA805E
:10536000102B00F0C18001204FE0302BFBD1B0F5B5
:10537000004F00F0C6804FF4004093E0774A93421C
:105380000FD1714BD3F8883003F0C003802B00F0AD
:10539000A08004D8002B00F0AD80402BE1E7C02BAB
:1053A000E4E7B3F1502F13D103F5E033D3F888309D
:1053B00003F44073B3F5007F00F08B8005D8002B19
:1053C00000F09880B3F5807FCBE7B3F5407FCDE761
:1053D0005B4A9342C7D15C4BD3F8883003F44063F7
:1053E000B3F5006F18D006D85BB1B3F5806FBAD1B2
:1053F000FDF792FE07E0B3F5406FB4D14FF40040E3
:105400000BE0FEF739FB40B900204FF00113A36613
:105410000023C4E91C33F8BD5148524B626A6568E9
:1054200033F8122005EB4501B0FBF2F399429AD80C
:10543000B3EB053F97D80023002102F05BFA0F027F
:1054400047EA10670602680830182A464FF0000342
:1054500047F1000102F04EFA434BA0F540729A4228
:1054600081D82368D860CFE73D484AE0082B3FF653
:105470007AAF01A252F823F09D54000CC754000CDF
:10548000D954000C6753000CCD54000C6753000C2A
:105490006753000C6753000C7753000CFEF7ECFACF
:1054A0000028B1D0616A2F4A636832F81120B0FB3E
:1054B000F2F000EB5300B0FBF3F080B24FF6EF7365
:1054C000A0F11002CBE7FEF7E7FAE9E7FDF724FECB
:1054D000E6E7B0F5004FC7D02148E3E7B0F5004F4D
:1054E000F1D1FEF7D9FA0AE0B0F5004FEED1FDF7A1
:1054F00013FE04E0B0F5004FD0D1FEF7BDFA00284E
:1055000082D0616A174B626833F81130B0FBF3F355
:10551000500800EB4300B0FBF2F04FF6EF7283B29D
:10552000A3F1100191423FF61EAF20F00F00226858
:1055300080B2C3F342031843D06065E7F369FFCF3D
:10554000008000500038015000100250E4A6000C0A
:1055500000440050E7A6000C00480050004C0050EA
:105560000024F400F4A6000CFFFC0F00836A10B5C1
:10557000DA0706D50168C46A4A6822F40032224379
:105580004A609C0706D50168046B4A6822F48032A1
:1055900022434A60590706D50168446B4A6822F4E1
:1055A000802222434A601A0706D50168846B4A6844
:1055B00022F4004222434A60DC0606D50168C46B2F
:1055C0008A6822F4805222438A60990606D50168CF
:1055D000046C8A6822F4005222438A605A0610D56D
:1055E0000168446C4A68B4F5801F22F4801242EAD4
:1055F00004024A6005D14A68846C22F4C002224346
:105600004A601B0606D50268C16C536823F4002368
:105610000B43536010BD2DE9F04104460E4615467C
:105620001F46DDF818802268D36936EA03030CBFF1
:1056300001230023AB4201D000201CE0B8F1FF3F62
:10564000F2D0FBF7D9F9C01B40452068036802D8A7
:10565000B8F1000F11D123F4D0730360836823F0F5
:10566000010383602023C4F88430C4F88830002309
:10567000032084F88030BDE8F0815A07D3D5C36990
:105680001B05D0D54FF400630362036823F4D07385
:105690000360836823F0010383602023C4F884300F
:1056A000C4F88830C4F88C30E1E72DE9F743984618
:1056B000D0F884300446202B0E4617464FD10029DF
:1056C0004BD0002A49D090F88030012B47D00123DD
:1056D000002580F880302123C0F88C50C0F8843039
:1056E000FBF78AF9A3688146B3F5805FA4F854708C
:1056F000A4F8567003D123690BB935461E46002322
:1057000084F88030B4F856204B4692B2CDF8008031
:1057100042B940212046FFF77EFF48B92023C4F854
:10572000843006E0002280212046FFF774FF18B184
:10573000032003B0BDE8F08322685EB935F8023B70
:10574000C3F308039362B4F85620013A92B2A4F866
:105750005620D7E716F8013BF4E70120E9E70220DD
:10576000E7E773B500260446C0F88C60FBF744F900
:10577000236805461B681A0718D423681B685B0753
:105780000AD56FF07E43002200934FF480012B4630
:105790002046FFF740FFA8B920230020C4F884303A
:1057A00084F88000C4F88830E0660CE06FF07E4337
:1057B000324600934FF4001103462046FFF72BFFBB
:1057C0000028DAD0032002B070BD10B5044650B3F3
:1057D000D0F884301BB980F88030FFF7AFFB24236A
:1057E0002268C4F884301368204623F00103136054
:1057F000FFF756FD012816D0A36A13B12046FFF724
:10580000B5FE23682046BDE810405A6822F4904255
:105810005A609A6822F02A029A601A6842F00102DD
:105820001A60FFF79EBF012010BD0000002310B5D5
:1058300081658168A0F85C20B1F5805FA0F85E20EA
:10584000036731D103696BBB40F2FF13A0F86030EE
:105850000023C0F88C302223C0F8883003689C688D
:1058600044F001049C60446EB4F1005F2CD1B0F8A8
:105870006840944228D8B1F5805F23D104691C4A5E
:105880001C49002C08BF0A460267002280F88020CD
:105890001A6842F480721A609A6842F080529A60E4
:1058A000002010BDFF23D1E721B90369002BF9D0F7
:1058B0007F23CBE7B1F1805FC8D10369002BF7D01C
:1058C0003F23C3E70A4ADFE7B1F5805F0ED10469E1
:1058D000094A0A49002C08BF0A460267002280F8DC
:1058E00080201A6842F490721A60D9E7024AF4E7FD
:1058F0003550000C6D51000C454F000CBF4F000C93
:10590000D0F8883010B4202B1BD1B9B1B2B190F8C7
:105910008030012B15D0012380F8803000230A4C01
:10592000C3660368A34206D05C68240242BF1C68B9
:1059300044F080641C6010BCFFF778BF012010BCED
:1059400070470220FBE700BF008000507047000056
:1059500038B50446002830D0437A03F0FF0213B96B
:105960000272FFF7F3FF0223226863721368616813
:1059700023F004031360136823F0804323F0200313
:105980000B4343F080431360214B13614AF2B3236E
:105990001361136823F080431360FBF72DF805466D
:1059A00023681A6851000AD41A6842F004021A6087
:1059B0005B685A0611D50423637201200CE0FBF7E3
:1059C0001BF8401B0228EBD923681B685800E7D559
:1059D000012002236072E36038BDFBF70DF8054635
:1059E0002368586810F0040003D101236372E0605B
:1059F000F2E7FBF701F8401B0228F1D923685B6846
:105A00005B07EDD5042363720223E360D5E700BF93
:105A1000BC0A5917704770B50546002833D0026894
:105A2000136823F0804323F0200343F08043136086
:105A3000136823F080431360FAF7DEFF06462B68F5
:105A40001C6814F080440FD11A68284622F00C021A
:105A50001A605A6822F060025A60FFF7DBFF2046A6
:105A60006C722C72EC6070BDFAF7C6FF801B0228C6
:105A7000E5D92B681B685B00E1D5022301246C7219
:105A8000EB6000232B720120EDE77047002313B574
:105A9000019303685A68520709D45A6822F04002F9
:105AA0005A60C36823F00803C360002018E01A6836
:105AB00042F080421A601A6822F080421A60022284
:105AC0000192019A013A0192019A5AB90124447251
:105AD000C368027243F00203C360FFF7D6FF20469B
