:020000040C01ED
:10440000F80B0230A16E010C197E010CF5B7010CFE
:10441000FFB7010C09B8010C1DB8010C13B8010C51
:10442000000000000000000000000000F59B010CEF
:10443000C96D010C00000000B99B010CCB6D010C93
:10444000CD6D010CCF6D010CD16D010CD36D010C44
:10445000D56D010CD76D010CD96D010CDB6D010C14
:10446000DD6D010CDF6D010CE16D010CE36D010CE4
:10447000E56D010CE76D010CE96D010CEB6D010CB4
:10448000ED6D010CEF6D010CF16D010CF36D010C84
:10449000F56D010CF76D010CF96D010CFB6D010C54
:1044A000FD6D010CFF6D010C016E010C036E010C22
:1044B000056E010C076E010C096E010C0B6E010CF0
:1044C0000D6E010C0F6E010C116E010C136E010CC0
:1044D000156E010C176E010C196E010C1B6E010C90
:1044E0001D6E010C1F6E010C216E010C236E010C60
:1044F000256E010C276E010C296E010C2B6E010C30
:104500002D6E010C2F6E010C316E010C336E010CFF
:10451000356E010C376E010C396E010C3B6E010CCF
:104520003D6E010C3F6E010C416E010C436E010C9F
:10453000456E010C476E010C496E010C4B6E010C6F
:104540004D6E010C4F6E010C516E010C536E010C3F
:10455000556E010C576E010C596E010C5B6E010C0F
:104560005D6E010C5F6E010C616E010C636E010CDF
:10457000656E010C00000000676E010C0000000079
:10458000696E010C6B6E010C6D6E010C6F6E010C8F
:10459000716E010C736E010C756E010C776E010C5F
:1045A000796E010C7B6E010C7D6E010C7F6E010C2F
:1045B000816E010C00000000836E010C856E010C01
:1045C000876E010C00000000896E010C8B6E010CDF
:1045D0008D6E010C8F6E010C916E010C936E010CAF
:1045E000956E010C976E010C996E010C9B6E010C7F
:0445F0009D6E010CAF
:104600007FE97FE907F03CB87FE97FE907F046B82A
:104610007FE97FE907F050B80000000000000000CB
:10462000802E030CE07D02303A00000060B6010CE1
:10463000201002300700000060B6010C200E02308E
:044640000000000076
:10464400E07E0230F80D000040100230681B0000CC
:10465400200E023080000000000E0230080000002E
:1046640000015F5F00000000FE070000759C010C64
:104674000004000000000000000000000000000032
:1046840000000000000000008080023000000000F4
:1046940001015F5F030100001F010000E15A010CEA
:1046A400001B0000000000000100000001000000E9
:1046B4000000000000000000985F023000000000CD
:1046C40070000000D011030C80000000000F0000F7
:1046D40001000000D15B010C0100000001015F5FDB
:1046E400130100001F000000316D010C00020000E6
:1046F40000000000020000000100000000000000B3
:1047040000000000200E02300000000080000000C5
:1047140070000000DB11030C30F100000103000005
:1047240001000000816C010C0100000001015F5FC9
:10473400010100001F0100008147010C2007000057
:104744000000000000000000010000000000000064
:10475400000000007012023000000000EF11030C92
:1047640070000000020F0000010000008547010CEA
:044774000100000040
:1047800000F0DAB86FF47A722DE9F043036804465A
:1047900013448BB0032B00F2B580DFE803F0024135
:1047A00081A20369082B7ED18569042D7BD100216C
:1047B000406804AA07F070FA082874D12B46022139
:1047C000606803AA07F068FA04286CD1DDE90423C5
:1047D0004FF00008CDE90623A36867690893039B9F
:1047E000DFF828910993B7F5007F3B464A4628BF7A
:1047F0004FF400730121606807F04EFA3A46034611
:1048000006464946CDF8008006A800F0DDF80546CA
:1048100010B9BF1BB044E6D128460BB0BDE8F08309
:104820000369082B3FD14569042D3CD10021406824
:1048300004AA07F031FA082835D12B460121606817
:1048400002AA07F029FA04282DD1DDE90423CDE9D5
:1048500006230122A368266A2C4F08930DF10C0849
:10486000B6F5007FCDE9008239463246029B28BF6B
:104870004FF4007206A800F0EBF805460028CBD1F3
:10488000039B002BC8D03A460146606807F006FA41
:10489000DDE902231A44F61A02922A46E0D1BBE768
:1048A0000369082B02D06FF08005B5E7076A0C2F6B
:1048B000F9D10021406804AA07F0EEF90828F2D1E6
:1048C000DDE9042306AEA068009600F0F7F805467F
:1048D0000028A1D101463B463246606807F0DEF968
:1048E0009AE70369082BDED10021406806AA07F089
:1048F000D3F90828D7D1DDE90623A06800F0FCF839
:10490000054689E76FF0850586E700BF4010023055
:104910001FB5084CCDE90023039003A904222046CB
:1049200007F041F808226946201D07F03CF804B062
:1049300010BD00BF5812023030B51E4B85B09D6AC5
:10494000A8470369082B03D06FF0800005B030BD85
:10495000A847194C8368A360A847037D01A8237664
:1049600003F01CFD0028EFD1019BA26863609DF855
:104970000C3021465343029AE360B2FBF3F30F4835
:104980000F4A238200F0F3F90028DFD10B4800F032
:1049900029FA0028DAD00B4807F0E8F8074800F0B9
:1049A0003BFA0028D2D1054805B0BDE8304000F000
:1049B00019BA00BF28B1010C201002304012023099
:1049C000186C010CE46B010C2DE9F043C4681E4621
:1049D00085B034F007030F461546DDF830802AD144
:1049E000B8F1000F1BD1D0E9002352EA030125D012
:1049F000DFF850908068FFF78BFF4A461249134852
:104A000000F00CFA30B9D9F80830DB0705D56FF0A3
:104A100084000DE010F18C0F0AD144F440342B4691
:104A20002246CDE9018708490848009600F019FAA6
:104A300005B0BDE8F0836FF08500F9E76FF0860000
:104A4000F6E700BF64120230581202304012023002
:104A5000F7B51D469DF824300E4617463BB9144B5A
:104A60001C68AC4213D26FF0860003B0F0BDD0E9F1
:104A7000002352EA0301F6D08068FFF749FF0C4A91
:104A80000C490D4800F0CAF90028E8D0EDE7641B96
:104A9000BC4228BF3C462B462246064906480096A3
:104AA00000F0EEFA0028E0D1089B1C60DDE700BFB3
:104AB00064120230581202304012023038B552EA05
:104AC0000301049C0ED0094DFFF722FF2A46084936
:104AD000084800F0A3F920B92B68C4E90033AB689B
:104AE000A36038BD6FF08600FBE700BF64120230A0
:104AF000581202304012023052EA030110B511D0B0
:104B00000B4CFFF705FF22460A490B4800F086F9D7
:104B100050B9A368DB0708D4BDE810400549064832
:104B200000F09FBA6FF0860010BD6FF08400FBE7C5
:104B300064120230581202304012023008B5036885
:104B400000209B689847002818BF6FF0910008BDAF
:104B5000F8B51D46036804465B680E46174698473D
:104B60000B4BC0F3410013F8202063680699E068FE
:104B70001D442368B1FBF2F200FB065039469B69E5
:104B800098470028B4BF6FF091000020F8BD00BF27
:104B90000C6C010C0020704770B504460E460025D1
:104BA000E368AB4201D8002070BD606806FB0300DB
:104BB00023682844DB69984710B9A3681D44EFE7D0
:104BC0006FF09100F0E700002DE9F3470A9C804662
:104BD0009146002C54D04668C2681E44036802FB0C
:104BE00001665B689847274BC0F3410013F82070BB
:104BF000B6FBF7F57D43AE421ED0D8F80030012257
:104C000028465B6901A99847002804DA6FF09100F3
:104C100002B0BDE8F087711B63189F428EBF254626
:104C2000BB1BED1801AB2A464846194406F0BBFEF3
:104C3000641B02D10020EBE70025A74210D8B4FB8B
:104C4000F7FAD8F8003052465B6909EB0501701994
:104C500098470028DADB0AFB07F7E41B3D44E9D05C
:104C6000D8F8003001225B6901A970199847002823
:104C7000CCDB224601A909EB050006F094FED9E73A
:104C80002046C5E70C6C010C2DE9F04F03688FB08E
:104C900006AA04460E46D3F80C8000F018FC002843
:104CA0005FD10BA800F0F4FE014600285CD1DDE9DD
:104CB000067A202206A8099D06F03EFE31462046CF
:104CC00006AA00F03AFD00284BD1834681462368AE
:104CD000DB8A5B4515D8002D35D12946204602AA2E
:104CE00000F06FFC00283CD12946204602AA00F0C3
:104CF00084FEB0BB204600F069FE78B36FF08300FD
:104D00002FE0B3451CD05946204606AA00F0DFFB31
:104D100038BB069BBB420DD10BA800F0B9FE48B9C9
:104D2000079B534506D9984528BF98465B1B0793B8
:104D3000099B99445946204606AA00F0FEFC80B91A
:104D40000BF1010BC3E743462A4639462046CDE91D
:104D500000A900F0C4F920B9002FCBD1204600F003
:104D6000A1FB0FB0BDE8F08F6FF08B00F9E7F8B54D
:104D70000D461746064690B389B382B30B8AB1F845
:104D800014C0012BCA68C88A23D9032B24D000245D
:104D9000022B06D1A2EB40111839614538BF6FF0E4
:104DA0008604944588BF6FF08604022B0CBF012354
:104DB000023B03EB40031B0108339A420FD334B983
:104DC00018222146304606F0B7FDC6E900572046B6
:104DD000F8BD6FF08604DBE76FF08604E1E76FF063
:104DE0008604F4E737B5054600F093FD044658B94C
:104DF0004FF08071284601AA00F0C5FB38B928465B
:104E00000199FFF741FF0446204603B030BD10F181
:104E10008C0F18BF0446F7E700F09FBC70B58AB04E
:104E2000144601AA06460D4600F08CFB18B16FF03F
:104E30008B000AB070BD3046019902AA00F047FB12
:104E40000028F6D10C22284607A906F09CFD002870
:104E5000EDD1059B6360049B2360BDF81830A3600F
:104E6000E7E72DE9F04F93B00DF128081746DDE98B
:104E70001C9504468A462022002140469B4606F0A7
:104E80005BFD4FF6FF7317F07F4FCDE9043304D07D
:104E90006FF0860013B0BDE8F08F23680BF1FF3B85
:104EA0005E8A5146B3442046764204AA06EA0B06BF
:104EB00000F048FB002840F08C80424620460499D0
:104EC00000F005FB10B16FF08B00E3E7BA03049923
:104ED00004D50D9BB3426FD10C900E9705914FF600
:104EE000FF73059A9A427CD123689B8AB342CFD341
:104EF000049906AB8A1ACDE9028305AB18BF0122DB
:104F0000CDE9007351463346204600F0B1FB00283E
:104F1000C0D1B9F1000F6CD120460A9906AA00F061
:104F20006CFD002852D105994246204600F005FC50
:104F3000014600284AD1DDE904539D4228BF1D46A1
:104F400020462A4600F0CFFC00283FD14FF6FF72E2
:104F5000049B93420FD0059A93420CD09A4238BFDB
:104F60001A462046691C00F0BEFC78BBDDE90453FC
:104F70009D4238BF1D4623682046DA8A691C00F02E
:104F8000B2FC18BB0A9B002B65D1B9F1000F62D0AF
:104F9000204600F087FA00287FF47CAF4FF6FF73BD
:104FA000049999423FF476AF059B99423FF472AF62
:104FB0002046FFF769FE6DE70E9B424643F0807383
:104FC00020460E9300F0B9FB002888D06FF08300D4
:104FD00060E710F18C0F7FF45DAFFB037FF573AFDB
:104FE0007DE720460A9906AA00F0EBFA002890D047
:104FF000ECE723685A8A531E2B42E7D10C9B09F138
:10500000FF3616449D42C2F1000206EA0206DDD8D0
:10501000324629460D9800F02FFD0028D6D11E9B60
:105020004246CDE9006320462B4606A900F0CDF8A4
:105030000028CBD10C9B4D449D420A99204688BF45
:105040000C95069D00F029FA294606900A9A2046FA
:1050500000F070FB60E7204600F0B8FC002897D015
:10506000B4E713B501AA044600F06CFA28B920464B
:105070000199FFF709FE02B010BD6FF08B00FAE74F
:10508000F0B58DB0164603AA04460F461D4600F043
:1050900059FA18B16FF08B000DB0F0BD204603999E
:1050A00004AA00F014FAB8B90C22384609A906F08F
:1050B0006AFC0028EED132462946069800F0DCFC56
:1050C0000028E9D1129B2A4600932046334604A9C2
:1050D00000F05AF80028DFD06FF08300DCE72DE9FC
:1050E000F04786B01646DDE90E9702AA05468846C7
:1050F0009A4600F066FA044698B9049A414632444A
:105100002846049200F0C9F906467FB101464A4696
:105110002846CDE900A7029B00F0B7FB28B16FF04D
:105120008304204606B0BDE8F0870127039A4A456C
:105130000BD2A9EB0203CDE9002331462846029B9E
:1051400000F0A3FB0028EAD1012742462846029935
:1051500000F0F0FA4146284602AA029600F04DFC03
:10516000044628B142463146284600F0E3FAD8E723
:10517000B8F1000FD5D0002FD3D06B683146DB6873
:10518000286898470446CCE72DE9FF410D461646AE
:1051900009686A4604461F46DDF8288000F011FAC7
:1051A00070B900994B1C0BD062686B680A97556800
:1051B0004246AC462068334404B0BDE8F041604745
:1051C0006FF0830004B0BDE8F0812DE9F347154688
:1051D000DDE90AA90F4698461168044600F05DF91A
:1051E0006B687A689844A8EB020306460146CDE94D
:1051F000002320463B6800F048FB20BB6368CDF8E5
:1052000000A0D3F808A04A46434631462068D0475C
:10521000C8B9EB686A68B9681A4423682046DB6835
:105220005B1A9B1ACDE9002331463B6800F02DFB49
:1052300048B92B683BB1314663682068DB6802B02F
:10524000BDE8F047184702B0BDE8F08713B5102459
:105250000B01416800948C68083341690068A047DD
:1052600002B010BD436810B5416904461B6900686F
:10527000984750B923681A8A022A06D96268A16839
:105280001846BDE810401269104710BD008A022878
:1052900014BF03380020704708B5FFF7F7FF00EB95
:1052A00041000001183008BD2DE9F04F00240546EB
:1052B0000F46904626464FF010098BB0D5F800A057
:1052C0005046FFF7E3FF013086420ED300264FF031
:1052D0002009D5F800A0BAF816309E421CD3002051
:1052E00088F800400BB0BDE8F08F6A683301CDF854
:1052F0000090D2F804B039465046083302AAD84785
:105300000028EFD102AB13F8012B0130102884EAFA
:105310000204F8D10136D1E731465046FFF7BCFF11
:105320006A68CDF800900346D2F804B0394650467A
:1053300002AAD8470028D5D102AB13F8012B0130BF
:10534000202884EA0204F8D10136C2E737B5837B0E
:1053500001685A1CD2B28273097E044691424169A7
:1053600004BF02338373012900F10D020DD8FFF74A
:105370009BFF40B90822636800929D6861690346FB
:10538000A2182068A84703B030BD6FF08600FAE786
:1053900013B50C4611462279012A09D0022A04D1FC
:1053A0000368A2791B7E9A420CD16FF0830007E05C
:1053B000036862791B7E9A420CBF6FF08300002065
:1053C00002B010BD01290DD80DF10702FFF76CFFE7
:1053D0000028F5D162799DF807309A4218BF6FF026
:1053E0009100EDE76FF08600EAE70822F0B5436828
:1053F00087B000925C6800236A440546194600683D
:10540000A0470246002836D000264FF0FF3408227D
:105410006B6800925F6801210023286804AAB847DE
:10542000002835D10122284604A9FFF7B1FF78BB37
:1054300066B32B689DF816201B7E9DF80E10B3FAFC
:1054400083F35B099A4203D1501CC0B2814209D157
:10545000994203D14B1CDBB29A4215D191422CBF29
:105460000026012634462C61B4FA84F40020640935
:105470006C6107B0F0BD284602A9FFF789FF04461A
:105480000028C1D10126C2E70026EBE70124EAE7A4
:10549000002EE8D16FF08300EBE709B9406970474F
:1054A0008068704710B50446FFF750FF70B9636815
:1054B0006169DB682068984740B9D4E90423204635
:1054C000C4E90432BDE81040FFF7CCBE10BDF7B50B
:1054D000066805463046FFF7DFFE03462020696870
:1054E00000904F68304629691446B847064640B9CF
:1054F0002868FFF7CBFE23680130834204D36FF0A6
:105500009706304603B0F0BD04F1140000F0C0FA75
:105510000028F6D12D68E268AB8A9A42EFD8A368DA
:105520009A42ECD3D4E900372BB92846E98AFFF731
:10553000B3FE8742E3D33946E86800F09DFA0028BD
:10554000DFD0DCE7F0B505460E461746002489B0EB
:105550002B68DB8AA34202D86FF08B000CE06A460E
:1055600021462846FFF7B3FF50B90C22314605A863
:1055700006F009FA10B93C6009B0F0BD0134E7E764
:105580006FF08300F8E7F0B505460E461746002495
:1055900089B02B68DB8AA34202D86FF08B0009E048
:1055A0006A4621462846FFF792FF38B9049B1E42FF
:1055B00002D03C6009B0F0BD0134EAE76FF083002F
:1055C000F8E773B50B0106464168102000904C685F
:1055D0003068316908331546A0470446B8B93368C6
:1055E00029681A8A914210D2D5E90112D86800F0D0
:1055F00043FA044648B92B68012B03D83068C18AA6
:10560000FFF74AFE6B68834201D06FF09704204693
:1056100002B070BD73B50B010546416810200090C3
:105620004E680833296928681446B0470346E0B934
:105630002B6821681A8A914215D2D4E90112D868E0
:1056400000F01AFA034670B92268012A08D82A68BD
:105650001046FFF71BFED28A00EB42000001183013
:105660006268824201D06FF09703184602B070BDA5
:105670002DE9F04F06468B4691469846002789B0A3
:10568000DDE9145A3068FFF701FE0130874202D38A
:105690006FF08D0421E0524639463046FFF791FF06
:1056A0000446002835D1DAF8082090452FD8336811
:1056B0005946DB682F609B1A6B600C22C5F80C8082
:1056C00005F1140006F06FF9129BAC602B61DAF85B
:1056D0000830A3EB0803CAF8083000253368DB8ADA
:1056E0009D4205D26A4629463046FFF7F0FE98B142
:1056F0004FF6FF75139B1D60CCB94FF6FF739D42AB
:1057000008BF6FF08D04204609B0BDE8F08F013767
:10571000B8E76FF08304E0E705A800F0B9F920B11D
:10572000B9F1000FE6D14FF001090135D6E76FF06E
:105730008D04E8E702B18160704773B505680446DF
:105740002846FFF7A9FD03462020616800908E6877
:1057500028466169B04702B070BD70B58CB005468F
:10576000FFF743FE002861D16E696B6831461B6903
:10577000286898470446002878D1B6FA86F16B6805
:1057800028681B6949099847044600286ED12A6891
:105790000126137EB3FA83F35B09AB73138AC5E961
:1057A0000406022B0CBF01230223AB6002232B73E0
:1057B000D18A1046FFF770FDD3680190181A214670
:1057C00002906A4628460096FFF740FD04460028EE
:1057D0004CD106462B680190DB6802932B68184673
:1057E000FFF754FDB04223D8002C4BD12B6818464C
:1057F000FFF74CFDA04228D82022002104A806F083
:105800009BF800242B68DB8AA34232D82846FFF796
:105810009DFD48BB6B686969DB682868984704464A
:1058200020BBD5E90423C5E904321FE000269CE72C
:10583000198A6A6802290CBF0021032118463144E5
:105840001269904701360443C8E71B8A6A46022B57
:105850000CBF002303232344013421462846009330
:10586000FFF7F4FC0028C1D06FF0830420460CB091
:1058700070BD2146284604AAFFF75FFF0028F3D138
:105880000134BFE76FF09104F0E72DE9F04F0446D3
:10589000884616469946C3B0DDE94CA51DB9284691
:1058A00043B0BDE8F08FB5F5807F2F4628BF4FF499
:1058B000807763680097D3F804B049465346206860
:1058C00002AAD8470028EBD163680097D3F808B044
:1058D00041463346206802AAD8470028E0D13E441A
:1058E000BA44ED1BDAE773B5066804463046FFF7A5
:1058F000D3FC1546024629463046FFF7CDFCD4E9D5
:105900000431801ACDE900202046FFF7BEFF02B027
:1059100070BD2DE9F041436805461B68006886B0FC
:105920009847044628B92846FFF75FFD28B16FF075
:105930008304204606B0BDE8F08108266B6805F1B7
:1059400008070096D3F804803A4623462969286858
:10595000C0470028EBD1394628462A69FFF718FDD1
:105960000028E4D12846FFF77DFC04460028DED15C
:105970002B7B012B25D101460DEB06022846FFF7B4
:1059800049FE04460028D4D1049B2A68C3F1FF23B2
:10599000D26803F57F03F8331344CDE90063324640
:1059A00028462B696969FFF770FF04460028C0D1BB
:1059B0006B7B2846AB7302232B73FFF773FD044602
:1059C000B7E7022B18BF6FF08304B2E710B586B0BB
:1059D000002102AA0446FFF7F4FD60B9039A20688B
:1059E000049BD118C36820465B1ACDE90023D4E993
:1059F0000431FFF74AFF06B010BDF0B505460C466E
:105A000087B009B94369136021462846FFF71EFC99
:105A10000146C0B9D5E904767CB900212868FFF7B2
:105A20003BFC22011832801ACDE900203B4631466A
:105A30002846FFF72AFF07B0F0BD284602AAFFF765
:105A4000C0FD014610B16FF08300F4E7284602AABA
:105A50000296FFF7FBFB0028F5D1012CDDD01822C0
:105A60002301103B019331463B4628460092FFF745
:105A70000CFF0028D1D0DEE7814206D8401A9042C0
:105A800034BF6FF08600002070476FF086007047CB
:105A900000F10C03984202D16FF08B00704710F8B0
:105AA000012B002AF6D000207047000038B50025F1
:105AB0000648294600F58054D4F80024C4F804545C
:105AC00005F03AFFC4F8005438BD00BF103A023068
:105AD000024BD3F80434036000207047104A0230B0
:105AE00010B50D4806F042F800F036F9044688B9C2
:105AF0004FF40251094806F0BBFA094806F008FBCA
:105B00000AF066FA044628B906F034F9002818BFEE
:105B10006FF08304204610BD2C6C010C90190230EC
:105B20006DBB010C13B511460022CDE9002242687D
:105B30000346302A046844D194F82C20022A15D058
:105B4000B2B321482468D0F80404013ACDE90040FA
:105B5000072A30D8DFE802F0040A0E13181D2227A6
:105B60006A46184600F03BFE02B010BD184600F031
:105B700056FAF9E76A46184600F00BFBF4E76A4666
:105B8000184600F081F9EFE76A46184600F0C6FBB8
:105B9000EAE76A46184600F0E3FCE5E76A4618467D
:105BA00000F032FDE0E76A46184600F065FDDBE7ED
:105BB00000F0F1FED8E7054805F0D8FF6FF085004A
:105BC000D2E76FF08000CFE7104A0230486C010C3A
:105BD0002DE9F04F04469FB05C4805F0C7FF2568EB
:105BE000002D40F0AF80594805F0C0FF2946202223
:105BF00002A805F0A1FE294620220AA805F09CFE75
:105C00002946042512AF3022384605F095FE04F1EE
:105C10001C0353F804192A46013D09B1154601E059
:105C2000002DF6D1042604F12C0353F80419324652
:105C3000013E09B1164601E0002EF6D12DB96FF0F4
:105C4000830528461FB0BDE8F08F30233A46002177
:105C5000606806F021F83028F1D1CDE90270012703
:105C6000DFF8EC900DF1080A04F1140B09F58058E7
:105C7000AF42D8F800141CD10AAF3A464FF0000CDE
:105C800004F1200303EB860A9A4531D1BCF1000FE1
:105C900002D0304BC3F80014A3682946C8F8043476
:105CA0000AAA334602A8FFF73DFF4FF00008054659
:105CB00041E05BF8043BC1F5A052D81C20F0030082
:105CC000904204D9FFF7F2FE6FF08C05B9E701EBC3
:105CD00009020144C8F8001460683946019205F0D1
:105CE000DBFF019ACAF80C0001374AF8082FBFE71A
:105CF00053F804EBC1F5A05B0EF1030020F00300A4
:105D0000584502F1080207D809EB010C42E902CE1E
:105D100001444FF0010CB7E7BCF1000FD2D00D4B9E
:105D2000C3F80014CEE7414657E90223606805F046
:105D3000B5FF08F10108B04507F10807F3D1FFF7F7
:105D4000B5FE7EE76FF085057BE700BF6D6C010C4B
:105D5000103A0230104A023008B54FF48C5200213C
:105D6000024805F0E9FD002008BD00BF184E0230D2
:105D70000023F7B50C6807460E461546019314BB81
:105D800022B3146001A8FFF7A3FEA8B94FF40C7C5E
:105D9000104A0CFB04F39958A646013471B94FF030
:105DA000010E02EB030C42F803E001991033134497
:105DB000CCE9011734602B6003B0F0BD082CE8D1AA
:105DC0006FF08400F8E76FF08800F5E76FF0860069
:105DD000F2E700BF184E02300023F7B505680193C3
:105DE000013D072D036004D96FF08604204603B0FF
:105DF000F0BD01A8FFF76CFE04460028F6D14FF471
:105E00000C735D430A4E73597719012BECD17A68F4
:105E1000019B9A42E8D105F110004FF40872214627
:105E2000304405F089FDC7E901447451DEE700BF45
:105E3000184E0230002373B54C1E072C064615463B
:105E4000019303D96FF0880002B070BDBAB101A808
:105E5000FFF73EFE0028F7D14FF40C716143094B68
:105E60005C585A18012CEDD19468B442EAD15468B8
:105E7000019A9442E6D1103119442960E4E76FF0A9
:105E80008600E1E7184E02302DE9F0470025D0F8F2
:105E9000009086B0B9F82CA00746BAF1040F0E4660
:105EA0009046059515D10B1D03934B6802930B6823
:105EB0000193C36800938368D9F8042098E803002D
:105EC00009F02CFE044600B17560204606B0BDE81E
:105ED000F087BAF5827F0FD10B1D03934B680293B5
:105EE0000B680193C36800938368D9F8042098E88D
:105EF000030008F01BFDE5E72AF48073B3F5017F8A
:105F0000D9F808101BD135680120296005AA294657
:105F1000FFF72EFF04460028D7D140F204539A45DC
:105F200049D025D8BAF5417F5AD040F204439A456A
:105F300035D0BAF5017F45D06FF08504C5E7012063
:105F400005AAFFF777FF40F204739A45044603D091
:105F500040F604039A455DD13568D9F808302B60C6
:105F6000002CDAD040F604039A45AED10024ACE709
:105F700040F204739A453BD040F604039A4544D05E
:105F800040F204639A45D7D1D7E90212331D019339
:105F9000736805980093336808F092FC05E0059853
:105FA000331DD6E9001209F07FFD044600288CD08D
:105FB0000023736089E70598D7E9021208F062FCB4
:105FC000044682E7D9F80430059898E8060008F0FE
:105FD00041FC04460028C9D02846FFF7FDFE74E7BF
:105FE000D9F80430059898E8060008F03FFCF0E77F
:105FF000059806F10C03D6E9021208F07BFC044672
:106000000028E9D00023F3605FE7059808F080FBE3
:106010000446E1E700287FF458AF05467DE72DE907
:10602000F0430025D0F8008085B0B8F82C900646E3
:10603000B9F1020F0F46029511D10B1D01934B6868
:1060400000930B68D0E90212D8F8040007F0FFFEB5
:10605000044600B17D60204605B0BDE8F083B9F587
:10606000817F0AD1436900938168D0E90323D8F87E
:10607000040007F0FDFE0446EDE740F202239945D7
:10608000D8F8081011D13D680320296002AA2946DA
:10609000FFF76EFE04460028DDD1D8F80410029800
:1060A00007F0E8FD0446C8B137E002AA0320FFF775
:1060B000C1FE40F2025229F400739342044603D019
:1060C00040F20263994550D13D68D8F808302B6002
:1060D000002C4ED040F202739945BCD10024BAE79F
:1060E00040F2026399451FD040F2027399454DD1A9
:1060F000029807F0B4FD04460FE00298D6E90212B8
:1061000007F052FEB7E7029807F10C03D7E9021235
:1061100007F05EFE044620B900242846FFF75CFE27
:1061200099E70023FB6096E70298D6E9021207F090
:1061300060FE044600288ED1EEE700230393B36887
:106140003D681B68294603202B6003AAFFF710FE59
:10615000044600287FF47FAFDDE9020107F0BBFEB3
:10616000044600283FF477AFD7E700287FF473AFE9
:10617000054640F202539945C5D0B1D840F20233EA
:106180009945BAD040F202439945D6D06FF08504C4
:1061900061E72DE9F0474FF0000AD0F8009086B093
:1061A000B9F82C600546032E0F469046CDF814A092
:1061B00016D10B1D03934B6802930B680193C368C0
:1061C00000938368D9F8042098E8030008F01CF8CD
:1061D000044608B1C7F804A0204606B0BDE8F08721
:1061E00040F203139E420ED1436902930369019367
:1061F000C36800938368D9F8042098E8030008F086
:1062000018F80446E8E740F2032226F4807393422C
:10621000D9F808101FD1D7F800A00220CAF8001042
:1062200005AA5146FFF7A4FD04460028D4D140F248
:1062300003539E4255D02BD840F203339E4242D0A6
:1062400040F203439E4246D040F203239E422CD0AC
:106250006FF08504C0E705AA0220FFF7EBFD40F2CE
:10626000035226F400739342044603D040F20363C2
:106270009E424ED1D7F800A0D9F80830CAF80030B5
:10628000002CD4D040F203739E42A5D10024A3E792
:1062900040F203639E4232D040F203739E42D7D154
:1062A000059807F02AFE044609E0D9F8043005985D
:1062B00098E8060007F085FE04460028E6D0504620
:1062C000FFF78AFD88E7D9F80430059898E80600BA
:1062D00007F083FEF0E70598D5E9021207F089FE82
:1062E0008FE7059807F10C03D7E9021207F093FE38
:1062F000044608B90024E2E70023FB606CE7059838
:10630000D5E9021207F066FF044600287FF464AF67
:10631000F0E700287FF460AF824688E72DE9F04778
:106320004FF0000AD0F800808AB0B8F82C7006460A
:10633000052F0D469146CDF824A020D10B1D0793C3
:106340004B6806930B680593C368049383680393B3
:1063500043690293036999E803000193D8F8283050
:106360000093D8F8042008F1180308F067FB0446EE
:1063700008B1C5F804A020460AB0BDE8F08740F295
:1063800005139F4219D10B1D07934B6806930B68A9
:106390000593C36804938368039343690293036975
:1063A00099E803000193D8F828300093D8F8042026
:1063B00008F1180308F09CFBD9E740F2052227F406
:1063C00080739342D8F8081021D1D5F800A0052099
:1063D000CAF8001009AA5146FFF7CAFC0446002873
:1063E000C9D140F205739F4200F09E803BD840F235
:1063F00005439F4279D028D840F205239F425AD0C6
:1064000040F205339F4264D06FF08504B3E709AAD8
:106410000520FFF70FFD40F6051227F400739342A5
:10642000044604D040F605239F4240F09480D5F8FE
:1064300000A0D8F80830CAF80030002CD1D040F6BF
:1064400005339F4297D1002495E740F205539F42C0
:1064500058D040F205639F42D6D1D8E9041209987A
:1064600008F08CFC53E040F605239F4262D019D817
:1064700040F605039F424CD040F605139F42C3D11E
:10648000D5E9041205F10C030293EB680998019316
:10649000AB68009305F1140308F0F8FC044600BB58
:1064A000002412E040F605339F42ADD1099808F070
:1064B00079FB044609E0D8F80430099899E8060009
:1064C00008F022FC04460028BDD05046FFF784FCAB
:1064D00051E7D8F80430099899E8060008F020FC44
:1064E000F0E70023EB606B6145E709982B1DD5E9C8
:1064F000001209F0B1FB044600283FF43CAF002332
:106500006B6038E70998D6E9021208F015FC0446DA
:1065100031E72B1D01936B6809980093D6E90212AD
:106520002B6808F081FCE6E70998D6E9021208F02A
:1065300051FCECE7F36809980193B368D5E90212BE
:10654000009305F10C0308F0DDFC04460028A7D0F9
:106550000023EB600FE700287FF40DAF824640E791
:1065600030B50D4640F206211446026885B0938D81
:106570008B423AD008D8062B17D0B3F5837F27D0AB
:106580006FF0850005B030BD40F206318B42F7D187
:106590004369029303690193C36800938368526857
:1065A00094E8030007F0ECFFECE72B1D03936B6806
:1065B00002932B680193C36800938368526894E840
:1065C000030007F0B7FE0028DCD000236B60D9E79A
:1065D0004369029303690193C36800938368526817
:1065E00094E8030007F006FFCCE72B1D03936B68CC
:1065F00002932B680193C36800938368526894E800
:10660000030007F05BFFDEE730B50C461146026879
:1066100087B0938D072B07D040F20715AB4219D0F6
:106620006FF0850007B030BD231D059363680493A8
:10663000236803934369029303690193C36800933A
:106640008368526803C907F0AFFF0028EAD000232F
:106650006360E7E7231D059363680493236803934E
:106660004369029303690193C36800938368526886
:1066700003C907F0F5FFE8E700232DE9F0430768B9
:1066800091B0BE8D8146082E0D46904605930FD1E0
:106690000B1D03934B6802930B680193C36800932F
:1066A0008368D2E90012786809F031FB04461FE0E4
:1066B000B6F5847FB96811D12D680420296005AA38
:1066C0002946FFF755FB044690B97968059809F00B
:1066D0000DF9044600284CD1002409E0042005AA45
:1066E000FFF7A8FB044638B140F608139E4237D0A6
:1066F000204611B0BDE8F083B6F5A16F4DD013D898
:10670000B6F5427F3ED005D8B6F5027F35D06FF0A2
:106710008504EDE7B6F5816FF9D1D9E90223F98D4A
:10672000059809F011F9C1E7B6F5E16F2FD00FD840
:10673000B6F5C16FEBD1D9F80C30F98D0193D9F8CA
:1067400008300598009398E80C0009F039F9ADE796
:1067500040F608039E4227D040F608139E42D6D149
:106760002D68BB682B60002CB6D1059808F0EEFBB5
:1067700004462846FFF730FBBAE72968059808F079
:10678000CDFD93E7F968059808F0D1FD8EE70598EF
:10679000D5E9001208F0DAFD88E7F98D059898E848
:1067A0000C0009F0DAF881E7D9F8086001462822E0
:1067B00006A82D6805F0C0F83046D8F8041006AADF
:1067C00000F0EDF80446002892D14246059906A84B
:1067D00008F020FFD8F8003004462B6088E70368F3
:1067E0002DE9F0479C8D40F201539C4205460F462F
:1067F0001646D2F804808EB070D030D840F2012313
:106800009C425ED00AD8012C6FD040F201139C420A
:106810007DD06FF085000EB0BDE8F08740F2013307
:106820009C4254D040F201439C42F2D1D0E90495FD
:10683000D0F808A028220C6804A8002105F07CF8F4
:106840004146504604AA00F0AAF80028E3D1334696
:106850002A46494604A807F0EFF8336899E040F665
:1068600001039C4273D010D840F201639C4260D077
:1068700040F201739C42CCD10B1D0093D1E900235F
:1068800096E8030007F09DF85BE040F601139C4298
:1068900064D040F601239C42BBD12822002104A8E9
:1068A00005F04AF84146A86804AA3C6800F077F869
:1068B0000028B0D1314604A809F0C0FA0028CCD095
:1068C000A9E70C68D2E900010BF083FAC5E7D2E929
:1068D00000010EB0BDE8F0470BF099BAD2E9000113
:1068E0000EB0BDE8F04706F01FBF2822002104A823
:1068F00005F022F896E8030004AA3C6806F03FFF82
:10690000002888D1214604A800F074F883E72822E3
:10691000002104A805F010F83C684146204604AA6E
:1069200000F03DF800287FF476AF04A809F0A0FB42
:10693000E8E70B1D0093D1E9002396E8030006F079
:10694000CDFF00283FF467AF00237B6063E7D2E907
:1069500000010EB0BDE8F0470BF076BA2822002106
:1069600004A804F0E9FF00204146CDE9020004AA92
:10697000A8683C6800F013F800287FF44CAF96E854
:10698000030002AB04AA07F0C6F800287FF443AF67
:10699000029B23603FE7D1E9000109F061B82DE9CE
:1069A000F0418846164607468AB000B3FAB135462C
:1069B0006C4628220021684604F0BEFF0FCC0FC5AC
:1069C0000FCC0FC594E8030085E8030000203B8846
:1069D00033807B687360FB6833613B6973617B88DC
:1069E0007380BB68C6E902380AB0BDE8F0816FF079
:1069F0008000F9E730B561B158B1D0E901230468EE
:106A0000D0E90405C1E903050020C1E900428B601B
:106A100030BD6FF08000FBE713B56C4684E80300DF
:106A200094E8030005F08EF9002814BF6FF08B0086
:106A3000002002B010BD00002DE9F0435368144659
:106A40000022E260DAB280460F4687B022B923F016
:106A5000FF0343F001036360302F26D8D4E902011D
:106A600004AD02AB01AA85E80300FFF7D5FF064697
:106A7000B8B94FF068090E4D0298282209FB005062
:106A80002146343004F08FFF02983A4609FB00504B
:106A9000414604F088FF029B09FB035501232F6345
:106AA000EB65304607B0BDE8F0836FF08906F8E784
:106AB000987A023030B587B06C4684E803001546FA
:106AC00094E8030004AB03AAFFF7A6FF30B96821DE
:106AD000034B049A01FB02331B6B2B6007B030BDE4
:106AE000987A02302DE9F04F0728074614461E46D3
:106AF0008BB06FD868254543DFF8E49009EB0503B8
:106B0000DB6D002B66D022B96FF086000BB0BDE8BC
:106B1000F08FD2E902A3D2F80480126905F13401A2
:106B20000992494428222046079304F03CFF079B22
:106B30000DF1240B19465A46504605F0EBF8079B19
:106B400010B16FF08400E1E7C4F8048018F0FF088A
:106B500014BF524642460998A260C10448BF40F49F
:106B6000806082044FF0680202FB079748BF40F440
:106B70000060E36020613A6B14998A422DD8002EA0
:106B8000C2D015990029BFD010F480444D4418D0CC
:106B90000420099315F0E4FA149B0022CDE9036365
:106BA0000423CDE901B33B6B114600932B4619F04A
:106BB00065F818B9DDE914231A60A7E76FF08300C0
:106BC000A4E72946304604F0EEFE3B6B159A2046BA
:106BD00013609BE76FF08B0098E76FF0890095E7F3
:106BE000987A02304372656174696E6720616E2025
:106BF000656D7074792049545320666C6173682008
:106C00006C61796F75742E0D0A00000001000000A0
:106C100002000000040000003D4B010CC94B010CB8
:106C2000514B010C954B010C994B010C5B494E46A5
:106C30005D5B43727970746F5D206D6F64756C6518
:106C400020696E69740D0A005B4552525D5B4372A8
:106C50007970746F5D20556E737570706F727465A6
:106C6000642072657175657374210D0A0043525971
:106C700050544F5F53464E0D0A00000000000000C4
:106C800030B599B004462C2200210DA804F054FE22
:106C900000230C9340F6012301254FF48072ADF8D8
:106CA0005C301C4B1C48CDE907351C4B0995CDE9E0
:106CB0000A2307AB0593142306930CAB03933023ED
:106CC000049304F053FF2468F4B9134804F04EFF12
:106CD000284604F0E9FF2146CDE90044022310488C
:106CE00003AA04F0FFFF044638B10E4804F03EFF4B
:106CF0006FF08004204619B030BD0B4804F036FF19
:106D0000284604F0D1FFF5E7084804F02FFF6FF0A4
:106D10008504EFE700240001406D010C0011C00460
:106D200000010040576D010C6C6D010C876D010C6A
:106D300008B5024804F01AFF002008BD9C6D010C44
:106D400048656C6C6F2073656375726520776F7230
:106D50006C6421200D0A004572726F722067656EA7
:106D600065726174696E67206B6579004B65792087
:106D700067656E65726174656420737563636573BE
:106D80007366756C6C790053656375726520576F17
:106D9000726C64206572726F720D0A005B44424728
:106DA0005D5B4578616D706C655D2054464D5F4557
:106DB0004E5452595F504F494E542E2E2E0D0A00FC
:086DC0005C4900000100000025
:106DC800FEE7FEE7FEE7FEE7FEE7FEE7FEE7FEE793
:106DD800FEE7FEE7FEE7FEE7FEE7FEE7FEE7FEE783
:106DE800FEE7FEE7FEE7FEE7FEE7FEE7FEE7FEE773
:106DF800FEE7FEE7FEE7FEE7FEE7FEE7FEE7FEE763
:106E0800FEE7FEE7FEE7FEE7FEE7FEE7FEE7FEE752
:106E1800FEE7FEE7FEE7FEE7FEE7FEE7FEE7FEE742
:106E2800FEE7FEE7FEE7FEE7FEE7FEE7FEE7FEE732
:106E3800FEE7FEE7FEE7FEE7FEE7FEE7FEE7FEE722
:106E4800FEE7FEE7FEE7FEE7FEE7FEE7FEE7FEE712
:106E5800FEE7FEE7FEE7FEE7FEE7FEE7FEE7FEE702
:106E6800FEE7FEE7FEE7FEE7FEE7FEE7FEE7FEE7F2
:106E7800FEE7FEE7FEE7FEE7FEE7FEE7FEE7FEE7E2
:106E8800FEE7FEE7FEE7FEE7FEE7FEE7FEE7FEE7D2
:106E9800FEE7FEE7FEE7000008B572B61C4B83F379
:106EA80009881C4B83F30A8883F30B881A4B16A1B5
:106EB800D1E90001C3E9000100F038F8174B18497F
:106EC8008B4212D30020174B17498B4218D304F07A
:106ED80025FC186850F82240586840F822400132D2
:106EE80098688242F5D30C33EAE70022F8E71C6879
:106EF80044F8220001325C68A242F8D30833E4E780
:106F08000022F8E7AFF30080A5EDF5FEA5EDF5FE4C
:106F1800F80B023000040230F80B02302046010C56
:106F28004446010C4446010C6446010C014A024BDC
:106F38009A6070470044010C00ED00E0F8B5044683
:106F480000680E46022833D0032838D0012834D1EF
:106F5800384B1B689D0738D5364D2B6823F0806366
:106F68002B6004F019FC07462B68190107D504F0BB
:106F780013FCC01B0228F7D92B68180124D4A36876
:106F8800D4F800C01F0263682A48013B1D01EEB116
:106F9800012E41D10369284A26691A4042EA0C02A7
:106FA800760842EA0703013E2B4343EA465318E0BA
:106FB800204B1B6813F4806FCED1012005E01D4BD8
:106FC8001B6813F4C02FF7E70320F8BD03691B49BA
:106FD800194041EA0C0141EA0703E16843EAC16349
:106FE8002B43144D03612B6843F080632B6004F03E
:106FF800D3FB06462B681B0107D404F0CDFB801B8E
:107008000228F7D92B681A01DED50A4AA169136943
:1070180000200B431361D8E70269094B66691340E6
:1070280043EA0C0376083B43013E2B4343EA46639D
:10703800D7E700BF001002500C809FFF0C80FF07AD
:107048000C80FFF970B504460068022844D0032874
:1070580049D0012845D1274B1B689D0749D5254DA7
:107068002B6823F080532B6004F096FB06462B68B0
:10707800990007D504F090FB801B0228F7D92B68EC
:10708800980035D41B4D1C4B6A6913402268134382
:10709800A26843EA0223E26843EAC2636268013AEB
:1070A80043EA02136B612B6843F080532B6004F0B2
:1070B80073FB06462B689B0007D404F06DFB801B0E
:1070C8000228F7D92B689A0012D50A4A2169536910
:1070D80000200B4353610CE0064B1B6813F4806FD0
:1070E800BDD1012005E0034B1B6813F4C02FF7E75F
:1070F800032070BD001002500C80FF072DE9F347F4
:107108000568044615F4006507D0C16E402923D0F0
:1071180013D839B320292CD001252368DB040AD5DC
:10712800216FB1F5007F30D027D8A1B3B1F5807FAA
:1071380000F03C8101252E463DE0602901D08029E0
:10714800EAD1A84AE16ED2F89C30002523F0E0038A
:107158000B43C2F89C30E0E7A24AD36843F480337B
:10716800D360EEE70430FFF7E9FE05460028D4D1E6
:10717800E7E72030FFF766FFF7E7B1F5407F02D079
:10718800B1F5806FD6D12E4609E0964AD36843F40C
:107198008033D360F7E7201DFFF7D0FE0646002EA8
:1071A80040F009818F4A216FD2F89C3023F4E063C4
:1071B8000B43C2F89C3023689F0330D5894B9A6DE6
:1071C800D00000F1FA804FF001089A6D42F0805229
:1071D8009A659B6D03F080530193019B824F3B6836
:1071E80043F480733B6004F0D7FA81463B68DA05C4
:1071F80009D404F0D1FAA0EB09000228F6D93B68BB
:10720800D90540F11E81002E00F0DA803546B8F12C
:10721800000F04D0734A936D23F08053936523685D
:10722800DA0708D56F49606BD1F8882022F003028D
:107238000243C1F888209F0708D56A49A06BD1F896
:10724800882022F00C020243C1F88820580708D58C
:107258006449E06BD1F8882022F030020243C1F87B
:107268008820190708D55F49206CD1F8882022F0BA
:10727800C0020243C1F88820DA0608D55949606C73
:10728800D1F8882022F440720243C1F888209F0672
:1072980008D55449A06CD1F8882022F440620243F2
:1072A800C1F88820980508D54E49E06DD1F88820A6
:1072B80022F440220243C1F88820590508D54949DB
:1072C800206ED1F8882022F440120243C1F88820A9
:1072D8005A0208D54349606ED1F8882022F440024A
:1072E8000243C1F888209B010CD5A36EB3F1807FBF
:1072F80000F0AA80B3F1007F00F0B680002B00F008
:10730800A880012523685F0608D53649E06CD1F8C6
:10731800882022F440520243C1F888201E0608D56E
:107328003049206DD1F8882022F440420243C1F848
:107338008820D80508D52B49606DD1F8882022F41B
:1073480040320243C1F88820D90208D52549A06DEA
:10735800D1F89C2022F003020243C1F89C209A0431
:1073680010D5204A616FD2F88830B1F1006F23F050
:10737800406343EA0103C2F888307DD1D36843F4FF
:107388008013D36023681B0340F19980A16F154BCC
:10739800B1F5804F7BD1D3F89C2042F48042C3F8EA
:1073A8009C20DA6842F48032DA6088E004F1200038
:1073B800FFF748FEF2E63546FDE64FF000080DE718
:1073C800084FD7F8903013F440730FD1054AD4F81A
:1073D8009010D2F8903023F440730B43C2F89030E9
:1073E80015E700BF0010025000700050D4F890203C
:1073F8009342EBD0D7F89020D7F8903022F4407120
:1074080043F48033C7F89030D7F8903023F48033B2
:10741800C7F89030D307C7F89010D7D504F0BCF957
:1074280041F2883A8146D7F890309907CED404F0D3
:10743800B3F9A0EB09005045F5D9D7F89030980773
:10744800C4D403252E46E2E6544AD36843F4801395
:10745800D3607EB9514AA16ED2F8883023F04073C8
:107468000B43C2F888304DE70021201DFFF766FD69
:107478000646EEE7354645E7B1F1806F82D1012136
:10748800201DFFF75BFD002818BF05467AE7D3F8F3
:107498008820B1F1806F22F0406242EA0102C3F80D
:1074A8008820D3F89C2022F48042C3F89C206ED117
:1074B8000121201DFFF742FD002818BF054623685B
:1074C8005F0310D5354AE16FD2F88830B1F1006F0B
:1074D80023F0406343EA0103C2F888304CD1D368F3
:1074E80043F48013D36023685E0414D52B49D4F881
:1074F8008020D1F88830B2F1805F23F0405343EA0E
:107508000203C1F8883006D10221201DFFF716FDBD
:10751800002818BF05462268D00309D51F49D4F8AA
:107528008400D1F89C3023F004030343C1F89C3055
:10753800910209D51949D4F88800D1F89C3023F074
:1075480018030343C1F89C30D30111D5134AD4F86A
:107558008C10D2F89C30B1F5001F23F4401343EA95
:107568000103C2F89C3003D1D36843F48013D3607D
:10757800284602B0BDE8F087B1F1806FB3D1012190
:10758800201DFFF7DBFC002818BF0546ABE7B1F16B
:10759800006F94D1DA6842F4801205E700100250B7
:1075A8007047000038B50446002830D0437A03F00D
:1075B800FF0213B90272FFF7F3FF02232268637216
:1075C8001368616823F004031360136823F0804391
:1075D80023F020030B4343F080431360214B1361D6
:1075E8004AF2B3231361136823F08043136004F055
:1075F800D3F8054623681A6851000AD41A6842F07D
:1076080004021A605B685A0611D5042363720120CC
:107618000CE004F0C1F8401B0228EBD923681B6872
:107628005800E7D5012002236072E36038BD04F0FA
:10763800B3F805462368586810F0040003D1012305
:107648006372E060F2E704F0A7F8401B0228F1D962
:1076580023685B685B07EDD5042363720223E3604C
:10766800D5E700BFBC0A59177047002313B501932B
:1076780003685A68520709D45A6822F040025A60CF
:10768800C36823F00803C360002018E01A6842F0BA
:1076980080421A601A6822F080421A60022201921F
:1076A800019A013A0192019A5AB901244472C368B5
:1076B800027243F00203C360FFF7D6FF204602B010
:1076C80010BD1A685400EBD45A68510642BF5A6874
:1076D80022F040025A6002220192019A013A019274
:1076E800019A002AE1D05A685207F6D4C8E7F8B5DB
:1076F800037A0546012B0E463ED00124437A0472D4
:10770800A34236D10223437203685C6814F0400434
:1077180006D00823C360FFF7A8FF0128044626D037
:1077280004F03AF807462B685A68D00710D59A68CB
:1077380059682A61490643BF0822EA605A683260DC
:1077480044BF22F001025A6001236B7200230DE04E
:1077580004F022F8C01B0228E5D92B685B6813F0F7
:107768000103E0D1012402226C72EA602B722046E8
:10777800F8BD0423C360E9E70224F8E7024A536826
:1077880043F40073536070470070005000232DE9E4
:10779800F04F5E4CDFF87881DFF878910A6832FAAA
:1077A80003F501D1BDE8F08F4FF0010C0CFA03FC92
:1077B8001CEA020200F09C8003264D684FEA430E43
:1077C80025F0100A0AF1FF3706FA0EF6012F6FEAC4
:1077D800060611D8876807EA060BCF6807FA0EF77E
:1077E80047EA0B078760476827EA0C0CC5F30017C0
:1077F8009F4047EA0C074760C768BAF1020F07EADB
:10780800060C8F6807FA0EF747EA0C07C76016D10F
:107818004FF00F0C4FEAD30A00EB8A0A03F0070B6C
:10782800DAF820704FEA8B0B0CFA0BFC27EA0C0CE9
:107838000F6907FA0BF747EA0C07CAF820700768C0
:107848003E4005F0030707FA0EF73E430660EE00D8
:107858004ED54FF00F0C23F0030707F1A04707F5AB
:107868003D3703F0030E3E6E4FEACE0E0CFA0EFCC7
:1078780026EA0C0C284EB0423CD006F58066B04291
:107888003AD006F58066B04238D006F58066B04238
:1078980036D006F58066B04234D0404534D04845ED
:1078A8000CBF0626072606FA0EF646EA0C063E66C2
:1078B800D743D4F8806015F4803F0CBF3E40164390
:1078C800C4F88060D4F8846015F4003F0CBF3E40D3
:1078D8001643C4F88460266815F4801F0CBF3E4028
:1078E800164326606668AD0254BF3E401643666084
:1078F800013353E70026D6E70126D4E70226D2E76C
:107908000326D0E70426CEE70526CCE700F402508C
:10791800001402520018025200000252264A9368CC
:10792800D16813F00C0305D00C2B16D101F003011C
:10793800012919D11168090754BFD2F89420126897
:107948001E4954BFC2F30322C2F3031251F82200A6
:1079580013B10C2B09D000207047042B29D0082B19
:10796800174818BF002070470020134AD168D36811
:1079780001F00301C3F30313022903F1010308D043
:10798800032906D0B0FBF3F0D268C2F306225043B5
:1079980006E0D0680A4AC0F30620B2FBF3F3584366
:1079A800054BDB68C3F3416301335B00B0FBF3F0C5
:1079B80070470348704700BF00100250CCB0010C5C
:1079C8000024F40008B5FFF7A9FF044B044A9B689C
:1079D800C3F30313D35CD84008BD00BF00100250A6
:1079E800B4B0010C08B5FFF7EDFF044B044A9B68DF
:1079F800C3F30223D35CD84008BD00BF0010025077
:107A0800C4B0010C08B5FFF7DDFF044B044A9B68BE
:107A1800C3F3C223D35CD84008BD00BF0010025096
:107A2800C4B0010C002918BF0421002A18BF022283
:107A3800036807481143186359605A6842F0010205
:107A48005A60BFF34F8FBFF36F8F0020704700BF9E
:107A580004AAFF444A68034612F01F0010B524D157
:107A68001C680B7822F01F02A3600B7C03F0010353
:107A780013438A7CD20002F018021A434B7C5B0045
:107A880003F006031343E3608B68013B23F01F02F6
:107A9800CB685B0003F00E03134343F0010323613B
:107AA800BFF34F8FBFF36F8F10BD0120FCE7036852
:107AB80000205A68C9B258609960D86018615A6045
:107AC800704738B5054603681C68C4F307240CB929
:107AD800204638BD013C21462846FFF7E8FFF6E777
:107AE800042A09DB0B68036000F1040001F10401BA
:107AF800A2F10402042AF5DA002A09D00B780370EF
:107B080000F1010001F10101A2F10102012AF5DAF7
:107B180070470000064B82B01868002382B262F3F7
:107B28000F03000C60F31F43184602B0704700BFF4
:107B380024B1010C0C20704700207047012805D99A
:107B4800022814BF6FF00400002070476FF0030094
:107B580070476FF003007047014B1868704700BF0B
:107B6800F8890230014B5868704700BFF47D023035
:107B780008B54FF47A7000F0D1F9002008BD000074
:107B88000C4B70B51B685A6992B11C690023013906
:107B98000144151DA34201D1002070BD52F8336085
:107BA800864203D855F83360B14201D90133F1E771
:107BB8000120F2E7F47D02302DE9F0411446204B14
:107BC80096001A6807466FF341021A60421E02EBDC
:107BD8008402B2F5002F0D4612D31A4A126894692E
:107BE8003CB16FF004001A6842F002021A60BDE866
:107BF800F0813246FF21284603F09AFE2046F6E738
:107C08000023DFF844803146C8F80030FFF7B8FF9A
:107C1800324690B107F140612846FFF761FFD8F876
:107C2800003023B132460021284603F081FE0023AC
:107C380024F04040C8F80030D9E707F10061EBE7CD
:107C4800F8890230F47D0230FC8902302DE9F04FCA
:107C58003B4E4FEA8208336807466FF341038A4672
:107C680085B0414615463360FFF78AFF354B7A1ECB
:107C78000028424415BF4FF0010999464FF0406B68
:107C88004FF0006BB2F5002F12D22F4843681B69E2
:107C9800B7FBF3F103FB117151B9B8FBF3F403FB24
:107CA80014842CB923460168D1F808C0634508D16B
:107CB8006FF00400336843F00203336005B0BDE899
:107CC800F08FC86800EBC30E50F83300874203D327
:107CD800DEF8040082422CD90133E7E7002316E0DE
:107CE800C3B908220AEB04010DEB020003F057FEAA
:107CF800DDE90223B3F1FF3F08BFB2F1FF3FEDD04A
:107D08000BEB07014846214400F044F903460834C8
:107D1800A045E5D1326801936FF30002326000F0AC
:107D2800E9F8019B25F04040002B18BF4FF0FF30C9
:107D3800C4E700F0BFF8336843F001033360D0E7CD
:107D4800F889023001000080F47D023070B5B0F58A
:107D5800002F044686B00BD22A4A5568A968B0FBA2
:107D6800F1F301FB13031BB912681068834208D1B1
:107D78006FF00400244A136843F00203136006B04E
:107D880070BD516801EBC30651F833108C4202D321
:107D980071688C4201D90133E8E720460421FFF7D6
:107DA800EFFE0028194B18BF0223B4F5802F029369
:107DB8002CBF02230123E86803930223B4FBF0F4E9
:107DC80005936B689C4200D9E41A0F4D04942B6804
:107DD8006FF341032B6000F06DF82B6801A943F0A5
:107DE80001032B6002A800F06FF904462B686FF3BB
:107DF80000032B6000F07EF8201E18BF01204042CF
:107E0800BDE700BFF47D0230F8890230020000802F
:107E1800174B1A6B02F02042B2F1204F27D11A6B90
:107E280042F020421A63134A136801331360734601
:107E380003F00F030D2B14D1EFF30982D2E90631B9
:107E4800C9010CD523F00101098801F46840B0F597
:107E5800684F04D001F47841B1F5704F04D1043370
:107E680003E0EFF30882E9E7023393617047FEE726
:107E780000200250FC8902300B4930B58D680B4C4C
:107E88000B4931EA250128BF2146EFF3108572B668
:107E98000C6844F001040C600260BFF36F8F43600C
:107EA80085F3108830BD00BFFC7D023028200240D9
:107EB8002C2002500D4B9A6A002A04DBDA6A002A49
:107EC8000BDB002070470A4A9A6002F188329A60F8
:107ED8009A6A002AF2DA01207047054ADA6002F14C
:107EE8008832DA60D86AC00F704700BF002002509D
:107EF80023016745084B9A6A42F000429A629A6ADF
:107F0800002ABFBFDA6A002042F00042DA62ACBF42
:107F18000120DB6A704700BF0020025070B504469C
:107F280003F03AFC174D06196B6ADA031AD4164B9C
:107F3800164A9868164931EA200128BF11460A688E
:107F4800286A02F0FA0200F40050024312D058687E
:107F58001043586093040A6002D54FF400532B6213
:107F680001200EE0611CDFD003F016FCB042DBD329
:107F7800032006E0086810F0010002D00123104633
:107F88000B6070BD00200250FC7D023020200240B2
:107F9800242002502DE9F843164C984623780646CB
:107FA800012B0F46914623D00123237000234FF461
:107FB8007A706360FFF7B2FFB0B90F4B0F4D4A46B6
:107FC80035EA260528BF1D4638464346A660FFF712
:107FD80053FF4FF47A70FFF7A1FFA2682B6822F0D5
:107FE800004223EA02032B6000232370BDE8F883D4
:107FF8000220FBE7FC7D0230282002402C200250A2
:1080080010B5EFF3108172B6124B134A9C68134BEC
:1080180033EA240328BF1346114A126C520212D5C0
:10802800C40742BF1A6842F004021A60820703D5E7
:108038001A6842F400421A601A6842F480321A60E0
:1080480081F3108810BD1A6842F4004242F004021D
:10805800F1E700BFFC7D0230282002402C200250AE
:108068000020025030B5EFF3108472B6134B144A57
:108078009D68144B13EA250338BF13462C3A126C3B
:1080880012F4800F1A6813D122F400621A601A6879
:1080980022F47E7222F0020242EAC00242F0020298
:1080A8001A601A6842F480321A6084F3108830BD6E
:1080B800C907E9D442F40062E8E700BFFC7D02305A
:1080C8002C200250282002402DE9F843264E054670
:1080D80033788946012B45D00123337000234FF4B0
:1080E8007A707360FFF71AFF0446F0B92B681F4ACD
:1080F8001F49B36031EA230828BF904648F20402BA
:1081080023F00043934215D16868FFF779FF4FF4D5
:108118007A70FFF703FF0446B268D8F8003022F0FF
:10812800004223EA0203C8F80030002333702046D7
:10813800BDE8F8834FF0FF33C9F80030AF68D5E9E0
:1081480002321344BB42E7D938466968FFF78AFF11
:108158004FF47A70FFF7E2FE10B1C9F80070DAE761
:108168000137ECE70224E2E7FC7D023028200240D8
:108178002C200250B1F5417F30B565D2050F00F0D3
:108188001F0202EB4514322C5ED8830633D5002C2F
:108198005AD140F201138B4319D12C4B1A694FF075
:1081A800FF321A61586902F5EE2202435A6140F221
:1081B80002238B4314D1254B1A6A4FF0FF321A62FF
:1081C800596A02F5EE220A435A62002012E0CD05F0
:1081D800EDD51E4B1A691C6158691D4A0240E5E736
:1081E8008C05F2D50020194B1A6A1862596A184A88
:1081F8000A405A6230BD40F20110164B88432B44A6
:108208004FEA83030FD101201C6890402043186077
:1082180040F2022088430ED10121186901FA02F2C6
:1082280002431A61D1E7C805F2D5012418689440C1
:1082380020EA0400EBE78905C7D50120196900FA8F
:1082480002F221EA0202ECE70120D3E700240350FE
:108258000090F8FF04C9001420F08050B0F1005FCE
:1082680030B502D01A4B98422FD10A6832F0004339
:108278002BD14D6835F0804427D11543154AB0F10C
:10828800005F154B08BF13461A6808BF4FF440300B
:1082980022F0404242EA050218BF4FF480301A60CB
:1082A8004FF0FF321D69400B82402A408D6E083125
:1082B8002A431A6104F1400251F8045B0134A042D8
:1082C80043F82250F6D1002030BD0120FCE700BF62
:1082D80000000320002C03500030035020F0805091
:1082E800B0F1005F10B521D0134B984222D14FF462
:1082F8008033124802685B0B02F080444C604FF0F8
:10830800FF3402F000420A6002699C4022EA04023B
:108318008A660022083102F1400450F824400132F4
:10832800934241F8044BF6D1002010BD4FF440337E
:108338000348DFE70120F8E700000320003003507E
:10834800002C035010B5030F00F01F0404EB431179
:10835800472918D810F020000AD0A1B94FF0FF32F1
:108368000A4B08461A600A4A5A60FF229A6010BDF2
:10837800012203F1A05303F54A439B001968A24068
:108388000A431A60F3E70120F1E700BF0028035011
:10839800FF6FFF3F48B14FF490324FF40053C0E9EC
:1083A800002301230372002070474CF2DA20704743
:1083B80072B620BFFDE7000037B5084C63699847DF
:1083C80048B9E56AA847C307FCD4236A019303B0F8
:1083D800BDE830401847002003B030BDC8B3010CD9
:1083E80008461146FFF7E8BF10B5114C0020A368F6
:1083F800984728B15B210F4B0F4A104817F05EFED3
:1084080002202369984718B15E210A4B0A4AF4E70B
:108418004FF4E1310120A46AA04718B16221054B4D
:10842800054AEAE72346BDE8104001211520184710
:10843800C8B3010C54B1010CB0B1010C69B1010C05
:10844800FFF7BABF01F040B91E2819D8DFE800F0DD
:108458001018101414101014101010101010101000
:1084680016161616181818181818181818161000AE
:10847800202300200B6070470423FAE74023F8E725
:108488004CF25A30704737B50C4601A91D46FFF724
:10849800DBFF38B9019B29469A4228BF1A46204675
:1084A80001F02CF803B030BD13461E2870D8DFE861
:1084B80000F0106F15191D2125292D3135393D4240
:1084C800474C51565B606F6F6F6F6F6F6F6F6F6563
:1084D8006A000A4600200421FFF7D5BF0A46022099
:1084E8002421F9E70A4603204421F5E70A46042037
:1084F8004821F1E70A4605204C21EDE70A46062007
:108508006C21E9E70A4607208C21E5E70A4608209E
:108518009021E1E70A460920B021DDE70A460A2052
:10852800D021D9E70A460B20F021D5E70A460C20CE
:108538004FF48871D0E70A460D204FF49871CBE7C5
:108548000A460E204FF41471C6E70A460F204FF46E
:108558001C71C1E70A4610204FF4A871BCE70A460F
:1085680011204FF4C871B7E70A4612204FF4E8719A
:10857800B2E70A4613204FF40471ADE70A461D20FE
:108588004FF42471A8E70A461E204FF43471A3E77C
:108598004CF25A3070472DE9F0411E4682B0D31D87
:1085A80023F0070300AF0D46ADEB030D391D14464C
:1085B800E846FFF749FF20B97B68934205D24AF2A3
:1085C800C5300837BD46BDE8F0816946284600F049
:1085D80095FF0028F5D1A04205D10246314628462C
:1085E80000F0C8FFEDE7325C18F800309343E6D19D
:1085F8000130F0E713461E2870D8DFE800F0106F4E
:1086080015191D2125292D3135393D42474C515623
:108618005B606F6F6F6F6F6F6F6F6F656A000A4691
:1086280000200421FFF7B7BF0A4602202421F9E7FA
:108638000A4603204421F5E70A4604204821F1E7C9
:108648000A4605204C21EDE70A4606206C21E9E799
:108658000A4607208C21E5E70A4608209021E1E731
:108668000A460920B021DDE70A460A20D021D9E7C9
:108678000A460B20F021D5E70A460C204FF48871F2
:10868800D0E70A460D204FF49871CBE70A460E2032
:108698004FF41471C6E70A460F204FF41C71C1E766
:1086A8000A4610204FF4A871BCE70A4611204FF47F
:1086B800C871B7E70A4612204FF4E871B2E70A46D4
:1086C80013204FF40471ADE70A461D204FF42471BE
:1086D800A8E70A461E204FF43471A3E74CF25A303B
:1086E8007047000007B508216A460220FFF7DCFE44
:1086F800DDE900020E490F4B9A4208BF88420FD1AC
:108708000E210D48FFF79CFE2E210C48FFF798FE1E
:1087180020210B48FFF794FE07210A48FFF790FE37
:1087280008220021684603F003F903B05DF804FB52
:10873800A9B454B26D6F90A4BBB1010CC9B1010CBE
:10874800F7B1010C62B4010C07B50421072001AA96
:10875800FFF7AAFE20B9019801288CBF002001204C
:1087680003B05DF804FB000007B520210020074A8C
:10877800FFF740FF30B901230421072001AA019324
:10878800FFF738FF03B05DF804FB00BF77B2010CB8
:1087980007B520210220214AFFF72CFF00283AD1F3
:1087A800042103201E4AFFF725FFA0BB04211D4A10
:1087B8000846FFF71FFF70BB202106201A4AFFF763
:1087C80019FF40BB20210820184AFFF713FF10BBF0
:1087D80020210920164AFFF70DFFE0B920210A20C1
:1087E800144AFFF707FFB0B920210B20124AFFF700
:1087F80001FF80B940211D20104AFFF7FBFE18B188
:108808004CF25A33984206D103230421072001AAC7
:108818000193FFF7EFFE03B05DF804FB9BB2010C78
:10882800BBB2010CBFB2010CE3B2010C03B3010CE3
:1088380023B3010C43B3010C63B3010C83B3010CE4
:1088480007B50421072001AAFFF72EFED8B9242175
:108858001448FFF7F5FD0E211348FFF7F1FD382105
:108868001248FFF7EDFD20211148FFF7E9FD072128
:108878001048FFF7E5FD019B43B10421072001AA39
:10888800FFF712FE38B103B05DF804FBFFF76CFF89
:108898000028F2D0F7E7019B012BF4D1FFF778FF0E
:1088A800F1E700BF17B2010CBBB1010C3BB2010CE0
:1088B800F7B1010C62B4010C064B82B018680023B2
:1088C80082B262F30F03000C60F31F43184602B034
:1088D800704700BFC4B3010C0120704700207047E7
:1088E800002070476FF00300704700207047002099
:1088F8007047002382B00193019802B070476FF06F
:1089080003007047002382B00193019802B07047BA
:1089180010B50C46014630B12CB10448A2B200F0A3
:108928005FFD204610BD6FF00400FBE7008A0230AF
:108938000A4608B5014640B13AB14FF47A73044883
:1089480092B200F022FC002008BD6FF00400FBE7A3
:10895800008A023030B52C4C8BB0E36C082543F00C
:108968004003E364E36C03F040030193019BA36DB0
:1089780043F08053A365A36D03F080530293029BD9
:10898800FEF7FCFEE36C802243F04003E364E36CF3
:1089980005A903F040030393039BE36D43F0010330
:1089A800E365E36D194C03F001030493049B022370
:1089B800CDE9052308930123204607930995FEF77F
:1089C800E5FE4FF48073204605A905930995FEF747
:1089D800DDFE4FF4E1330E480E490C22C0E90013C6
:1089E8000023C0E905234FF40042C0E90233C0E97F
:1089F80007230361436200F058FC003818BF0120C8
:108A080040420BB030BD00BF0010025000180252A7
:108A1800008A02300080005000207047704770477D
:108A280070477047D0F8882010B5222A044603689A
:108A380030D15B6AB0F86010826D0B401370836DA3
:108A480001338365B0F85E30013B9BB2A0F85E301D
:108A5800B0F85E2092B2CAB90368196821F490711F
:108A68001960996821F0010199602021C0F88810E7
:108A78000267C26E012A0AD11A68B0F85C1022F0A7
:108A880010021A60FFF7CDFF0023E36610BDFFF761
:108A9800C6FFF9E79A6942F008029A61F6E7D0F84A
:108AA800882010B5222A044603682ED1596AB0F8E6
:108AB80060201140826D22F8021B8265B0F85E20AA
:108AC800013A92B2A0F85E20B0F85E2092B2C2B924
:108AD800196821F490711960996821F00101996071
:108AE8002021C0F888100267C26E012A0AD11A68CC
:108AF800B0F85C1022F010021A60FFF792FF002312
:108B0800E36610BDFFF78BFFF9E79A6942F00802A8
:108B18009A61F6E72DE9F84F03680446DD69D3F852
:108B280000909E68D0F88820222A40F0858000278F
:108B3800B0F86080B0F868A0DFF808B106F0010668
:108B4800BAF1000F01D0AB0614D4B4F85E309BB272
:108B580073B1B4F868209A420AD923689A6822F057
:108B680080529A60384A22671A6842F020021A60D6
:108B7800BDE8F88F2368A26D5B6A03EA08031370E7
:108B8800A36D0133A365B4F85E30013B9BB2A4F832
:108B98005E302368DD696A072AD0E8070AD519F428
:108BA800807F07D001221A62D4F88C2042F001029B
:108BB800C4F88C20A90708D53EB102221A62D4F85D
:108BC8008C2042F00402C4F88C206A0708D53EB114
:108BD80004221A62D4F88C3043F00203C4F88C30B3
:108BE800D4F88C3023B12046FFF71AFFC4F88C70F4
:108BF800B4F85E2092B2002AA2D12368196821F441
:108C080080711960996801EA0B0199602021C4F804
:108C180088102267E26E012A0AD11A68204622F0DB
:108C28001002B4F85C101A60FFF7FBFEE76687E7EE
:108C38002046FFF7F4FEF9E79A6942F008029A61C4
:108C480096E700BFFEFFFFEF2D8A010C2DE9F84FD4
:108C580003680446DD69D3F800909E68D0F8882040
:108C6800222A40F083800027B0F86080B0F868A01E
:108C7800DFF804B106F00106BAF1000F01D0AB0627
:108C880014D4B4F85E309BB273B1B4F868209A4239
:108C98000AD923689A6822F080529A60374A226774
:108CA8001A6842F020021A60BDE8F88F2368A26DA6
:108CB800596A08EA010122F8021BA265B4F85E208D
:108CC800013A92B2A4F85E20DD696A072AD0E80763
:108CD8000AD519F4807F07D001221A62D4F88C20B3
:108CE80042F00102C4F88C20A90708D53EB102223F
:108CF8001A62D4F88C2042F00402C4F88C206A0767
:108D080008D53EB104221A62D4F88C3043F002032D
:108D1800C4F88C30D4F88C3023B12046FFF780FE9D
:108D2800C4F88C70B4F85E2092B2002AA4D12368EB
:108D3800196821F480711960996801EA0B0199603A
:108D48002021C4F888102267E26E012A0AD11A6825
:108D5800204622F01002B4F85C101A60FFF761FE9A
:108D6800E76689E72046FFF75AFEF9E79A6942F075
:108D780008029A6198E700BFFEFFFFEFA78A010C7F
:108D880038B504462169A26803680A4361691D6809
:108D9800C0690A43A149024329400A431A605A6834
:108DA800E16822F440520A435A609D4AA1699342FD
:108DB8001CBF226A11439A6822F06E4222F4306284
:108DC8000A439A60DA6A616A22F00F020A43DA6299
:108DD800944A93421BD1944BD3F8883003F0030391
:108DE800013B022B00F2EA80904AB0F5004FD35CB9
:108DF80040F0AC80082B26D8DFE813F0EF00E30042
:108E0800A6002500E900250025002500F300884A72
:108E1800934206D1844B874AD3F8883003F00C0379
:108E2800E3E7854A934219D17F4BD3F8883003F0A2
:108E38003003202B00F0BD8007D8002B00F0CA803B
:108E4800102B00F0C18001204FE0302BFBD1B0F592
:108E5800004F00F0C6804FF4004093E0774A9342F9
:108E68000FD1714BD3F8883003F0C003802B00F08A
:108E7800A08004D8002B00F0AD80402BE1E7C02B88
:108E8800E4E7B3F1502F13D103F5E033D3F888307A
:108E980003F44073B3F5007F00F08B8005D8002BF6
:108EA80000F09880B3F5807FCBE7B3F5407FCDE73E
:108EB8005B4A9342C7D15C4BD3F8883003F44063D4
:108EC800B3F5006F18D006D85BB1B3F5806FBAD18F
:108ED800FEF724FD07E0B3F5406FB4D14FF400402E
:108EE8000BE0FEF77FFD40B900204FF00113A366A9
:108EF8000023C4E91C3338BD5148524B626A656887
:108F080033F8122005EB4501B0FBF2F399429AD8E9
:108F1800B3EB053F97D80023194616F041FF090225
:108F280041EA10616B080002C0182A464FF000039E
:108F380041F1000116F034FF434BA0F540729A420C
:108F480081D82368D860CFE73D484AE0082B3FF630
:108F58007AAF01A252F823F0858F010CAF8F010C74
:108F6800C18F010C4F8E010CB58F010C4F8E010C77
:108F78004F8E010C4F8E010C5F8E010CFEF732FDF7
:108F88000028B1D0616A2F4A636832F81120B0FB1B
:108F9800F2F000EB5300B0FBF3F080B24FF6EF7342
:108FA800A0F11002CBE7FEF72DFDE9E7FEF7B6FCCE
:108FB800E6E7B0F5004FC7D02148E3E7B0F5004F2A
:108FC800F1D1FEF71FFD0AE0B0F5004FEED1FEF734
:108FD800A5FC04E0B0F5004FD0D1FEF703FD002852
:108FE80082D0616A174B626833F81130B0FBF3F333
:108FF800500800EB4300B0FBF2F04FF6EF7283B27B
:10900800A3F1100191423FF61EAF20F00F00226835
:1090180080B2C3F342031843D06065E7F369FFCF1A
:1090280000800050003801500010025000B4010CBC
:109038000044005003B4010C00480050004C00509C
:109048000024F40010B4010CFFFC0F00836A10B573
:10905800DA0706D50168C46A4A6822F40032224356
:109068004A609C0706D50168046B4A6822F480327E
:1090780022434A60590706D50168446B4A6822F4BE
:10908800802222434A601A0706D50168846B4A6821
:1090980022F4004222434A60DC0606D50168C46B0C
:1090A8008A6822F4805222438A60990606D50168AC
:1090B800046C8A6822F4005222438A605A0610D54A
:1090C8000168446C4A68B4F5801F22F4801242EAB1
:1090D80004024A6005D14A68846C22F4C002224323
:1090E8004A601B0606D50268C16C536823F4002346
:1090F8000B43536010BD2DE9F04104460E4615465A
:109108001F46DDF818802268D36936EA03030CBFCE
:1091180001230023AB4201D000201CE0B8F1FF3F3F
:10912800F2D002F039FBC01B40452068036802D822
:10913800B8F1000F11D123F4D0730360836823F0D2
:10914800010383602023C4F88430C4F888300023E6
:10915800032084F88030BDE8F0815A07D3D5C3696D
:109168001B05D0D54FF400630362036823F4D07362
:109178000360836823F0010383602023C4F88430EC
:10918800C4F88830C4F88C30E1E72DE9F7439846F5
:10919800D0F884300446202B0E4617464FD10029BC
:1091A8004BD0002A49D090F88030012B47D00123BA
:1091B800002580F880302123C0F88C50C0F8843016
:1091C80002F0EAFAA3688146B3F5805FA4F8547008
:1091D800A4F8567003D123690BB935461E460023FF
:1091E80084F88030B4F856204B4692B2CDF800800F
:1091F80042B940212046FFF77EFF48B92023C4F832
:10920800843006E0002280212046FFF774FF18B161
:10921800032003B0BDE8F08322685EB935F8023B4D
:10922800C3F308039362B4F85620013A92B2A4F843
:109238005620D7E716F8013BF4E70120E9E70220BA
:10924800E7E773B500260446C0F88C6002F0A4FA7C
:10925800236805461B681A0718D423681B685B0730
:109268000AD56FF07E43002200934FF480012B460D
:109278002046FFF740FFA8B920230020C4F8843017
:1092880084F88000C4F88830E0660CE06FF07E4314
:10929800324600934FF4001103462046FFF72BFF98
:1092A8000028DAD0032002B070BD10B5044650B3D0
:1092B800D0F884301BB980F88030FFF7AFFB242347
:1092C8002268C4F884301368204623F00103136031
:1092D800FFF756FD012816D0A36A13B12046FFF701
:1092E800B5FE23682046BDE810405A6822F4904233
:1092F8005A609A6822F02A029A601A6842F00102BB
:109308001A60FFF79EBF012010BD0000002310B5B2
:1093180081658168A0F85C20B1F5805FA0F85E20C7
:10932800036731D103696BBB40F2FF13A0F86030CB
:109338000023C0F88C302223C0F8883003689C686A
:1093480044F001049C60446EB4F1005F2CD1B0F885
:109358006840944228D8B1F5805F23D104691C4A3B
:109368001C49002C08BF0A460267002280F88020AA
:109378001A6842F480721A609A6842F080529A60C1
:10938800002010BDFF23D1E721B90369002BF9D0D4
:109398007F23CBE7B1F1805FC8D10369002BF7D0F9
:1093A8003F23C3E70A4ADFE7B1F5805F0ED10469BE
:1093B800094A0A49002C08BF0A460267002280F8B9
:1093C80080201A6842F490721A60D9E7024AF4E7DA
:1093D8001D8B010C558C010C2D8A010CA78A010CE0
:1093E800D0F8883010B4202B1BD1B9B1B2B190F8A5
:1093F8008030012B15D0012380F8803000230A4CDF
:10940800C3660368A34206D05C68240242BF1C6896
:1094180044F080641C6010BCFFF778BF012010BCCA
:1094280070470220FBE700BF00800050F8B5C0F38A
:109438000B0686B920F47F650A4F25F00F054418FE
:10944800AC4201D83046F8BD2846FB69984728B990
:1094580005F58055F4E74AF2C536F3E743F65C268E
:10946800F0E700BF28B1010C2DE9F74FDFF85C8069
:109478008146D8F804300E46984700248025144BBE
:10948800C0F3410013F820B0D8F81430114F0193FD
:10949800B5FBFBFA39465246019B09EB0400984795
:1094A800301952463946D8F818302C449847B4F544
:1094B800805F03D3002003B0BDE8F08F04F1800380
:1094C800B3F5805F8CBF00258025E1E728B1010C4A
:1094D80028B4010C908A023008B54FF480514FF43B
:1094E8007040FFF7A3FF38B9BDE808404FF470415A
:1094F8004FF46040FFF7B8BF08BD00002DE9F743FF
:10950800DFF868800546D8F804300F4614469847B7
:10951800174BC0F3410013F82090B5FBF9F309FB92
:109528001353FBB9B4FBF9F634B132463946D8F8CF
:10953800143005F56040984709FB06F6A41B0DD0CA
:1095480005F560400122D8F8143001A93044984745
:10955800224601A9B81902F022FA0024204603B0D5
:10956800BDE8F0834AF2C534F8E700BF28B1010C22
:1095780028B4010C2DE9F04F831887B0009303F647
:10958800FF754D4B06465B689146029198474B4FD5
:10959800C0F341003D40B5F5805F05D943F65C2432
:1095A800204607B0BDE8F08F454BB5F53F7F53F82F
:1095B8002030019333D309F6FF7106F56040394036
:1095C8003840FFF733FF04460028E9D1B5F53F7F5F
:1095D80088BF4FF43E7526F47F6ADFF8E8802AF0EA
:1095E8000F0AAA4525D3082241F2F82004A9FFF75B
:1095F80085FF04460028D3D1059B04A95A1C0233D1
:1096080004BF012305932C4B18BF05929B690822C0
:109618004EF2F8209847FFF75FFF0446C0E74FF483
:1096280080514FF46040FFF701FF04460028C2D084
:10963800B6E70AF18003AB4298BF4FF0800B9DF864
:10964800047088BFA5EB0A0BBBFBF7F71A4B3A4629
:1096580041465B690AF57040D3449847B34514D333
:10966800009B534511D9A01900F07F00C0F180027A
:10967800A3184B45029B88BFA9EB04021919404463
:10968800039202F08CF9039A14440B4B3A46414674
:109698009B690AF56040984710B187427FF47EAF16
:1096A800B24507D3009B534504D980220021404688
:1096B80002F03EF9DA4694E728B1010C00F0FFFF0A
:1096C80028B4010C908A02302DE9F041524D88B03F
:1096D8000020AB689847002874D1042202A9FFF73C
:1096E8000DFF044600287BD104224FF43F7003A9E4
:1096F800FFF704FF0446002872D1484E029BB3428C
:1097080003D1039B013B03336ED96B689847444BE5
:10971800C0F3410053F8207004224FF4805006A98A
:10972800FFF7ECFE044600285AD1042241F2FC203F
:1097380007A9FFF7E3FE0446002851D1069B4FF422
:109748008051B3424FF4604010D1079B013B033373
:109758000CD8FFF76BFE0446002841D14FF4604156
:109768004FF47040FFF780FE044639E0FFF75EFED5
:109778000446002834D1014680222A4802F0D8F84D
:10978800AB69284DFFB2019304F18003B3F5805F04
:1097980094BF4FF080084FF0000804F56040B8FB14
:1097A800F7F22946019B44449847B4F5805FEBD310
:1097B800FFF792FE044698B9042204A90496FFF71D
:1097C800D9FE10B143F65C240AE0012304224FF4C9
:1097D8003F7005A90593FFF7CDFE04460028F1D197
:1097E800204608B0BDE8F081042241F2FC2007A918
:1097F800FFF784FE04460028F2D1079B5A1E033265
:1098080006D8039A934203D30233E9D1012AE7D158
:10981800FFF762FEA8E700BF28B1010C1281DEC085
:1098280028B4010C908A0230FEF7C2BD08B5174B68
:1098380083F30A88164800F033FA58B900F0E5FABD
:1098480040B9FEF7FFFD28B9FEF77EFF28B1FEF705
:10985800F7FF20B1FFF7E8FF0EE0FEF743FF00F047
:1098680003FA35210B48FEF7EBFD02221A210A48BC
:1098780000F014FB00F0E8FA22210848FEF7E0FDAA
:1098880000F0DEF900F0C6F8002008BD0004023040
:109898009884023034B4010C69B4010C83B4010C0F
:1098A800F8B501F00C030C2B14BF0546154611F052
:1098B800400407460E4615D0AB6913F8024C86F0F3
:1098C8000803C3F3C003B3EBD41F01D0FFF7ACFF09
:1098D800412C0AD07F2C27D0402C2BD1284600F0D1
:1098E800C1FA1FE0FFF7A0FFE9E700F071FD414A68
:1098F800414BD2E900129A4208BF994206460DD060
:1099080008213E48FEF79CFD1B213D48FEF798FDC7
:10991800912202213B4800F0C1FAFEE701463A488D
:1099280000F0ECFA3046F8BDD5E90001FEF788FDF5
:109938002860F7E7344B9F4201D0FFF775FF102CE2
:1099480050D8DFE804F009164F1A4F4A404F252C2B
:1099580032454F4F4F3A3D0000F09DFE04462C60C3
:1099680000F05AF8294B1B688342DBD000F0D4FA88
:10997800D8E7286800F092FEF0E7D5E90223D5E998
:10998800000100F0A1FE0446204600F076FEE6E75E
:10999800D5E90223D5E9000100F0C2FFDEE7286817
:1099A800D5E9011200F0F8FFD8E7D5E90223D5E997
:1099B800000101F015F80024E6E701F09AF8FAE74B
:1099C80000F067FECAE7D5E9000100F077FFC5E7B8
:1099D800D5E9000101F040F8EDE7D5E9000100F014
:1099E80051FFBBE720210A48FEF72AFD6FF08304E8
:1099F800B5E700BFF80B0230A5EDF5FEA5B4010CE4
:109A0800CFB4010CADB4010CF80B02309C840230C9
:109A1800AFB4010C41DF7047044B186810B14378AC
:109A2800012B00D170478068F8E700BFA08402309E
:109A380008B568B908210E48FEF702FD0F210D4848
:109A4800FEF7FEFC472202210B4800F027FAFEE74A
:109A5800C9B20129094B417005D11A682AB10178A8
:109A68001278914201D3064A1068186008BD00BFF9
:109A7800A5B4010C05B5010CADB4010CA0840230ED
:109A8800A484023070B51346044668B90821144806
:109A9800FEF7D6FC0B211348FEF7D2FC392202212F
:109AA800114800F0FBF9FEE7104D286818B122783C
:109AB800067896420BD3A0602C606068002200F004
:109AC80037FA2046BDE870400121FFF7B1BF0546CF
:109AD800806810B106789642F9D3A060AC60ECE7D4
:109AE800A5B4010C14B5010CADB4010CA48402306A
:109AF80038B50546FFF790FF044600F00DFA05B1AA
:109B08002C606068BDE8384000F052BA08B50346DA
:109B180008461BB119680B4A91420DD008210A4822
:109B2800FEF78EFC0E210948FEF78AFC6622022108
:109B3800074800F0B3F9FEE758600221BDE8084085
:109B4800FFF776BF6A626F73A5B4010CF7B4010C16
:109B5800ADB4010C38B50D46044618B10268104B77
:109B68009A420DD008210F48FEF76AFC0D210E48D5
:109B7800FEF766FC6E2202210C4800F08FF9FEE722
:109B8800406860B14378022B09D10121FFF750FFEB
:109B980063682946586800F0B5F90023636038BD4A
:109BA8006A626F73A5B4010CEAB4010CADB4010C80
:109BB800402010EA0E0017D001B501F05FF8BDE8AB
:109BC8000440884210D072B6EFF3098222E9F00F00
:109BD80080E80440B1E804400B68B2E8F00F82F373
:109BE800098883F30B8862B670470000EFF308809A
:109BF8007146EFF30982EFF30B830CB406B4FFF759
:109C08004FFE864606BC0CBC00F0080001F00801B7
:109C1800401A01DC0DDB70470CB42DE9F00F074C3E
:109C2800254626462746A046A146A246A34630B466
:109C3800704730BCBDE8F00F06BC7047A5EDF5FED7
:109C4800084BDA6882F07F4282F47F0242F4804255
:109C5800DA6000221A765A76DA76DA77602283F8A2
:109C68002220704700ED00E07047000001F09EF8E8
:109C7800009A0A4B9A420FD10122904301460246AC
:109C88000346044605460646074680468146824600
:109C98008346844686460447FEE70000A5EDF5FEA8
:109CA8002DE9F04186B0064601F0D0F901F008F937
:109CB80001F09CF801F0B2FD044628B143F6DA340D
:109CC800204606B0BDE8F0811148FDF7FAFE2546AA
:109CD800104FDFF83C80052D0BD101220E4B1146A9
:109CE8000B481D60FDF79EFE0028E7D10223336074
:109CF800E6E73946142201A801F051FE404601A9C1
:109D08000195FDF7A7FE14370028D7D10135E2E702
:109D1800E47D023020B5010CAC840230F0B558B3B4
:109D280051B31826856900F1300202EB8502C56936
:109D3800836806FB05220C27066A002003F480745A
:109D4800864209D1003C18BF01240020C3F38023B8
:109D580043EA44030B60F0BD07FB00F505EB020C7A
:109D6800DCF808C01CF0080F04D0AD5825B90CB9B0
:109D78002368FFDE0130E3E743F6DA30EBE7EFF381
:109D8800148381F00201C1F3400161F3000383F3FE
:109D98001488BFF36F8F0020704710B5044608463B
:109DA80011460AB9002010BDF8B103F00602062AD0
:109DB80019D09A0719D50822A30758BF42F0040200
:109DC800E40709D5EFF39483DB074CBF42F00402A4
:109DD80022F0040242F0120215F06EFF0028E1D1D1
:109DE8006FF07F00DFE70122E6E74CF2DA20DAE7DE
:109DF800884206D0830706D581F00200C0F34000F0
:109E08007047002070470120704708B562B6FEF71A
:109E1800EBFA00F0DBFF002843F6DA3008BF002039
:109E280008BD0000014B1868704700BF34B6010C2C
:109E3800014B1B681868704734B6010C014B1B684E
:109E48005868704734B6010C044B1A8842F216035E
:109E58009A4202BF0122024B1A60704700FC03308D
:109E6800B084023010B504460A4B22891B68616829
:109E78005868062350F8100CFFF78FFF10B1032322
:109E8800236010BD044B1B68012BF8D100F05CFA6D
:109E9800F5E700BF9C840230B084023030B50C4630
:109EA800154685B038B139B1FEF7CAFA041E03DA8F
:109EB800204605B030BD04460A238DF80F300D2327
:109EC8008DF80E3009230C4901A805F00F028A5CB1
:109ED8002D091A54013B012BF7D178238DF8053051
