:020000040C01ED
:10440000F80B0230C16E010C157E010CF9B7010CDE
:1044100003B8010C0DB8010C21B8010C17B8010C40
:10442000000000000000000000000000059C010CDE
:10443000E96D010C00000000C99B010CEB6D010C43
:10444000ED6D010CEF6D010CF16D010CF36D010CC4
:10445000F56D010CF76D010CF96D010CFB6D010C94
:10446000FD6D010CFF6D010C016E010C036E010C62
:10447000056E010C076E010C096E010C0B6E010C30
:104480000D6E010C0F6E010C116E010C136E010C00
:10449000156E010C176E010C196E010C1B6E010CD0
:1044A0001D6E010C1F6E010C216E010C236E010CA0
:1044B000256E010C276E010C296E010C2B6E010C70
:1044C0002D6E010C2F6E010C316E010C336E010C40
:1044D000356E010C376E010C396E010C3B6E010C10
:1044E0003D6E010C3F6E010C416E010C436E010CE0
:1044F000456E010C476E010C496E010C4B6E010CB0
:104500004D6E010C4F6E010C516E010C536E010C7F
:10451000556E010C576E010C596E010C5B6E010C4F
:104520005D6E010C5F6E010C616E010C636E010C1F
:10453000656E010C676E010C696E010C6B6E010CEF
:104540006D6E010C6F6E010C716E010C736E010CBF
:10455000756E010C776E010C796E010C7B6E010C8F
:104560007D6E010C7F6E010C816E010C836E010C5F
:10457000856E010C00000000876E010C0000000039
:10458000896E010C8B6E010C8D6E010C8F6E010C0F
:10459000916E010C936E010C956E010C976E010CDF
:1045A000996E010C9B6E010C9D6E010C9F6E010CAF
:1045B000A16E010C00000000A36E010CA56E010CA1
:1045C000A76E010C00000000A96E010CAB6E010C7F
:1045D000AD6E010CAF6E010CB16E010CB36E010C2F
:1045E000B56E010CB76E010CB96E010CBB6E010CFF
:0445F000BD6E010C8F
:104600007FE97FE907F01CB87FE97FE907F026B86A
:104610007FE97FE907F030B80000000000000000EB
:10462000C039030CE07D02303800000020B6010CD8
:10463000201002300700000020B6010C200E0230CE
:044640000000000076
:10464400C07E0230150E000040100230681B0000CE
:10465400200E023080000000000E0230080000002E
:1046640000015F5F00000000FE070000859C010C54
:104674000004000000000000000000000000000032
:10468400000000000000000080B2023000000000C2
:1046940001015F5F030100001F010000D95A010CF2
:1046A400001B0000000000000100000001000000E9
:1046B4000000000000000000D8620230000000008A
:1046C40070000000101D030C80000000000F0000AB
:1046D40001000000CD5B010C0100000001015F5FDF
:1046E400130100001F0000003D6D010C00020000DA
:1046F40000000000020000000100000000000000B3
:1047040000000000200E02300000000080000000C5
:10471400700000001B1D030C30F1000001030000B9
:1047240001000000816C010C0100000001015F5FC9
:10473400010100001F0100008147010C2007000057
:104744000000000000000000010000000000000064
:1047540000000000B85B0230000000002F1D030CB5
:1047640070000000020F0000010000008547010CEA
:044774000100000040
:1047800000F0DAB86FF47A722DE9F043036804465A
:1047900013448BB0032B00F2B580DFE803F0024135
:1047A00081A20369082B7ED18569042D7BD100216C
:1047B000406804AA07F076FA082874D12B46022133
:1047C000606803AA07F06EFA04286CD1DDE90423BF
:1047D0004FF00008CDE90623A36867690893039B9F
:1047E000DFF828910993B7F5007F3B464A4628BF7A
:1047F0004FF400730121606807F054FA3A4603460B
:1048000006464946CDF8008006A800F0DBF80546CC
:1048100010B9BF1BB044E6D128460BB0BDE8F08309
:104820000369082B3FD14569042D3CD10021406824
:1048300004AA07F037FA082835D12B460121606811
:1048400002AA07F02FFA04282DD1DDE90423CDE9CF
:1048500006230122A368266A2C4F08930DF10C0849
:10486000B6F5007FCDE9008239463246029B28BF6B
:104870004FF4007206A800F0E9F805460028CBD1F5
:10488000039B002BC8D03A460146606807F00CFA3B
:10489000DDE902231A44F61A02922A46E0D1BBE768
:1048A0000369082B02D06FF08005B5E7076A0C2F6B
:1048B000F9D10021406804AA07F0F4F90828F2D1E0
:1048C000DDE9042306AEA068009600F0F5F8054681
:1048D0000028A1D101463B463246606807F0E4F962
:1048E0009AE70369082BDED10021406806AA07F089
:1048F000D9F90828D7D1DDE90623A06800F0FCF833
:10490000054689E76FF0850586E700BF4010023055
:104910001FB5084CCDE90023039003A904222046CB
:1049200007F045F808226946201D07F040F804B05A
:1049300010BD00BF5812023030B51D4B85B09D6AC6
:10494000A8470369082B03D06FF0800005B030BD85
:10495000A847184C8368A360A847037D01A8237665
:1049600003F01CFD0028EFD1019B9DF80C20636033
:10497000A36821465343029AE360B2FBF3F30E4867
:104980000E4A238200F0F5F90028DFD10A4800F032
:104990002BFA0028DAD00A4807F0EEF8064800F0B3
:1049A0003DFA0028D2D1044800F01EFACEE700BF3D
:1049B000F4B0010C20100230401202300C6C010CDB
:1049C000D86B010C2DE9F043C4681E4685B034F065
:1049D00007030F461546DDF830802AD1B8F1000FE5
:1049E0001BD1D0E9002352EA030125D0DFF858900B
:1049F0008068FFF78DFF4A461149124800F010FA0F
:104A000030B9D9F80830DB0705D56FF084000DE028
:104A100010F18C0F0AD144F440342B462246CDE9E4
:104A2000018707490748009600F01DFA05B0BDE868
:104A3000F0836FF08500F9E76FF08600F6E700BFBE
:104A4000581202304012023064120230F7B51D468F
:104A50009DF824300E4617463BB9144B1C68AC42F7
:104A600013D26FF0860003B0F0BDD0E9002352EA04
:104A70000301F6D08068FFF74BFF0C4A0C490D4844
:104A800000F0CEF90028E8D0EDE7641BBC4228BF57
:104A90003C462B46224606490648009600F0F2FAAC
:104AA0000028E0D1089B1C60DDE700BF64120230E3
:104AB0005812023040120230F8B516461F4656EA28
:104AC0000701069C0ED0094DFFF722FF2A46084930
:104AD000084800F0A5F920B92B68C4E90033AB6899
:104AE000A360F8BD6FF08600FBE700BF64120230E0
:104AF000581202304012023038B514461D4654EAAE
:104B0000050111D00B4CFFF703FF22460A490B4861
:104B100000F086F950B9A368DB0708D4BDE8384037
:104B20000549064800F09FBA6FF0860038BD6FF067
:104B30008400FBE764120230581202304012023047
:104B400008B5036800209B689847002818BF6FF0DD
:104B5000910008BDF8B51D46036804465B680E4623
:104B6000174698470B4BC0F3410013F820206368A9
:104B70000699E0681D442368B1FBF2F200FB065081
:104B800039469B6998470028B4BF6FF09100002018
:104B9000F8BD00BF006C010C0020704770B50446E2
:104BA0000E460025E068A84201D8002070BD636869
:104BB00006FB003023682844DB69984710B9A368D6
:104BC0001D44EFE76FF09100F0E700002DE9F34797
:104BD0000A9C07469246002C54D04268C66813448B
:104BE00006FB013603685B689847274BC0F341001A
:104BF00013F82080B6FBF8F508FB05F5AE421ED091
:104C00003B68012228465B6901A99847002804DA1D
:104C10006FF0910002B0BDE8F087711B63189845F2
:104C20008EBF2546A8EB0603ED1801AB2A46504679
:104C3000194406F0BCFE641B02D10020EAE70025FF
:104C4000A04510D8B4FBF8F93B684A465B690AEB0B
:104C50000501701998470028DADB09FB08F8B4EB66
:104C600008044544E9D03B6801225B6901A9701939
:104C700098470028CCDB224601A90AEB050006F084
:104C800096FEDAE72046C5E7006C010C2DE9F04FEF
:104C900003688FB006AA04460E46D3F80C8000F0D5
:104CA00015FC00285FD10BA800F0EEFE014600289D
:104CB0005CD1DDE9067A202206A8099D06F03CFEBB
:104CC0003146204606AA00F041FD00284BD183461C
:104CD00081462368DB8A5B4515D8002D35D12946EE
:104CE000204602AA00F070FC00283CD1294620464C
:104CF00002AA00F07EFEB0BB204600F063FE78B34F
:104D00006FF083002FE0B3451CD05946204606AA19
:104D100000F0DCFB38BB069BBB420DD10BA800F0BA
:104D2000B3FE48B9079B534506D9984528BF984616
:104D30005B1B0793099B99445946204606AA00F03D
:104D400005FD80B90BF1010BC3E743462A463946FE
:104D50002046CDE900A900F0C4F920B9002FCBD13D
:104D6000204600F09EFB0FB0BDE8F08F6FF08B0087
:104D7000F9E7F8B50D461746064690B389B382B3F6
:104D80000B8AB1F814C0012BCA68C88A23D9032B37
:104D900024D00024022B06D1A2EB40111839614522
:104DA00038BF6FF08604944588BF6FF08604022BED
:104DB0000CBF0123023B03EB40031B0108339A4263
:104DC0000FD334B918222146304606F0B5FDC6E9A6
:104DD00000572046F8BD6FF08604DBE76FF08604CD
:104DE000E1E76FF08604F4E737B5054600F08DFD86
:104DF000044658B94FF08071284601AA00F0C6FB5E
:104E000038B928460199FFF741FF0446204603B010
:104E100030BD10F18C0F18BF0446F7E700F0A4BCBA
:104E200070B58AB0144601AA06460D4600F08DFB07
:104E300018B16FF08B000AB070BD3046019902AA1C
:104E400000F044FB0028F6D10C22284607A906F002
:104E50009EFD0028EDD1059B6360049B2360BDF897
:104E60001830A360E7E72DE9F04F93B00DF1280863
:104E70001746DDE91C9504468A462022002140465B
:104E80009B4606F059FD4FF6FF7317F07F4FCDE9B3
:104E9000043304D06FF0860013B0BDE8F08F2368B0
:104EA0000BF1FF3B5E8A5146B3442046764204AA8A
:104EB00006EA0B0600F049FB002840F08C804246D1
:104EC0002046049900F002FB10B16FF08B00E3E77D
:104ED000BA03049904D50D9BB3426FD10C900E9781
:104EE00005914FF6FF73059A9A427CD123689B8AFD
:104EF000B342CFD3049906AB8A1ACDE9028305AB3E
:104F000018BF0122CDE9007351463346204600F018
:104F1000B4FB0028C0D1B9F1000F6CD120460A992A
:104F200006AA00F066FD002852D1059942462046A7
:104F300000F00CFC014600284AD1DDE904539D42F3
:104F400028BF1D4620462A4600F0CBFC00283FD152
:104F50004FF6FF72049B93420FD0059A93420CD0F8
:104F60009A4238BF1A462046691C00F0BAFC78BB4A
:104F7000DDE904539D4238BF1D4623682046DA8A86
:104F8000691C00F0AEFC18BB0A9B002B65D1B9F17F
:104F9000000F62D0204600F084FA00287FF47CAF36
:104FA0004FF6FF73049999423FF476AF059B9942FF
:104FB0003FF472AF2046FFF769FE6DE70E9B424655
:104FC00043F0807320460E9300F0C0FB002888D089
:104FD0006FF0830060E710F18C0F7FF45DAFFB038F
:104FE0007FF573AF7DE720460A9906AA00F0ECFA38
:104FF000002890D0ECE723685A8A531E2B42E7D151
:105000000C9B09F1FF3616449D42C2F1000206EAEC
:105010000206DDD8324629460D9800F029FD002809
:10502000D6D11E9B4246CDE9006320462B4606A9F9
:1050300000F0C7F80028CBD10C9B4D449D420A9943
:10504000204688BF0C95069D00F026FA294606905A
:105050000A9A204600F077FB60E7204600F0B2FC99
:10506000002897D0B4E713B501AA044600F06DFA02
:1050700028B920460199FFF709FE02B010BD6FF074
:105080008B00FAE7F0B58DB0164603AA04460F462A
:105090001D4600F05AFA18B16FF08B000DB0F0BD4C
:1050A0002046039904AA00F011FAB8B90C22384638
:1050B00009A906F06CFC0028EED132462946069874
:1050C00000F0D6FC0028E9D1129B2A460093204626
:1050D000334604A900F05AF80028DFD06FF08300AF
:1050E000DCE72DE9F04786B01646DDE90E9702AA07
:1050F000054688469A4600F067FA044698B9049A2D
:10510000414632442846049200F0C6F906467FB173
:1051100001464A462846CDE900A7029B00F0B3FBB2
:1051200028B16FF08304204606B0BDE8F087012760
:10513000039A4A450BD2A9EB0203CDE9002331467D
:105140002846029B00F09FFB0028EAD10127424637
:105150002846029900F0F7FA4146284602AA02962C
:1051600000F047FC044628B142463146284600F08C
:10517000EAFAD8E7B8F1000FD5D0002FD3D06B688A
:105180003146DB68286898470446CCE7F0B587B01D
:105190000D461646096802AA04461F4600F014FA96
:1051A00010B16FF083000AE002994B1CF9D06B68D4
:1051B00062680097556820680C9A3344A84707B086
:1051C000F0BD2DE9F3471546DDE90AA90F469846DB
:1051D0001168044600F060F96B687A689844A8EB9F
:1051E000020306460146CDE9002320463B6800F055
:1051F0004AFB20BB6368CDF800A0D3F808A04A465C
:10520000434631462068D047C8B9EB686A68B96838
:105210001A4423682046DB685B1A9B1ACDE90023F9
:1052200031463B6800F02FFB48B92B683BB1314653
:1052300063682068DB6802B0BDE8F047184702B039
:10524000BDE8F08713B510240B01416800948C6809
:10525000083341690068A04702B010BD436810B52B
:10526000416904461B690068984750B923681A8A47
:10527000022A06D96268A1681846BDE81040126982
:10528000104710BD0368188A02280CBF002003389D
:1052900000EB41000001183070472DE9F04F002568
:1052A00004460F4690462E464FF010098BB02068FA
:1052B000038A022B0CBF0023033B01339E420ED313
:1052C00000264FF02009D4F800A0BAF816309E420C
:1052D0001BD3002088F800500BB0BDE8F08F626847
:1052E0003301CDF80090D2F804A03946083302AA61
:1052F000D0470028F0D102AB13F8012B0130102861
:1053000085EA0205F8D10136D1E731462046FFF79C
:10531000B9FF6268CDF800900346D2F804B0394670
:10532000504602AAD8470028D6D102AB13F8012B69
:105330000130202885EA0205F8D10136C3E737B5E8
:10534000837B01685A1CD2B28273097E0446914263
:10535000416904BF02338373012900F10D020DD8A6
:10536000FFF79BFF40B90822636800929D6861695E
:105370000346A2182068A84703B030BD6FF086002E
:10538000FAE713B50C4611462279012A09D0022A00
:1053900004D10368A2791B7E9A420CD16FF083007E
:1053A00007E0036862791B7E9A420CBF6FF08300AE
:1053B000002002B010BD01290DD80DF10702FFF742
:1053C0006CFF0028F5D162799DF807309A4218BF2A
:1053D0006FF09100EDE76FF08600EAE70822F0B584
:1053E000436887B000925C6800236A44054619460A
:1053F0000068A047024600283CD000264FF0FF344A
:1054000008226B6800925F6801210023286804AAC3
:10541000B84700283BD10122284604A9FFF7B1FF75
:10542000002834D1002E30D02B689DF816201B7E2A
:105430009DF80E10B3FA83F35B099A4205D1002A56
:1054400014BF0220012081420BD1994205D10029CD
:1054500014BF022301239A4215D191422CBF00268A
:10546000012634462C61B4FA84F4002064096C618E
:1054700007B0F0BD284602A9FFF783FF04460028C5
:10548000BBD10126BCE70026EBE70124EAE7002EAA
:10549000E8D16FF08300EBE709B940697047806895
:1054A000704710B50446FFF74AFF70B96368616939
:1054B000DB682068984740B9D4E904232046C4E952
:1054C0000432BDE81040FFF7C9BE10BD2DE9F3411D
:1054D00005461446FFF7D6FE20216A6800915668FB
:1054E0000346224629692868B047064658B92B6802
:1054F00022681B8A022B0CBF0346033B01339A42EE
:1055000005D36FF09706304602B0BDE8F08104F194
:10551000140000F0B9FA0028F5D12F68E268BB8AC0
:105520009A42EED8A3689A42EBD3D4E900382BB95B
:105530002846F98AFFF7A6FE4045E2D84146F868BA
:1055400000F096FA0028DED0DBE7F0B505460E46FF
:105550001746002489B02B68DB8AA34202D86FF07B
:105560008B000CE06A4621462846FFF7AFFF50B992
:105570000C22314605A806F00AFA10B93C6009B0C1
:10558000F0BD0134E7E76FF08300F8E7F0B50546BA
:105590000E461746002489B02B68DB8AA34202D846
:1055A0006FF08B0009E06A4621462846FFF78EFF20
:1055B00038B9049B1E4202D03C6009B0F0BD0134F2
:1055C000EAE76FF08300F8E773B50B010546416821
:1055D000102000904C682868296908331646A047B7
:1055E0000446C0B92B6831681A8A914211D2D6E9B3
:1055F0000112D86800F03CFA044650B93368012B18
:1056000004D82B682846D98AFFF73CFE736883428A
:1056100001D06FF09704204602B070BD73B50B0146
:1056200005464168102000904E68286829690833B3
:105630001446B047E8B92B6821681A8A914216D2FD
:10564000D4E90112D86800F013FA80B92368012B5D
:1056500011D82A68138AD28A022B0CBF0346033B57
:1056600003EB42031B01183362689A4201D06FF0CA
:10567000970002B070BD0346F6E72DE9F04F0646ED
:10568000894690461F464FF0000B89B0DDE9145A59
:105690003368188A02280CBF002003380130834584
:1056A00002D36FF08D0420E0524659463046FFF792
:1056B0008BFF0446002835D1DAF8082097422ED80F
:1056C00033684946DB68C5F800B09B1A6B600C2252
:1056D000EF6005F1140006F06AF9129BAC602B61D3
:1056E000DAF80830DB1BCAF8083000253368DB8A9B
:1056F0009D4205D26A4629463046FFF7E7FEA0B133
:105700004FF6FF75139B1D60D4B94FF6FF739D4292
:1057100008BF6FF08D04204609B0BDE8F08F0BF193
:10572000010BB5E76FF08304DFE705A800F0ACF9E3
:1057300020B1B8F1000FE5D14FF001080135D5E7F0
:105740006FF08D04E7E702B18160704737B504461A
:10575000FFF798FD03462020616800908D6820685F
:105760006169A84703B030BD70B58CB00546FFF73E
:1057700035FE002860D16E696B6831461B69286868
:105780009847044600286FD1B6FA86F16B682868FE
:105790001B69490998470446002865D12A680126F3
:1057A000137EB3FA83F35B09AB73138AC5E904066E
:1057B000022B0CBF01230223AB6002232B73D18A7F
:1057C0002846FFF75FFDD3680190181A2146029022
:1057D0006A4628460096FFF735FD0446002843D167
:1057E00006462B680190DB6802932868038A022B27
:1057F00024D1002C44D12B681B8A022B02D0033BFE
:105800009C4225D32022002104A806F095F800240C
:105810002B68DB8AA3422AD82846FFF790FD08BBF5
:105820006B686969DB68286898470446E0B9D5E980
:105830000423C5E9043217E000269DE7033B9E429E
:10584000D7D26B68F11C1B69984701360443CCE73B
:10585000E31C01346A46214628460093FFF7F2FC18
:105860000028C8D06FF0830420460CB070BD2146DC
:10587000284604AAFFF76AFF0028F3D10134C7E7DE
:105880006FF09104F0E72DE9F04F04468846164684
:105890009946C3B0DDE94CA51DB9284643B0BDE823
:1058A000F08FB5F5807F2F4628BF4FF4807763686F
:1058B0000097D3F804B049465346206802AAD84757
:1058C0000028EBD163680097D3F808B0414633460F
:1058D000206802AAD8470028E0D13E44BA44ED1B14
:1058E000DAE737B504461546FFF7CCFC29460246F1
:1058F0002046FFF7C7FCD4E90431801ACDE9002027
:105900002046FFF7C0FF03B030BD2DE9F0414368EA
:1059100005461B68006886B09847044628B92846A3
:10592000FFF75CFD28B16FF08304204606B0BDE8A8
:10593000F08108266B6805F108070096D3F804800B
:105940003A46234629692868C0470028EBD13946E2
:1059500028462A69FFF715FD0028E4D12846FFF7FD
:105960007DFC04460028DED12B7B012B25D101468E
:105970000DEB06022846FFF751FE04460028D4D15D
:10598000049B2A68C3F1FF23D26803F57F03F83331
:105990001344CDE90063324628462B696969FFF755
:1059A00072FF04460028C0D16B7B2846AB730223EC
:1059B0002B73FFF776FD0446B7E7022B18BF6FF095
:1059C0008304B2E710B586B0002102AA0446FFF7AF
:1059D000FBFD60B9039A2068049BD118C368204678
:1059E0005B1ACDE90023D4E90431FFF74CFF06B080
:1059F00010BDF0B505460C4687B009B94369136080
:105A000021462846FFF71EFC0146C0B9D5E90476B9
:105A10007CB90021284622011832FFF733FC801A96
:105A2000CDE900203B4631462846FFF72CFF07B062
:105A3000F0BD284602AAFFF7C7FD014610B16FF07E
:105A40008300F4E7284602AA0296FFF7FBFB002832
:105A5000F5D1012CDDD918222301103B01933146E9
:105A60003B4628460092FFF70EFF0028D1D0DEE724
:105A7000814206D8401A904234BF6FF08600002061
:105A800070476FF08600704700F10C03984202D116
:105A90006FF08B00704710F8012B002AF6D0002021
:105AA0007047000038B5002441F204430448214601
:105AB00000F5A0552A68C45005F03EFF2C6038BDA3
:105AC000F032023041F20443024AD358036000200E
:105AD000704700BFF032023010B50D4806F04CF8A8
:105AE00000F030F9044688B94FF40251094806F035
:105AF000C5FA094806F012FB0AF058FA044628B91C
:105B000006F03EF9002818BF6FF08304204610BD50
:105B1000206C010C7012023079BB010C37B51146B4
:105B20000022CDE9002242680346302A046846D1AB
:105B300094F82C20022A17D0002A37D041F20440D2
:105B4000204D24682858013ACDE90040072A30D872
:105B5000DFE802F0040A0E13181D22276A461846D1
:105B600000F038FE03B030BD184600F050FAF9E7F7
:105B70006A46184600F005FBF4E76A46184600F04E
:105B80007BF9EFE76A46184600F0C0FBEAE76A4691
:105B9000184600F0DDFCE5E76A46184600F02CFDEB
:105BA000E0E76A46184600F05FFDDBE700F0E9FE3B
:105BB000D8E7054805F0E0FF6FF08500D2E76FF009
:105BC0008000CFE7F03202303C6C010C2DE9F04F41
:105BD000056804469FB0002D40F0AD802946202284
:105BE00002A805F0A9FE294620220AA805F0A4FE75
:105BF0002946042512AF3022384605F09DFE04F1F7
:105C00001C0353F804192A46013D09B1154601E069
:105C1000002DF6D1042604F12C0353F80419324662
:105C2000013E09B1164601E0002EF6D12DB96FF004
:105C3000830528461FB0BDE8F08F30233A46002187
:105C4000606806F02FF83028F1D1DFF8F4800121E8
:105C5000C146CDE9027004F1140B02AF08F5A05A59
:105C6000A942DAF800001DD10AAF3A464FF0000C05
:105C700004F1200303EB8608434533D1BCF1000F48
:105C800001D02E4B186041F20443A268294649F81E
:105C9000032002A833460AAAFFF740FF4FF000088E
:105CA000054641E05BF8043BC0F5A05203F1030C4C
:105CB0002CF0030C944504D9FFF7F4FE6FF08C052B
:105CC000B7E700EB08026044CAF800006068CDE95D
:105CD000001205F0E7FF019A0099F860013147F8DA
:105CE000082FBDE753F804EBC0F5A05A0EF10301ED
:105CF00021F00301514502F1080207D809EB000C1D
:105D000042E902CE08444FF0010CB5E7BCF1000FA8
:105D1000D2D00A4B1860CFE7414657E902236068AA
:105D200005F0C2FF08F10108B04507F10807F3D1FB
:105D3000FFF7B8FE7DE76FF085057AE7F0460230A1
:105D4000F032023008B54FF48C520021024805F0C1
:105D5000F3FD002008BD00BFF84602300023F7B570
:105D60000C6807460E461546019324BB32B31460F7
:105D700001A8FFF7A7FEB8B94FF40C72DFF844C0D2
:105D800002FB04F353F80C10A646013471B94FF02E
:105D9000010E0CEB03014CF803E0019A103363444D
:105DA000C1E9012734602B6003B0F0BD082CE7D1B6
:105DB0006FF08400F8E76FF08800F5E76FF0860079
:105DC000F2E700BFF84602300023F7B507680193F9
:105DD000013F072F036004D96FF08604204603B00B
:105DE000F0BD01A8FFF76EFE04460028F6D14FF47F
:105DF0000C757D430A4E73597719012BECD17A68E3
:105E0000019B9A42E8D105F110004FF40872214637
:105E1000304405F091FDC7E901447451DEE700BF4D
:105E2000F8460230002373B54D1E072D0646144672
:105E3000019303D96FF0880002B070BDBAB101A818
:105E4000FFF740FE0028F7D14FF40C716943094B6E
:105E50005D585A18012DEDD19568B542EAD15568C3
:105E6000019A9542E6D1103119442160E4E76FF0C0
:105E70008600E1E7F84602302DE9F0470025D0F82A
:105E8000009086B0B9F82CA00746BAF1040F0E4670
:105E90009046059515D10B1D03934B6802930B6833
:105EA0000193C36800938368D9F8042098E803003D
:105EB00009F024FE044600B17560204606B0BDE836
:105EC000F087BAF5827F0FD10B1D03934B680293C5
:105ED0000B680193C36800938368D9F8042098E89D
:105EE000030008F017FDE5E72AF48073B3F5017F9E
:105EF000D9F808101BD135680120296005AA294668
:105F0000FFF72CFF04460028D7D140F204539A45EE
:105F100049D025D8BAF5417F5AD040F204439A457A
:105F200035D0BAF5017F45D06FF08504C5E7012073
:105F300005AAFFF777FF40F204739A45044603D0A1
:105F400040F604039A455DD13568D9F808302B60D6
:105F5000002CDAD040F604039A45AED10024ACE719
:105F600040F204739A453BD040F604039A4544D06E
:105F700040F204639A45D7D1D7E90212331D019349
:105F8000736805980093336808F08EFC05E0059867
:105F9000331DD6E9001209F077FD044600288CD0A5
:105FA0000023736089E70598D7E9021208F05EFCC8
:105FB000044682E7D9F80430059898E8060008F00E
:105FC0003DFC04460028C9D02846FFF7FDFE74E7D3
:105FD000D9F80430059898E8060008F03BFCF0E793
:105FE000059806F10C03D6E9021208F077FC044686
:105FF0000028E9D00023F3605FE7059808F07CFBF8
:106000000446E1E700287FF458AF05467DE72DE917
:10601000F0430025D0F8008085B0B8F82C900646F3
:10602000B9F1020F0F46029511D10B1D01934B6878
:1060300000930B68D0E90212D8F8040007F003FFC0
:10604000044600B17D60204605B0BDE8F083B9F597
:10605000817F0AD1436900938168D0E90323D8F88E
:10606000040007F000FF0446EDE740F202239945E3
:10607000D8F8081011D13D680320296002AA2946EA
:10608000FFF76CFE04460028DDD1D8F80410029812
:1060900007F0EDFD0446C8B137E002AA0320FFF780
:1060A000C1FE40F2025229F400739342044603D029
:1060B00040F20263994550D13D68D8F808302B6012
:1060C000002C4ED040F202739945BCD10024BAE7AF
:1060D00040F2026399451FD040F2027399454DD1B9
:1060E000029807F0B9FD04460FE00298D6E90212C3
:1060F00007F056FEB7E7029807F10C03D7E9021242
:1061000007F062FE044620B900242846FFF75CFE33
:1061100099E70023FB6096E70298D6E9021207F0A0
:1061200064FE044600288ED1EEE700230393B36893
:106130003D681B68294603202B6003AAFFF70EFE6B
:10614000044600287FF47FAFDDE9020107F0BEFEC0
:10615000044600283FF477AFD7E700287FF473AFF9
:10616000054640F202539945C5D0B1D840F20233FA
:106170009945BAD040F202439945D6D06FF08504D4
:1061800061E72DE9F0474FF0000AD0F8009086B0A3
:10619000B9F82C600546032E0F469046CDF814A0A2
:1061A00016D10B1D03934B6802930B680193C368D0
:1061B00000938368D9F8042098E8030008F01EF8DB
:1061C000044608B1C7F804A0204606B0BDE8F08731
:1061D00040F203139E420ED1436902930369019377
:1061E000C36800938368D9F8042098E8030008F096
:1061F0001AF80446E8E740F2032226F4807393423B
:10620000D9F808101FD1D7F800A00220CAF8001052
:1062100005AA5146FFF7A2FD04460028D4D140F25A
:1062200003539E4255D02BD840F203339E4242D0B6
:1062300040F203439E4246D040F203239E422CD0BC
:106240006FF08504C0E705AA0220FFF7EBFD40F2DE
:10625000035226F400739342044603D040F20363D2
:106260009E424ED1D7F800A0D9F80830CAF80030C5
:10627000002CD4D040F203739E42A5D10024A3E7A2
:1062800040F203639E4232D040F203739E42D7D164
:10629000059807F02DFE044609E0D9F8043005986A
:1062A00098E8060007F087FE04460028E6D050462E
:1062B000FFF78AFD88E7D9F80430059898E80600CA
:1062C00007F085FEF0E70598D5E9021207F08BFE8E
:1062D0008FE7059807F10C03D7E9021207F095FE46
:1062E000044608B90024E2E70023FB606CE7059848
:1062F000D5E9021207F068FF044600287FF464AF76
:10630000F0E700287FF460AF824688E72DE9F04788
:106310004FF0000AD0F800808AB0B8F82C7006461A
:10632000052F0D469146CDF824A020D10B1D0793D3
:106330004B6806930B680593C368049383680393C3
:1063400043690293036999E803000193D8F8283060
:106350000093D8F8042008F1180308F063FB044602
:1063600008B1C5F804A020460AB0BDE8F08740F2A5
:1063700005139F4219D10B1D07934B6806930B68B9
:106380000593C36804938368039343690293036985
:1063900099E803000193D8F828300093D8F8042036
:1063A00008F1180308F098FBD9E740F2052227F41A
:1063B00080739342D8F8081021D1D5F800A00520A9
:1063C000CAF8001009AA5146FFF7C8FC0446002885
:1063D000C9D140F205739F4200F09E803BD840F245
:1063E00005439F4279D028D840F205239F425AD0D6
:1063F00040F205339F4264D06FF08504B3E709AAE9
:106400000520FFF70FFD40F6051227F400739342B5
:10641000044604D040F605239F4240F09480D5F80E
:1064200000A0D8F80830CAF80030002CD1D040F6CF
:1064300005339F4297D1002495E740F205539F42D0
:1064400058D040F205639F42D6D1D8E9041209988A
:1064500008F088FC53E040F605239F4262D019D82B
:1064600040F605039F424CD040F605139F42C3D12E
:10647000D5E9041205F10C030293EB680998019326
:10648000AB68009305F1140308F0F4FC044600BB6C
:10649000002412E040F605339F42ADD1099808F080
:1064A00075FB044609E0D8F80430099899E806001D
:1064B00008F01EFC04460028BDD05046FFF784FCBF
:1064C00051E7D8F80430099899E8060008F01CFC58
:1064D000F0E70023EB606B6145E709982B1DD5E9D8
:1064E000001209F0A9FB044600283FF43CAF00234A
:1064F0006B6038E70998D6E9021208F011FC0446EF
:1065000031E72B1D01936B6809980093D6E90212BD
:106510002B6808F07DFCE6E70998D6E9021208F03E
:106520004DFCECE7F36809980193B368D5E90212D2
:10653000009305F10C0308F0D9FC04460028A7D00D
:106540000023EB600FE700287FF40DAF824640E7A1
:1065500030B50D4640F206211446026885B0938D91
:106560008B423AD008D8062B17D0B3F5837F27D0BB
:106570006FF0850005B030BD40F206318B42F7D197
:106580004369029303690193C36800938368526867
:1065900094E8030007F0E8FFECE72B1D03936B681A
:1065A00002932B680193C36800938368526894E850
:1065B000030007F0B9FE0028DCD000236B60D9E7A8
:1065C0004369029303690193C36800938368526827
:1065D00094E8030007F008FFCCE72B1D03936B68DA
:1065E00002932B680193C36800938368526894E810
:1065F000030007F057FFDEE730B50C46114602688E
:1066000087B0938D072B07D040F20715AB4219D006
:106610006FF0850007B030BD231D059363680493B8
:10662000236803934369029303690193C36800934A
:106630008368526803C907F0ABFF0028EAD0002343
:106640006360E7E7231D059363680493236803935E
:106650004369029303690193C36800938368526896
:1066600003C907F0F1FFE8E700232DE9F0430768CD
:1066700091B0BE8D8146082E0D46904605930FD1F0
:106680000B1D03934B6802930B680193C36800933F
:106690008368D2E90012786809F029FB04460EE00D
:1066A000B6F5847FB9680ED12D680420296005AA4B
:1066B0002946FFF753FB0446002800F0828020465D
:1066C00011B0BDE8F083042005AAFFF7ABFB044638
:1066D00080B140F608139E42F1D12D68BB682B6053
:1066E000002C75D1059808F025FC04462846FFF7D4
:1066F0006BFBE4E7B6F5A16F41D013D8B6F5427F46
:1067000032D005D8B6F5027F29D06FF08504D6E7E0
:10671000B6F5816FF9D1D9E90223F98D059809F011
:1067200005F9BBE7B6F5E16F23D00FD8B6F5C16F19
:10673000EBD1D9F80C30F98D0193D9F808300598D0
:10674000009398E80C0009F02BF9A7E740F608033E
:106750009E421BD040F608139E42D6D1BDE7296861
:10676000059808F0CFFD99E7F968059808F0D3FD82
:1067700094E70598D5E9001208F0DCFD8EE7F98D65
:10678000059898E80C0009F0DAF887E7D9F808606E
:106790000146282206A82D6805F0CEF83046D8F824
:1067A000041006AA00F0F1F80446002887D14246FA
:1067B000059906A808F022FFD8F8003004462B609F
:1067C0007DE77968059809F083F8044600288DD1A3
:1067D000002474E72DE9F0470D4640F201510368AB
:1067E00004469B8D16468B4257688EB070D031D8C8
:1067F00040F201218B4260D00AD8012B6DD040F2CB
:10680000011293427BD06FF085000EB0BDE8F08797
:1068100040F20132934256D040F201429342F2D10B
:10682000D0E90489D0F808A02822002104A82C6807
:1068300005F082F83946504604AA00F0A6F8002870
:10684000E3D133464A46414604A807F0F4F83368DA
:106850002360DAE740F60102934270D010D840F28C
:10686000016293425DD040F201729342CBD196E82F
:1068700003002B1D0093D5E9002307F0A1F858E091
:1068800040F6011293425FD040F601229342BAD102
:106890002822002104A805F04FF83946A06804AA70
:1068A0002D6800F072F80028AFD1314604A809F035
:1068B000B5FA0028A9D1336861E0D2E900012C685B
:1068C0000BF07BFAC3E796E803000BF094FA9CE721
:1068D000D2E9000106F027FF97E72822002104A84B
:1068E00005F02AF896E8030004AA2C6806F046FF93
:1068F00000288AD1214604A800F072F885E72822F2
:10690000002104A805F018F82C683946204604AA8E
:1069100000F03BF800287FF478AF04A809F096FB5C
:10692000E8E72B1D0093D5E9002396E8030006F065
:10693000D4FF00283FF469AF00236B6065E796E859
:1069400003000BF075FA60E72822002104A804F088
:10695000F3FF00233946A06804AACDE902332D686D
:1069600000F013F800287FF450AF96E8030002AB64
:1069700004AA07F0CEF800287FF447AF029B2B60F3
:1069800043E7D1E9000109F05BB82DE9F041884601
:10699000164607468AB000B3FAB135466C4628223F
:1069A0000021684604F0C8FF0FCC0FC50FCC0FC5FF
:1069B00094E8030085E8030000203B8833807B686F
:1069C0007360FB6833613B6973617B887380BB686C
:1069D000C6E902380AB0BDE8F0816FF08000F9E73F
:1069E00030B561B158B1D0E901230468D0E904059C
:1069F000C1E903050020C1E900428B6030BD6FF0A2
:106A00008000FBE713B56C4684E8030094E80300BC
:106A100005F09EF9002814BF6FF08B00002002B033
:106A200010BD00002DE9F04314465368002213F016
:106A3000FF0F02BF23F0FF0343F00103636030291F
:106A400007460E4687B0E26027D8D4E9020104ADBC
:106A500002AB01AA85E80300FFF7D4FF0546C0B9E1
:106A60004FF06809DFF838800298282209FB00807F
:106A70002146343004F09BFF02983246394609FB28
:106A8000008004F094FF0122029B09FB03831E6334
:106A9000DA65284607B0BDE8F0836FF08905F8E7AE
:106AA0007858023030B587B06C4684E8030015464C
:106AB00094E8030004AB03AAFFF7A4FF30B96821F0
:106AC000034A049B01FB03231B6B2B6007B030BD03
:106AD000785802302DE9F04F0728804614461D46AD
:106AE0008BB070D8682707FB08F73A48C319DB6DED
:106AF0000646002B67D022B96FF086000BB0BDE8C8
:106B0000F08F5368D2E902B9126907F134010144E8
:106B10000992204628220DF1240A079304F047FF2A
:106B200052464946584605F0FBF8079B10B16FF0F6
:106B30008400E3E7099813F0FF02C4E902B908BF33
:106B4000A260C2044FF0680248BF40F4806002FBBC
:106B500008686360830448BF40F400602061D8F88F
:106B60003020149B9A4231D8002DC5D0159B002BA4
:106B7000C2D010F480443E441BD00420CDF82490B1
:106B800015F012FC149B0022CDE903530423CDE938
:106B900001A3D8F8303011460093334619F088F934
:106BA00020B9159B1A46149B1360A7E76FF083006A
:106BB000A4E73146284604F0FAFED8F83030159A9A
:106BC000204613609AE76FF08B0097E76FF089001B
:106BD00094E700BF785802304372656174696E674C
:106BE00020616E20656D7074792049545320666C65
:106BF000617368206C61796F75742E0D0A00000056
:106C0000010000000200000004000000414B010CE4
:106C1000CD4B010C554B010C994B010C9D4B010CBC
:106C20005B494E465D5B43727970746F5D206D6F9A
:106C300064756C6520696E69740D0A005B4552527B
:106C40005D5B43727970746F5D20556E7375707003
:106C50006F727465642072657175657374210D0AB5
:106C60000000000000000000000000000000000024
:106C70000000000000000000000000000000000014
:106C800030B501254FF48072254B9DB0CDE90B3511
:106C9000244B0468CDE90E23302310AACDE9072345
:106CA00004930BAB099314230A9302AB05930423BB
:106CB00010950D950392069364BB1B4804F05CFF8E
:106CC00040F201532146CDE90044ADF86C3003AAEF
:106CD0002B46164805F00CF840F60123ADF86C3051
:106CE00005AB2146009311480223019507AA04F041
:106CF000FFFF044638B10E4804F03EFF6FF08004F9
:106D000020461DB030BD0B4804F036FF284604F085
:106D1000D1FFF5E7084804F02FFF6FF08504EFE797
:106D2000002400010011C0044C6D010C0001004062
:106D3000636D010C7A6D010C976D010C08B502486A
:106D400004F01AFF002008BDAC6D010C48656C6CA6
:106D50006F2073656375726520776F726C64212094
:106D60000D0A004572726F722067656E65726174FC
:106D7000696E67206B65790D0A004B657920676540
:106D80006E657261746564207375636365737366A1
:106D9000756C6C790D0A0053656375726520576FC9
:106DA000726C64206572726F720D0A005B44424718
:106DB0005D5B4578616D706C655D2054464D5F4547
:106DC0004E5452595F504F494E542E2E2E0D0A00EC
:106DD00000000000000000000000000000000000B3
:086DE000484900000100000019
:106DE800FEE7FEE7FEE7FEE7FEE7FEE7FEE7FEE773
:106DF800FEE7FEE7FEE7FEE7FEE7FEE7FEE7FEE763
:106E0800FEE7FEE7FEE7FEE7FEE7FEE7FEE7FEE752
:106E1800FEE7FEE7FEE7FEE7FEE7FEE7FEE7FEE742
:106E2800FEE7FEE7FEE7FEE7FEE7FEE7FEE7FEE732
:106E3800FEE7FEE7FEE7FEE7FEE7FEE7FEE7FEE722
:106E4800FEE7FEE7FEE7FEE7FEE7FEE7FEE7FEE712
:106E5800FEE7FEE7FEE7FEE7FEE7FEE7FEE7FEE702
:106E6800FEE7FEE7FEE7FEE7FEE7FEE7FEE7FEE7F2
:106E7800FEE7FEE7FEE7FEE7FEE7FEE7FEE7FEE7E2
:106E8800FEE7FEE7FEE7FEE7FEE7FEE7FEE7FEE7D2
:106E9800FEE7FEE7FEE7FEE7FEE7FEE7FEE7FEE7C2
:106EA800FEE7FEE7FEE7FEE7FEE7FEE7FEE7FEE7B2
:106EB800FEE7FEE7FEE7000008B572B6204B83F355
:106EC8000988204B83F30A8883F30B881E4B1AA189
:106ED800D1E90001C3E9000100F040F81B4B1C494F
:106EE800A3F10C028A4217D300201A4B1A49A3F1C6
:106EF80008028A421DD304F017FC53F80C0C50F812
:106F0800224053F8080C40F82240013253F8040C90
:106F18008242F2D30C33E3E70022F7E753F8084C38
:106F280044F82200013253F8044CA242F6D3083345
:106F3800DDE70022F7E700BFA5EDF5FEA5EDF5FEBC
:106F4800F80B023000040230F80B02302C46010C1A
:106F58004446010C4C46010C6446010C014A024BA4
:106F68009A6070470044010C00ED00E0F8B5044653
:106F780000680F46022832D0032837D0012833D1C1
:106F8800374B1B689D0737D5354D2B6823F0806339
:106F98002B6004F001FC06462B68190107D504F0A4
:106FA800FBFB801B0228F7D92B68180123D4A368A0
:106FB800D4F800C01E0263682948013B1D01E7B1EF
:106FC800012F3FD10369274A27691A4042EA0C0377
:106FD8007F083343013F2B4343EA475317E0204BD5
:106FE8001B6813F4806FCFD1012005E01C4B1B6890
:106FF80013F4C02FF7E70320F8BD03691A491940B5
:1070080041EA0C03E168334343EAC1632B43144D5F
:1070180003612B6843F080632B6004F0BDFB0646D8
:107028002B681B0107D404F0B7FB801B0228F7D993
:107038002B681A01DFD50A4AA169136900200B439E
:107048001361D9E70269094B1340626943EA0C03EB
:10705800334352082B43013A43EA4263D7E700BF60
:10706800001002500C809FFF0C80FF070C80FFF976
:1070780070B504460068022844D0032849D0012886
:1070880045D1274B1B689D0749D5254D2B6823F013
:1070980080532B6004F080FB06462B68990007D5C7
:1070A80004F07AFB801B0228F7D92B68980035D4A6
:1070B8001B4D1C4B6A69134022681343A26843EABC
:1070C8000223E26843EAC2636268013A43EA0213B0
:1070D8006B612B6843F080532B6004F05DFB064620
:1070E8002B689B0007D404F057FB801B0228F7D9B4
:1070F8002B689A0012D50A4A2169536900200B436C
:1071080053610CE0064B1B6813F4806FBDD101205E
:1071180005E0034B1B6813F4C02FF7E7032070BD8D
:10712800001002500C80FF072DE9F347056804465C
:1071380015F4006507D0C16E402923D013D839B3A0
:1071480020292CD001252368DB040AD5216FB1F54D
:10715800007F30D027D8A1B3B1F5807F00F03C8103
:1071680001252E463DE0602901D08029EAD1A84AB0
:10717800E16ED2F89C30002523F0E0030B43C2F8FF
:107188009C30E0E7A24AD36843F48033D360EEE74B
:107198000430FFF7EBFE05460028D4D1E7E720309E
:1071A800FFF766FFF7E7B1F5407F02D0B1F5806FD2
:1071B800D6D12E4609E0964AD36843F48033D3608B
:1071C800F7E7201DFFF7D2FE0646002E40F00981A2
:1071D8008F4A216FD2F89C3023F4E0630B43C2F846
:1071E8009C3023689F0330D5894B9A6DD00000F1FD
:1071F800FA804FF001089A6D42F080529A659B6DB3
:1072080003F080530193019B824F3B6843F48073E2
:107218003B6004F0C1FA81463B68DA0509D404F002
:10722800BBFAA0EB09000228F6D93B68D90540F162
:107238001E81002E00F0DA803546B8F1000F04D028
:10724800734A936D23F0805393652368DA0708D552
:107258006F49606BD1F8882022F003020243C1F81D
:1072680088209F0708D56A49A06BD1F8882022F0AA
:107278000C020243C1F88820580708D56449E06B1E
:10728800D1F8882022F030020243C1F8882019077B
:1072980008D55F49206CD1F8882022F0C00202434B
:1072A800C1F88820DA0608D55949606CD1F88820D9
:1072B80022F440720243C1F888209F0608D5544939
:1072C800A06CD1F8882022F440620243C1F88820DB
:1072D800980508D54E49E06DD1F8882022F440225F
:1072E8000243C1F88820590508D54949206ED1F8CC
:1072F800882022F440120243C1F888205A0208D597
:107308004349606ED1F8882022F440020243C1F854
:1073180088209B010CD5A36EB3F1807F00F0AA8072
:10732800B3F1007F00F0B680002B00F0A8800125A3
:1073380023685F0608D53649E06CD1F8882022F426
:1073480040520243C1F888201E0608D53049206DF6
:10735800D1F8882022F440420243C1F88820D80599
:1073680008D52B49606DD1F8882022F440320243B9
:10737800C1F88820D90208D52549A06DD1F89C20EC
:1073880022F003020243C1F89C209A0410D5204A37
:10739800616FD2F88830B1F1006F23F0406343EA9F
:1073A8000103C2F888307DD1D36843F48013D360D9
:1073B80023681B0340F19980A16F154BB1F5804FED
:1073C8007BD1D3F89C2042F48042C3F89C20DA6831
:1073D80042F48032DA6088E004F12000FFF748FECA
:1073E800F2E63546FDE64FF000080DE7084FD7F8FE
:1073F800903013F440730FD1054AD4F89010D2F8A6
:10740800903023F440730B43C2F8903015E700BF67
:107418000010025000700050D4F890209342EBD036
:10742800D7F89020D7F8903022F4407143F4803395
:10743800C7F89030D7F8903023F48033C7F89030ED
:10744800D307C7F89010D7D504F0A6F941F2883AC7
:107458008146D7F890309907CED404F09DF9A0EB77
:1074680009005045F5D9D7F890309807C4D40325BA
:107478002E46E2E6544AD36843F48013D3607EB9BB
:10748800514AA16ED2F8883023F040730B43C2F8FA
:1074980088304DE70021201DFFF768FD0646EEE71E
:1074A800354645E7B1F1806F82D10121201DFFF7F4
:1074B8005DFD002818BF05467AE7D3F88820B1F1AA
:1074C800806F22F0406242EA0102C3F88820D3F8B4
:1074D8009C2022F48042C3F89C206ED10121201DFB
:1074E800FFF744FD002818BF054623685F0310D541
:1074F800354AE16FD2F88830B1F1006F23F040636C
:1075080043EA0103C2F888304CD1D36843F48013AE
:10751800D36023685E0414D52B49D4F88020D1F8B1
:107528008830B2F1805F23F0405343EA0203C1F888
:10753800883006D10221201DFFF718FD002818BF4A
:1075480005462268D00309D51F49D4F88400D1F82C
:107558009C3023F004030343C1F89C30910209D501
:107568001949D4F88800D1F89C3023F01803034354
:10757800C1F89C30D30111D5134AD4F88C10D2F835
:107588009C30B1F5001F23F4401343EA0103C2F80D
:107598009C3003D1D36843F48013D360284602B0EB
:1075A800BDE8F087B1F1806FB3D10121201DFFF74D
:1075B800DDFC002818BF0546ABE7B1F1006F94D198
:1075C800DA6842F4801205E70010025070470000A4
:1075D80038B50446002830D0437A03F0FF0213B9C7
:1075E8000272FFF7F3FF022322686372136861686F
:1075F80023F004031360136823F0804323F020036F
:107608000B4343F080431360214B13614AF2B323C9
:107618001361136823F08043136004F0BDF8054636
:1076280023681A6851000AD41A6842F004021A60E2
:107638005B685A0611D50423637201200CE004F03C
:10764800ABF8401B0228EBD923681B685800E7D524
:10765800012002236072E36038BD04F09DF80546FE
:107668002368586810F0040003D101236372E060B6
:10767800F2E704F091F8401B0228F1D923685B680F
:107688005B07EDD5042363720223E360D5E700BFEF
:10769800BC0A59177047002313B5019303685A6849
:1076A800520709D45A6822F040025A60C36823F08E
:1076B8000803C360002018E01A6842F080421A608C
:1076C8001A6822F080421A6002220192019A013A55
:1076D8000192019A5AB901244472C368027243F0B4
:1076E8000203C360FFF7D6FF204602B010BD1A6838
:1076F8005400EBD45A68510642BF5A6822F040023F
:107708005A6002220192019A013A0192019A002AD2
:10771800E1D05A685207F6D4C8E7F8B5037A0546A7
:10772800012B0E463ED00124437A0472A34236D17F
:107738000223437203685C6814F0400406D00823EF
:10774800C360FFF7A8FF0128044626D004F024F8F8
:1077580007462B685A68D00710D59A6859682A6175
:10776800490643BF0822EA605A68326044BF22F0E3
:1077780001025A6001236B7200230DE004F00CF83B
:10778800C01B0228E5D92B685B6813F00103E0D120
:10779800012402226C72EA602B722046F8BD042391
:1077A800C360E9E70224F8E7024A536843F4007328
:1077B800536070470070005000232DE9F04F5F4C74
:1077C800DFF88081DFF880910A6832FA03F501D189
:1077D800BDE8F08F4FF0010C0CFA03FC1CEA020222
:1077E80000F09D8003264D684FEA430E25F0100AED
:1077F8000AF1FF3706FA0EF6012F6FEA060611D8CE
:10780800876807EA060BCF6807FA0EF747EA0B07FF
:107818008760476827EA0C0CC5F300179F4047EAC2
:107828000C074760C768BAF1020F07EA060C8F68B1
:1078380007FA0EF747EA0C07C76016D14FF00F0C8E
:107848004FEAD30A00EB8A0A03F0070BDAF8207034
:107858004FEA8B0B0CFA0BFC27EA0C0C0F6907FAA2
:107868000BF747EA0C07CAF8207007683E4005F096
:10787800030707FA0EFE4EEA06060660EE004ED52E
:107888004FF00F0C23F0030707F1A04707F53D372A
:1078980003F0030E3E6E4FEACE0E0CFA0EFC26EAFB
:1078A8000C0C274EB0423CD006F58066B0423AD068
:1078B80006F58066B04238D006F58066B04236D00C
:1078C80006F58066B04234D0404534D048450CBFF8
:1078D8000626072606FA0EF646EA0C063E66D74343
:1078E800D4F8806015F4803F0CBF3E401643C4F8BE
:1078F8008060D4F8846015F4003F0CBF3E40164306
:10790800C4F88460266815F4801F0CBF3E401643F7
:1079180026606668AD0254BF3E4016436660013378
:1079280052E70026D6E70126D4E70226D2E7032647
:10793800D0E70426CEE70526CCE700BF00F40250C6
:10794800000002520014025200180252244A93689E
:10795800D16813F00C0305D00C2B16D101F00301EC
:10796800012919D11168090754BFD2F89420126867
:107978001C4954BFC2F30322C2F3031251F8220078
:1079880013B10C2B09D000207047042B26D0082BEC
:10799800154818BF002070470020114AD168D368E5
:1079A80001F00301C3F30313022903F1010305D016
:1079B800032903D0D268C2F3062203E0D2680A483A
:1079C800C2F30622B0FBF3F0054B5043DB68C3F368
:1079D800416301335B00B0FBF3F070470248704726
:1079E8000010025098B0010C0024F40008B5FFF70D
:1079F800ADFF044B044A9B68C3F30313D35CD84020
:107A080008BD00BF0010025080B0010C08B5FFF798
:107A1800EDFF044B044A9B68C3F30223D35CD840B0
:107A280008BD00BF0010025090B0010C08B5FFF768
:107A3800DDFF044B044A9B68C3F3C223D35CD840E0
:107A480008BD00BF0010025090B0010C002918BFFB
:107A58000421002A18BF022203680748114318634B
:107A680059605A6842F001025A60BFF34F8FBFF362
:107A78006F8F0020704700BF04AAFF444A6803467E
:107A880012F01F0010B524D11C680B7822F01F02D9
:107A9800A3600B7C03F0010313438A7CD20002F03D
:107AA80018021A434B7C5B0003F006031343E360A0
:107AB8008B68013B23F01F02CB685B0003F00E03C9
:107AC800134343F001032361BFF34F8FBFF36F8F5D
:107AD80010BD0120FCE7036800205A68C9B258604D
:107AE8009960D86018615A60704738B505460368D0
:107AF8001C68C4F307240CB9204638BD013C214654
:107B08002846FFF7E8FFF6E7042A09DB0B6803605D
:107B180000F1040001F10401A2F10402042AF5DADB
:107B2800002A09D00B78037000F1010001F101016E
:107B3800A2F10102012AF5DA70470000064B82B073
:107B48001868002382B262F30F03000C60F31F432E
:107B5800184602B0704700BFF0B0010C0C20704707
:107B680000207047012805D9022814BF6FF00400CF
:107B7800002070476FF0030070476FF003007047F4
:107B8800014B1868704700BF3485023000487047C1
:107B9800D8B0010C08B54FF47A7000F0BDF9002098
:107BA80008BD70B5446994B10023013A00690A44DC
:107BB800251D834201D1002070BD54F833608E42E8
:107BC80003D855F83360B24201D90133F1E70120F7
:107BD800F2E700002DE9F04114461F4B4FEA8208F6
:107BE8001A6806466FF341021A60421E02EB8402CD
:107BF800B2F5002F0D4611D3184A94693CB16FF0C5
:107C080004001A6842F002021A60BDE8F081424698
:107C1800FF21284603F08CFE2046F6E70023104F8C
:107C2800424601460D483B60FFF7BBFF424680B124
:107C380006F140612846FFF767FF3B6823B14246DB
:107C48000021284603F074FE002324F040403B60E6
:107C5800DBE706F10061EDE734850230147E02307F
:107C6800388502302DE9F04F374C4FEA82082368F7
:107C780007466FF341038A46164601464246334893
:107C880085B02360FFF78DFF314B7A1E00284244F0
:107C980015BF4FF0010999464FF0406B4FF0006B4C
:107CA800B2F5002F0CD248EA070515F0070507D1F1
:107CB800264BD3E902C12B4601F1040E634508D1D6
:107CC8006FF00400236843F00203236005B0BDE8A9
:107CD800F08F51F83300874203D35EF833008242B5
:107CE8002BD90133EAE7002315E0BBB908220AEBD8
:107CF80005010DEB020003F056FEDDE90223591CD5
:107D080008BFB2F1FF3FEED00BEB0701484629440C
:107D180000F040F903460835A845E6D122680193EA
:107D28006FF30002226000F0E3F8019B26F0404068
:107D3800002B18BF4FF0FF30C8E700F0B9F82368F0
:107D480043F001032360D1E734850230147E02300A
:107D58000100008030B5B0F5002F014687B008D289
:107D6800C0F30B032BB9264AD2E90002141D834243
:107D780008D16FF00400234A136843F0020313602C
:107D880007B030BD52F83350A94203D354F83350EA
:107D9800A94201D90133EAE704221948FFF701FF94
:107DA8000028194B18BF0223B1F5802F02932CBF6E
:107DB8000223012303930223B1F5812F05934FEA90
:107DC800D12300D3803B0F4D04932B686FF34103FD
:107DD8002B6000F06DF82B6801A943F001032B60BC
:107DE80002A800F073F904462B686FF300032B60B8
:107DF80000F07EF8201E18BF01204042C0E700BFF7
:107E0800147E02303485023002000080174B1A6B52
:107E180002F02042B2F1204F27D11A6B42F02042E3
:107E28001A63134A136801331360734603F00F0390
:107E38000D2B14D1EFF30982D2E90631C9010CD513
:107E480023F00101098801F46840B0F5684F04D0B7
:107E580001F47841B1F5704F04D1043303E0EFF336
:107E68000882E9E7023393617047FEE70020025079
:107E7800388502300B4930B58D680B4C0B4931EA17
:107E8800250128BF2146EFF3108572B60C6844F02F
:107E980001040C600260BFF36F8F436085F31088A4
:107EA80030BD00BFF47D0230282002402C20025053
:107EB8000D4B9A6A002A1A4604DBD36A002B0BDBA7
:107EC800002070470949996001F1883199609B6ADF
:107ED800002BF2DA01207047044BD36003F188339A
:107EE800D360D06AC00F7047002002502301674555
:107EF800084B9A6A42F000429A629A6A002ABFBF07
:107F0800DA6A002042F00042DA62ACBF0120DB6A84
:107F1800704700BF00200250F8B51A4F044603F01E
:107F28003BFC3D4606197B6ADA031AD4164B174AFE
:107F38009868174931EA200128BF11460A68286A5B
:107F480002F0FA0200F40050024312D058681043BD
:107F5800586093040A6002D54FF400532B62012045
:107F68000EE0611CDFD003F017FCB042DBD3032026
:107F780006E0086810F0010002D0012310460B60EB
:107F8800F8BD00BF00200250F47D023020200240DE
:107F9800242002502DE9F041164C1F46237805464F
:107FA800012B0E46904623D00123237000234FF463
:107FB8007A706360FFF7B0FFB0B90F4B0F48A56048
:107FC80033EA250528BF054642463B463046FFF7BB
:107FD80051FF4FF47A70FFF79FFFA2682B6822F0D9
:107FE800004223EA02032B6000232370BDE8F081DE
:107FF8000220FBE7F47D02302C20025028200240AA
:1080080010B5EFF3108172B6124B134A9C68134BEC
:1080180033EA240328BF1346114A126C520212D5C0
:10802800C40742BF1A6842F004021A60820703D5E7
:108038001A6842F400421A601A6842F480321A60E0
:1080480081F3108810BD1A6842F4004242F004021D
:10805800F1E700BFF47D0230282002402C200250B6
:108068000020025030B5EFF3108472B6134B144A57
:108078009D68144B33EA250328BF1346124A126C35
:1080880012F4800F1A6813D122F400621A601A6879
:1080980022F47E7222F0020242EAC00242F0020298
:1080A8001A601A6842F480321A6084F3108830BD6E
:1080B800C907E9D442F40062E8E700BFF47D023062
:1080C800282002402C200250002002502DE9F843BD
:1080D800264D06462B788946012B45D001232B7067
:1080E80000234FF47A706B60FFF716FF0446F0B96F
:1080F80033681F4A1F49AB6031EA230828BF9046FE
:1081080048F2040223F00043934215D17068FFF748
:1081180077FF4FF47A70FFF7FFFE0446AA68D8F895
:10812800003022F0004223EA0203C8F8003000239E
:108138002B702046BDE8F8834FF0FF33C9F80030B4
:10814800B768D6E902321344BB42E7D938467168AA
:10815800FFF788FF4FF47A70FFF7DEFE10B1C9F819
:108168000070DAE70137ECE70224E2E7F47D023039
:10817800282002402C200250B1F5417F30B565D24D
:10818800050F00F01F0202EB4514322C5ED883065F
:1081980033D5002C5AD140F201138B4319D12C4B03
:1081A8001A694FF0FF321A61586902F5EE2202434C
:1081B8005A6140F202238B4314D1254B1A6A4FF0BF
:1081C800FF321A62596A02F5EE220A435A62002007
:1081D80012E0CD05EDD51E4B1A691C6158691D4A80
:1081E8000240E5E78C05F2D50020194B1A6A18629F
:1081F800596A184A0A405A6230BD40F20110164BBB
:1082080088432B444FEA83030FD101201C68904018
:108218002043186040F2022088430ED101211869DA
:1082280001FA02F202431A61D1E7C805F2D5012426
:108238001868944020EA0400EBE78905C7D50120B7
:10824800196900FA02F221EA0202ECE70120D3E7F9
:10825800002403500090F8FF04C9001420F0805057
:10826800B0F1005F30B502D0194B98422DD10A68A1
:1082780032F0004329D14D6835F0804425D11543AB
:10828800144AB0F1005F144B08BF13461A6818BFB0
:10829800082022F0404242EA05021A6012BF6FF03D
:1082A800FF024FF07F4218201D6908312A400D6EE9
:1082B8002A431A6104F1400251F8045B0134A042D8
:1082C80043F82250F6D1002030BD0120FCE700BF62
:1082D80000000320002C03500030035020F0805091
:1082E800B0F1005F10B521D0134B984222D14FF462
:1082F8008033124802685B0B02F080444C604FF0F8
:10830800FF3402F000420A6002699C4022EA04023B
:108318008A660022083102F1400450F824400132F4
:10832800934241F8044BF6D1002010BD4FF440337E
:108338000348DFE70120F8E700000320003003507E
:10834800002C035010B5030F00F01F0404EB431179
:10835800472918D810F020000AD0A1B94FF0FF32F1
:108368000A4B08461A600A4A5A60FF229A6010BDF2
:10837800012203F1A05303F54A439B001968A24068
:108388000A431A60F3E70120F1E700BF0028035011
:10839800FF6FFF3F48B14FF490324FF40053C0E9EC
:1083A800002301230372002070474CF2DA20704743
:1083B80072B620BFFDE7000037B5084C63699847DF
:1083C80048B9E56AA847C307FCD4236A019303B0F8
:1083D800BDE830401847002003B030BD94B3010C0D
:1083E80008461146FFF7E8BF10B5114C0020A368F6
:1083F800984728B15B210F4B0F4A104817F068FFC8
:1084080002202369984718B15E210A4B0A4AF4E70B
:108418004FF4E1310120A46AA04718B16221054B4D
:10842800054AEAE72346BDE8104001211520184710
:1084380094B3010C20B1010C7AB1010C35B1010CD7
:10844800FFF7BABF01F042B91E2819D8DFE800F0DB
:108458001018101414101014101010101010101000
:1084680016161616181818181818181818161000AE
:10847800202300200B6070470423FAE74023F8E725
:108488004CF25A30704737B50C4601A91D46FFF724
:10849800DBFF38B9019B29469A4228BF1A46204675
:1084A80001F02EF803B030BD13461E2870D8DFE85F
:1084B80000F0106F15191D2125292D3135393D4240
:1084C800474C51565B606F6F6F6F6F6F6F6F6F6563
:1084D8006A000A4600200421FFF7D5BF0A46022099
:1084E8002421F9E70A4603204421F5E70A46042037
:1084F8004821F1E70A4605204C21EDE70A46062007
:108508006C21E9E70A4607208C21E5E70A4608209E
:108518009021E1E70A460920B021DDE70A460A2052
:10852800D021D9E70A460B20F021D5E70A460C20CE
:108538004FF48871D0E70A460D204FF49871CBE7C5
:108548000A460E204FF41471C6E70A460F204FF46E
:108558001C71C1E70A4610204FF4A871BCE70A460F
:1085680011204FF4C871B7E70A4612204FF4E8719A
:10857800B2E70A4613204FF40471ADE70A461D20FE
:108588004FF42471A8E70A461E204FF43471A3E77C
:108598004CF25A3070472DE9F0411E4682B0D31D87
:1085A80023F0070300AF0D46ADEB030D391D14464C
:1085B800E846FFF749FF20B97B68934205D24AF2A3
:1085C800C5300837BD46BDE8F0816946284600F049
:1085D80097FF0028F5D1A04205D10246314628462A
:1085E80000F0CAFFEDE7325C18F800309343E6D19B
:1085F8000130F0E713461E2870D8DFE800F0106F4E
:1086080015191D2125292D3135393D42474C515623
:108618005B606F6F6F6F6F6F6F6F6F656A000A4691
:1086280000200421FFF7B7BF0A4602202421F9E7FA
:108638000A4603204421F5E70A4604204821F1E7C9
:108648000A4605204C21EDE70A4606206C21E9E799
:108658000A4607208C21E5E70A4608209021E1E731
:108668000A460920B021DDE70A460A20D021D9E7C9
:108678000A460B20F021D5E70A460C204FF48871F2
:10868800D0E70A460D204FF49871CBE70A460E2032
:108698004FF41471C6E70A460F204FF41C71C1E766
:1086A8000A4610204FF4A871BCE70A4611204FF47F
:1086B800C871B7E70A4612204FF4E871B2E70A46D4
:1086C80013204FF40471ADE70A461D204FF42471BE
:1086D800A8E70A461E204FF43471A3E74CF25A303B
:1086E800704700000000000007B508216A46022014
:1086F800FFF7DAFE14A3D3E90023DDE9000199426C
:1087080008BF90420FD10E210B48FFF799FE2E218A
:108718000A48FFF795FE20210948FFF791FE072137
:108728000848FFF78DFE08220021684603F000F98B
:1087380003B05DF804FB00BF85B1010C93B1010CD7
:10874800C1B1010C2EB4010CA9B454B26D6F90A440
:1087580007B50421072001AAFFF7A6FE20B9019852
:1087680001288CBF0020012003B05DF804FB000045
:1087780007B520210020074AFFF73CFF30B9012345
:108788000421072001AA0193FFF734FF03B05DF825
:1087980004FB00BF41B2010C07B520210220214A89
:1087A800FFF728FF00283AD1042103201E4AFFF7CB
:1087B80021FFA0BB04211D4A0846FFF71BFF70BB21
:1087C800202106201A4AFFF715FF40BB2021082068
:1087D800184AFFF70FFF10BB20210920164AFFF7A0
:1087E80009FFE0B920210A20144AFFF703FFB0B9B6
:1087F80020210B20124AFFF7FDFE80B940211D20E1
:10880800104AFFF7F7FE18B14CF25A33984206D1D6
:1088180003230421072001AA0193FFF7EBFE03B00D
:108828005DF804FB65B2010C85B2010C89B2010C3C
:10883800ADB2010CCDB2010CEDB2010C0DB3010CBF
:108848002DB3010C4DB3010C07B50421072001AA73
:10885800FFF72AFED8B924211448FFF7F1FD0E21AD
:108868001348FFF7EDFD38211248FFF7E9FD2021F5
:108878001148FFF7E5FD07211048FFF7E1FD019BCF
:1088880043B10421072001AAFFF70EFE38B103B057
:108898005DF804FBFFF76CFF0028F2D0F7E7019BB7
:1088A800012BF4D1FFF778FFF1E700BFE1B1010C2C
:1088B80085B1010C05B2010CC1B1010C2EB4010C3B
:1088C800064B82B01868002382B262F30F03000CD3
:1088D80060F31F43184602B0704700BF8EB3010C07
:1088E8000120704700207047002070476FF0030098
:1088F80070470020704700207047002382B0019322
:10890800019802B070476FF003007047002382B0EF
:108918000193019802B0704710B50C46014630B17A
:108928002CB10448A2B200F05FFD204610BD6FF0E4
:108938000400FBE73C8502300A4608B5014640B111
:108948003AB14FF47A73044892B200F022FC002046
:1089580008BD6FF00400FBE73C85023030B52C4CB5
:108968008BB0E36C082543F04003E364E36C03F049
:1089780040030193019BA36D43F08053A365A36D4E
:1089880003F080530293029BFEF70EFFE36C8022F4
:1089980043F04003E364E36C05A903F04003039349
:1089A800039BE36D43F00103E365E36D194C03F0AA
:1089B80001030493049B0223CDE9052308930123B3
:1089C800204607930995FEF7F7FE4FF4807320467B
:1089D80005A905930995FEF7EFFE4FF4E1330E481C
:1089E8000E490C22C0E900130023C0E905234FF407
:1089F8000042C0E90233C0E907230361436200F083
:108A080058FC003818BF012040420BB030BD00BFF1
:108A180000100250001802523C85023000800050BD
:108A2800002070477047704770477047D0F888201B
:108A380010B5222A0446036830D15B6A90F86010AA
:108A4800826D0B401370836D01338365B0F85E301F
:108A5800013B9BB2A0F85E30B0F85E2092B2CAB972
:108A68000368196821F490711960996821F001016F
:108A780099602021C0F888100267C26E012A0AD1C5
:108A88001A68B0F85C1022F010021A60FFF7CDFFE8
:108A98000023E36610BDFFF7C6FFF9E79A6942F0C5
:108AA80008029A61F6E7D0F8882010B5222A044611
:108AB80003682ED1596AB0F860201140826D22F8FF
:108AC800021B8265B0F85E20013A92B2A0F85E20DF
:108AD800B0F85E2092B2C2B9196821F49071196099
:108AE800996821F0010199602021C0F88810026777
:108AF800C26E012A0AD11A68B0F85C1022F010027E
:108B08001A60FFF792FF0023E36610BDFFF78BFFA3
:108B1800F9E79A6942F008029A61F6E72DE9F84FF9
:108B280003680446DD69D3F800909E68D0F8882071
:108B3800222A40F085800027B0F86080B0F868A04D
:108B4800DFF80CB106F00106BAF1000F01D0AB0650
:108B580014D4B4F85E309BB273B1B4F868209A426A
:108B68000AD923689A6822F080529A60374A2267A5
:108B78001A6842F020021A60BDE8F88F2368A26DD7
:108B88005B6A03EA08031370A36D0133A365B4F8A5
:108B98005E30013B9BB2A4F85E302368DD696A074A
:108BA8002AD0E8070AD519F4807F07D001221A6273
:108BB800D4F88C2042F00102C4F88C20A90708D50B
:108BC8003EB102221A62D4F88C2042F00402C4F8A2
:108BD8008C206A0708D53EB104221A62D4F88C307A
:108BE80043F00203C4F88C30D4F88C3023B120460B
:108BF800FFF71AFFC4F88C70B4F85E2092B2002A0E
:108C0800A2D12368196821F480711960996801EA72
:108C18000B0199602021C4F888102267E26E012AAE
:108C28000AD11A68204622F01002B4F85C101A60C3
:108C3800FFF7FBFEE76687E72046FFF7F4FEF9E754
:108C48009A6942F008029A6196E700BF358A010CDA
:108C5800FEFFFFEF2DE9F84F03680446DD69D3F8FE
:108C680000909E68D0F88820222A40F08380002750
:108C7800B0F86080B0F868A0DFF808B106F0010627
:108C8800BAF1000F01D0AB0614D4B4F85E309BB231
:108C980073B1B4F868209A420AD923689A6822F016
:108CA80080529A60364A22671A6842F020021A6097
:108CB800BDE8F88F2368A26D596A08EA010122F815
:108CC800021BA265B4F85E20013A92B2A4F85E20B5
:108CD800DD696A072AD0E8070AD519F4807F07D02A
:108CE80001221A62D4F88C2042F00102C4F88C20C8
:108CF800A90708D53EB102221A62D4F88C2042F0A6
:108D08000402C4F88C206A0708D53EB104221A620E
:108D1800D4F88C3043F00203C4F88C30D4F88C308B
:108D280023B12046FFF780FEC4F88C70B4F85E20AB
:108D380092B2002AA4D12368196821F480711960BD
:108D4800996801EA0B0199602021C4F8881022670C
:108D5800E26E012A0AD11A68204622F01002B4F8FD
:108D68005C101A60FFF761FEE76689E72046FFF7A7
:108D78005AFEF9E79A6942F008029A6198E700BF3B
:108D8800AF8A010CFEFFFFEFF8B504462169A2681F
:108D980003680A4361691D68C0690A43A14902431F
:108DA80029400A431A605A68E16822F440520A438B
:108DB8005A609D4AA16993421CBF226A11439A686E
:108DC80022F06E4222F430620A439A60DA6A616ADB
:108DD80022F00F020A43DA62944A93421BD1944B61
:108DE800D3F8883003F00303013B022B00F2EA803A
:108DF800904AB0F5004FD35C40F0AC80082B26D8E1
:108E0800DFE813F0EF00E300A6002500E9002500E5
:108E180025002500F300884A934206D1844B874AEF
:108E2800D3F8883003F00C03E3E7854A934219D15D
:108E38007F4BD3F8883003F03003202B00F0BD803F
:108E480007D8002B00F0CA80102B00F0C180012049
:108E58004FE0302BFBD1B0F5004F00F0C6804FF447
:108E6800004093E0774A93420FD1714BD3F8883092
:108E780003F0C003802B00F0A08004D8002B00F082
:108E8800AD80402BE1E7C02BE4E7B3F1502F13D1BD
:108E980003F5E033D3F8883003F44073B3F5007F6B
:108EA80000F08B8005D8002B00F09880B3F5807F08
:108EB800CBE7B3F5407FCDE75B4A9342C7D15C4B24
:108EC800D3F8883003F44063B3F5006F18D006D8A0
:108ED8005BB1B3F5806FBAD1FEF738FD07E0B3F5A3
:108EE800406FB4D14FF400400BE0FEF78FFD40B95E
:108EF80000204FF00113A3660023C4E91C33F8BD1A
:108F08005148524B626A656833F8122005EB4501F7
:108F1800B0FBF2F399429AD8B3EB053F97D80023F8
:108F2800002117F057F80F0247EA10670602680891
:108F380030182A464FF0000347F1000117F04AF8AD
:108F4800434BA0F540729A4281D82368D860CFE796
:108F58003D484AE0082B3FF67AAF01A252F823F0C9
:108F68008D8F010CB78F010CC98F010C578E010C26
:108F7800BD8F010C578E010C578E010C578E010CBA
:108F8800678E010CFEF742FD0028B1D0616A2F4AB6
:108F9800636832F81120B0FBF2F000EB5300B0FB2D
:108FA800F3F080B24FF6EF73A0F11002CBE7FEF7B3
:108FB8003DFDE9E7FEF7CAFCE6E7B0F5004FC7D08C
:108FC8002148E3E7B0F5004FF1D1FEF72FFD0AE0A5
:108FD800B0F5004FEED1FEF7B9FC04E0B0F5004F54
:108FE800D0D1FEF713FD002882D0616A174B626862
:108FF80033F81130B0FBF3F3500800EB4300B0FB3B
:10900800F2F04FF6EF7283B2A3F1100191423FF6EE
:109018001EAF20F00F00226880B2C3F3420318434A
:10902800D06065E7F369FFCF008000500038015039
:1090380000100250CCB3010C00440050CFB3010C17
:1090480000480050004C00500024F400DCB3010C30
:10905800FFFC0F00836A10B5DA0706D50168C46AF9
:109068004A6822F4003222434A609C0706D5016808
:10907800046B4A6822F4803222434A60590706D5B5
:109088000168446B4A6822F4802222434A601A0726
:1090980006D50168846B4A6822F4004222434A607C
:1090A800DC0606D50168C46B8A6822F48052224324
:1090B8008A60990606D50168046C8A6822F4005211
:1090C80022438A605A0610D50168446C4A68B4F590
:1090D800801F22F4801242EA04024A6005D14A68DD
:1090E800846C22F4C00222434A601B0606D502683B
:1090F800C16C536823F400230B43536010BD2DE962
:10910800F04104460E4615461F46DDF818802268D1
:10911800D36936EA03030CBF01230023AB4201D015
:1091280000201CE0B8F1FF3FF2D002F035FBC01B75
:1091380040452068036802D8B8F1000F11D123F424
:10914800D0730360836823F0010383602023C4F88D
:109158008430C4F888300023032084F88030BDE8C8
:10916800F0815A07D3D5C3691B05D0D54FF40063E6
:109178000362036823F4D0730360836823F0010358
:1091880083602023C4F88430C4F88830C4F88C3055
:10919800E1E72DE9F7439846D0F884300446202BC0
:1091A8000E4617464FD100294BD0002A49D090F8D7
:1091B8008030012B47D00123002580F880302123FF
:1091C800C0F88C50C0F8843002F0E6FAA3688146F3
:1091D800B3F5805FA4F85470A4F8567003D12369DE
:1091E8000BB935461E46002384F88030B4F8562063
:1091F8004B4692B2CDF8008042B940212046FFF795
:109208007EFF48B92023C4F8843006E0002280217C
:109218002046FFF774FF18B1032003B0BDE8F083C0
:1092280022685EB935F8023BC3F308039362B4F8C9
:109238005620013A92B2A4F85620D7E716F8013B17
:10924800F4E70120E9E70220E7E773B500260446C2
:10925800C0F88C6002F0A0FA236805461B681A075C
:1092680018D423681B685B070AD56FF07E43002279
:1092780000934FF480012B462046FFF740FFA8B922
:1092880020230020C4F8843084F88000C4F8883093
:10929800E0660CE06FF07E43324600934FF4001115
:1092A80003462046FFF72BFF0028DAD0032002B040
:1092B80070BD10B5044650B3D0F884301BB980F89F
:1092C8008030FFF7AFFB24232268C4F8843013688A
:1092D800204623F001031360FFF756FD012816D03E
:1092E800A36A13B12046FFF7B5FE23682046BDE800
:1092F80010405A6822F490425A609A6822F02A0272
:109308009A601A6842F001021A60FFF79EBF0120B6
:1093180010BD0000002310B581658168A0F85C20AD
:10932800B1F5805FA0F85E20036731D103696BBB9C
:1093380040F2FF13A0F860300023C0F88C302223DD
:10934800C0F8883003689C6844F001049C60446E4F
:10935800B4F1005F2CD1B0F86840944228D8B1F538
:10936800805F23D104691C4A1C49002C08BF0A46A7
:109378000267002280F880201A6842F480721A601E
:109388009A6842F080529A60002010BDFF23D1E70E
:1093980021B90369002BF9D07F23CBE7B1F1805FB6
:1093A800C8D10369002BF7D03F23C3E70A4ADFE798
:1093B800B1F5805F0ED10469094A0A49002C08BF3B
:1093C8000A460267002280F880201A6842F49072E8
:1093D8001A60D9E7024AF4E7258B010C5D8C010C71
:1093E800358A010CAF8A010CD0F8883010B4202BD4
:1093F8001BD1B9B1B2B190F88030012B15D001233F
:1094080080F8803000230A4CC3660368A34206D064
:109418005C68240242BF1C6844F080641C6010BC75
:10942800FFF778BF012010BC70470220FBE700BFA0
:1094380000800050F8B5C0F30B0686B920F47F65AC
:109448000A4F25F00F054418AC4201D83046F8BD44
:109458002846FB69984728B905F58055F4E74AF28C
:10946800C536F3E743F65C26F0E700BFF4B0010C1D
:109478002DE9F74F164D81466B68884698470024BA
:109488008026144BC0F3410013F820B06B69124FCB
:109498000193B6FBFBFA39465246019B09EB0400DF
:1094A800984708EB040052463946AB69344498475C
:1094B800B4F5805F03D3002003B0BDE8F08F04F15A
:1094C8008003B3F5805F8CBF00268026E1E700BFEC
:1094D800F4B0010CF4B3010CCC85023008B54FF49C
:1094E80080514FF47040FFF7A5FF38B9BDE8084038
:1094F8004FF470414FF46040FFF7BABF08BD000059
:109508002DE9F743DFF86C800646D8F804300F469B
:1095180014469847164BC0F3410013F82050B6FB89
:10952800F5F305FB1363FBB9B4FBF5F934B14A460F
:109538003946D8F8143006F56040984705FB09F518
:10954800641B0DD006F560400122D8F8143001A93B
:1095580028449847224601A9781902F024FA0024E1
:10956800204603B0BDE8F0834AF2C534F8E700BFEF
:10957800F4B3010CF4B0010C2DE9F04F831887B057
:10958800009303F6FF754D4B06465B6891460291C2
:1095980098474B4FC0F341003D40B5F5805F05D972
:1095A80043F65C24204607B0BDE8F08F454BB5F57F
:1095B8003F7F53F82030019333D309F6FF7106F546
:1095C800604039403840FFF735FF04460028E9D1AC
:1095D800B5F53F7F88BF4FF43E7526F47F6ADFF804
:1095E800E8802AF00F0AAA4525D3082241F2F8207C
:1095F80004A9FFF785FF04460028D3D1059B04A9D9
:109608005A1C023304BF012305932C4B18BF059243
:109618009B6908224EF2F8209847FFF75FFF04463F
:10962800C0E74FF480514FF46040FFF703FF044652
:109638000028C2D0B6E70AF18003AB4298BF4FF0CA
:10964800800B9DF8047088BFA5EB0A0BBBFBF7F7EE
:109658001A4B3A4641465B690AF57040D34498472D
:10966800B34514D3009B534511D9A01900F07F00CE
:10967800C0F18002A3184B45029B88BFA9EB0402E6
:1096880019194044039202F08EF9039A14440B4BC3
:109698003A4641469B690AF56040984710B18742AF
:1096A8007FF47EAFB24507D3009B534504D980228F
:1096B8000021404602F03CF9DA4694E7F4B0010C88
:1096C80000F0FFFFF4B3010CCC8502302DE9F04126
:1096D800524D88B00020AB689847002874D1042206
:1096E80002A9FFF70DFF044600287BD104224FF49E
:1096F8003F7003A9FFF704FF0446002872D1484EC3
:10970800029BB34203D1039B013B03336ED96B68C1
:109718009847444BC0F3410053F8207004224FF49B
:10972800805006A9FFF7ECFE044600285AD104220F
:1097380041F2FC2007A9FFF7E3FE0446002851D1B7
:10974800069B4FF48051B3424FF4604010D1079B01
:10975800013B03330CD8FFF76DFE0446002841D1C6
:109768004FF460414FF47040FFF782FE044639E041
:10977800FFF760FE0446002834D1014680222A48BB
:1097880002F0D6F8AB69284DFFB2019304F18003CB
:10979800B3F5805F94BF4FF080084FF0000804F5E0
:1097A8006040B8FBF7F22946019B44449847B4F55A
:1097B800805FEBD3FFF792FE044698B9042204A910
:1097C8000496FFF7D9FE10B143F65C240AE00123A2
:1097D80004224FF43F7005A90593FFF7CDFE044618
:1097E8000028F1D1204608B0BDE8F081042241F2FA
:1097F800FC2007A9FFF784FE04460028F2D1079B46
:109808005A1E033206D8039A934203D30233E9D18E
:10981800012AE7D1FFF762FEA8E700BFF4B0010C08
:109828001281DEC0F4B3010CCC850230FEF7C0BD56
:1098380008B5174B83F30A88164800F039FA58B967
:1098480000F0EDFA40B9FEF7FDFD28B9FEF780FFFC
:1098580028B1FEF7F9FF20B1FFF7E8FF0EE0FEF7A9
:1098680043FF00F009FA35210B48FEF7E9FD022213
:109878001A210A4800F01CFB00F0F0FA22210848DF
:10988800FEF7DEFD00F0E4F900F0CCF8002008BD9A
:10989800000402306480023000B4010C35B4010CBD
:1098A8004FB4010C00000000F8B501F00C040C2CBA
:1098B80014BF0446144611F0400507460E4615D05D
:1098C800A36913F8025C86F00803C3F3C003B3EB83
:1098D800D51F01D0FFF7AAFF412D0AD07F2D29D02F
:1098E800402D2DD1204600F0C7FA21E0FFF79EFF5A
:1098F800E9E700F06FFD444B0646D3E9000140A3B9
:10990800D3E90023994208BF90420DD008213F486F
:10991800FEF796FD1B213E48FEF792FD912202219B
:109928003C4800F0C5FAFEE731463B4800F0ECFA47
:109938003046F8BDD4E90001FEF782FD2060F7E764
:10994800354B9F4201D0FFF771FF102D50D8DFE84B
:1099580005F009164F1A4F4A404F252C32454F4FF4
:109968004F3A3D0000F099FE0546256000F05CF88E
:109978002A4B1B688342DBD000F0D4FAD8E7206872
:1099880000F08EFEF0E7D4E90223D4E9000100F0EC
:109998009DFE0546284600F072FEE6E7D4E902235C
:1099A800D4E9000100F0BEFFDEE72068D4E9011227
:1099B80000F0F4FFD8E7D4E90223D4E9000101F06C
:1099C80011F80025E6E701F096F8FAE700F063FEE3
:1099D800CAE7D4E9000100F073FFC5E7D4E9000144
:1099E80001F03CF8EDE7D4E9000100F04DFFBBE7DA
:1099F80020210B48FEF724FD6FF08305B5E700BF73
:109A0800A5EDF5FEA5EDF5FEF80B023071B4010CDD
:109A18009BB4010C79B4010CF80B023080B602300B
:109A28007BB4010C41DF7047044B186810B14378D0
:109A3800012B00D170478068F8E700BF68800230CA
:109A480008B568B908210E48FEF7FAFC0F210D4841
:109A5800FEF7F6FC472202210B4800F029FAFEE740
:109A6800C9B20129094B417005D11A682AB1017898
:109A78001278914201D3064A1068186008BD00BFE9
:109A880071B4010CC1B4010C79B4010C68800230C6
:109A98006C80023070B51346044668B90821144832
:109AA800FEF7CEFC0B211348FEF7CAFC392202212F
:109AB800114800F0FDF9FEE7104D286818B122782A
:109AC800067896420BD3A0602C606068002200F0F4
:109AD80035FA2046BDE870400121FFF7B1BF0546C1
:109AE800806810B106789642F9D3A060AC60ECE7C4
:109AF80071B4010CB6B4010C79B4010C6C8002305D
:109B080038B50546FFF790FF044600F00BFA05B19B
:109B18002C606068BDE8384000F050BA08B50346CC
:109B280008461BB119680B4A91420DD008210A4812
:109B3800FEF786FC0E210948FEF782FC6622022108
:109B4800074800F0B5F9FEE758600221BDE8084073
:109B5800FFF776BF6A626F7371B4010CD0B4010C61
:109B680079B4010C38B50D46044618B10268104B9B
:109B78009A420DD008210F48FEF762FC0D210E48CD
:109B8800FEF75EFC6E2202210C4800F091F9FEE718
:109B9800406860B14378022B09D10121FFF750FFDB
:109BA80063682946586800F0B3F90023636038BD3C
:109BB8006A626F7371B4010CDEB4010C79B4010CE4
:109BC800402010EA0E0017D001B501F059F8BDE8A1
:109BD8000440884210D072B6EFF3098222E9F00FF0
:109BE80080E80440B1E804400B68B2E8F00F82F363
:109BF800098883F30B8862B670470000EFF308808A
:109C08007146EFF30982EFF30B830CB406B4FFF748
:109C18004BFE864606BC0CBC00F0080001F00801AB
:109C2800401A01DC0DDB70470CB42DE9F00F074C2E
:109C3800254626462746A046A146A246A34630B456
:109C4800704730BCBDE8F00F06BC7047A5EDF5FEC7
:109C5800084BDA6882F07F4282F47F0242F4804245
:109C6800DA6000221A765A76DA76DA77602283F892
:109C78002220704700ED00E07047000001F090F8E6
:109C8800009A0A4B9A420FD101229043014602469C
:109C980003460446054606460746804681468246F0
:109CA8008346844686460447FEE70000A5EDF5FE98
:109CB8002DE9F04387B0064601F0AEF901F0FAF855
:109CC80001F08EF801F0ACFD044628B143F6DA3411
:109CD800204607B0BDE8F0831248FDF706FF254689
:109CE8001427DFF84880DFF83C90052D0BD10122BE
:109CF8000D4B11460B481D60FDF7A8FE0028E5D165
:109D080002233360E4E707FB0581142201A801F070
:109D18004AFE484601A90195FDF7B0FE0028D5D1B5
:109D28000135E2E7E47D023074800230ECB4010CC6
:109D3800F0B558B351B31826856900F1300404EB27
:109D48008505C469836806FB04540C27066A00204D
:109D580003F48072864209D1003A18BF012200201C
:109D6800C3F3802343EA42030B60F0BD07FB00F511
:109D780005EB040CDCF808C01CF0080F04D02D59C2
:109D880025B90AB91368FFDE0130E3E743F6DA3094
:109D9800EBE7EFF3148381F00201C1F3400161F3B3
:109DA800000383F31488BFF36F8F0020704710B54A
:109DB8000446084611460AB9002010BDF8B103F060
:109DC8000602062A19D09A0719D50822A30758BFF0
:109DD80042F00402E40709D5EFF39483DB074CBF94
:109DE80042F0040222F0040242F0120216F07EF859
:109DF8000028E1D16FF07F00DFE70122E6E74CF2AF
:109E0800DA20DAE7884206D0830706D581F0020017
:109E1800C0F340007047002070470120704708B524
:109E280062B6FEF7E1FA00F0CBFF002843F6DA301D
:109E380008BF002008BD0000014B1868704700BF2C
:109E480000B6010C014B1B681868704700B6010C7E
:109E5800014B1B685868704700B6010C044B1A8800
:109E680042F216039A4202BF0122024B1A6070475F
:109E780000FC03307880023010B504460A4B228972
:109E88001B6861685868062350F8100CFFF78FFFAD
:109E980010B10323236010BD044B1B68012BF8D1BC
:109EA80000F054FAF5E700BF80B60230788002303F
:109EB80030B50C46154685B038B139B1FEF7C0FA51
:109EC800041E03DA204605B030BD044640F60D23D3
:109ED800ADF80E3009230B4901A805F00F028A5C82
