:020000040C00EE
:10000000584E0330E90A000C7928000C050A000C50
:10001000070A000C090A000C0B0A000C0D0A000C60
:100020000000000000000000000000000F0A000CAB
:10003000110A000C00000000130A000C150A000C45
:10004000170A000C190A000C1B0A000C1D0A000CF0
:100050001F0A000C210A000C230A000C250A000CC0
:10006000270A000C290A000C2B0A000C2D0A000C90
:100070002F0A000C310A000C330A000C350A000C60
:10008000370A000C390A000C3B0A000C3D0A000C30
:100090003F0A000C410A000C430A000C450A000C00
:1000A000470A000C490A000C4B0A000C4D0A000CD0
:1000B0004F0A000C510A000C530A000C550A000CA0
:1000C000570A000C590A000C5B0A000C5D0A000C70
:1000D0005F0A000C610A000C630A000C650A000C40
:1000E000670A000C690A000C6B0A000C6D0A000C10
:1000F0006F0A000C710A000C730A000C750A000CE0
:10010000770A000C790A000C7B0A000C7D0A000CAF
:100110007F0A000C810A000C830A000C850A000C7F
:10012000870A000C890A000C8B0A000C8D0A000C4F
:100130008F0A000C910A000C930A000C950A000C1F
:10014000970A000C990A000C9B0A000C9D0A000CEF
:100150009F0A000CA10A000CA30A000CA50A000CBF
:10016000A70A000CA90A000CAB0A000CAD0A000C8F
:10017000AF0A000C00000000B10A000C00000000F3
:10018000B30A000CB50A000CB70A000CB90A000C3F
:10019000BB0A000CBD0A000CBF0A000CC10A000C0F
:1001A000C30A000CC50A000CC70A000CC90A000CDF
:1001B000CB0A000C00000000CD0A000CCF0A000C96
:1001C000D10A000C00000000D30A000CD50A000C74
:1001D000D70A000CD90A000CDB0A000CDD0A000C5F
:1001E000DF0A000CE10A000CE30A000CE50A000C2F
:1001F000E70A000C10B5054C237833B9044B13B152
:10020000044800E000BF0123237010BD1801033033
:1002100000000000CC9B000C08B5034B1BB1034948
:10022000034800E000BF08BD000000001C010330CF
:10023000CC9B000CA3F5803A704700BF174B002BF6
:1002400008BF134B9D46FFF7F5FF00218B460F4675
:100250001348144A121A07F038FD0E4B002B00D039
:1002600098470D4B002B00D0984700200021040038
:100270000D000D48002802D00C4800E000BF07F038
:10028000DBFC2000290000F06FFA07F0AFFC00BF94
:10029000000008000000000000000000584E03307D
:1002A0001801033054360330000000000000000045
:1002B00050B1D343994206D8C0681144884234BF34
:1002C0000020012070470020704700000B4B30B524
:1002D0001A6800230A4C9A4203DC06D14FF0FF3023
:1002E00008E01D012D5D854205D10020044A02EB86
:1002F00003130B6030BD0133EDE700BFBC8D000C74
:100300007C8D000C704700002DE9F34716461A4615
:1003100007460D461C46FFF7CBFF00286DD07B68D3
:100320005B689847364BC0F3410013F82090C9F141
:10033000000303EA050835EA03032BD0D7E90130AF
:1003400001225B6901A940449847002816DB2B195C
:10035000A3EB08034B4538BF22464FF0000124BFF2
:10036000A9EB05024244A5EB08035FFA81F8424578
:1003700001F1010105D8A41A7CB9002002B0BDE842
:10038000F08708F108006844184410F8040C06F8D7
:100390000800EAE74FF00008EEE74C45B4FBF9FA35
:1003A0000ED3B8687B68284452465B6906EB0801A7
:1003B000404498470028E1DB09FB1A44002CDCD0BC
:1003C000B8680AFB09F97B680544454401225B696A
:1003D00001A905EB090098470028CFDB0022D3B222
:1003E000A34202F10102C8D2F11808336B4413F89A
:1003F000043C494401F80830F1E74FF0FF30BDE715
:10040000708D000C2DE9F04F89B002921A46054616
:1004100089461E4621F0070A01F00707FFF748FF4B
:1004200028B94FF0FF33184609B0BDE8F08F6B686C
:100430000DF1180B5B689847584BC0F3410053F817
:1004400020305A46009351463B462846FFF75CFF52
:100450000028E6D1F31D3B4423F00703AAEB09086B
:10046000A8EB06081A465146284601939844FFF720
:100470001FFF0028D5D04346284604AA09EB0601F1
:10048000FFF742FF03460028CBD1002F76D13C4630
:10049000B442C8D2A6EB040A3AF0070A10D0A86802
:1004A00069689DF800204844D1F818B0BAFBF2F210
:1004B000029920440393D8470028B2DB039B54449D
:1004C000B8F1000FAFD006A822460023014696429D
:1004D0000AD9DDF808C001331CF802C0082B00F867
:1004E00001CB02F10102F2D196429AD1002204A876
:1004F000082B46D10837082B274492D1424590D18A
:10050000019ABA428DD1A8689DF800206D684844D0
:10051000B3FBF2F2AD692044A847C31783E7029A00
:10052000125D013401F80B200131072931D8B442A2
:10053000F5D1002204A80DF1180C90453FF471AFDD
:1005400010F801EB013201F80CE001310829F4D177
:1005500090457FF466AF082903937FF462AFD5E935
:1005600001309DF80020D3F818B0B1FBF2F25044EE
:1005700006A9D8470028039B8ADA52E73946044681
:10058000D3E74245B6D010F8016B0132CE540133A7
:10059000AEE7B442DFD10022DAE700BF708D000C75
:1005A0002DE9F04105460E469046FFF781FEA8B1C1
:1005B0006B689B6A98470468074664B10020BDE8F1
:1005C000F081D5E90130DB69304498470028F6D145
:1005D000BB681C441E444445F3D3EFE74FF0FF30A3
:1005E000EDE708B543689B6A9847006908BD0000BD
:1005F00008B503F016FF10B1024B186808BD024B96
:10060000FBE700BF080003304421033037B50B4D32
:100610000C462A6861B1011D0AD80330062807D8A4
:10062000042101AA03F0FFFE28B12A68019B236080
:10063000104603B030BD024B1A68F7E708000330DC
:100640004421033008B5031D0DD8C31C072B1846E1
:1006500028BF0720062B06D803F0EDFE003818BF90
:100660000120404208BD4FF0FF30FBE71FB50821D5
:1006700002AA022003F058FFDDE902020B490C4BED
:100680009A4208BF884207D10A4B0B4A00930B4994
:100690000B4B0C4807F002FF082200210DEB020073
:1006A00007F013FB05B05DF804FB00BFA9B454B21A
:1006B0006D6F90A4278E000CE08D000C0E8E000C48
:1006C000C08D000C168E000C07B50421072001AA6E
:1006D00003F02AFF20B9019801288CBF00200120D7
:1006E00003B05DF804FB000008B520210C20084A87
:1006F00003F0C0FF18B14CF25A32904206D1BDE867
:10070000084020210D20034A03F0B4BF08BD00BFFC
:100710008B8E000CAB8E000C1FB50421072003AAA2
:1007200003F002FF044678B9094807F0B7FE094B09
:10073000094A009309490A4B0A4807F0AFFE039B98
:1007400013B9FFF7D1FF0446204604B010BD00BF27
:100750002C8E000C278E000C4F8E000C0E8E000C81
:10076000C08D000C168E000C30B54FF4005185B0D2
:100770003B4806F0D3FE03F093FD01F0DDFC18B119
:10078000384807F08BFEFEE7374807F087FE03F096
:1007900099FE18B1354807F081FEFEE7FFF794FF98
:1007A00030B1FFF7B9FF28B1314807F077FEFEE717
:1007B000FFF75CFFFFF71CFF2E4D2B68834203D031
:1007C0002D4807F06BFEFEE703F046FD18B12B48FD
:1007D00007F064FEFEE70124204603F044FD30B13B
:1007E0002146274807F05AFEFEE70446F4E7214673
:1007F00001A800F0D9FE2B68834203D0214807F0FE
:100800004DFEFEE7204603F030FD20B121461E4894
:1008100007F044FEFEE7002CE7D103991B4807F0E0
:100820003DFE1B4807F03AFE69469DF8080000F0BF
:1008300039F828B14021174B174A184807F0B0F98A
:10084000019B1A691C8992065BBF0398009B58683C
:10085000C018044403F050FD20460CF0E2FF00BF36
:1008600034010330CB8E000CE88E000C048F000C9A
:100870002D8F000C44210330498F000C7F8F000C1A
:10088000A18F000CCB8F000CF18F000C1C90000C82
:100890004E90000C7690000CBE90000C7E90000CE8
:1008A00003F0FEBD642808B507D001466422054860
:1008B00007F0F4FD4FF0FF3008BD4FF0406300201B
:1008C0000B60F9E7CC90000C012908D002290CD06C
:1008D00069B978B1012814BFFF200220704758B1D0
:1008E000012814BFFF2004207047052070474FF0F7
:1008F000FF307047012070470320704708B54368F8
:100900009B6A9847007D08BD2DE9F341D1F800802E
:1009100006460D46C0B201A91746FFF7D7FC0446AC
:10092000002832D12B68CBB1019AD16828604FF4EE
:1009300080502B6809B1984506D8984510D23146A9
:10094000134807F0ABFD09E0B1F5805F0FD24FF41B
:1009500080533146D2680F4807F0A0FD4FF0FF34B6
:100960000198FFF7CFFC204602B0BDE8F0814FEAC6
:10097000033C47F833C02B68A1F5805107EBC30354
:1009800058602B6801332B60D3E74FF0FF34EAE760
:100990003191000CF590000C054B00201A684FF0C7
:1009A000E023013A5A61052298611A61704700BF3D
:1009B0000C0003304FF0E02130B50E480E4C8A6930
:1009C0000568236893422B444FF47A753CBF49690C
:1009D0005B180A499B1A09680360B1FBF5F199425B
:1009E000074B04D2002519680560013119601868A9
:1009F000226030BD402103303C2103300C00033025
:100A000038210330FEE7FEE7FEE7FEE7FEE7FEE7FC
:100A1000FEE7FEE7FEE7FEE7FEE7FEE7FEE7FEE7AE
:100A2000FEE7FEE7FEE7FEE7FEE7FEE7FEE7FEE79E
:100A3000FEE7FEE7FEE7FEE7FEE7FEE7FEE7FEE78E
:100A4000FEE7FEE7FEE7FEE7FEE7FEE7FEE7FEE77E
:100A5000FEE7FEE7FEE7FEE7FEE7FEE7FEE7FEE76E
:100A6000FEE7FEE7FEE7FEE7FEE7FEE7FEE7FEE75E
:100A7000FEE7FEE7FEE7FEE7FEE7FEE7FEE7FEE74E
:100A8000FEE7FEE7FEE7FEE7FEE7FEE7FEE7FEE73E
:100A9000FEE7FEE7FEE7FEE7FEE7FEE7FEE7FEE72E
:100AA000FEE7FEE7FEE7FEE7FEE7FEE7FEE7FEE71E
:100AB000FEE7FEE7FEE7FEE7FEE7FEE7FEE7FEE70E
:100AC000FEE7FEE7FEE7FEE7FEE7FEE7FEE7FEE7FE
:100AD000FEE7FEE7FEE7FEE7FEE7FEE7FEE7FEE7EE
:100AE000FEE7FEE7FEE7FEE708B5174B83F309884C
:100AF000164B83F30A8883F30B8801F0CBFA144B6F
:100B000014498B4212D30020134B14498B4218D343
:100B1000FFF794FB186850F82240586840F82240CC
:100B2000013298688242F5D30C33EAE70022F8E7F5
:100B30001C6844F8220001325C68A242F8D30833F2
:100B4000E4E70022F8E700BF584E03305436033084
:100B5000D89B000CF09B000CF09B000C009C000C40
:100B6000002282B000F5BA7398420BD1074BDA6CC1
:100B700042F40032DA64DB6C03F400330193019B2E
:100B800002B0704700F8012BEEE700BF00100250E2
:100B900070B5061D044630460D4603F0EEF910B15F
:100BA0006FF06F0070BD20233046636003F0B6F92C
:100BB0000028F5D10423256084F8713184F88C0075
:100BC000F0E72DE9F843044694F8713190F88C0071
:100BD00040331B1A04F148079342884616463844AE
:100BE00009D907F065F894F88C20164484F88C60D5
:100BF0000020BDE8F883A1461A4607F059F894F89A
:100C00008C2094F87131324459F8041B403AD51ABB
:100C100003F14002B9B93946484603F0BFFA38BB80
:100C20003F2D15D84FF0000905F03F0284F871916F
:100C300084F88C20002ADBD0B11A3846414407F0F2
:100C400037F84846D5E73946484603F095FAE6E7CF
:100C500094F8711194F88C304031C91A23684846D1
:100C6000414425F03F0233B903F098FA0028D9D067
:100C70006FF06F00BDE703F07FFAF7E773B5044646
:100C8000032526680B4694F88C20043004F14801B3
:100C9000009556B903F088FA20B9002084F88C003A
:100CA00002B070BD6FF06F00FAE703F069FAF3E786
:100CB0000020704703466C2213B593F8B8400846ED
:100CC0000192ACB1012C21D1022901D0042212E001
:100CD000582101FB043201FB0433526A03F128045A
:100CE00001A9FFF711FE08B9019B236002B010BDF6
:100CF0000129EDD0032282420AD1582101FB04329E
:100D000001FB0433126D03F15404E9E7FF29DFD03E
:100D10000120EBE738B590F8B8500446EDB1012D4D
:100D20000CBF0221FF212046FFF7C4FFC8B9B5B1AF
:100D3000012D0CBF0421FF212046FFF7BBFF054614
:100D400088B9582294F8B83002FB0343186AFFF7B9
:100D500048FCC4F8B400284638BD0121E3E703216C
:100D6000EAE70125F7E70925F5E72DE9F041164601
:100D70004FF0580890F8B8200F463346002102FB88
:100D80000802044600F02CFC054668B994F8B82027
:100D9000334608FB0242012120462C3200F020FCA1
:100DA00010B1002F18BF05462846BDE8F08137B5C1
:100DB0000C46002105460091FFF786FD6946C0B24A
:100DC000FFF784FA88B92046009901AA00F014FFC1
:100DD000044620B928460199FFF734FC04460098E0
:100DE000FFF790FA204603B030BD0124F7E700007A
:100DF0002DE9F0433C4B89B0044690F8B8000E460C
:100E00001D68FFF761FD06A9C0B2FFF75FFA002871
:100E10005ED194F8B88031464046FFF755FD2C2549
:100E200007A9C0B27543FFF751FA00283BD05822FA
:100E30002C2302FB08F703FB067704EB0709D9F81C
:100E4000100010F010003FD14FF4807308FB0252E5
:100E50000193264BCDE90300009394F8B810069B4C
:100E60000290224400F0F8FE0546214BE259069814
:100E70009A420ED1B9F80820D9F80C30D1438B42F0
:100E800007D81344C268934203D21A4B1B68AB4283
:100E90001BD036B30021C268FFF782FB1649174802
:100EA00007F0FCFA10E00798FFF728FD07460798BF
:100EB000FFF728FA582394F8B82013FB0253234471
:100EC0005A1E03339A4207D101250698FFF71AFAF2
:100ED000284609B0BDE8F08312F8011FB942F1D0ED
:100EE000A5E70749DBE700BF080003308433033080
:100EF0003DB8F396442103305D91000C6F91000CD6
:100F00006791000C0123036003F101234360002378
:100F1000C0E9023370474379012B07D10368012BE5
:100F200004D10079431E5842584170470020704751
:100F30002DE9F04B0E46904699460024099FDFF8B4
:100F400044B0BC4201D300200EE03D1BB5F5806FDC
:100F500028BF4FF4806530462B460A4A04EB09014E
:100F6000FFF7D2F910B10120BDE8F08B08992B46AC
:100F70005A4640466118FFF745FA0028F3D12C4441
:100F8000DFE700BF042203302DE9F04F00270446BD
:100F900088464FF0FF35A34BDFF88CB21E6895B042
:100FA00080F8B87094F8B890B9F1010F17D9002FF4
:100FB00000F0038100232C274FF0580984F8B83043
:100FC00094F8B800012800F2F780231893F8B920AC
:100FD000002A00F0D680013084F8B800F0E704EB76
:100FE000090393F8B910002940F0B1804FF4587309
:100FF000582503FB09F305FB09428C48184450624D
:101000008B48034413654846FFF75EFC94F8B8101C
:10101000C0B205FB01412031FFF758F930B140F271
:10102000AF71844B844A854806F0BAFD01214846D9
:10103000FFF74AFC94F8B810C0B205FB01414C31EF
:10104000FFF744F90028EAD12046FFF763FE054682
:1010500090B9002220461146FFF787FE0546C8B129
:1010600094F8B810764807F019FA012294F8B830CD
:10107000234483F8B0200BE06C21584607F00EFAA9
:10108000012294F8B8309542234483F8B020E0D18F
:1010900000255CE0204600F0BFFA0028E5D00AA851
:1010A000FFF730FFFFF737FF8146C0B994F8B8303B
:1010B00023B940F2FF61634B634AB4E794F8B02070
:1010C000042A04BF012284F8B020012BF1D094F847
:1010D000B130042BEDD1012384F8B130E9E79DF85C
:1010E0002F10012939D194F8B800029100F0FAFCD0
:1010F000821E022A824602990CD82046FFF778FE0B
:10110000524A1268904205D001280CBF4FF0010AE4
:101110004FF0050A94F8B820224482F8B0A094F861
:10112000B8306BB1E21892F8B020012AB0D0042A8E
:1011300025D094F8B020042A02D1012284F8B020EE
:10114000234493F8B030023B022B98BF4F4694F8EB
:10115000B830013384F8B83024E701212046FFF786
:1011600047FE3A4B1B68984218BF052294F8B830E6
:1011700008BF9DF82F20234483F8B020CFE74F46C7
:10118000E5E793F8B05005F0FB05013D18BF0125D8
:101190002946FFF799FB05A9C0B2FFF797F8002889
:1011A0005AD001250598FFF7ADF8002D00F0B28068
:1011B00040F20113A4F8B03000250023DFF890902E
:1011C000DFF890A084F8B83094F8B830012B40F2E2
:1011D000A78000235827DFF8749084F8B83094F87B
:1011E000B830012B40F26581102200210AA806F0D8
:1011F0006CFD002384F8B83094F8B830012B40F22D
:10120000A181582202FB0341096A03FB024348788B
:1012100088F804008968C8F800300C4BC8F808103A
:101220001E686EE108000330F491000C04260330C0
:10123000C42C03307690000CFE93000C9A91000CA5
:101240003992000C7C90000CE093000C4421033098
:101250009D92000CBE92000C01237D4394F8B810BF
:10126000009319FB01514023059A21440EA800F078
:1012700023FA0546002895D100230DF1120206A994
:101280000EA800F065FA002892DB05988AD1BDF817
:1012900012300C2B3AD1069907AAFFF735F800282F
:1012A0007FF47FAF9DF81C20012A31D8A31893F852
:1012B000B030023B022B8CBF0021012109FB02F35D
:1012C00007FB01332344197D9DF820209142D3D898
:1012D0000AD3597D9DF821209142CDD804D3DA8AD2
:1012E000BDF822309A42C7D294F8B830234493F81C
:1012F000B020012A08D0023A012A02D8012283F83C
:10130000B0204FF0FF354DE70422F8E7032549E709
:10131000072547E794F8B830013384F8B8304FE632
:10132000234493F8B930002B40F0BD800AA8FFF7A2
:10133000E9FD94F8B830234493F8B020042A8DF8DE
:101340002F2007D8012A07D800F09E80FF2283F8BB
:10135000B02099E0052AF7E7894807F09FF848464A
:1013600007F09CF894F8B85065B1012D0CBF02202D
:10137000FF2007A9FEF7AAFF30B140F24641814B9A
:10138000814A50E60120F4E765B1012D0CBF04202D
:10139000FF200EA9FEF79AFF30B140F24A41794B87
:1013A000794A40E60320F4E74FF0580B074605461C
:1013B00094F8B8300BFB03439B6AAB421ED139460D
:1013C000504607F06BF800232046079A0E990197C4
:1013D0000093FFF7ADFD60B9582594F8B80005FB00
:1013E00000412C31FFF7E3FC014600B3674807F0EA
:1013F00055F840F20161634B654A14E694F8B82051
:1014000039460BFB0242526A079802EBC50252684A
:1014100003930292FFF7C4F8DDE9022320B14FF4F1
:101420008A61584B584AFEE517440135C5E794F8E0
:10143000B8300E9805FB03431B6D5A68FFF7B0F8F0
:1014400020B140F2A5414F4B4F4AECE594F8B8303B
:1014500005FB0343D3E91423013B52F8331002EB9D
:10146000C30013684268C91A0E98FFF799F8054639
:1014700020B140F2AD41434B434AD4E50798FEF713
:1014800041FF0E98FEF73EFF94F8B830234493F8DE
:10149000B030FF2B07D13F4807F000F840F60F01AE
:1014A0003D4B3E4ABFE594F8B830013384F8B8307C
:1014B0008AE6234493F8B91000293DD193F8B0305F
:1014C000012B05D020460AAAFFF74FFC0546C0B9FC
:1014D00000212046FFF78CFC0646D9F800308342F5
:1014E0000FD194F8B800231893F8B030012B17D11E
:1014F00000FB0741FFF75BFC054688B1284806F072
:10150000CDFF0023582784F8B83094F8B830012B69
:1015100020D9002D18BF2E46304615B0BDE8F08FFB
:1015200094F8B80007FB004319461A6A00F0D2F994
:10153000054608B11B48E2E794F8B830013384F857
:10154000B8304CE6E21892F8B920002A3FF459AEC0
:1015500001334FE6E21892F8B9205AB907FB03436A
:10156000D86CFEF7CFFE94F8B83007FB0343186A37
:10157000FEF7C8FE94F8B830013384F8B830C4E7F9
:101580006892000C7690000CBC93000C0293000C47
:10159000CC93000C3E93000C7C90000CFE93000C4E
:1015A0004D93000C8C93000C012970B506460C4637
:1015B00002D9094B186870BD084D0222012105F1BE
:1015C000B90006F082FB00232C4484F8B930314680
:1015D0002846FFF7D9FCEEE7080003304821033026
:1015E00013B590F8B8001446FFF76EF901A9C0B220
:1015F000FEF76CFE014668B9224620230198FEF7EB
:1016000083FE04460198FEF77DFE201E18BF0120D0
:1016100002B010BD0120FBE75822F8B590F8B830B1
:1016200002FB0300D0F828C0BCF16C0F02D8466D55
:101630006C2E33D91D4806F031FF0020F8BDAC42B6
:1016400015D1476A07EBC2077F6801323C44076D3A
:1016500007EBC3077F6801333D446245EFD3B342D4
:10166000EDD3624501D1B3421ED01148E3E70BD25E
:10167000476A022907EBC2077F683C4401D10D4845
:10168000D9E701210132E8E7076D012907EBC3071C
:101690007F683D44F3D002210133DEE700210B4691
:1016A0000A460D460C46D8E70120C7E70E94000C09
:1016B0007A94000C4094000C2DE9F7430E4617462F
:1016C0009946044628B94FF0FF38404603B0BDE8BC
:1016D000F0830029F7D0002AF5D0CB680D89384671
:1016E0001D44042329460DEB0302FEF70DFE804640
:1016F0000028E8D146F60812BDF80410738991421B
:1017000023D1BDF806109942DDD1042338460DEBF4
:1017100003022944FEF7F8FD0028D4D146F607134A
:10172000BDF804209A42CED19DF82830BDF806209D
:10173000A3727389C4E900672B44E3600435134442
:10174000A4F8089063612561BFE7002BE6D0BAE7F3
:101750002DE9F7430F4690461E46044620B94FF048
:10176000FF3003B0BDE8F0830368002BF7D0436877
:10177000002BF4D04FF6FF79D4E904239A4216D215
:1017800023685B8923B1E368934204BF0433236178
:101790000423216960680DEB0302FEF7B5FD002804
:1017A000DDD1A37A256923B1E368AB4201D80120DA
:1017B000D7E72189BDF80620494502F1040303D08B
:1017C000BDF804C08C450BD116B1BDF804103180B2
:1017D00004353D60A8F80020226913442361C0E766
:1017E0002B442361C8E700002DE9F04F1646002284
:1017F00085B082460C461D4603921BB9032005B0F6
:10180000BDE8F08F2E4F397851B94FF480622D48E2
:1018100006F05BFA2C4B2D4AC3F8002C01233B70D9
:10182000DFF8ACB0274BD8465F881FFA8AF307F180
:10183000405909F57F39CB4529D3C4F30B0444EA59
:101840000A34ADF80C40DFF87CA0B4B2ADF80E401D
:10185000BAF80230201D13FA80F0B0F5803FCDDADF
:1018600080B2B0F5806F29D8042203A9484606F05B
:101870001FFA3246294607EB080006F019FABAF8B3
:101880000230002004331C44AAF80240B7E70422C7
:10189000594603A8019306F00BFABDF80C20019BF2
:1018A000B3EB123F03D1C2F30B02A24204D0BDF846
:1018B0000E2004329344BEE70220A0E701209EE7F9
:1018C0008434033000FC033000F0033016200400A1
:1018D00004FC03300023F0B5ADB0009305464FF68D
:1018E000FF7305A81646FFF7E7FE044618B14FF050
:1018F000FF302DB0F0BD07460DF10E0303AA04A979
:1019000005A8FFF725FF0028F1D1BDF80E30602BA8
:101910000ED1BDF80C30642BE9D83046049913AAD7
:10192000FEF7F2FC0028E2D10124BDF80C70E3E7D9
:10193000102BE1D1BDF80C30202BD8D830460499BB
:101940000BAAFEF7E1FC0028D1D1002CCFD013ABBD
:10195000A7F1200004900BA92022184406F0A8F952
:10196000A9013A4613AB41F03F010120FFF73CFFCC
:10197000BFE706F08DB938B50C461546FEF7BEFF39
:1019800021462544A94201D1012038BD11F8013B6F
:101990009842F7D00020F8E7C068183820F0070018
:1019A00010387047042809D0052803D1481E18BFF5
:1019B00001207047431A5842584170470120704730
:1019C00011B10AB1FFF7D7BF0020704738B50C46F8
:1019D0000123114622460546FEF796FC002810DB3F
:1019E000012221462846FFF7EBFF18B10323002010
:1019F000237038BD2378012B0CBF012302232370F1
:101A0000F7E70120F5E7C268183A22F00702FFF76E
:101A1000DDBF000030B50C46C16887B0102302AAB4
:101A200010390546FEF770FC002802DA012007B0E5
:101A300030BD1022284602A9FFF79DFF90B3032373
:101A400023702846FFF7A8FF012301460DF1070286
:101A50002846FEF759FC0028E8DB9DF807302846A9
:101A600003F00F021B096270237101220DF10701BF
:101A7000FFF781FF10B96378042B03D9012363704A
:101A800000232371EA682846183A22F00702083A30
:101A9000A11CFFF79BFF0028C8D12846E11CFFF7D7
:101AA000B2FFC4E71022044902A806F0F1F80028AA
:101AB00014BF02230123C3E74A95000C13B50C465B
:101AC000C0B201A9FEF702FC50B921460198FFF708
:101AD000A1FF04460198FEF715FC204602B010BD98
:101AE0000124FAE72DE9F043044685B058B10128F6
:101AF0000CBF0220FF206946FFF7E0FF28B1FF205E
:101B000005B0BDE8F0830120F5E7002C48D0012C9A
:101B10000CBF0420FF2002A9FFF7D0FF01280546D3
:101B200040D121462C4806F0B9FC03238DF808303B
:101B30008DF80A308DF80B3000238DF809508DF8A0
:101B40000C3000229DF800509DF808609DF803704D
:101B50009DF80B809DF80290204C29462078FFF7D5
:101B600021FF20B331466078FFF71CFFF8B1A3785E
:101B7000042B01D0BB421AD1E378042B01D043459A
:101B800015D12379042B10D16379022B19D1144973
:101B9000144806F083FC6079831E022BB0D9AEE7AF
:101BA0000320B8E70028CCD0A9E74B45ECD00132A0
:101BB000032A04F10604D0D10B4806F06FFC012083
:101BC0009EE7032B05D00949094A042B18BF11468B
:101BD000DEE70849DCE700BFCE94000C5A95000C04
:101BE000B294000C1C95000C3295000CAB94000CC8
:101BF000BC94000CB794000C30B50C461546014659
:101C00008BB020B31CB312B3438913B903200BB0BC
:101C100030BD01232246009304A85023FFF74CFD5A
:101C20000028F4D103460DF10A0203A904A8FFF726
:101C30008FFD70B9BDF80A30042BE7D12A46204643
:101C40000399FEF761FB003818BF0120DFE707208A
:101C5000DDE74FF0FF30DAE72DE9F04F1D46964BF8
:101C60004FF0000B1F686FF00043ADF22C5DE4A84D
:101C70000DF5AB66029196E840031446CDE9063BAC
:101C8000DDF850A5FEF76CFF5946E4A8FEF780FF8B
:101C900036B1D84504DD42463146E4A8FEF791FF4F
:101CA0004FF00008638926891E44E3681E444645B8
:101CB0004CD80FA9E4A8FEF7E1FFB9F1000F04D05A
:101CC000202248460FA905F0F3FF00232146009388
:101CD0002A464FF6FF7309A8FFF7EEFC01460028DD
:101CE00040F0CE803E4682464FF0FF34DFF8CC8194
:101CF00005A90DF1120304AA09A8FFF729FD011E89
:101D0000C0F2BE8040F0C180BDF81230102B35D13A
:101D1000BDF81090B9F1200F40F0C68005994B46F0
:101D2000284684AAFEF7F0FA0146002840F0A88071
:101D300084A94A460FA8FFF71CFE0146D8F80030D8
:101D4000834240F09D804FF0010AD1E7DDF8543521
:101D5000A6EB080B9B4528BF9B4641465B46524677
:101D60002846FEF7D1FA0146002840F089805A46FD
:101D70005146E4A8FEF725FFD84498E7022B3DD151
:101D8000BDF81030B3F5CC7F00F28E800DF564798C
:101D900005994A462846FEF7B7FA014600286FD152
:101DA0002023BDF810B0039027A80893FEF7D8FEB3
:101DB000039927A8FEF7ECFE5A46494627A8FEF7E6
:101DC00000FF17A927A8FEF759FF9DF8080008AAE9
:101DD0001FA9FEF765FD0446002889D1089A1FA9AE
:101DE00017A8FFF7C6FDD8F80030984224D1344B2D
:101DF000C3F80090334BC3F800B079E7232B1ED112
:101E0000002C19DB304B1B68A34215DDBDF81030E8
:101E1000B3F5C07F48D10599284684AAFEF774FA25
:101E2000014668BBE4B22021BDF81030009484AABA
:101E30000FA800F04BF807464FF0FF3458E7502B3F
:101E40007FF456AFBDF81030042B2DD105992846EC
:101E500007AAFEF759FA014690B9029806A9FEF7BB
:101E6000D5FB0646D8F80030834220D1DDE90623B1
:101E70009A427FF63DAF104B196888423FF438AF65
:101E800008460DF22C5DBDE8F08FBAF1000F10D0BE
:101E90000A4B1B68BB421CBF074A1768B3420CBF02
:101EA00039464FF0FF31EBE74FF0FF31E8E70146ED
:101EB000E6E70121E4E700BF0800033044210330D6
:101EC0000000033034210330C890000C2DE9F04F9E
:101ED0009846ADF2345D6C4B07460CA89DF85865EA
:101EE0008A4691461D6805F00BFC684BECAA53F836
:101EF000364003EBC6035B680294196802A80C44E1
:101F00003023214604F08AF868BB029BEC9A134404
:101F10009C4228D121460EAA02A804F093F810BBD7
:101F20000DF1440B5A46214602A804F08BF80646F0
:101F3000C8B90EA804F07FF9029B0D909C4212D103
:101F400033463246CDE9006B0EA90CA805F094FB90
:101F500048B90CA805F0DEFB28B90EA804F06BF90F
:101F600080450D900AD00CA805F036FC0CA805F0B1
:101F700033FC28460DF2345DBDE8F08FB8F5C07F24
:101F800002D04FF0FF35F1E7BAF1200FF9D1494601
:101F9000ECAA0CA805F0E2FB04460028F1D19DF85C
:101FA0002F35BC2BEDD10DF1DC0840F25F16454614
:101FB00003908FA8FEF7D4FD00218FA8FEF7E8FD5F
:101FC00020220DF20F518FA8FEF7FBFD042203A97A
:101FD0008FA8FEF7F6FD04A98FA8FEF74FFE1F2E6F
:101FE000D4BFB1464FF020099DF80F304046013371
:101FF0004A4604A9A6EB09068DF80F3005F058FEF5
:10200000002EC844D5DC28462A4640F25F13ECAEC9
:10201000117816F801CB013B81EA0C0102F8011B93
:10202000F6D12B7803F07F032B7010F8016B002E94
:10203000A7D10134B4F59F7FF7D195F83E31012B3C
:102040009FD18FA8FEF78CFD31468FA8FEF7A0FD2B
:1020500008220F498FA8FEF7B4FD394620228FA829
:10206000FEF7AFFD20220DF21B218FA8FEF7A9FD80
:1020700004A98FA8FEF702FE20220DF20F5104A83A
:10208000FFF777FC05467EE70800033000000330C9
:102090006C95000C70470000224A2349136810B564
:1020A0001B0755BFD2F894301368C3F30323C3F35F
:1020B000031351F8234091681C4801F00C010829D2
:1020C00003D00C290DD0042929D1194B0360154BDD
:1020D000184A9B68C3F30313D25C0368D3400360C0
:1020E00010BDD168D36801F00302023A012A98BFFB
:1020F0000F4AC3F3031303F1010394BFB2FBF3F3DD
:10210000B4FBF3F30749CA68C968C2F30622534314
:10211000C1F3416201325200B3FBF2F3D6E704602F
:10212000D5E700BF001002508C95000C0C00033066
:102130000024F4007495000C30B599B000F0D1FB88
:1021400002F034F820B13B4806F0A8F90BF0B8FBD8
:10215000FEF7AEFD20B1384806F0A0F90BF0B0FB59
:10216000364C1422002101A805F0AFFD48220021C1
:1021700006A805F0AAFDA36D002043F08053A365D7
:10218000A36D022503F080530093009B00F044FFF1
:10219000A36D002223F08053A3651023069301232F
:1021A0003021CDE911530D931393372306A8CDE9C0
:1021B0000E21CDE916551493159501F001F800B1E3
:1021C000FEE70F230321CDE9013180230590CDE9FE
:1021D000033001A801F040FB00B1FEE703900521A8
:1021E00001A8019501F038FB054600B1FEE702F0B9
:1021F00057F800F029F800F09BF8A36D43F08053E6
:10220000A365A36D03F080530693069B00F0F0FED8
:1022100000F01AF800F08CF8094B28469B689847A4
:1022200020B1084806F03AF90BF04AFB002019B03B
:1022300030BD00BFCC95000CF495000C001002508E
:10224000E899000C1F96000C6FF00102314B00B5AD
:10225000C3F80021304B9DB0D3F8D02022F001020A
:10226000C3F8D0200022C3F8D8204FF00052C3F8A2
:10227000DC20E132C3F8E0200122C3F8D820274A4D
:10228000C3F8DC2002F57F42E132C3F8E0200222ED
:10229000C3F8D820224AC3F8DC2002F57F42E1329D
:1022A000C3F8E0200322C3F8D8201E4AC3F8DC207C
:1022B00002F57B3202F2E132C3F8E020BFF34F8F28
:1022C000BFF36F8FD3F8D020174842F00102C3F854
:1022D000D020164B01A99A6C42F480029A649B6C40
:1022E00003F480030093009B01F006FD08B10BF09E
:1022F000E7FA1B9B0C4843F0800301A91B9301F0F4
:10230000B9FC08B10BF0DCFA01201DB05DF804EB5C
:1023100000F0C0BD002C035000ED00E00000F90B00
:10232000002002400010040800000330001002509A
:1023300073B501230426704C704D20466360E36141
:10234000266300F023FD02232846EB616E6000F057
:102350001DFD0023C5E9003323606360A369002BE2
:1023600004DB674806F09AF80BF0AAFAA3695B024F
:1023700004D4644806F092F80BF0A2FA616BB1F154
:10238000406F07D0604806F089F8604806F086F88C
:102390000BF096FAD4E908320BB97F2A15D0002148
:1023A00000925B487F2206F079F85A4806F076F8EA
:1023B0007F234FF0000CC4E908C3236843F01003E7
:1023C0002360E36943F01103E361D5E908320BB9F7
:1023D000012A12D0002100924F48012206F05EF837
:1023E0004E4806F05BF800260123C5E90863102378
:1023F0002B60EB6943F01203EB61A16A236A192990
:1024000004D9E26902F480721A4316D01A220091AC
:102410004348002106F042F8424806F03FF8002306
:1024200023621A23A362236843F010032360E36945
:1024300023F4807343F0A103E361A369990104D5F8
:10244000394806F02BF80BF03BFA22682B6813434F
:1024500043D000F075FA00F0A7FA23689A0704D574
:10246000324806F01BF80BF02BFA2B689B0704D5BB
:102470002E4806F013F80BF023FA6B6823B12C48B2
:1024800006F00CF80BF01CFA636833F0010304D07B
:10249000284806F003F80BF013FA236843B11648F6
:1024A00000F042FB20B1244805F0F8FF0BF008FAD9
:1024B0002B6843B1114800F037FB20B11E4805F0EE
:1024C000EDFF0BF0FDF900F081FA20B11B4805F09B
:1024D000E5FF0BF0F5F901F0F3FAE16A51B11848A4
:1024E00005F0DCFF174805F0D9FF02B0BDE87040E9
:1024F0000BF0E6B902B070BD8C340330C434033045
:102500005096000C7896000CAD96000CC396000C0B
:10251000F196000C2497000C6597000C9897000C1E
:10252000DA97000C1298000C5798000C9098000C49
:10253000BF98000CFA98000C3599000C6199000CBA
:102540008999000C9F99000C042A09DB0B68036031
:1025500000F1040001F10401A2F10402042AF5DAF9
:10256000002A09D00B78037000F1010001F101018C
:10257000A2F10102012AF5DA70470000064B82B091
:102580001868002382B262F30F03000C60F31F434C
:10259000184602B0704700BFE499000C0C20704749
:1025A00000207047012805D9022814BF6FF00400ED
:1025B000002070476FF0030070476FF00300704712
:1025C000014B1868704700BFFC340330014B58685A
:1025D000704700BF1000033008B54FF47A7000F068
:1025E000FFF9002008BD00000C4B70B51B685A694C
:1025F00092B11C69002301390144151DA34201D188
:10260000002070BD52F83360864203D855F833601D
:10261000B14201D90133F1E70120F2E710000330A4
:102620002DE9F0411446204B96001A6807466FF3D7
:1026300041021A60421E02EB8402B2F5002F0D46E1
:1026400012D31A4A126894693CB16FF004001A68F8
:1026500042F002021A60BDE8F0813246FF212846AE
:1026600005F033FB2046F6E70023DFF844803146CF
:10267000C8F80030FFF7B8FF324690B107F140616B
:102680002846FFF761FFD8F8003023B13246002119
:10269000284605F01AFB002324F04040C8F800301B
:1026A000D9E707F10061EBE7FC3403301000033099
:1026B000003503302DE9F04F3B4E4FEA8208336876
:1026C00007466FF341038A4685B04146154633609D
:1026D000FFF78AFF354B7A1E0028424415BF4FF0A2
:1026E000010999464FF0406B4FF0006BB2F5002F97
:1026F00012D22F4843681B69B7FBF3F103FB11713A
:1027000051B9B8FBF3F403FB14842CB923460168D8
:10271000D1F808C0634508D16FF00400336843F076
:102720000203336005B0BDE8F08FC86800EBC30E4C
:1027300050F83300874203D3DEF8040082422CD9DC
:102740000133E7E7002316E0C3B908220AEB0401CE
:102750000DEB020005F0ACFADDE90223B3F1FF3F17
:1027600008BFB2F1FF3FEDD00BEB07014846214413
:1027700000F072F903460834A045E5D132680193B0
:102780006FF30002326000F0FBF8019B25F040403F
:10279000002B18BF4FF0FF30C4E700F0D1F83368CA
:1027A00043F001033360D0E7FC34033001000080C4
:1027B0001000033070B5B0F5002F044686B00BD280
:1027C0002A4A5568A968B0FBF1F301FB13031BB952
:1027D00012681068834208D16FF00400244A13681D
:1027E00043F00203136006B070BD516801EBC306ED
:1027F00051F833108C4202D371688C4201D90133F5
:10280000E8E720460421FFF7EFFE0028194B18BF28
:102810000223B4F5802F02932CBF02230123E86822
:1028200003930223B4FBF0F405936B689C4200D938
:10283000E41A0F4D04942B686FF341032B6000F0F2
:102840007FF82B6801A943F001032B6002A800F078
:102850005FFB04462B686FF300032B6000F090F8D9
:10286000201E18BF01204042BDE700BF100003300A
:10287000FC34033002000080174B1A6B02F0204238
:10288000B2F1204F27D11A6B42F020421A63134A4B
:10289000136801331360734603F00F030D2B14D13B
:1028A000EFF30982D2E90631C9010CD523F0010109
:1028B000098801F46840B0F5684F04D001F478410C
:1028C000B1F5704F04D1043303E0EFF30882E9E778
:1028D000023393617047FEE7002002500035033059
:1028E000704710B5042001F0D9F8FFF7D5FB072099
:1028F000FEF752F8044618B9FFF7F2FF204610BD64
:102900000124FBE70B4930B58D680B4C0B4931EACC
:10291000250128BF2146EFF3108572B60C6844F0FC
:1029200001040C600260BFF36F8F436085F3108871
:1029300030BD00BF1C000330282002402C20025074
:102940000D4B9A6A002A04DBDA6A002A0BDB0020AE
:1029500070470A4A9A6002F188329A609A6A002A9D
:10296000F2DA01207047054ADA6002F18832DA6053
:10297000D86AC00F704700BF00200250230167458E
:10298000084B9A6A42F000429A629A6A002ABFBFD4
:10299000DA6A002042F00042DA62ACBF0120DB6A52
:1029A000704700BF00200250064B986A10F080402C
:1029B00007D0054A1A6102F144321A61986AC0F3DD
:1029C00080707047002002503B2A1908034A0120FA
:1029D000936A43F000639362704700BF0020025087
:1029E00070B50446FDF7E6FF174D06196B6ADA036A
:1029F0001AD4164B164A9868164931EA200128BFA6
:102A000011460A68286A02F0FA0200F400500243F4
:102A100012D058681043586093040A6002D54FF4EE
:102A200000532B6201200EE0611CDFD0FDF7C2FFD6
:102A3000B042DBD3032006E0086810F0010002D0AA
:102A4000012310460B6070BD002002501C000330B3
:102A500020200240242002502DE9F843164C9846CD
:102A600023780646012B0F46914623D0012323707D
:102A700000234FF47A706360FFF7B2FFB0B90F4BD9
:102A80000F4D4A4635EA260528BF1D4638464346BF
:102A9000A660FFF737FF4FF47A70FFF7A1FFA26837
:102AA0002B6822F0004223EA02032B6000232370EC
:102AB000BDE8F8830220FBE71C0003302820024019
:102AC0002C20025010B5EFF3108172B6124B134A4E
:102AD0009C68134B33EA240328BF1346114A126C37
:102AE000520212D5C40742BF1A6842F004021A60AB
:102AF000820703D51A6842F400421A601A6842F449
:102B000080321A6081F3108810BD1A6842F40042C6
:102B100042F00402F1E700BF1C000330282002400D
:102B20002C20025000200250F8B5964E054633780E
:102B3000012B00F024810123337000234FF47A70BD
:102B40007360FFF74DFF002840F0DB802868C10765
:102B50000DD5D5E90124012AE9688B4B40F0D480DA
:102B60009A6D22F07F12224342EA01429A6582075F
:102B700006D5854A2969136C23F0FF030B431364C0
:102B8000430779D5D5E9054114F001030EBF1A4674
:102B90004FF4E06201F4E063A70742BF01F48057FD
:102BA0003B4342F48052670742BF01F400573B4366
:102BB00042F40052270742BF01F480473B4342F4EE
:102BC0008042E70642BF01F480373B4342F4803243
:102BD000A70642BF01F400373B4342F400326706C8
:102BE00042BF01F480273B4342F48022270642BFC4
:102BF00001F400273B4342F40022E70542BF01F401
:102C000080173B4342F48012A70542BF01F400172E
:102C10003B4342F40012270542BF01F080773B435B
:102C200042F08072E70442BF01F000773B4342F07C
:102C30000072A70442BF01F080673B4342F080620C
:102C4000670442BF01F000673B4342F00062270483
:102C500042BF01F080573B4342F08052E4034A4CAC
:102C600044BF01F000410B43216C48BF42F00042D9
:102C700021EA020213432364C30624D5D5E90714CD
:102C8000D5E909EC11F001073F4B5CD01A6D5B6D83
:102C900011F0100F1EBF44EA0E4422F07F122243AF
:102CA0008C0644BF23F4FE0343EA0C430C0648BFE2
:102CB00043F00043CC0548BF23F00043324C002FC3
:102CC00048D022656365820606D52F4AE96AD36C2F
:102CD00023F001030B43D364030709D5D5E90C2185
:102CE000012A294B3BD15A6C02F07F020A435A64F5
:102CF000254A4FF47A70936A43F400339362FFF7E6
:102D00006FFE00233370F8BD022A07D1DA6D22F07E
:102D10007F12224342EA0142DA6528E7042A07D1FA
:102D20009A6E22F07F12224342EA01429A661EE71F
:102D3000082A7FF41CAFDA6E22F07F12224342EAA7
:102D40000142DA6613E711F0020216BF1A6E13464B
:102D50005B6E9DE7890744BF22666366B3E7022A7C
:102D600005D19A6C02F07F020A439A64C0E7042AF4
:102D700001BFDA6C02F07F020A43DA64B8E702208E
:102D8000C1E700BF1C000330002002500623426848
:102D900010B5082A036011D84FF48B73D340DB07BA
:102DA0000CD50723012A0360394B4ED19A6D02F0EE
:102DB0007F0282609B6DC3F30643C360344A136C89
:102DC000DBB2AA2B04D0552B02D0CC2B18BFBB23CF
:102DD0000361136C23F0FF038361C369591E01294A
:102DE0001AD80168012B41F0100101600BBF116D71
:102DF000116E526D526E01F07F04002AC1F306413C
:102E00004162A8BF43F48073C2F30641B8BF43F0E8
:102E1000800304628162C36102681D4942F020039D
:102E20000360CB6C03F00103C362036B5C1E012CD7
:102E300001D9042B08D142F02802012B02601CD1D9
:102E40004B6C23F07F03436310BD022A05D1DA6D7A
:102E500002F07F028260DB6DADE7042A05D19A6E35
:102E600002F07F0282609B6EA5E7082AA6D1DA6E87
:102E700002F07F028260DB6E9DE7022B02D1044BE1
:102E80009B6CDEE7042BDFD1014BDB6CD9E700BF85
:102E900000200250044AD2F8C43023F00103034357
:102EA000C2F8C430704700BF0020025030B5EFF3C5
:102EB000108472B6134B144A9D68144B13EA250311
:102EC00038BF13462C3A126C12F4800F1A6813D1D3
:102ED00022F400621A601A6822F47E7222F0020262
:102EE00042EAC00242F002021A601A6842F48032DA
:102EF0001A6084F3108830BDC907E9D442F4006237
:102F0000E8E700BF1C0003302C20025028200240BC
:102F10002DE9F843264E054633788946012B45D0E6
:102F20000123337000234FF47A707360FFF758FD6C
:102F30000446F0B92B681F4A1F49B36031EA2308E1
:102F400028BF904648F2040223F00043934215D173
:102F50006868FFF7B7FD4FF47A70FFF741FD04464C
:102F6000B268D8F8003022F0004223EA0203C8F821
:102F70000030002333702046BDE8F8834FF0FF3364
:102F8000C9F80030AF68D5E902321344BB42E7D933
:102F900038466968FFF78AFF4FF47A70FFF720FD23
:102FA00010B1C9F80070DAE70137ECE70224E2E774
:102FB0001C000330282002402C200250024B1868CD
:102FC00000F4C060704700BF00700050024A5368B0
:102FD00043F400735360704700700050034A9368D5
:102FE00023F4407303439360002070470070005047
:102FF0004FF48070FFF7F2BF064B1B6913F480504B
:1030000005D113F4004F08BF4FF4004070474FF450
:103010008050704700700050174A10B50146146880
:10302000FFF7EAFFB0F5004F23D0D368180420D48F
:1030300004F4C0648C4201D1002010BD136823F455
:10304000C0630B4313600D4B0D491B68B3FBF1F3D9
:1030500032214B430A21B3FBF1F301335169490596
:1030600000D523B953695B05E6D50320E5E7013BAD
:10307000F4E70120E1E700BF007000500C000330CE
:10308000A086010037B51A4C0546A36DDB0015D5A7
:10309000FFF794FF30F4007320D1312D28BF0223B5
:1030A00014490A6822F00F021A430A60086800F007
:1030B0000F00C01A18BF012003B030BDA36D43F04C
:1030C0008053A365A36D03F080530193019BFFF729
:1030D00075FFA36D23F08053A365DBE7302D02D885
:1030E00003D10223DCE70323DAE70023D8E700BF9C
:1030F0000010025000200250264A9368D16813F055
:103100000C0305D00C2B16D101F00301012919D1B4
:103110001168090754BFD2F8942012681E4954BFA1
:10312000C2F30322C2F3031251F8220013B10C2B95
:1031300009D000207047042B29D0082B174818BF4E
:10314000002070470020134AD168D36801F00301C2
:10315000C3F30313022903F1010308D0032906D0A6
:10316000B0FBF3F0D268C2F30622504306E0D06809
:103170000A4AC0F30620B2FBF3F35843054BDB6861
:10318000C3F3416301335B00B0FBF3F070470348C6
:10319000704700BF001002508C95000C0024F40012
:1031A00008B5FFF7A9FF044B044A9B68C3F3031358
:1031B000D35CD84008BD00BF001002507495000CCD
:1031C0002DE9F341044600285AD0984B02689D68C7
:1031D000DF68D60605F00C0507F0030771D51DB1B1
:1031E0000C2D4FD1012F4DD11B68980702D5E369F3
:1031F000002B45D08D4B606A1A68110756BFD3F873
:1032000094201A68120902F0F002904222D9FFF7C6
:1032100039FF002834D1854B1A6842F008021A6041
:103220001A68616A22F0F0020A431A605A68216A39
:1032300022F47F4242EA01225A60FFF7B1FF7C4B41
:1032400018607C4B1868FDF7A7FB002839D002B046
:10325000BDE8F0811A6842F008021A601A6822F08C
:10326000F00202431A605A68216A22F47F4242EA5D
:1032700001225A60002DE0D1FFF704FF0028DCD0C6
:103280000120E4E7E269002A3FD01A68674E42F065
:1032900001021A60FDF78EFB804633689B0729D533
:1032A000336843F0080333603368626A23F0F00345
:1032B000134333607368226A23F47F4343EA022393
:1032C00073602368DA0737D423689B0700F1828094
:1032D00023681D0700F1D0802368580700F10F8193
:1032E00023689B0600F1D781E06A002840F00C8239
:1032F0000020ACE7FDF75EFBA0EB08000228CCD96C
:1033000033689A07C9D40320A1E71A68DFF81C8143
:1033100022F001021A60FDF74DFB0646D8F8003096
:103320009907CED5FDF746FB801B0228F6D9D8F8C1
:1033300000309807E7D4F1E7082D3C4B03D00C2D63
:1033400008D1032F06D11B689E03BDD56368002BEF
:10335000BAD195E76268B2F5803F16D11A6842F497
:1033600080321A60FDF726FB0646DFF8C080D8F8E9
:1033700000309903A8D4FDF71DFB801B6428F6D903
:10338000D8F800309803BED5F1E7B2F5A02F04D1EC
:103390001A6842F480221A60E0E7196821F480314B
:1033A0001960196821F480211960002ADAD1FDF72B
:1033B00001FB0646DFF87480D8F800309B0383D504
:1033C000FDF7F8FA801B6428F6D9D8F800309A0384
:1033D00099D4F1E7042D154B03D00C2D11D1022FF8
:1033E0000FD11B68580503D5E368002B3FF448AFA5
:1033F0000E4A2169536823F0FE4343EA0163536098
:1034000066E7E26812B31A68084D42F480721A60E7
:10341000FDF7D0FA06462B685A050DD56B68226970
:1034200023F0FE4343EA02636B6051E70010025051
:103430000C00033018000330FDF7BCFA801B022893
:10344000E9D92B6859057FF55EAFE4E71A68AC4E01
:1034500022F480721A60FDF7ADFA054633685F0505
:103460007FF536AFFDF7A6FA401B0228F6D9336880
:103470005B053FF548AFF1E76369A14D33B3A3693D
:10348000FBB9D5F8943023F01003C5F89430D5F883
:1034900094309B4E43F00103C5F89430FDF78AFA4F
:1034A0000546D6F894309A073FF516AFFDF782FA35
:1034B000401B0728F5D9D6F8943099077FF523AF3C
:1034C000EFE7D5F8943043F01003DEE7D5F89430F9
:1034D00023F00103C5F89430FDF76CFA0646D5F8E1
:1034E00094309F077FF5F8AEFDF764FA801B07283C
:1034F000F5D9D5F894309B073FF505AFEFE7804B42
:103500009A6DD00046D401279A6D42F080529A6598
:103510009B6D03F080530193019B7A4D2B68D90575
:103520003AD5A368764D13F0010F49D1D5F8902014
:1035300022F00102C5F89020D5F8902022F0040274
:10354000C5F89020002B4AD1FDF734FA41F28838B3
:103550000646D5F890309B0700F19180D5F8903061
:10356000180657D541F28838D5F8903023F08003FB
:10357000C5F89030624DD5F890301A054AD5FDF760
:1035800019FA801B4045F6D9D5F8903019053FF55A
:10359000BAAEF0E70027C0E72B6843F480732B60D6
:1035A000FDF708FA06462B68DB05BAD4FDF702FAE8
:1035B000801B0228F7D92B68DA057FF5A4AEF2E765
:1035C00013F0040FD5F890301EBF43F00403C5F884
:1035D0009030D5F8903043F00103C5F89030FDF7F6
:1035E000E9F941F288380646454DD5F890309907FB
:1035F00019D5A36813F0800FD5F8903029D041F287
:10360000883843F08003C5F890303D4DD5F89030B0
:103610001B0513D5002F3FF463AE394A936D23F099
:10362000805393655CE6FDF7C5F9801B4045DCD906
:10363000D5F8903098077FF566AED6E7FDF7BAF972
:10364000801B4045E2D9D5F890301A057FF55BAE76
:10365000DCE741F2883823F08003C5F89030284D2C
:10366000D5F890301905D5D5FDF7A4F9801B404554
:10367000F6D9D5F8903018053FF545AEF0E7FDF7DF
:1036800099F9801B40457FF664AFD5F890309A07D2
:103690003FF539AE5DE7A36A194DC3B1D5F898304F
:1036A00043F00103C5F89830FDF784F90646D5F8D4
:1036B000983098073FF518AEFDF77CF9801B02287B
:1036C000F5D9D5F898309F077FF51DAEEFE7D5F80F
:1036D000983023F00103C5F89830FDF76BF90646E2
:1036E000D5F898309A077FF5FFADFDF763F9801B99
:1036F0000228F5D9D5F8983099073FF504AEEFE7E1
:103700000010025000700050514DAB6803F00C03E4
:103710000C2B69D02B68022823F080732B6043D1D7
:10372000FDF748F906462B689F0133D4EA68494BF8
:103730001340226B1343A26B43EA0223E26B43EA7A
:10374000C263626B013A43EA0213226C5208013AE7
:1037500043EA4253626C5208013A43EA4263EB6027
:103760002B6843F080732B60EB6843F08073EB6051
:10377000FDF720F90446364D2B6899013FF5B8ADA9
:10378000FDF718F9001B0228F6D92B6898017FF580
:10379000BAADF1E7FDF70EF9801B0228C3D92B68FB
:1037A0009B013FF5B0ADBEE72B68294C13F0205FBD
:1037B00002BFEB6823F00303EB60E36823F0887338
:1037C00023F48033E360FDF7F5F8054623689B0199
:1037D0007FF58EADFDF7EEF8401B0228F6D9236881
:1037E0009A013FF590ADF1E701283FF430ADEB6869
:1037F000226B03F0030191427FF442AD616B03F051
:10380000F0020139B2EB011F7FF43AADA16B03F472
:10381000FE42B2EB012F7FF433ADE16B03F078424F
:10382000B2EBC16F7FF42CAD226C03F4C0015208DF
:10383000013AB1EB425F7FF423AD626C03F0C063E9
:103840005208013AB3EB426F3FF452AD18E500BFA6
:10385000001002500C809F012DE9F8430D460446EC
:1038600010B90120BDE8F883754A136803F00F030F
:103870008B422CD3216811F0010633D121688807CF
:1038800040F1C2806F4AA068936823F0F0030343BD
:1038900093606B4A136803F00F03AB4200F2BC80E5
:1038A0004A0700F1C5800B0707D5664A216993686E
:1038B00023F4605343EAC1039360FFF771FC624B4A
:1038C0001860624B1868BDE8F843FDF765B81368E7
:1038D00023F00F030B431360136803F00F038B42B5
:1038E000BFD1C7E76268574B032A72D11A689201A9
:1038F000B7D5DA6802F00302012A20D11A68170747
:1039000054BFD3F894301B68514A54BFC3F3032308
:10391000C3F3031352F823604A48C768C26807F02C
:103920000307C2F30312022F02F1010209D0032F91
:1039300007D0C368B6FBF2F2C3F3062307E0002604
:10394000EAE7C3684348C3F30623B0FBF2F23D48FD
:103950005343C268C2F3416201325200B3FBF2F337
:103960003D4A934223D80026364F6268BB6841F235
:10397000883923F003031343BB60FDF71BF880462F
:10398000BB68626803F00C03B3EB820F3FF476AFC1
:10399000FDF710F8A0EB08004845F1D9BB68626854
:1039A00003F00C03B3EB820FEAD003205AE78368DD
:1039B00013F0F00F07D1836823F0F00343F0800386
:1039C00083608026D0E78E07CDD5A368002BCAD1AF
:1039D000F1E7022A1B6810D113F4003F3FF441AF16
:1039E000FFF78AFB1C4B9842BDD9164A936823F017
:1039F000F00343F080039360E3E712B913F0020F82
:103A0000ECE713F4806FE9E7802E7FF442AF0D4AB4
:103A1000936823F0F0033BE7136823F00F032B4375
:103A20001360136803F00F03AB427FF41AAF37E75C
:103A3000044AE068936823F4E0630343936032E749
:103A400000200250001002500C0003301800033018
:103A50008C95000C0024F40000B4C40408B5FFF7F2
:103A60009FFB044B044A9B68C3F30223D35CD840FA
:103A700008BD00BF001002508495000C08B5FFF788
:103A80008FFB044B044A9B68C3F3C223D35CD8402A
:103A900008BD00BF001002508495000C07490302C6
:103AA000CA6803F4E06322F4E0621204120C1343C8
:103AB00043F0BF6343F40033CB60704700ED00E098
:103AC000BFF34F8F0549064BCA6802F4E062134307
:103AD000CB60BFF34F8F00BFFDE700BF00ED00E0FC
:103AE0000400FA0500232DE9F04F5E4CDFF87881E1
:103AF000DFF878910A6832FA03F501D1BDE8F08F5A
:103B00004FF0010C0CFA03FC1CEA020200F09C804E
:103B100003264D684FEA430E25F0100A0AF1FF37DD
:103B200006FA0EF6012F6FEA060611D8876807EA33
:103B3000060BCF6807FA0EF747EA0B07876047685E
:103B400027EA0C0CC5F300179F4047EA0C074760B3
:103B5000C768BAF1020F07EA060C8F6807FA0EF77A
:103B600047EA0C07C76016D14FF00F0C4FEAD30A93
:103B700000EB8A0A03F0070BDAF820704FEA8B0B90
:103B80000CFA0BFC27EA0C0C0F6907FA0BF747EA53
:103B90000C07CAF8207007683E4005F0030707FAD3
:103BA0000EF73E430660EE004ED54FF00F0C23F0AB
:103BB000030707F1A04707F53D3703F0030E3E6EFC
:103BC0004FEACE0E0CFA0EFC26EA0C0C284EB04240
:103BD0003CD006F58066B0423AD006F58066B04229
:103BE00038D006F58066B04236D006F58066B04221
:103BF00034D0404534D048450CBF0626072606FA87
:103C00000EF646EA0C063E66D743D4F8806015F4FB
:103C1000803F0CBF3E401643C4F88060D4F88460F7
:103C200015F4003F0CBF3E401643C4F8846026687C
:103C300015F4801F0CBF3E40164326606668AD0237
:103C400054BF3E4016436660013353E70026D6E773
:103C50000126D4E70226D2E70326D0E70426CEE7E2
:103C60000526CCE700F4025000140252001802525C
:103C70000000025220F08050B0F1005F30B502D059
:103C80001A4B98422FD10A6832F000432BD14D686D
:103C900035F0804427D11543154AB0F1005F154B2C
:103CA00008BF13461A6808BF4FF4403022F0404264
:103CB00042EA050218BF4FF480301A604FF0FF321D
:103CC0001D69400B82402A408D6E08312A431A61DB
:103CD00004F1400251F8045B0134A04243F8225041
:103CE000F6D1002030BD0120FCE700BF000003201A
:103CF000002C03500030035020F08050B0F1005FE2
:103D000010B521D0134B984222D14FF48033124882
:103D100002685B0B02F080444C604FF0FF3402F00D
:103D200000420A6002699C4022EA04028A6600227C
:103D3000083102F1400450F824400132934241F826
:103D4000044BF6D1002010BD4FF440330348DFE7A9
:103D50000120F8E70000032000300350002C03503E
:103D600073B50446019100211C4D914221D2019B63
:103D70001B686B60019B94F83600043301280193A3
:103D800001F1040327D1934225D26E6AF60722D5AA
:103D9000002594F82D3084F83650022B01D0042BE6
:103DA00009D1019B043A521AE3602262082384F885
:103DB000353000200DE0032B01D0052B05D1019BF0
:103DC000043A521A6361A262F0E784F8350084F87D
:103DD000345002B070BD1946C7E700BF00040C5252
:103DE0001C2927D004D8102905D0142911D07047D8
:103DF000202937D07047294BDA6812BA02601A6955
:103E000012BA42605A6912BA82609B691BBAC360D7
:103E10007047224BDA6812BA02601A6912BA42601D
:103E20005A6912BA82609A6912BAC260DB691BBA17
:103E300003617047194BDA6812BA02601A6912BA44
:103E400042605A6912BA82609A6912BAC260DB692A
:103E5000134A1BBA0361536A1BBA4361936A1BBAC4
:103E6000836170470D4BDA6812BA02601A6912BAA0
:103E700042605A6912BA82609A6912BAC260DB69FA
:103E80001BBA0361064B5A6A12BA42619A6A12BAA5
:103E90008261DB6A1BBAC361704700BF00040C5229
:103EA00000070C522DE9F84304460E4691461D4684
:103EB000FCF780FDDFF85C800746B9F1000F20D0E9
:103EC000D8F8243036EA030320D16B1CF8D0FCF775
:103ED00071FDC01BA8420AD8002DF1D107E06A1C71
:103EE0000FD0FCF767FDC01BA84200D84DB90123D5
:103EF000032084F83530002384F82C0084F8343013
:103F000005E0D8F8243036EA0303E8D10020BDE804
:103F1000F88300BF00040C527047000038B5044617
:103F200028B390F8353003F0FF021BB980F8342035
:103F3000FFF7F2FF0020022301210E4A84F83530FA
:103F4000E061206284F82D106062E086A06313684F
:103F5000256823F030032B431360136823F40053C8
:103F6000136084F8351084F82C00E06338BD01201C
:103F7000FCE700BF00040C52704738B50546012429
:103F800090B1022380F82D40002480F83530C461C0
:103F9000046280F837404462FFF7EEFF85F8354051
:103FA00085F82C40EC632C64204638BDF8B51E46DD
:103FB00090F835300446012BD8B201D008287CD1C6
:103FC00001B126B9012584F835502846F8BD94F88A
:103FD0003430012B71D0012594F82D3084F8345001
:103FE000AB4248D14FF0020C364F84F835C03D68E3
:103FF000079B25F4A02525F0C4051D4345F00405C5
:104000003D60B86802F0030320F01F0040EAC303DC
:10401000BB6084F82DC02046FFF7A2FE054684F859
:104020002C000028D1D194F83530082B3DD0254FF5
:104030000246BB68022143F48073BB602046069BA6
:10404000FFF730FF00283AD13A681F4B1A4230D0B0
:104050003A681A40B2F5802F2DD03A6893430CBFCE
:10406000202110213046FFF7BBFE012384F83530B4
:1040700084F82D3019E0022B15D194F83530082B37
:104080001DBF104D02F00303A868226A1EBF20F076
:104090001F0040EAC303AB604FF0020308BFE168B2
:1040A00084F83530B7E784F83550002384F834308D
:1040B0008BE71421D6E71C21D4E7022585E70325E9
:1040C00083E700BF00040C528000040070B590F834
:1040D000355004469007EDB23ED1012D01D0082D98
:1040E0003CD101B11AB9012084F8350070BD94F8B3
:1040F0003400012832D0012084F8340094F83500CF
:1041000008284FF0020084F8350013D1E168226AD4
:104110002046FFF725FE84F82C000028E6D194F80D
:104120003530082B1CBF012384F83530002384F878
:104130003430DBE794F82D00012809D1084E3068AF
:1041400020F4A02020F0C400184340F004003060A8
:10415000022384F82D30DBE70120C7E70220C5E702
:1041600000040C5213B54FF480240194049C009475
:10417000FFF71CFF02B010BD4FF48023FFF7A6BF6E
:10418000FFF7F0BF13B5044C0194049C0094FFF7B3
:104190000DFF02B010BD00BF80000400014BFFF70F
:1041A00095BF00BF80000400FFF7ECBF30B5A9B099
:1041B0001B4CD4E84F3F0133DBB2C4E8453F002D30
:1041C000F7D1012B0AD84FF4802303934FF04063BB
:1041D00003A8229300F058FC18B125704FF0FF306F
:1041E00018E0104B104DDA6C42F48022DA64DB6C7C
:1041F000287203F480230293029B0C4B68722846BA
:104200002B6001F09DFB044630B9284601A901F05E
:1042100077FC204629B030BD6FF00100FAE700BFFF
:1042200018350330001002500435033000080C52DA
:1042300008B5064801F0E7FB054AD36C23F4802358
:10424000D3640022034B1A7008BD00BF043503304D
:10425000001002501835033008B5FCF729FD00386E
:1042600018BF012008BD00207047002070470000E3
:1042700037B5084C6369984748B9E56AA847C3074A
:10428000FCD4236A019303B0BDE8304018470020F6
:1042900003B030BD8C9A000C08461146FFF7E8BF0A
:1042A00010B5114C0020A368984728B15B210F4B33
:1042B0000F4A104803F074FC02202369984718B194
:1042C0005E210A4B0A4AF4E74FF4E1310120A46A67
:1042D000A04718B16221054B054AEAE72346BDE82D
:1042E00010400121152018478C9A000C149A000CDC
:1042F0007D9A000C299A000C10B5074C0020236908
:104300009847E368984728B16F21044B044A054851
:1043100003F046FC10BD00BF8C9A000C149A000CF0
:10432000709A000C299A000C70B5A2B00D4601A934
:10433000064600F0C9F8044610BB019B802B28BF3D
:104340008023B5EBC30F019321D80146802202A838
:1043500003F0BBFCFF21EA0802ABA24213D105F037
:104360000701012504F188038D400DEB0304013D95
:1043700004F8805C3046019902AA00F07BF90446FB
:10438000204622B070BD03F8011B0134E5E745F279
:10439000A354F5E7F0B5A3B00D466946064600F014
:1043A00093F80446C8B900993046802928BF802177
:1043B00002AA009100F0B8F8044670B9014602461E
:1043C000009F019002ABB8420AD102B101910422D0
:1043D00028460DEB020103F06BFC204623B0F0BD34
:1043E000002213F801CB4CFA02F6013206F0010666
:1043F000082A3144F7D101220130E4E703380328C9
:104400000CD8DFE800F0020507091020FFF7C2BF53
:104410001120FBE71220F9E71320F7E74CF25A309E
:10442000704700207047042902D11146FFF7E6BF0C
:1044300043F65C207047C31E37B505460C46032B78
:104440001AD8DFE803F0021315171020FFF76CFFEE
:1044500050B9284601A9FFF7D1FF28B943F65C23DC
:10446000019AA24218BF184603B030BD1120EDE7F3
:104470001220EBE71320E9E74CF25A30F4E737B5A6
:1044800014460A462168054600F04EF830B9284621
:1044900001A900F019F808B9019B236003B030BDF1
:1044A00003280CD8DFE800F0020507090C20FFF70D
:1044B000E6BF0D20FBE70E20F9E70F20F7E74AF2F1
:1044C000C530704701F0B2BC1E2819D8DFE800F0F3
:1044D00010181014141010141010101010101010C8
:1044E0001616161618181818181818181816100076
:1044F000202300200B6070470423FAE74023F8E7ED
:104500004CF25A30704737B50C4601A91D46FFF7EB
:10451000DBFF38B9019B29469A4228BF1A4620463C
:1045200001F09EFB03B030BD13461E2870D8DFE8B3
:1045300000F0106F15191D2125292D3135393D4207
:10454000474C51565B606F6F6F6F6F6F6F6F6F652A
:104550006A000A4600200421FFF7D5BF0A46022060
:104560002421F9E70A4603204421F5E70A460420FE
:104570004821F1E70A4605204C21EDE70A460620CE
:104580006C21E9E70A4607208C21E5E70A46082066
:104590009021E1E70A460920B021DDE70A460A201A
:1045A000D021D9E70A460B20F021D5E70A460C2096
:1045B0004FF48871D0E70A460D204FF49871CBE78D
:1045C0000A460E204FF41471C6E70A460F204FF436
:1045D0001C71C1E70A4610204FF4A871BCE70A46D7
:1045E00011204FF4C871B7E70A4612204FF4E87162
:1045F000B2E70A4613204FF40471ADE70A461D20C6
:104600004FF42471A8E70A461E204FF43471A3E743
:104610004CF25A3070472DE9F0411E4682B0D31D4E
:1046200023F0070300AF0D46ADEB030D391D144613
:10463000E846FFF749FF20B97B68934205D24AF26A
:10464000C5300837BD46BDE8F0816946284601F00F
:1046500007FB0028F5D1A04205D102463146284685
:1046600001F03AFBEDE7325C18F800309343E6D1F5
:104670000130F0E713461E2870D8DFE800F0106F15
:1046800015191D2125292D3135393D42474C5156EB
:104690005B606F6F6F6F6F6F6F6F6F656A000A4659
:1046A00000200421FFF7B7BF0A4602202421F9E7C2
:1046B0000A4603204421F5E70A4604204821F1E791
:1046C0000A4605204C21EDE70A4606206C21E9E761
:1046D0000A4607208C21E5E70A4608209021E1E7F9
:1046E0000A460920B021DDE70A460A20D021D9E791
:1046F0000A460B20F021D5E70A460C204FF48871BA
:10470000D0E70A460D204FF49871CBE70A460E20F9
:104710004FF41471C6E70A460F204FF41C71C1E72D
:104720000A4610204FF4A871BCE70A4611204FF446
:10473000C871B7E70A4612204FF4E871B2E70A469B
:1047400013204FF40471ADE70A461D204FF4247185
:10475000A8E70A461E204FF43471A3E74CF25A3002
:1047600070470000064B82B01868002382B262F3E3
:104770000F03000C60F31F43184602B0704700BFE0
:10478000889A000C01207047002070470020704775
:104790006FF003007047002070470020704700232F
:1047A00082B00193019802B070476FF00300704728
:1047B000002382B00193019802B0704710B50C46F7
:1047C000014630B12CB10448A2B201F091F8204664
:1047D00010BD6FF00400FBE71C3503300A4608B536
:1047E000014640B13AB14FF47A73044892B200F0F6
:1047F00054FF002008BD6FF00400FBE71C350330B8
:1048000030B52C4C8BB0E36C082543F04003E364D7
:10481000E36C03F040030193019BA36D43F08053CD
:10482000A365A36D03F080530293029BFEF7CEFBBA
:10483000E36C802243F04003E364E36C05A903F0DA
:1048400040030393039BE36D43F00103E365E36DD2
:10485000194C03F001030493049B0223CDE90523C3
:1048600008930123204607930995FFF73BF94FF47E
:104870008073204605A905930995FFF733F94FF496
:10488000E1330E480E490C22C0E900130023C0E9B1
:1048900005234FF40042C0E90233C0E90723036156
:1048A000436200F08AFF003818BF012040420BB07D
:1048B00030BD00BF00100250001802521C350330FA
:1048C0000080005000207047F8B5044600680E468E
:1048D000022833D0032838D0012834D1384B1B6844
:1048E0009D0738D5364D2B6823F080632B60FCF78D
:1048F00061F807462B68190107D5FCF75BF8C01B68
:104900000228F7D92B68180124D4A368D4F800C072
:104910001F0263682A48013B1D01EEB1012E41D1FF
:104920000369284A26691A4042EA0C02760842EADC
:104930000703013E2B4343EA465318E0204B1B6814
:1049400013F4806FCED1012005E01D4B1B6813F4DA
:10495000C02FF7E70320F8BD03691B49194041EA5E
:104960000C0141EA0703E16843EAC1632B43144D9C
:1049700003612B6843F080632B60FCF71BF806464D
:104980002B681B0107D4FCF715F8801B0228F7D908
:104990002B681A01DED50A4AA169136900200B436E
:1049A0001361D8E70269094B6669134043EA0C03B7
:1049B00076083B43013E2B4343EA4663D7E700BFFB
:1049C000001002500C809FFF0C80FF070C80FFF945
:1049D00070B504460068022844D0032849D0012855
:1049E00045D1274B1B689D0749D5254D2B6823F0E2
:1049F00080532B60FBF7DEFF06462B68990007D536
:104A0000FBF7D8FF801B0228F7D92B68980035D414
:104A10001B4D1C4B6A69134022681343A26843EA8A
:104A20000223E26843EAC2636268013A43EA02137E
:104A30006B612B6843F080532B60FBF7BBFF06468E
:104A40002B689B0007D4FBF7B5FF801B0228F7D922
:104A50002B689A0012D50A4A2169536900200B433A
:104A600053610CE0064B1B6813F4806FBDD101202D
:104A700005E0034B1B6813F4C02FF7E7032070BD5C
:104A8000001002500C80FF072DE9F347056804462B
:104A900015F4006507D0C16E402923D013D839B36F
:104AA00020292CD001252368DB040AD5216FB1F51C
:104AB000007F30D027D8A1B3B1F5807F00F03C81D2
:104AC00001252E463DE0602901D08029EAD1A84A7F
:104AD000E16ED2F89C30002523F0E0030B43C2F8CE
:104AE0009C30E0E7A24AD36843F48033D360EEE71A
:104AF0000430FFF7E9FE05460028D4D1E7E720306F
:104B0000FFF766FFF7E7B1F5407F02D0B1F5806FA0
:104B1000D6D12E4609E0964AD36843F48033D36059
:104B2000F7E7201DFFF7D0FE0646002E40F0098172
:104B30008F4A216FD2F89C3023F4E0630B43C2F814
:104B40009C3023689F0330D5894B9A6DD00000F1CB
:104B5000FA804FF001089A6D42F080529A659B6D81
:104B600003F080530193019B824F3B6843F48073B1
:104B70003B60FBF71FFF81463B68DA0509D4FBF772
:104B800019FFA0EB09000228F6D93B68D90540F1CE
:104B90001E81002E00F0DA803546B8F1000F04D0F7
:104BA000734A936D23F0805393652368DA0708D521
:104BB0006F49606BD1F8882022F003020243C1F8EC
:104BC00088209F0708D56A49A06BD1F8882022F079
:104BD0000C020243C1F88820580708D56449E06BED
:104BE000D1F8882022F030020243C1F8882019074A
:104BF00008D55F49206CD1F8882022F0C00202431A
:104C0000C1F88820DA0608D55949606CD1F88820A7
:104C100022F440720243C1F888209F0608D5544907
:104C2000A06CD1F8882022F440620243C1F88820A9
:104C3000980508D54E49E06DD1F8882022F440222D
:104C40000243C1F88820590508D54949206ED1F89A
:104C5000882022F440120243C1F888205A0208D565
:104C60004349606ED1F8882022F440020243C1F823
:104C700088209B010CD5A36EB3F1807F00F0AA8041
:104C8000B3F1007F00F0B680002B00F0A880012572
:104C900023685F0608D53649E06CD1F8882022F4F5
:104CA00040520243C1F888201E0608D53049206DC5
:104CB000D1F8882022F440420243C1F88820D80568
:104CC00008D52B49606DD1F8882022F44032024388
:104CD000C1F88820D90208D52549A06DD1F89C20BB
:104CE00022F003020243C1F89C209A0410D5204A06
:104CF000616FD2F88830B1F1006F23F0406343EA6E
:104D00000103C2F888307DD1D36843F48013D360A7
:104D100023681B0340F19980A16F154BB1F5804FBB
:104D20007BD1D3F89C2042F48042C3F89C20DA68FF
:104D300042F48032DA6088E004F12000FFF748FE98
:104D4000F2E63546FDE64FF000080DE7084FD7F8CC
:104D5000903013F440730FD1054AD4F89010D2F874
:104D6000903023F440730B43C2F8903015E700BF36
:104D70000010025000700050D4F890209342EBD005
:104D8000D7F89020D7F8903022F4407143F4803364
:104D9000C7F89030D7F8903023F48033C7F89030BC
:104DA000D307C7F89010D7D5FBF704FE41F2883A35
:104DB0008146D7F890309907CED4FBF7FBFDA0EBE6
:104DC00009005045F5D9D7F890309807C4D4032589
:104DD0002E46E2E6544AD36843F48013D3607EB98A
:104DE000514AA16ED2F8883023F040730B43C2F8C9
:104DF00088304DE70021201DFFF766FD0646EEE7EF
:104E0000354645E7B1F1806F82D10121201DFFF7C2
:104E10005BFD002818BF05467AE7D3F88820B1F17A
:104E2000806F22F0406242EA0102C3F88820D3F882
:104E30009C2022F48042C3F89C206ED10121201DC9
:104E4000FFF742FD002818BF054623685F0310D511
:104E5000354AE16FD2F88830B1F1006F23F040633A
:104E600043EA0103C2F888304CD1D36843F480137D
:104E7000D36023685E0414D52B49D4F88020D1F880
:104E80008830B2F1805F23F0405343EA0203C1F857
:104E9000883006D10221201DFFF716FD002818BF1B
:104EA00005462268D00309D51F49D4F88400D1F8FB
:104EB0009C3023F004030343C1F89C30910209D5D0
:104EC0001949D4F88800D1F89C3023F01803034323
:104ED000C1F89C30D30111D5134AD4F88C10D2F804
:104EE0009C30B1F5001F23F4401343EA0103C2F8DC
:104EF0009C3003D1D36843F48013D360284602B0BA
:104F0000BDE8F087B1F1806FB3D10121201DFFF71B
:104F1000DBFC002818BF0546ABE7B1F1006F94D168
:104F2000DA6842F4801205E70010025070477047BB
:104F300070477047D0F8882010B5222A04460368CD
:104F400030D15B6AB0F86010826D0B401370836DD6
:104F500001338365B0F85E30013B9BB2A0F85E3050
:104F6000B0F85E2092B2CAB90368196821F4907152
:104F70001960996821F0010199602021C0F888101A
:104F80000267C26E012A0AD11A68B0F85C1022F0DA
:104F900010021A60FFF7CDFF0023E36610BDFFF794
:104FA000C6FFF9E79A6942F008029A61F6E7D0F87D
:104FB000882010B5222A044603682ED1596AB0F819
:104FC00060201140826D22F8021B8265B0F85E20DD
:104FD000013A92B2A0F85E20B0F85E2092B2C2B957
:104FE000196821F490711960996821F001019960A4
:104FF0002021C0F888100267C26E012A0AD11A68FF
:10500000B0F85C1022F010021A60FFF792FF002344
:10501000E36610BDFFF78BFFF9E79A6942F00802DB
:105020009A61F6E72DE9F84F03680446DD69D3F885
:1050300000909E68D0F88820222A40F085800027C2
:10504000B0F86080B0F868A0DFF808B106F001069B
:10505000BAF1000F01D0AB0614D4B4F85E309BB2A5
:1050600073B1B4F868209A420AD923689A6822F08A
:1050700080529A60384A22671A6842F020021A6009
:10508000BDE8F88F2368A26D5B6A03EA080313701A
:10509000A36D0133A365B4F85E30013B9BB2A4F865
:1050A0005E302368DD696A072AD0E8070AD519F45B
:1050B000807F07D001221A62D4F88C2042F00102CE
:1050C000C4F88C20A90708D53EB102221A62D4F890
:1050D0008C2042F00402C4F88C206A0708D53EB147
:1050E00004221A62D4F88C3043F00203C4F88C30E6
:1050F000D4F88C3023B12046FFF71AFFC4F88C7027
:10510000B4F85E2092B2002AA2D12368196821F473
:1051100080711960996801EA0B0199602021C4F837
:1051200088102267E26E012A0AD11A68204622F00E
:105130001002B4F85C101A60FFF7FBFEE76687E721
:105140002046FFF7F4FEF9E79A6942F008029A61F7
:1051500096E700BFFEFFFFEF354F000C2DE9F84F3B
:1051600003680446DD69D3F800909E68D0F8882073
:10517000222A40F083800027B0F86080B0F868A051
:10518000DFF804B106F00106BAF1000F01D0AB065A
:1051900014D4B4F85E309BB273B1B4F868209A426C
:1051A0000AD923689A6822F080529A60374A2267A7
:1051B0001A6842F020021A60BDE8F88F2368A26DD9
:1051C000596A08EA010122F8021BA265B4F85E20C0
:1051D000013A92B2A4F85E20DD696A072AD0E80796
:1051E0000AD519F4807F07D001221A62D4F88C20E6
:1051F00042F00102C4F88C20A90708D53EB1022272
:105200001A62D4F88C2042F00402C4F88C206A0799
:1052100008D53EB104221A62D4F88C3043F0020360
:10522000C4F88C30D4F88C3023B12046FFF780FED0
:10523000C4F88C70B4F85E2092B2002AA4D123681E
:10524000196821F480711960996801EA0B0199606D
:105250002021C4F888102267E26E012A0AD11A6858
:10526000204622F01002B4F85C101A60FFF761FECD
:10527000E76689E72046FFF75AFEF9E79A6942F0A8
:1052800008029A6198E700BFFEFFFFEFAF4F000CE6
:1052900038B504462169A26803680A4361691D683C
:1052A000C0690A43A149024329400A431A605A6867
:1052B000E16822F440520A435A609D4AA169934230
:1052C0001CBF226A11439A6822F06E4222F43062B7
:1052D0000A439A60DA6A616A22F00F020A43DA62CC
:1052E000944A93421BD1944BD3F8883003F00303C4
:1052F000013B022B00F2EA80904AB0F5004FD35CEC
:1053000040F0AC80082B26D8DFE813F0EF00E30074
:10531000A6002500E900250025002500F300884AA5
:10532000934206D1844B874AD3F8883003F00C03AC
:10533000E3E7854A934219D17F4BD3F8883003F0D5
:105340003003202B00F0BD8007D8002B00F0CA806E
:10535000102B00F0C18001204FE0302BFBD1B0F5C5
:10536000004F00F0C6804FF4004093E0774A93422C
:105370000FD1714BD3F8883003F0C003802B00F0BD
:10538000A08004D8002B00F0AD80402BE1E7C02BBB
:10539000E4E7B3F1502F13D103F5E033D3F88830AD
:1053A00003F44073B3F5007F00F08B8005D8002B29
:1053B00000F09880B3F5807FCBE7B3F5407FCDE771
:1053C0005B4A9342C7D15C4BD3F8883003F4406307
:1053D000B3F5006F18D006D85BB1B3F5806FBAD1C2
:1053E000FDF78AFE07E0B3F5406FB4D14FF40040FB
:1053F0000BE0FEF733FB40B900204FF00113A3662A
:105400000023C4E91C3338BD5148524B626A6568B9
:1054100033F8122005EB4501B0FBF2F399429AD81C
:10542000B3EB053F97D80023194602F02BFA090287
:1054300041EA10616B080002C0182A464FF00003D1
:1054400041F1000102F01EFA434BA0F540729A426E
:1054500081D82368D860CFE73D484AE0082B3FF663
:105460007AAF01A252F823F08D54000CB754000C0F
:10547000C954000C5753000CBD54000C5753000C7A
:105480005753000C5753000C6753000CFEF7E6FA15
:105490000028B1D0616A2F4A636832F81120B0FB4E
:1054A000F2F000EB5300B0FBF3F080B24FF6EF7375
:1054B000A0F11002CBE7FEF7E1FAE9E7FDF71CFEE9
:1054C000E6E7B0F5004FC7D02148E3E7B0F5004F5D
:1054D000F1D1FEF7D3FA0AE0B0F5004FEED1FDF7B7
:1054E0000BFE04E0B0F5004FD0D1FEF7B7FA00286C
:1054F00082D0616A174B626833F81130B0FBF3F366
:10550000500800EB4300B0FBF2F04FF6EF7283B2AD
:10551000A3F1100191423FF61EAF20F00F00226868
:1055200080B2C3F342031843D06065E7F369FFCF4D
:10553000008000500038015000100250C49A000C46
:1055400000440050C79A000C00480050004C005026
:105550000024F400D49A000CFFFC0F00836A10B5FD
:10556000DA0706D50168C46A4A6822F40032224389
:105570004A609C0706D50168046B4A6822F48032B1
:1055800022434A60590706D50168446B4A6822F4F1
:10559000802222434A601A0706D50168846B4A6854
:1055A00022F4004222434A60DC0606D50168C46B3F
:1055B0008A6822F4805222438A60990606D50168DF
:1055C000046C8A6822F4005222438A605A0610D57D
:1055D0000168446C4A68B4F5801F22F4801242EAE4
:1055E00004024A6005D14A68846C22F4C002224356
:1055F0004A601B0606D50268C16C536823F4002379
:105600000B43536010BD2DE9F04104460E4615468C
:105610001F46DDF818802268D36936EA03030CBF01
:1056200001230023AB4201D000201CE0B8F1FF3F72
:10563000F2D0FBF7BFF9C01B40452068036802D8D1
:10564000B8F1000F11D123F4D0730360836823F005
:10565000010383602023C4F88430C4F88830002319
:10566000032084F88030BDE8F0815A07D3D5C369A0
:105670001B05D0D54FF400630362036823F4D07395
:105680000360836823F0010383602023C4F884301F
:10569000C4F88830C4F88C30E1E72DE9F743984628
:1056A000D0F884300446202B0E4617464FD10029EF
:1056B0004BD0002A49D090F88030012B47D00123ED
:1056C000002580F880302123C0F88C50C0F8843049
:1056D000FBF770F9A3688146B3F5805FA4F85470B6
:1056E000A4F8567003D123690BB935461E46002332
:1056F00084F88030B4F856204B4692B2CDF8008042
:1057000042B940212046FFF77EFF48B92023C4F864
:10571000843006E0002280212046FFF774FF18B194
:10572000032003B0BDE8F08322685EB935F8023B80
:10573000C3F308039362B4F85620013A92B2A4F876
:105740005620D7E716F8013BF4E70120E9E70220ED
:10575000E7E773B500260446C0F88C60FBF72AF92A
:10576000236805461B681A0718D423681B685B0763
:105770000AD56FF07E43002200934FF480012B4640
:105780002046FFF740FFA8B920230020C4F884304A
:1057900084F88000C4F88830E0660CE06FF07E4347
:1057A000324600934FF4001103462046FFF72BFFCB
:1057B0000028DAD0032002B070BD10B5044650B303
:1057C000D0F884301BB980F88030FFF7AFFB24237A
:1057D0002268C4F884301368204623F00103136064
:1057E000FFF756FD012816D0A36A13B12046FFF734
:1057F000B5FE23682046BDE810405A6822F4904266
:105800005A609A6822F02A029A601A6842F00102ED
:105810001A60FFF79EBF012010BD0000002310B5E5
:1058200081658168A0F85C20B1F5805FA0F85E20FA
:10583000036731D103696BBB40F2FF13A0F86030FE
:105840000023C0F88C302223C0F8883003689C689D
:1058500044F001049C60446EB4F1005F2CD1B0F8B8
:105860006840944228D8B1F5805F23D104691C4A6E
:105870001C49002C08BF0A460267002280F88020DD
:105880001A6842F480721A609A6842F080529A60F4
:10589000002010BDFF23D1E721B90369002BF9D007
:1058A0007F23CBE7B1F1805FC8D10369002BF7D02C
:1058B0003F23C3E70A4ADFE7B1F5805F0ED10469F1
:1058C000094A0A49002C08BF0A460267002280F8EC
:1058D00080201A6842F490721A60D9E7024AF4E70D
:1058E0002550000C5D51000C354F000CAF4F000CE3
:1058F000D0F8883010B4202B1BD1B9B1B2B190F8D8
:105900008030012B15D0012380F8803000230A4C11
:10591000C3660368A34206D05C68240242BF1C68C9
:1059200044F080641C6010BCFFF778BF012010BCFD
:1059300070470220FBE700BF008000507047000066
:1059400038B50446002830D0437A03F0FF0213B97B
:105950000272FFF7F3FF0223226863721368616823
:1059600023F004031360136823F0804323F0200323
:105970000B4343F080431360214B13614AF2B3237E
:105980001361136823F080431360FBF713F8054697
:1059900023681A6851000AD41A6842F004021A6097
:1059A0005B685A0611D50423637201200CE0FBF7F3
:1059B00001F8401B0228EBD923681B685800E7D583
:1059C000012002236072E36038BDFAF7F3FF054659
:1059D0002368586810F0040003D101236372E0606B
:1059E000F2E7FAF7E7FF401B0228F1D923685B686A
:1059F0005B07EDD5042363720223E360D5E700BFA4
:105A0000BC0A5917704770B50546002833D00268A4
:105A1000136823F0804323F0200343F08043136096
:105A2000136823F080431360FAF7C4FF06462B681F
:105A30001C6814F080440FD11A68284622F00C022A
:105A40001A605A6822F060025A60FFF7DBFF2046B6
:105A50006C722C72EC6070BDFAF7ACFF801B0228F0
:105A6000E5D92B681B685B00E1D5022301246C7229
:105A7000EB6000232B720120EDE77047002313B584
:105A8000019303685A68520709D45A6822F0400209
:105A90005A60C36823F00803C360002018E01A6846
:105AA00042F080421A601A6822F080421A60022294
:105AB0000192019A013A0192019A5AB90124447261
:105AC000C368027243F00203C360FFF7D6FF2046AB
:105AD00002B010BD1A685400EBD45A68510642BF98
