:020000040804EE
:1014000040360020E11704080117040803170408F8
:101410000517040807170408091704080B17040820
:101420000000000000000000000000002D2904085A
:101430000D17040800000000C9290408D729040872
:101440000F170408111704081317040815170408C8
:1014500017170408191704081B1704081D17040898
:101460001F17040821170408231704082517040868
:1014700027170408291704082B1704082D17040838
:101480002F17040831170408331704083517040808
:1014900037170408391704083B1704083D170408D8
:1014A0003F170408411704084317040845170408A8
:1014B00047170408491704084B1704084D17040878
:1014C0004F17040851170408531704085517040848
:1014D00057170408591704085B1704085D17040818
:1014E0005F170408611704086317040865170408E8
:1014F00067170408691704086B1704086D170408B8
:101500006F17040871170408731704087517040887
:1015100077170408791704087B1704087D17040857
:101520007F17040881170408831704088517040827
:1015300087170408891704088B1704088D170408F7
:101540008F170408911704089317040895170408C7
:1015500097170408991704089B1704089D17040897
:101560009F170408A1170408A3170408A517040867
:10157000A717040800000000A917040800000000D5
:10158000AB170408AD170408AF170408B117040817
:10159000B3170408B5170408B7170408B9170408E7
:1015A000BB170408BD170408BF170408C1170408B7
:1015B000C317040800000000C5170408C717040873
:1015C000C917040800000000CB170408CD17040851
:1015D000CF170408D1170408D3170408D517040837
:1015E000D7170408D9170408DB170408DD17040807
:1015F000DF17040810B5054C237833B9044B13B139
:10160000044800E000BF0123237010BD1802002031
:10161000000000009C5A040808B5034B1BB10349A5
:10162000034800E000BF08BD000000001C020020CD
:101630009C5A0408A3F5803A704700BF174B002B53
:1016400008BF134B9D46FFF7F5FF00218B460F4661
:101650001348144A121A03F034F80E4B002B00D032
:1016600098470D4B002B00D0984700200021040024
:101670000D000D48002802D00C4800E000BF02F029
:10168000EFFF2000290000F01BF802F0C3FF00BFAD
:101690000000080000000000711804084036002017
:1016A0001802002038260020000000000000000082
:1016B00008B500F0F3F9002008BD002070470000D5
:1016C00008B5FFF7F5FF00B1FEE7FFF7F6FF0446A8
:1016D00000B1FEE702F0F6FC02F0E2FD2146054A09
:1016E000054802F0D5FB054800F038F902F000FD8E
:1016F000FEE700BF385704081D2904080C570408EA
:10170000FEE7FEE7FEE7FEE7FEE7FEE7FEE7FEE7B1
:10171000FEE7FEE7FEE7FEE7FEE7FEE7FEE7FEE7A1
:10172000FEE7FEE7FEE7FEE7FEE7FEE7FEE7FEE791
:10173000FEE7FEE7FEE7FEE7FEE7FEE7FEE7FEE781
:10174000FEE7FEE7FEE7FEE7FEE7FEE7FEE7FEE771
:10175000FEE7FEE7FEE7FEE7FEE7FEE7FEE7FEE761
:10176000FEE7FEE7FEE7FEE7FEE7FEE7FEE7FEE751
:10177000FEE7FEE7FEE7FEE7FEE7FEE7FEE7FEE741
:10178000FEE7FEE7FEE7FEE7FEE7FEE7FEE7FEE731
:10179000FEE7FEE7FEE7FEE7FEE7FEE7FEE7FEE721
:1017A000FEE7FEE7FEE7FEE7FEE7FEE7FEE7FEE711
:1017B000FEE7FEE7FEE7FEE7FEE7FEE7FEE7FEE701
:1017C000FEE7FEE7FEE7FEE7FEE7FEE7FEE7FEE7F1
:1017D000FEE7FEE7FEE7FEE7FEE7FEE7FEE7FEE7E1
:1017E00008B5174B83F30A88164A82F3098883F3F6
:1017F0000B8800F07FF9144B14498B4212D3002060
:10180000134B14498B4218D3FFF718FF186850F890
:101810002240586840F82240013298688242F5D34D
:101820000C33EAE70022F8E71C6844F82200013292
:101830005C68A242F8D30833E4E70022F8E700BF6F
:101840004026002040360020A85A0408C05A040848
:10185000C05A0408D05A040801207047012070477C
:10186000012070470120704701207047FEE7FEE726
:1018700002F028BC1FB5002302226846CDE90032E1
:10188000CDE9023301F058FE05B05DF804FB0368B2
:101890005A1C1F2A03440260197105D90023202114
:1018A00040F8043B00F0E2B870472DE9FF41002406
:1018B000642A07460D46CDE90144039406D1A142AE
:1018C00004DA2D21FFF7E3FF01246D4201AB00266E
:1018D00098460A20B5FBF0F100FB1152303203F8B4
:1018E000012B2A46092A0D4606F10106F2D8354693
:1018F000013D384618F80510FFF7C9FF002DF7D154
:10190000A01904B0BDE8F081F0B5002485B001ABAA
:1019100006461F46CDE90144039401F00F00105C18
:10192000090904F1010403F8010BF6D12546013D34
:101930003046795DFFF7ABFF002DF8D1204605B0AA
:10194000F0BD70B506460D460024295D09B9204654
:1019500070BD3046FFF79BFF0134F6E70FB400205F
:101960002DE9F04782468AB012AC54F8045BDFF8E8
:10197000EC80DFF8EC903B4E00940190297859B947
:10198000019919B102A800F071F8824450460AB0DA
:10199000BDE8F04704B07047252905F1010756D18D
:1019A0006978692910D018D8582933D008D8252942
:1019B00047D0414601A8FFF7C4FF82443D46DDE71A
:1019C00063293BD06429F4D1642254F8041B01A894
:1019D000FFF76BFF8244AF1CF0E77039CBB2082BE6
:1019E000E7D80829E5D801A353F821F0231A040801
:1019F000B3190408B3190408311A0408B319040808
:101A0000111A0408B3190408B31904082D1A04089C
:101A10007522DAE7144A54F8041B01A8FFF774FF93
:101A2000D8E7494601A8FFF78CFF82443246F2E727
:101A300054F8041B01A8FFF784FFCBE754F8041BFC
:101A4000C9B201A8FFF723FF0AF1010AC3E701A801
:101A5000FFF71DFF0AF1010AB0E700BF6358040851
:101A600060580408755804088558040837B5084CB0
:101A70006369984748B9E56AA847C307FCD4236A55
:101A8000019303B0BDE830401847002003B030BDDB
:101A90005859040808461146FFF7E8BF10B5114C25
:101AA0000020A368984728B15B210F4B0F4A1048CC
:101AB00002F092FD02202369984718B15E210A4B7B
:101AC0000A4AF4E74FF4E1310120A46AA04718B1B3
:101AD0006221054B054AEAE72346BDE81040012193
:101AE000152018475859040895580408F158040857
:101AF000AA58040870470000064B82B018680023FB
:101B000082B262F30F03000C60F31F43184602B069
:101B1000704700BF545904080120704700207047E7
:101B2000002070476FF003007047002070470020CE
:101B30007047002382B00193019802B070476FF0A4
:101B400003007047002382B00193019802B07047F0
:101B500010B50C46014630B12CB10448A2B200F0D9
:101B600031FE204610BD6FF00400FBE78825002001
:101B70000A4608B5014640B13AB14FF47A730448B9
:101B800092B200F0F4FC002008BD6FF00400FBE707
:101B90008825002030B52C4C8BB0E36C082543F031
:101BA0004003E364E36C03F040030193019BA36DE6
:101BB00043F08053A365A36D03F080530293029B0F
:101BC00000F04CF8E36C802243F04003E364E36CE4
:101BD00005A903F040030393039BE36D43F0010366
:101BE000E365E36D194C03F001030493049B0223A6
:101BF000CDE905230893012320460793099500F0BA
:101C000035F84FF48073204605A90593099500F037
:101C10002DF84FF4E1330E480E490C22C0E90013B1
:101C20000023C0E905234FF40042C0E90233C0E9B4
:101C300007230361436200F02AFD003818BF01202A
:101C400040420BB030BD00BF0010024000180242FD
:101C5000882500200080004000207047024A536819
:101C600043F40073536070470070004000232DE977
:101C7000F04F5E4CDFF87881DFF878910A6832FA2D
:101C800003F501D1BDE8F08F4FF0010C0CFA03FC15
:101C90001CEA020200F09C8003264D684FEA430EC6
:101CA00025F0100A0AF1FF3706FA0EF6012F6FEA47
:101CB000060611D8876807EA060BCF6807FA0EF701
:101CC00047EA0B078760476827EA0C0CC5F3001743
:101CD0009F4047EA0C074760C768BAF1020F07EA5E
:101CE000060C8F6807FA0EF747EA0C07C76016D193
:101CF0004FF00F0C4FEAD30A00EB8A0A03F0070BF0
:101D0000DAF820704FEA8B0B0CFA0BFC27EA0C0C6C
:101D10000F6907FA0BF747EA0C07CAF82070076843
:101D20003E4005F0030707FA0EF73E430660EE005B
:101D30004ED54FF00F0C23F0030707F1804707F54E
:101D40003D3703F0030E3E6E4FEACE0E0CFA0EFC4A
:101D500026EA0C0C284EB0423CD006F58066B04214
:101D60003AD006F58066B04238D006F58066B042BB
:101D700036D006F58066B04234D0404534D0484570
:101D80000CBF0626072606FA0EF646EA0C063E6645
:101D9000D743D4F8806015F4803F0CBF3E40164313
:101DA000C4F88060D4F8846015F4003F0CBF3E4056
:101DB0001643C4F88460266815F4801F0CBF3E40AB
:101DC000164326606668AD0254BF3E401643666007
:101DD000013353E70026D6E70126D4E70226D2E7EF
:101DE0000326D0E70426CEE70526CCE700F4024020
:101DF000001402420018024200000242704770477D
:101E000070477047D0F8882010B5222A044603682E
:101E100030D15B6AB0F86010826D0B401370836D37
:101E200001338365B0F85E30013B9BB2A0F85E30B1
:101E3000B0F85E2092B2CAB90368196821F49071B3
:101E40001960996821F0010199602021C0F888107B
:101E50000267C26E012A0AD11A68B0F85C1022F03B
:101E600010021A60FFF7CDFF0023E36610BDFFF7F5
:101E7000C6FFF9E79A6942F008029A61F6E7D0F8DE
:101E8000882010B5222A044603682ED1596AB0F87A
:101E900060201140826D22F8021B8265B0F85E203E
:101EA000013A92B2A0F85E20B0F85E2092B2C2B9B8
:101EB000196821F490711960996821F00101996005
:101EC0002021C0F888100267C26E012A0AD11A6860
:101ED000B0F85C1022F010021A60FFF792FF0023A6
:101EE000E36610BDFFF78BFFF9E79A6942F008023D
:101EF0009A61F6E72DE9F84F03680446DD69D3F8E7
:101F000000909E68D0F88820222A40F08580002723
:101F1000B0F86080B0F868A0DFF808B106F00106FC
:101F2000BAF1000F01D0AB0614D4B4F85E309BB206
:101F300073B1B4F868209A420AD923689A6822F0EB
:101F400080529A60384A22671A6842F020021A606A
:101F5000BDE8F88F2368A26D5B6A03EA080313707B
:101F6000A36D0133A365B4F85E30013B9BB2A4F8C6
:101F70005E302368DD696A072AD0E8070AD519F4BC
:101F8000807F07D001221A62D4F88C2042F001022F
:101F9000C4F88C20A90708D53EB102221A62D4F8F1
:101FA0008C2042F00402C4F88C206A0708D53EB1A8
:101FB00004221A62D4F88C3043F00203C4F88C3047
:101FC000D4F88C3023B12046FFF71AFFC4F88C7088
:101FD000B4F85E2092B2002AA2D12368196821F4D5
:101FE00080711960996801EA0B0199602021C4F899
:101FF00088102267E26E012A0AD11A68204622F070
:102000001002B4F85C101A60FFF7FBFEE76687E782
:102010002046FFF7F4FEF9E79A6942F008029A6158
:1020200096E700BFFEFFFFEF051E04082DE9F84FFD
:1020300003680446DD69D3F800909E68D0F88820D4
:10204000222A40F083800027B0F86080B0F868A0B2
:10205000DFF804B106F00106BAF1000F01D0AB06BB
:1020600014D4B4F85E309BB273B1B4F868209A42CD
:102070000AD923689A6822F080529A60374A226708
:102080001A6842F020021A60BDE8F88F2368A26D3A
:10209000596A08EA010122F8021BA265B4F85E2021
:1020A000013A92B2A4F85E20DD696A072AD0E807F7
:1020B0000AD519F4807F07D001221A62D4F88C2047
:1020C00042F00102C4F88C20A90708D53EB10222D3
:1020D0001A62D4F88C2042F00402C4F88C206A07FB
:1020E00008D53EB104221A62D4F88C3043F00203C2
:1020F000C4F88C30D4F88C3023B12046FFF780FE32
:10210000C4F88C70B4F85E2092B2002AA4D123687F
:10211000196821F480711960996801EA0B019960CE
:102120002021C4F888102267E26E012A0AD11A68B9
:10213000204622F01002B4F85C101A60FFF761FE2E
:10214000E76689E72046FFF75AFEF9E79A6942F009
:1021500008029A6198E700BFFEFFFFEF7F1E0408A8
:1021600038B504462169A26803680A4361691D689D
:10217000C0690A43A149024329400A431A605A68C8
:10218000E16822F440520A435A609D4AA169934291
:102190001CBF226A11439A6822F06E4222F4306218
:1021A0000A439A60DA6A616A22F00F020A43DA622D
:1021B000944A93421BD1944BD3F8883003F0030325
:1021C000013B022B00F2EA80904AB0F5004FD35C4D
:1021D00040F0AB80082B26D8DFE813F0EF00E300D7
:1021E000A5002500E900250025002500F300884A08
:1021F000934206D1844B874AD3F8883003F00C030E
:10220000E3E7854A934219D17F4BD3F8883003F036
:102210003003202B00F0BD8007D8002B00F0CA80CF
:10222000102B00F0C18001204EE0302BFBD1B0F527
:10223000004F00F0C6804FF4004093E0774A93428D
:102240000FD1714BD3F8883003F0C003802B00F01E
:10225000A08004D8002B00F0AD80402BE1E7C02B1C
:10226000E4E76F4A934212D1674BD3F8883003F406
:102270004073B3F5007F00F08C8005D8002B00F090
:102280009980B3F5807FCCE7B3F5407FCEE75C4A19
:102290009342C8D15C4BD3F8883003F44063B3F564
:1022A000006F18D006D85BB1B3F5806FBBD100F0DA
:1022B000B5FA07E0B3F5406FB5D14FF400400BE03D
:1022C00000F00CFB40B900204FF00113A36600237F
:1022D000C4E91C3338BD5348534B626A656833F810
:1022E000122005EB4501B0FBF2F399429BD8B3EB0A
:1022F000053F98D80023194601F0E0FF090241EAA2
:1023000010616B080002C0182A464FF0000341F12B
:10231000000101F0D3FF454BA0F540729A4282D8EC
:102320002368D860CFE73F484BE0082B3FF67BAFF0
:1023300001A252F823F000BF5D230408872304089C
:1023400099230408272204088D230408272204085F
:1023500027220408272204083722040800F0BEFAC6
:102360000028B0D0616A304A636832F81120B0FBAF
:10237000F2F000EB5300B0FBF3F080B24FF6EF73D6
:10238000A0F11002CAE700F0B9FAE9E700F046FA56
:10239000E6E7B0F5004FC6D02248E3E7B0F5004FBE
:1023A000F1D100F0ABFA0AE0B0F5004FEED100F049
:1023B00035FA04E0B0F5004FD0D100F08FFA0028D4
:1023C00081D0616A184B626833F81130B0FBF3F3C7
:1023D000500800EB4300B0FBF2F04FF6EF7283B20F
:1023E000A3F1100191423FF61EAF20F00F002268CA
:1023F00080B2C3F342031843D06064E7F369FFCFB0
:10240000008000400038014000100240905904084C
:10241000004400409359040800480040004C00402C
:10242000005000400024F400A0590408FFFC0F00F5
:10243000836A10B5DA0706D50168C46A4A6822F4CF
:10244000003222434A609C0706D50168046B4A6843
:1024500022F4803222434A60590706D50168446B52
:102460004A6822F4802222434A601A0706D501688E
:10247000846B4A6822F4004222434A60DC0606D597
:102480000168C46B8A6822F4805222438A609906EC
:1024900006D50168046C8A6822F4005222438A60DF
:1024A0005A0610D50168446C4A68B4F5801F22F4BE
:1024B000801242EA04024A6005D14A68846C22F420
:1024C000C00222434A601B0606D50268C16C5368ED
:1024D00023F400230B43536010BD2DE9F041044663
:1024E0000E4615461F46DDF818802268D36936EA85
:1024F00003030CBF01230023AB4201D000201CE0EA
:10250000B8F1FF3FF2D000F083F9C01B40452068CE
:10251000036802D8B8F1000F11D123F4D07303601F
:10252000836823F0010383602023C4F88430C4F857
:1025300088300023032084F88030BDE8F0815A07FA
:10254000D3D5C3691B05D0D54FF40063036203687C
:1025500023F4D0730360836823F001038360202396
:10256000C4F88430C4F88830C4F88C30E1E72DE931
:10257000F7439846D0F884300446202B0E46174681
:102580004FD100294BD0002A49D090F88030012B40
:1025900047D00123002580F880302123C0F88C50DB
:1025A000C0F8843000F034F9A3688146B3F5805F49
:1025B000A4F85470A4F8567003D123690BB93546BA
:1025C0001E46002384F88030B4F856204B4692B261
:1025D000CDF8008042B940212046FFF77EFF48B980
:1025E0002023C4F8843006E0002280212046FFF733
:1025F00074FF18B1032003B0BDE8F08322685EB910
:1026000035F8023BC3F308039362B4F85620013A4D
:1026100092B2A4F85620D7E716F8013BF4E7012060
:10262000E9E70220E7E773B500260446C0F88C60AE
:1026300000F0EEF8236805461B681A0718D42368D3
:102640001B685B070AD56FF07E43002200934FF4AE
:1026500080012B462046FFF740FFA8B92023002029
:10266000C4F8843084F88000C4F88830E0660CE058
:102670006FF07E43324600934FF40011034620462C
:10268000FFF72BFF0028DAD0032002B070BD10B591
:10269000044650B3D0F884301BB980F88030FFF77F
:1026A000ADFB24232268C4F884301368204623F04D
:1026B00001031360FFF754FD012816D0A36A13B17C
:1026C0002046FFF7B5FE23682046BDE810405A6853
:1026D00022F490425A609A6822F02A029A601A689C
:1026E00042F001021A60FFF79EBF012010BD0000FA
:1026F000002310B581658168A0F85C20B1F5805F8A
:10270000A0F85E20036731D103696BBB40F2FF1371
:10271000A0F860300023C0F88C302223C0F8883045
:1027200003689C6844F001049C60446EB4F1005F4F
:102730002CD1B0F86840944228D8B1F5805F23D1FD
:1027400004691C4A1C49002C08BF0A460267002283
:1027500080F880201A6842F480721A609A6842F009
:1027600080529A60002010BDFF23D1E721B9036990
:10277000002BF9D07F23CBE7B1F1805FC8D103698B
:10278000002BF7D03F23C3E70A4ADFE7B1F5805FAC
:102790000ED10469094A0A49002C08BF0A4602679B
:1027A000002280F880201A6842F490721A60D9E7FB
:1027B000024AF4E7F51E04082D200408051E04084B
:1027C0007F1E0408D0F8883010B4202B1BD1B9B17B
:1027D000B2B190F88030012B15D0012380F8803001
:1027E00000230A4CC3660368A34206D05C68240237
:1027F00042BF1C6844F080641C6010BCFFF778BFC7
:10280000012010BC70470220FBE700BF00800040A1
:10281000014B1868704700BF18260020244B9A68A7
:10282000D96812F00C0205D00C2A15D101F0030171
:10283000012918D119681F48090755BFD3F894100A
:102840001968C1F30321C1F3031150F8210012B13B
:102850000C2A09D000207047042A27D0082A1648DD
:1028600018BF002070470020D968DA6801F0030122
:10287000C2F30312022902F1010208D0032906D093
:10288000B0FBF2F0D968C1F30621484306E00A49DB
:10289000D868B1FBF2F2C0F306205043DB68C3F303
:1028A000416301335B00B0FBF3F0704702487047AF
:1028B00000100240145904080024F40008B5FFF782
:1028C000ADFF044B044A9B68C3F30313D35CD840A9
:1028D00008BD00BF00100240FC58040808B5FFF70F
:1028E000EDFF044B044A9B68C3F30223D35CD8403A
:1028F00008BD00BF001002400C59040808B5FFF7DE
:10290000DDFF044B044A9B68C3F3C223D35CD84069
:1029100008BD00BF001002400C59040808B5024869
:10292000FFF71CF8FEE700BFB85904081EF0040FBB
:102930000CBFEFF30880EFF30980816911F8021CE6
:10294000002933D101B590E80F10E047BDE80050F1
:102950008CE803003C4B93E80600914208BF7047A7
:1029600069B1086C20B10EB5FEF77EFFBDE80E40E0
:10297000EFF3098020E9F00F886381F822E01A6004
:10298000106C18B10CB4FEF76DFF0CBC106B92F814
:10299000221080F30B88906B61F0FF0E1EF0400F49
:1029A00001D1B0E8F00F80F309887047274A136817
:1029B0009942FAD801B552F821C00FC8E047BDE8E6
:1029C0000050CCF80000704701B500F07BF8BDE87E
:1029D000014000F007B801B500F03AF8BDE8014049
:1029E00000F000B8184B93E80600914208BF70470A
:1029F000086C50B10EB5FEF737FFBDE80E401EF073
:102A0000400F18BFEFF3098003D1EFF3098020E9ED
:102A1000F00F886381F822E01A60106C18B10CB4D2
:102A2000FEF720FF0CBC106B92F8221080F30B888D
:102A3000906B61F0FF0E1EF0400F01D1B0E8F00F77
:102A400080F309887047000018010020FC57040833
:102A500038B51B4C01F098FBE368226D0133E3604D
:102A600002B1904700F090FE002000F0EBFE236CD6
:102A70002BB1A16BA269914202D0C4E90E2338BDEB
:102A8000E36BC3B9237A022BF9D1656A002DF6D026
:102A900091F9203095F920209A42F0D1284600F093
:102AA0003FFEA06B00F046FE284600F0C1FE236CFE
:102AB000C4E90E5338BD013BE363002BE2D038BDBF
:102AC0000401002070B5284E06F1560406F15A059F
:102AD000B6F85420D4E85F3F13B9BFF32F8F04E05A
:102AE000591EC4E8501F00B1F4E79BB2002B36D04A
:102AF000D5E85F3F591C8A4200D80021C5E8501F25
:102B000000B1F5E79BB2F26D52F8230038B30378B9
:102B1000F13B082BDCD801A252F823F0592B040812
:102B2000D12A0408532B0408D12A0408D12A040806
:102B30004D2B0408472B0408D12A0408412B040814
:102B4000336F9847C4E7F36E9847C1E7B36E984771
:102B5000BEE7736E9847BBE7336E9847B8E700202F
:102B6000BDE8704000F06EBE040100201A4A70B447
:102B7000B2F8543002F15605D5E85F4FA34202D8AF
:102B8000BFF32F8F04E0611CC5E8561F06B1F3E7C1
:102B9000A4B2A34204D80146022070BCFEF767BE6F
:102BA00002F15805D5E85F4F611C8B4200D8002127
:102BB000C5E8561F06B1F5E7A3B2D16D41F8230071
:102BC000537A1BB10123937270BC7047034B4FF0D3
:102BD000805270BC5A6070470401002000ED00E094
:102BE0002DE9F04F0F4683B0064600284CD000294F
:102BF0004AD0CB1CB0FA80F123F0030313F10C058B
:102C000004D0B5FA85F30B441F2B3DDD05FB06F917
:102C1000002A3ED09468002C57D0A30734D1D36843
:102C2000332B31D9D2F81080D2F800A05269B8F114
:102C3000000F55D018F0030318BF0123914588BF3A
:102C400043F0010303BB3CB3DFF8FCB04FF0000CD2
:102C5000FA20A3702A4643462070C4F804A03146E7
:102C6000676204F10C00C4F808C0C4F830C0C4E9BD
:102C70000ACC00F00BFB334B2046CBF8703003B08E
:102C8000BDE8F08F002C53D10024204603B0BDE8EE
:102C9000F08F924601239046DFF8ACB00193DBF849
:102CA000A000002833D000F015FB019B0446002C47
:102CB000E8D0002BE6D000224946DBF87C0000F08B
:102CC00069FB804660B3032319E0D368002BDBD196
:102CD000D2F81080D2F800A05269B8F1000FA9D143
:102CE000002AD1D164B3DFF860B042464946DBF830
:102CF0007C0000F04FFB80460028C5D002234A46E6
:102D000000214046019301F0DCFC019B9EE701227B
:102D10003421DBF8800000F03DFB019B0446C6E750
:102D2000DBF8A000214628B100F0F0FA4446ACE7F9
:102D300001238BE7DBF88000444600F069FBA4E741
:102D40000123A9E7DD2F0408040100202DE9F0414B
:102D50009C460F4690460546002800F0B280027857
:102D6000FA2A40F0AE80002900F0AB8000F128067E
:102D700056E8002F12B9BFF32F8F04E0511E46E82A
:102D8000001000B1F4E7D2B1EC6AC4B1A01C01227A
:102D9000D0E84F1FC0E8432F03B1F9E711F0FF0F50
:102DA00009D11AE0D0E84F1FC0E8432F03B1F9E77B
:102DB00011F0FF0F11D0A468A01C002CF2D1BCF1BF
:102DC000000F00F081806146832000F0E7FF0028BB
:102DD00066D16FF00100BDE8F081D4E90132002B2B
:102DE00049D09A60A268002A49D0536038466A6A7E
:102DF00004F10C0101F058FCB8F1000F02D0E378A7
:102E000088F80030002705F10C082146277040465D
:102E100000F07CFAAB68002B3FD0404600F05AFA35
:102E20000446002839D0284600F070FC8046012274
:102E3000394600F097FD404600F0E2FC80466A6AA1
:102E400004F10C00D8F8081001F02EFCF923A7704B
:102E5000237098F80C10E1702B6B0BB92CE0134623
:102E6000DA788A420DD25A681F46002AF7D1C4E99F
:102E70000123EC6209E0EA62A268002AB5D12B6363
:102E8000B4E7C4E901379C60CFB17C6056E8003FED
:102E90005A1C46E8002101B1F8E70020BDE8F081A6
:102EA0000B4B2846596900F00FFCEFF309836FF0D4
:102EB0000100C3E90278F1E7C4E90133EC622C6355
:102EC000E4E76FF00300E9E76FF00200E6E700BF18
:102ED000040100202DE9F0410F46164698460446AD
:102EE000002872D00278FA2A6FD1B1FA81F56D0903
:102EF000002D6AD1826812B15378832B3CD004F143
:102F00000C0000F0E7F9054618B3626A39460C3048
:102F100001F0CAFBF9230022EE702B70AA70236B1C
:102F20000BB940E00B46D978B1421ED259681A4617
:102F30000029F7D1C5E90113E5625560283454E84A
:102F4000003F5A1C44E8002101B1F8E70020BDE829
:102F5000F081B8F1000F3BD04146932000F01EFFF6
:102F600030BB6FF00100BDE8F081C5E901329D6022
:102F7000002AE2D12563E1E700F0C8FB8046012288
:102F8000294600F0EFFC404600F03AFC8046626AB9
:102F90003946806801F088FBD8F80C000028E2D0A0
:102FA00006702846DFE7C5E90133E5622563C5E71A
:102FB000094B2046596900F087FBEFF309836FF056
:102FC0000100C3E90276BDE8F0816FF00300CAE7B3
:102FD0006FF00200C7E700BF04010020F8B5867853
:102FE00004468568002E48D04368C668002B69D027
:102FF0009D60A268002A69D05360002506F10C0785
:1030000021462570384600F081F9B368002B33D093
:10301000384600F05FF9044600282DD0304600F015
:1030200075FB07462A46294600F09CFC384600F00E
:10303000E7FB0746726A04F10C00B96801F034FB43
:10304000F923A5702370397BE170336B0BB96AE00B
:103050001346DA788A425FD25A681D46002AF7D1B1
:10306000C4E90123F4626C60283656E8003F5A1C1C
:1030700046E8002101B1F8E7F8BDAB6813B15B7811
:10308000832B2AD02B6B1BB3E0780021DA788242A5
:1030900011D25A6819461346002AF7D1C4E9012112
:1030A000EC624C60283555E8003F5A1C45E8002189
:1030B00001B1F8E7F8BDC4E901319C600029F0D105
:1030C0002C63EFE7F562A268002A95D1336394E799
:1030D000C4E90133EC622C63E4E7284600F016FBF8
:1030E00007463246314600F03DFC384600F088FB8A
:1030F00006466A6A04F10C01806801F0D5FAF368AB
:103100000BB1E2781A70002305F10C002146237000
:10311000BDE8F84000F0FAB8C4E901359C60002D24
:10312000A1D13463A0E7C4E90133F462F9E700BF39
:10313000EFF3058313B9EFF310830BB10020704751
:10314000EFF31183002BF9D1DFF804C000DF7047E3
:10315000E12B04082DE9F04106460F4690461C4637
:10316000EFF3058515B9EFF3108505B346B3337852
:10317000FA2B25D127B3003418BF012404BB06F174
:103180000C0000F0A7F80546E8B1726A39460C3029
:1031900001F08AFAF9232846AC7085F803802B7079
:1031A000C5E90176FFF7E2FC2046BDE8F081EFF3C8
:1031B0001185002DDAD1DFF814C000DFBDE8F08101
:1031C0006FF00300F1E76FF00200EEE7D52E040880
:1031D000F8B59C4605460E461746EFF305841CB924
:1031E000EFF31084002C35D0002D4AD02B78FA2B29
:1031F00047D1002E45D0BCF1000F42D105F1280384
:1032000053E8002F12B9BFF32F8F04E0511E43E89B
:10321000001000B1F4E7D2B1EC6AC4B1A21C0123E2
:10322000D2E84F1FC2E8403F00B1F9E711F0FF0FAD
:1032300009D117E0D2E84F1FC2E8403F00B1F9E7DB
:1032400011F0FF0F0ED0A468A21C002CF2D16FF079
:103250000200F8BDEFF31184002CC5D1DFF828C0BF
:1032600000DFF8BD30466A6A04F10C0101F01CFA77
:103270000FB1E3783B702046E560FFF777FC002054
:10328000F8BD6FF00300F8BD4D2D040870B4F0B127
:10329000E9B1E2B1B3FA83F46409C4B902FB01F500
:1032A0000160013903EB0506C360C0E90142C0E9D2
:1032B000046307D018468418013904602046FAD107
:1032C000AA1A1344002201201A6070BC7047002023
:1032D00070BC704710B40346A8B100F1140252E864
:1032E000000F10B9BFF32F8F04E0016842E800140B
:1032F00004B1F4E738B1043353E8002F511C43E81C
:10330000001404B1F8E710BC704700BF30B4F8B146
:10331000C3688B421CD803698B4219D900F114038E
:103320001A680A60BFF35F8F53E8002F0C6894425D
:10333000F6D143E8001505B1F2E7043050E8003F4C
:103340005A1E40E8002101B1F8E7002030BC704768
:103350006FF00300FAE700BF30B4034640B140EA23
:103360000102500704D117298CBF0022012212B19B
:10337000002030BC7047A1F108051024196001201D
:10338000E918C3E90141EA5099684C60DA6030BC41
:10339000704700BFF0B468B3B1FA81F35B094BBB6F
:1033A00032F0030426D10F3100F10805846821F0C2
:1033B000070703E023682546CBB11C466968631BF9
:1033C00021F003069B1B9F42F4D8D0E9003603444A
:1033D0003E444660083B5868864201D95E60696891
:1033E0003A4351B905F108006A60F0BC70471846CD
:1033F000F0BC70470020F0BC704721F003016B184F
:103400006C5003F108005A602B60F0BC704700BF9D
:1034100030B4F8B1F1B1A1F1080400F10802A24200
:103420001BD08168B1B18C4224D00B6823B911E064
:103430001A68194613466AB19C42F9D15C68426821
:1034400024F00304121B426079B11B6801200B6059
:1034500030BC7047002030BC704751F8041C134644
:10346000426821F00301521A4260002201205A6092
:1034700030BC70474D680B464468114625F0030286
:10348000A41A4460E1E700BF38B5034610B3806872
:10349000D3E9004588B110F0030219D1DB681B2B7A
:1034A00016D90023F5218270C5704460017003763F
:1034B000C0E90233C0E9043338BDDB6843B90C4BC3
:1034C000D3F8940068B1FFF705FF08B10122E8E7DF
:1034D000002038BD064B04460546D3F8940000286A
:1034E000F1D1D3F8800001221C21FFF753FFECE754
:1034F000040100202DE9F0410446D8B100274FF027
:103500000108E37865691B0711D5A3682046277673
:103510006BB100F0FBF800220646114600F022FADB
:10352000F36AE660C4E90473F46284F818802C46F8
:10353000002DE6D1BDE8F081EFF3058313B9EFF379
:1035400010830BB100207047EFF31183002BF9D1EA
:10355000DFF804C000DF704789340408DFF804C0D6
:1035600000DFFEE7AD3C040810B500230446006C04
:103570002380E8B9A3789A0709D513F0100F216BBF
:10358000104B10D0D3F88400FFF7C0FEA378DB0700
:1035900008D50C4B2146D3F8880060B1BDE8104037
:1035A000FFF7B4BE10BD586FFFF732FFA378EEE708
:1035B000FEF756F9DEE7D3F88000BDE81040FFF7CC
:1035C00027BF00BF040100204378332B30B401D063
:1035D00030BC704790F82330426A9D0703F0010128
:1035E00041D400F12804002944D054E8003F03EA04
:1035F0000201914203D0BFF32F8F002305E023EA9D
:10360000020144E8001505B1EFE7002BE0D0816B23
:1036100002690B62C16943694C1C3DD022B1D46977
:10362000536121444369D161002B44D01A610021C8
:10363000234B4161012290F9204042705A6A002ACE
:103640003CD092F92030A34205DA2DE093F9201006
:103650008C422BDC1A469368002BF7D10023C0E97B
:1036600002329060B4E7836A02EA030489B9002C4D
:10367000AED0CCE754E8003F134203D1BFF32F8F05
:10368000002305E023EA020144E8001505B1F1E753
:10369000BBE7A2429CD1B8E70AB153614369002B52
:1036A000C4D1074B1A63C5E71346064AC0E9023284
:1036B0009060D8608CE7024BDA62BBE7014ACDE745
:1036C0000401002020010020826810B491F92040FC
:1036D000D2B192F92030A34205DA0DE093F920002F
:1036E00084420BDC1A469368002BF7D1002310BCF0
:1036F000C1E90232916070471346024610BCC1E92D
:1037000002329160D96070470246EFE783689A6899
:10371000826002B1D06000221846DA60704700BFB4
:10372000C3682BB182689A6002B1D3600023C36082
:10373000704700BF0123134943704A6A10B490F9DF
:103740002040DAB192F92030A34205DA0DE093F976
:1037500020108C420CDC1A469368002BF7D1002312
:1037600010BCC0E9023290607047134601F11C02A0
:1037700010BCC0E902329060D860704701F11C02B1
:10378000EDE700BF04010020F0B41C4EF06A50B316
:10379000C569013DC56135BB012706F11C0CC36835
:1037A00023B182689A6002B1D360C5604770726AC3
:1037B00090F9204002B392F92030A34205DA14E0D8
:1037C00093F920108C4212DC1A469368002BF7D133
:1037D000C0E902529060006920B1C369002BDED0BD
:1037E00000234361F062F0BC704713466246C0E9B3
:1037F00002329060D860EEE76246E9E704010020FB
:10380000806B2030704700BF074B596951B10B6B7B
:103810008A6B934203D21A68044B9A4202D0012069
:10382000FEF725B8704700BF04010020A52E5AE21C
:10383000022208B5024B42709861FFF7E5FF08BD10
:1038400004010020454B70B55D691A7A00283CD010
:10385000022A90F920404FF0010215D042705A6AB6
:10386000002A74D092F92030A34205DA26E093F9B9
:1038700020108C4224DC1A469368002BF7D10023D9
:10388000C0E90232906070BD95F92060A642E5DA89
:103890006A70596A00295CD091F92020B24205DC97
:1038A0003CE092F92040A6423BDA11468A68002AA1
:1038B000F7D10022C5E902218D6036E01346284A7F
:1038C000C0E902329060D86070BD022A5C6ADAD129
:1038D000002CD8D095F9206094F92020B242D2DD96
:1038E000E2682AB1A168916001B1CA600022E26079
:1038F00001226A70596A79B391F92020B24205DC3D
:1039000019E092F92000864217DA11468A68002AE7
:10391000F7D10022C5E902218D6012E00A4603F1C9
:103920001C01C5E902218D60D560022242709861B8
:10393000FFF76AFF70BD0A460949C5E902218D609B
:10394000D560022262709C61FFF75EFF70BD044A81
:1039500095E703F11C01ACE70149DAE70401002017
:103960002001002030B4846B03692162C46941697D
:10397000651C2ED023B1DD6959612C444169DC619D
:10398000002932D000240B6144615ABB01231A493B
:1039900090F9204043704A6A52B392F92030A34212
:1039A00005DA0DE093F920108C420CDC1A4693687E
:1039B000002BF7D1002330BCC0E902329060704781
:1039C000134601F11C02C0E9023230BC9060D8609D
:1039D00070470BB1596141690029D3D106490B6386
:1039E000002AD3D030BCFFF72DBF0349CB62CCE710
:1039F00001F11C02DEE700BF040100202DE9F04FB9
:103A000087B081460091002800F0C680002A00F0AF
:103A1000C8809468002C00F0E580A50740F0BC80C9
:103A2000D368432B40F2B880D2F81880D2E90465FD
:103A3000002E00F0E180700740F0AE80002D00F015
:103A4000AB80B8F1000F00F0E28008F1FF33372BB4
:103A500000F2A280690740F09F80472D40F29C80D1
:103A6000D169B6FA86F310680F1C526803914FEAC9
:103A70005313019018BF01270292002C00F09A8086
:103A800012224FF0000B0492002C00F0A580002BB6
:103A900000F0CD80DFF810A2002D40F0BB807D4B00
:103AA000DAF884005D6D002800F0B480FFF712FCA6
:103AB0000646002800F0C380DDF810B0002F51D179
:103AC0003846A5F14002734B4FFA88F840F2F117DF
:103AD00002EB060E1968029A00234FF0BC0C84F822
:103AE00002B0E270E362019A84F8208084F82180B9
:103AF0006260C4F838E02780A4F822C0C4E90F90BF
:103B0000C4E90233C4E90433C4E90633C4E9093320
:103B100061484B07C4E90C65306009D5AD08112D2B
:103B200006D05E4A301DCC212A44920000F0C9FD27
:103B3000A36B342200215A4D184600F0C2FD4FF00D
:103B400080710346009E574AC0F8389020461E6296
:103B50005D63D963CAF86020FFF774FE204607B0A2
:103B6000BDE8F08F0398FDF779FE0028A9D11BF07E
:103B7000100F216B00F08380DAF88400FFF7C6FB9A
:103B80001BF0010F08D0484B2146D3F88850002D78
:103B90007AD02846FFF7BAFB0024204607B0BDE8DC
:103BA000F08F174601234FF018081546164603926A
:103BB00001920292DFF8F0A00593DAF8880000285D
:103BC00050D013234FF0010B0493FFF783FB0446FF
:103BD000059B002C7FF45BAF002CDDD00020DFF8CC
:103BE000C8A06EE7D368002BD6D1D2F81880D2E9EE
:103BF0000465002E7FF41FAFB8F1000F2CD008F140
:103C0000FF33372BC8D8002D3FF42AAF22E74FF0FF
:103C100018081FE700222946DAF87400FFF7BAFBFC
:103C2000064660B14BF002035FFA83FB46E7002FC4
:103C3000D2D00398FDF712FE0028D0D1A0E7BBF147
:103C4000000FA9D0DAF8880021460028A2D1DAF8BE
:103C50008000FFF7DDFB9FE74FF01808002D3FF4D1
:103C6000FFAEF7E61323DAF8800001224421049323
:103C70004FF0010BFFF78EFB059B044604E7DAF8D3
:103C80007400FFF7C5FB7BE7D3F880002C46FFF7F5
:103C9000BFFB82E794570408A52E5AE2EFFFFF3FCF
:103CA0005D350408C935040804010020F8B5394C15
:103CB000237A022B3ED1636A002B3BD06569E86A08
:103CC000FFF718FCAA69002A35D0916B0020136910
:103CD0000862D0695169461C50D023B1DE69596130
:103CE00030445169D86100294FD000200B615061E8
:103CF000012392F920705370606A002847D090F930
:103D00002030BB4233DB014604E093F92060B74228
:103D10002FDC19468B68002BF7D10023C2E9023152
:103D20008A6009E00422EB606A70636BAB6003B1E8
:103D3000DD606563F8BD606AEFF309828368AA639A
:103D400063620BB1144ADA60022300264370C66036
:103D5000A061FFF759FD6661EB78DB0702D5AB691F
:103D6000002BDFD02846BDE8F840FFF7FDBB034637
:103D70000949C2E902318A60DA60DDE70BB15961B5
:103D800051690029B1D12363B2E7E362B0E7024988
:103D9000C3E700BF040100202001002070B52A4CB9
:103DA000237A022B26D1626A22B366694B1C70709B
:103DB00022D0E56A002D42D0E869814204D232E087
:103DC000D869884226D81D462B69091A002BF7D1DD
:103DD000F161C6E904352E61936863620BB11B493A
:103DE000D96000210223D1605370A261FFF70CFD5E
:103DF000012070BD002070BD206B08B91AE0184684
:103E00000369002BFBD14FF0FF31C6E90430F161AB
:103E10000661E1E7F161C6E904352E61D8695E61AA
:103E2000411AD961D8E70020F16135612B467061F4
:103E3000E662F3E7F161C6E904002663CCE7F161CD
:103E4000C6E90455E662C7E704010020200100200E
:103E500038B50B4C00210B48A26DFFF7CFFD0A4D82
:103E6000636EA8620BB9012038BDE26D00210748DE
:103E7000FFF7C4FDA864003018BF012038BD00BFA3
:103E8000945704086D1804080401002065420408D2
:103E9000EFF3058313B9EFF310830BB100207047E4
:103EA000EFF31183002BF9D1DFF804C000DF704776
:103EB000FD390408F8B5584D2E7A012E00F0A78080
:103EC000002E40F0A680FDF7C7FC002800F0A1807E
:103ED000524C31469C2205F1080000F0F2FBE368E9
:103EE000E66A228AEB653046A368216BA5F8542068
:103EF0002B64FFF731FA08B1C5F88060D4E9057189
:103F00003846FFF729FA002876D06F67D4E90761B1
:103F10003046FFF721FA002863D0AE67D4E9097173
:103F20003846FFF719FA002854D0666BEF673EB1A8
:103F3000F3683046B2683168FFF7A8F9C5F88460C5
:103F4000A66B3EB1F3683046B2683168FFF79EF960
:103F5000C5F88860E66B3EB1F3683046B2683168F8
:103F6000FFF794F9C5F88C60266C3EB1F3683046D3
:103F7000B2683168FFF78AF9C5F89060666C3EB1A7
:103F8000F3683046B2683168FFF780F9C5F894608D
:103F9000A66C3EB1F3683046B2683168FFF776F937
:103FA000C5F89860E66C3EB1F3683046B268316897
:103FB000FFF76CF9C5F89C60246D3CB1E3682046BE
:103FC000A2682168FFF762F9C5F8A040012300202C
:103FD0002B72F8BDD5F88070666BEF67002EA7D105
:103FE000AEE7D4E90971D5F880603846AE67FFF7CF
:103FF000B3F9002899D1EDE7D4E90761D5F88070CD
:1040000030466F67FFF7A8F9002886D1E9E700205E
:10401000F8BD4FF0FF30F8BD0401002094570408AC
:1040200070B5224C237A012B3CD1FFF711FF0028F9
:1040300038D01F4AFF2382F8223092F8223063F0F2
:10404000FF03DB4329D0B3FA83F3D268C3F1200323
:10405000C2F30222934223D9FE22154E154D02FAD5
:1040600003F315496868DBB2F37700F053F8C8B979
:1040700000F090F8206100F071F81048FFF746FB5F
:10408000FFF7D6FB2B68DB074CBF0223032383F328
:10409000148802230020237270BDD268C2F302226A
:1040A000531CD9E74FF0FF3070BD00BF0401002062
:1040B00000ED00E094570408D729040820010020EF
:1040C000704700BF08B5FFF7FBFFEFF305834BB95F
:1040D000EFF3108333B9EFF311831BB9DFF80CC092
:1040E00000DF08BD6FF0050008BD00BFB53E040845
:1040F000EFF305834BB9EFF3108333B9EFF311837B
:104100001BB9DFF80CC000DF70476FF00500704787
:104110002140040830B4B0B10C4B1B68B3FBF0F382
:10412000013BB3F1807F0ED209490022094C0620E1
:10413000FF2584F8235008601046074C4B608A60C6
:10414000227030BC70474FF0FF30FAE700010020CA
:1041500010E000E000ED00E01C260020074B1A787C
:104160002AB10020064A4FF0806118705160054A5C
:10417000136843F001031360704700BF1C26002042
:1041800000ED00E010E000E0014B1B68704700BF4D
:1041900010E000E04FF0FF30704700BF2DE9F04124
:1041A0002F4E746CE4B12369013B2361C3B9984677
:1041B0000127E5680DB1A368AB60002304F1180185
:1041C000F06C1A467564FEF7C5FF58B9E378716C58
:1041D000012B0FD0677019B10A690C46002AE8D08C
:1041E000BDE8F08121460320FDF741FBE378716CC7
:1041F000012BEFD1626909B3D1F810E0724524D3E5
:104200008C4605E01D6985420CD89C46AE460246A8
:10421000DCF80C30A2EB0E00002BF3D12061C4E9D6
:1042200002C308E020611869C4F808C0821AE3607C
:104230009C6072441A61CCF80C40CDE72261C4E95D
:1042400002117464002AB4D0CAE722610B69C4F871
:1042500008809A1AE1608C600A612269F1E700BF68
:10426000040100200B4B08210B4C00B5D3E91820AA
:1042700083B0FEF75DFF094BC4E913034FF0FF3332
:1042800000226946FEF7A4FF10B9DDE90030984727
:10429000E06CF3E794570408040100209D410408F2
:1042A00008B5FDF7E7FA18B1034B1860002008BD08
:1042B0004FF0FF30FBE700BF2026002053B94AB97A
:1042C000002908BF00281CBF4FF0FF314FF0FF301E
:1042D00000F080B9ADF1080C6DE904CE00F006F8ED
:1042E000DDF804E0DDE9022304B070472DE9F04F6A
:1042F000099E0D4604460F46002B47D18A4294463C
:104300005FD9B2FA82F343B1C3F120019F4002FAB0
:1043100003FC9C4020FA01F10F434FEA1C451FFAB1
:104320008CFE220CB7FBF5F105FB117701FB0EF0BB
:1043300042EA0742904208D91CEB020201F1FF3722
:1043400002D2904200F234813946121AA4B2B2FB72
:10435000F5F005FB102200FB0EFE44EA0244A645E0
:1043600008D91CEB040400F1FF3202D2A64500F28A
:104370001981104640EA0140A4EB0E0400211EB151
:10438000DC400023C6E90043BDE8F08F8B4208D92A
:10439000002E00F0FB800021C6E900050846BDE8BC
:1043A000F08FB3FA83F100294BD1AB42C0F0F1801A
:1043B000824240F2EE800846002EE5D0C6E9004772
:1043C000E2E702B9FFDEB2FA82F3002B40F09D80F3
:1043D0008D1A4FEA124E97B20121B5FBFEF20EFB89
:1043E0001250250C45EA004507FB02F0A8420FD900
:1043F0001CEB050502F1FF382CBF4FF001094FF00F
:104400000009A84203D9B9F1000F00F0CE8042465E
:104410002D1AA4B2B5FBFEF00EFB105500FB07F7FA
:1044200044EA0544A74208D91CEB040400F1FF3517
:1044300002D2A74200F2B3802846E41B40EA0240C1
:104440009DE7C1F120078B4005FA01F422FA07FC31
:10445000FD408A404CEA030C20FA07F34FEA1C495E
:104460001C431FFA8CFE00FA01F3200CB5FBF9F88F
:1044700009FB185540EA054508FB0EF0A8420FD984
:104480001CEB050508F1FF3A2CBF4FF0010B4FF074
:10449000000BA84203D9BBF1000F00F08C80D0467E
:1044A0002D1AA4B2B5FBF9F009FB105500FB0EFE66
:1044B00044EA0545AE4507D91CEB050500F1FF347C
:1044C00001D2AE457ED8204640EA0840A5EB0E0555
:1044D000A0FB029845454C46C64602D306D14B4543
:1044E00004D20138B9EB020468EB0C0E002E6FD039
:1044F0001A1B65EB0E0522FA01F305FA07F7CD400A
:1045000000211F43C6E900753EE702FA03FCC3F130
:10451000200001FA03F24FEA1C4EC14024FA00F5D4
:104520001FFA8CF79C401543B1FBFEF02A0C0EFBE2
:10453000101142EA014200FB07F191420ED91CEB37
:10454000020200F1FF382CBF4FF001094FF00009C3
:10455000914202D9B9F1000F31D04046521AADB2A2
:10456000B2FBFEF10EFB112245EA024501FB07F208
:10457000AA4207D91CEB050501F1FF3801D2AA4276
:1045800023D84146AD1A41EA004126E7314630467C
:10459000FAE6841A65EB030301201F460CE7644426
:1045A00002384AE764440238E4E6023A65442FE7F9
:1045B00002396244C9E6A8F10208654470E702388E
:1045C0006244CBE7023865447EE702396544D9E7A7
:1045D0003146D9E6704700BF1FB514461A46094B4D
:1045E00005461B68D8684CB1074B00910749CDE9D7
:1045F00001342B4600F022F800F018FC044B1C4656
:10460000F3E700BFA8010020C7590408D4590408E3
:10461000B959040808B5074B044613B1002100E05E
:1046200000BF054B1868836A03B19847204601F024
:104630005FF800BF00000000045A04080EB403B580
:1046400003AB0146054853F8042B0068019300F0C2
:1046500067F802B05DF804EB03B07047A8010020D2
:1046600070B50D4D00260D4C641BA410A64209D157
:104670000B4D00260B4C01F03DF8641BA410A64224
:1046800005D170BD55F8043B01369847EEE755F863
:10469000043B01369847F2E70C0200200C02002090
:1046A0000C020020100200200A44431E914200D157
:1046B000704710B511F8014B914203F8014FF9D141
:1046C00010BD02440346934200D1704703F8011B1A
:1046D000F9E79368013B002B936010B407DA946903
:1046E000A34201DB0A2902D110BC00F0DFBA136833
:1046F000581C10600846197010BC7047F8B5064683
:104700000F461446D518AC4201D1002007E03A46C6
:1047100014F8011B3046FFF7DCFF431CF3D1F8BD52
:104720002DE9F04F0D469DB014469846064618B147
:1047300083690BB900F096FC894B9D421BD17568CB
:104740006B6ED90705D4AB899A0502D4A86D00F029
:1047500027FDAB891B0701D52B69EBB929463046EC
:1047600000F0F6FAC0B16B6EDC070ED54FF0FF30EB
:104770001DB0BDE8F08F7B4B9D4201D1B568DFE7EE
:10478000794B9D4208BFF568DAE7AB899805EDD40F
:10479000A86D00F006FDE9E70023CDF80C804FF08E
:1047A0000109DFF8C881099320238DF829303023CF
:1047B0008DF82A3023469A4613F8012B0AB1252A90
:1047C000F9D1BAEB040B0BD05B46224629463046A2
:1047D000FFF794FF013000F0AA80099A5A44099229
:1047E0009AF80030002B00F0A28000234FF0FF3237
:1047F0000AF1010A049307938DF853301A93CDE917
:10480000052354460522594814F8011B00F030FDD9
:10481000049AD8B9D10644BF20238DF8533013072A
:1048200044BF2B238DF853309AF800302A2B15D033
:10483000079A544600204FF00A0C214611F8013B1C
:10484000303B092B4ED9B0B1079214E0A0EB08031E
:10485000A24609FA03F313430493D2E7039B191DFD
:104860001B68002B0391BBBF5B4242F0020207931F
:104870000793B8BF049223782E2B0CD163782A2B90
:1048800035D1039B02341A1D1B68002B0392B8BF5D
:104890004FF0FF330593DFF8D8A00322217850466C
:1048A00000F0E6FC40B14023A0EB0A00013403FA1B
:1048B00000F0049B0343049314F8011B06222D48C7
:1048C0008DF8281000F0D4FC00283FD02A4B1BBBE9
:1048D000039B073323F0070308330393099B3B44EF
:1048E000099367E70CFB02320C460120A5E7002381
:1048F00001344FF00A0C19460593204610F8012B9D
:10490000303A092A03D9002BC5D00591C3E70CFB27
:10491000012104460123F0E703AB2A4604A93046EF
:104920000093164B00E000BF0746781CD6D16B6E93
:10493000D90705D4AB899A0502D4A86D00F031FCE3
:10494000AB895B063FF512AF099811E703AB2A4626
:1049500004A930460093094B00F082F8E4E700BF59
:104960005C5A04087C5A04083C5A0408085A040893
:104970000E5A0408125A040800000000FD460408FC
:104980002DE9F047164699468A6807460B690C469A
:10499000DDF820809342B8BF1346336091F843207E
:1049A0000AB1013333602368990642BF336802338A
:1049B0003360256815F0060506D104F1190AE3688D
:1049C00032689B1AAB4229DC94F84320131E2268FC
:1049D00018BF012392062ED404F1430249463846FB
:1049E000C047013021D023681A3454F80E5C03F01C
:1049F000060332680026042B54F8123C08BFAD1A97
:104A000054F80A2C14BF002525EAE5759342C4BF6B
:104A10009B1AED18B5421AD1002008E00123524636
:104A200049463846C047013003D14FF0FF30BDE85A
:104A3000F0870135C3E7E1185A1C302002332244C5
:104A400081F8430094F8451082F84310C4E701232D
:104A5000224649463846C0470130E6D00136D9E7FC
:104A60002DE9FF470F7E914680460C46782F9A46E7
:104A70000C9D01F1430207D8622F0AD8002F00F0E5
:104A8000D880582F00F0A38004F1420584F84270CA
:104A90003AE0A7F16303152BF6D801A151F823F0F2
:104AA000F94A04080D4B0408894A0408894A040895
:104AB000894A0408894A04080D4B0408894A0408F5
:104AC000894A0408894A0408894A0408194C0408D8
:104AD0003D4B0408FB4B0408894A0408894A040832
:104AE0003B4C0408894A04083D4B0408894A0408E1
:104AF000894A0408034C04082B681A1D1B682A60A5
:104B000004F1420584F842300123A3E020682968BB
:104B1000060601F104030AD50E682B60002E03DAA5
:104B20002D23764284F843305E480A2319E00E684C
:104B300010F0400F2B6018BF36B2EFE72B682068EB
:104B4000191D2960010601D51E6802E04606FBD545
:104B50001E886F2F53480CBF08230A23002184F8B6
:104B600043106568002DA560A2BF216821F00401F3
:104B700021600EB9002D4DD01546B6FBF3F103FBB5
:104B80001167C75D05F8017D37460E46BB42F4D973
:104B9000082B0BD12368DE0708D523696168994289
:104BA000DEBF302305F8013C05F1FF35521B2261C1
:104BB0004B4603AA21464046CDF800A0FFF7E0FE91
:104BC00001304CD14FF0FF3004B0BDE8F0873548DC
:104BD00081F845702968236851F8046B29601D0627
:104BE00014D5DF0744BF43F0200323601EB92368B8
:104BF00023F0200323601023B0E7236843F0200351
:104C000023607823284884F84530E3E7590648BFF5
:104C1000B6B2E6E71546BBE72B682668181D616942
:104C2000286035061B6801D5196002E07006FBD5C7
:104C30001980002315462361BAE72B6800211A1D4D
:104C40002A601D686268284600F012FB08B1401B0C
:104C5000606063682361002384F84330A8E7236918
:104C60002A4649464046D0470130ABD023689B07CF
:104C700013D4E068039B9842B8BF1846A4E7012309
:104C8000324649464046D04701309BD00135E36863
:104C900003995B1AAB42F2DCEBE7002504F119063D
:104CA000F5E700BF195A04082A5A0408F8B50E4659
:104CB0001446054618B183690BB900F0D3F9214BAE
:104CC0009C422BD16C68A369A360A3891A072FD5D6
:104CD00023696BB32369F6B220683746C01A63694B
:104CE000834204DC2146284600F028F930BBA36843
:104CF0000130013BA36023685A1C22601E70636967
:104D0000834204D0A389DB0706D50A2E04D12146AD
:104D1000284600F013F988B93846F8BD0A4B9C4282
:104D200001D1AC68CFE7094B9C4208BFEC68CAE7E9
:104D30002146284600F00CF80028CBD04FF0FF3772
:104D4000EAE700BF5C5A04087C5A04083C5A04088D
:104D5000324B70B51D6806460C4625B1AB6913B9D8
:104D6000284600F07FF92E4B9C420FD16C68A38936
:104D7000B4F90C2019072CD4DD0611D409233360B3
:104D800042F040034FF0FF30A3813EE0254B9C42B0
:104D900001D1AC68EBE7244B9C4208BFEC68E6E726
:104DA000580712D5616B41B104F14403994202D016
:104DB000304600F06BFA00236363A38923F02403D9
:104DC000A3810023636023692360A38943F0080360
:104DD000A38123694BB9A38903F42073B3F5007F42
:104DE00003D02146304600F003FAA089B4F90C2024
:104DF00010F001030AD00023A36063695B42A36142
:104E0000236943B910F08000BAD170BD810758BF43
:104E10006369A360F4E70020F7E700BFA801002062
:104E20005C5A04087C5A04083C5A0408062008B559
:104E300000F042FB012000F05BFC00008A89F8B51D
:104E4000054610070C4657D44B68002B04DC0B6C4E
:104E5000002B01DC0020F8BDE66A002EFAD000230A
:104E600012F480522F682B6032D0606DA3895A07EC
:104E700005D56368C01A636B0BB1236CC01A00239D
:104E80000246E66A2846216AB047431CA38906D138
:104E900029681D292CD8284ACA40D60728D50022BF
:104EA000D90462602269226004D5421C01D12B68BA
:104EB00003B96065616B2F600029CBD004F1440316
:104EC000994202D0284600F0E1F900206063C2E771
:104ED000216A01232846B047411CC7D12B68002B0B
:104EE000C4D01D2B01D0162B01D12F60B2E7A389AE
:104EF00043F04003A381AEE70F69002FAAD09307C8
:104F00000E680F600CBF4B690023F61B8B60002EF0
:104F1000A0DD33463A46216A2846D4F828C0E04747
:104F2000002806DCA3894FF0FF3043F04003A38143
:104F300091E70744361AEAE70100402038B50B69CB
:104F400005460C4613B90025284638BD18B18369BB
:104F50000BB900F087F8144B9C421BD16C68B4F974
:104F60000C30002BEFD0626ED00704D4990502D428
:104F7000A06D00F015F928462146FFF75FFF636E2C
:104F80000546DA07E0D4A3899B05DDD4A06D00F0C7
:104F900008F9D9E7054B9C4201D1AC68DFE7044B27
:104FA0009C4208BFEC68DAE75C5A04087C5A0408A3
:104FB0003C5A0408002310B50446836081811946D9
:104FC0004366C28108228361C0E90033C0E904332B
:104FD0005C30FFF776FB054B24626362044BA362EF
:104FE000044BE362044B236310BD00BFF15404087B
:104FF000135504084B5504086F550408014900F087
:10500000AFB800BF3D4F040870B568224D1E0E4674
:10501000554305F1740100F0A3F9044640B10021A5
:1050200005F16802C0E900160C30A060FFF749FBEB
:10503000204670BD014800F0B3B800BF252600200F
:10504000014800F0AEB800BF25260020014800F05E
:10505000A7B800BF26260020014800F0A2B800BF74
:105060002626002010B50446FFF7F0FFA3691BB108
:10507000BDE81040FFF7F0BFC4E9123323652046B6
:10508000124B134A1B68A262A34204BF0123A3610F
:1050900000F020F86060204600F01CF8A060204678
:1050A00000F018F800220421E0606068FFF782FF3A
:1050B00001220921A068FFF77DFF02221221E0688A
:1050C000FFF778FF0123A361D2E700BF045A040869
:1050D000FD4F0408F8B50746FFF7ACFF1E4B1E68EE
:1050E000B36913B93046FFF7BDFF4836D6E901343E
:1050F000013B03D533680BB33668F7E7B4F90C50BE
:10510000D5B9164B04F158006566E36000F047F826
:10511000FFF796FF0822294604F15C002560A5618F
:10512000C4E90155C4E90455FFF7CBFAC4E90D55AC
:10513000C4E912552046F8BD6834D9E70421384641
:10514000FFF762FF044630600028D5D1FFF778FFF3
:105150000C233B60EEE700BF045A04080100FFFF88
:105160002DE9F8430646884600F148040027D4E9B3
:105170000195B9F1010905D52468002CF7D138460D
:10518000BDE8F883AB89012B07D9B5F90E3001339F
:1051900003D029463046C04707436835E9E77047E2
:1051A0007047704770B50E46B1F90E1096B01446B0
:1051B00000291D4608DAB6F90C3000222A601A06CA
:1051C00010D44FF480630EE06A4600F0F7F900282F
:1051D000F1DB019A02F47042A2F500535A425A419F
:1051E0002A60EEE740230020236016B070BD000067
:1051F0008B8973B59D0706460C4607D504F1470316
:10520000236023610123636102B070BD01AB6A4674
:10521000FFF7C8FF00990546304600F0A1F848B9ED
:10522000B4F90C309A05EFD423F0030343F00203E2
:10523000A381E3E70D4BB362A389206043F08003B1
:105240002061A381009B6361019B5BB1B4F90E10E7
:10525000304600F0C5F928B1A38923F0030343F0D9
:105260000103A381A0890543A581CDE7FD4F040873
:10527000C9B20346024410B59342184601D100203A
:1052800003E0047801338C42F6D110BD38B50546F1
:10529000002941D051F8043C0C1F002BB8BFE41882
:1052A00000F0C0F91D4A136833B9636014602846E2
:1052B000BDE8384000F0BCB9A34208D920682118E5
:1052C0008B4201BF19685B6809182160EDE71A4637
:1052D0005B680BB1A342FAD911685018A0420BD1F8
:1052E00020680144501811608342E0D118685B685F
:1052F000014453601160DAE702D90C232B60D6E732
:10530000206821188B4202BF19685B680918636026
:1053100008BF21605460CAE738BD00BF28260020BE
:1053200070B50E4E0C460546316811B900F08CF888
:1053300030602146284600F087F8431C0AD0C41C80
:1053400024F00304A04207D0211A284600F07CF87C
:10535000013001D14FF0FF34204670BD2C260020D3
:105360002DE9F041CD1C074625F0030508350C2D2D
:1053700038BF0C25002D01DBA94205D90C230026DE
:105380003B603046BDE8F0812E4E00F04BF93368AB
:105390001C4634BB29463846FFF7C2FF431C04466F
:1053A0004DD134682646002E40D123683146384618
:1053B00004EB030800F048F880453AD12168033532
:1053C00038466D1A25F0030508350C2D38BF0C251D
:1053D0002946FFF7A5FF01302BD023682B4423601B
:1053E0000EE02268521B1ED40B2A16D96119A34263
:1053F000256018BF5960636808BF316062514B6017
:1054000004F10B06384600F013F9231D26F00706B9
:10541000F21AB6D09B1BA350B3E76268A3420CBF3D
:1054200032605A60ECE723466468B2E73446766837
:10543000B9E70C2338463B6000F0FAF8A1E7256095
:10544000DEE700BF2826002038B50023054D0446BE
:1054500008462B6000F03CF9431C02D12B6803B1D5
:10546000236038BD302600201F2938B504460D467C
:1054700004D9162303604FF0FF3038BD426C12B1DF
:1054800052F821304BB9204600F030F82A46014648
:105490002046BDE8384000F017B8012B0AD0591C4F
:1054A00003D1162303600120E7E70024284642F8D1
:1054B000254098470020E0E7024B01461868FFF7B7
:1054C000D3BF00BFA801002038B50023064D044615
:1054D000084611462B6000F0E3F8431C02D12B680C
:1054E00003B1236038BD00BF3026002000F0C8B8EB
:1054F00010B50C46B1F90E1000F0A0F80028ABBFB3
:10550000636DA3891B1823F48053ACBF6365A3812B
:1055100010BD2DE9F0411F468B8905460C46DB0581
:10552000164605D502230022B1F90E1000F068F8E6
:10553000A3893246B4F90E10284623F48053A38180
:105540003B46BDE8F04100F017B810B50C46B1F984
:105550000E1000F055F8431CA38915BF606523F4B5
:10556000805343F48053A38118BFA38110BDB1F9C8
:105570000E1000F013B8000038B50446064D08467A
:10558000114600222A601A46FCF784FA431C02D115
:105590002B6803B1236038BD3026002038B50023C6
:1055A000054D044608462B6000F05AF8431C02D112
:1055B0002B6803B1236038BD3026002038B50023A6
:1055C000064D0446084611462B6000F051F8431C76
:1055D00002D12B6803B1236038BD00BF3026002004
:1055E00038B50023054D044608462B6000F050F8FE
:1055F000431C02D12B6803B1236038BD3026002044
:1056000038B50446064D0846114600222A601A465F
:1056100000F04EF8431C02D12B6803B1236038BD63
:10562000302600200148FFF7BBBD00BF2426002024
:105630000148FFF7B6BD00BF2426002038B5044658
:10564000064D0846114600222A601A4600F038F836
:10565000431C02D12B6803B1236038BD30260020E3
:10566000024B58224FF0FF301A607047302600205E
:10567000024B58224FF0FF301A607047302600204E
:10568000024B58224FF0FF301A607047302600203E
:10569000024B582200201A60704700BF30260020BD
:1056A000024B58224FF0FF301A607047302600201E
:1056B000024B58224FF0FF301A607047302600200E
:1056C000024B58224FF0FF301A60704730260020FE
:1056D000054A0346106810B103441360704703483D
:1056E00003441360704700BF34260020403600207A
:1056F000FEE700BFF8B500BFF8BC08BC9E46704787
:10570000F8B500BFF8BC08BC9E4670474E6F6E2DC2
:105710005365637572652073797374656D20737456
:10572000617274696E672E2E2E0D0A007465737493
:105730005F746872656164002C5704080000000003
:105740000000000000000000000000000010000049
:1057500000000000FFFFFFFF00000000000000004D
:105760000000000000000000000000000000000039
:105770000000000000000000000000000000000029
:105780000000000000000000000000000000000019
:105790000000000003000000E80300000500000016
:1057A000380200201000000000000000000000008F
:1057B00000000000000000000000000000000000E9
:1057C000780200200020000000000000000000001F
:1057D00000000000000000000000000000000000C9
:1057E0000000000000000000000100000058040854
:1057F0003C5804082458040804000000000000007D
:1058000000000000000000004023002044000000D1
:1058100088240020000100000100000000000000BA
:1058200000000000000000000000000078220020BE
:1058300034000000AC2200205000000000000000F6
:1058400000000000FC22002044000000882300200B
:10585000000100002800000000000000000000001F
:105860003078005B556E737570706F72746564206C
:105870005461675D00303132333435363738396141
:1058800062636465663031323334353637383941D6
:105890004243444546726574203D3D2041524D5F70
:1058A0004452495645525F4F4B002F686F6D652F2C
:1058B00073616D2F4465736B746F702F74727573A1
:1058C0007465642D6669726D776172652D6D2F70D8
:1058D0006C6174666F726D2F6578742F636F6D6D78
:1058E0006F6E2F756172745F7374646F75742E635D
:1058F00000737464696F5F696E6974000000000072
:10590000000000000102030406070809000000006F
:1059100001020304A0860100400D0300801A060066
:1059200000350C0040420F0080841E0000093D003D
:1059300000127A000024F40000366E010048E801ED
:10594000006CDC020000000000000000000000000D
:105950000000000003020202F91A0408191B0408DF
:10596000951B04081D1B0408211B0408711B040857
:10597000511B0408251B04082B1B0408591C040890
:105980002F1B0408331B04083F1B0408451B040895
:10599000040208001010100410101002101010085B
:1059A000010002000400060008000A000C001000BC
:1059B00020004000800000010400000052545820E4
:1059C00056352E352E30002C2066756E6374696F47
:1059D0006E3A2000617373657274696F6E202225C0
:1059E0007322206661696C65643A2066696C652083
:1059F000222573222C206C696E6520256425732571
:105A0000730A0000AC010020232D302B2000686CAD
:105A10004C006566674546470030313233343536D1
:105A2000373839414243444546003031323334350A
:105A30003637383961626364656600000000000033
:105A40000000000000000000000000000000000056
:105A50000000000000000000000000000000000046
:105A60000000000000000000000000000000000036
:105A70000000000000000000000000000000000026
:105A80000000000000000000000000000000000016
:105A90000000000000000000000000000000000006
:085AA00094BBFF7F0100000030
:105AA800D05A040800010020450000000000000052
:085AB8000000000000000000E6
:105AC000180200200809000000000000000000008B
:105AD00000093D00BC590408D0B3FB0200000000DF
:105AE00000000000000000000000000000000000B6
:105AF00000000000000000000000000000000000A6
:105B00000000000000000000000000000000000095
:105B10000000000000000000000000000000000085
:105B20000000000000000000000000000000000075
:105B30000000000000000000000000000000000065
:105B40000000000000000000000000000000000055
:105B50000000000000000000000000000000000045
:105B60000000000000000000000000000000000035
:105B70000000000000000000AC0100200000000058
:105B80005C5A04087C5A04083C5A040800000000CF
:105B90000000000000000000000000000000000005
:105BA00000000000000000000000000000000000F5
:105BB00000000000000000000000000000000000E5
:105BC00000000000000000000000000000000000D5
:105BD000000000000000000000000000191604088A
:045BE000F5150408AB
:04000005080417E1F3
:00000001FF
