:020000040804EE
:10140000E036002021180408411704084317040897
:101410004517040847170408491704084B17040820
:101420000000000000000000000000007D2904080A
:101430004D17040800000000192A0408272A040890
:101440004F170408511704085317040855170408C8
:1014500057170408591704085B1704085D17040898
:101460005F17040861170408631704086517040868
:1014700067170408691704086B1704086D17040838
:101480006F17040871170408731704087517040808
:1014900077170408791704087B1704087D170408D8
:1014A0007F170408811704088317040885170408A8
:1014B00087170408891704088B1704088D17040878
:1014C0008F17040891170408931704089517040848
:1014D00097170408991704089B1704089D17040818
:1014E0009F170408A1170408A3170408A5170408E8
:1014F000A7170408A9170408AB170408AD170408B8
:10150000AF170408B1170408B3170408B517040887
:10151000B7170408B9170408BB170408BD17040857
:10152000BF170408C1170408C3170408C517040827
:10153000C7170408C9170408CB170408CD170408F7
:10154000CF170408D1170408D3170408D5170408C7
:10155000D7170408D9170408DB170408DD17040897
:10156000DF170408E1170408E3170408E517040867
:10157000E717040800000000E91704080000000055
:10158000EB170408ED170408EF170408F117040817
:10159000F3170408F5170408F7170408F9170408E7
:1015A000FB170408FD170408FF17040801180408B6
:1015B00003180408000000000518040807180408B0
:1015C00009180408000000000B1804080D1804088E
:1015D0000F18040811180408131804081518040833
:1015E00017180408191804081B1804081D18040803
:1015F0001F1804080348044B834202D0034B03B175
:101600001847704714020020140200200000000058
:10161000064B0749C91A891048BF0131491003D048
:10162000044B0BB101481847704700BF140200205B
:10163000140200200000000010B5064C237843B9C6
:10164000FFF7D8FF044B13B1044800E000BF0123AB
:10165000237010BD18020020000000003866040846
:1016600008B5044B1BB10449044800E000BFBDE8C5
:101670000840CDE7000000001C0200203866040886
:10168000A3F5803A704700BF154B002B08BF114BE4
:101690009D46FFF7F5FF00218B460F461148124A81
:1016A000121A03F0C7F80C4B002B00D098470B4BD5
:1016B000002B00D098470020002104000D000B48AB
:1016C00002F0C6FF03F01CF82000290000F018F813
:1016D00002F0C4FF0000080000000000C118040868
:1016E000E036002018020020C426002085460408A9
:1016F00008B500F0FBF9002008BD0020704700008D
:1017000008B5FFF7F5FF00B1FEE7FFF7F6FF044667
:1017100000B1FEE702F0FEFC02F0EAFD2146054AB8
:10172000054802F0DDFB054800F040F902F008FD35
:10173000FEE700BFC86204086D2904089C62040823
:10174000FEE7FEE7FEE7FEE7FEE7FEE7FEE7FEE771
:10175000FEE7FEE7FEE7FEE7FEE7FEE7FEE7FEE761
:10176000FEE7FEE7FEE7FEE7FEE7FEE7FEE7FEE751
:10177000FEE7FEE7FEE7FEE7FEE7FEE7FEE7FEE741
:10178000FEE7FEE7FEE7FEE7FEE7FEE7FEE7FEE731
:10179000FEE7FEE7FEE7FEE7FEE7FEE7FEE7FEE721
:1017A000FEE7FEE7FEE7FEE7FEE7FEE7FEE7FEE711
:1017B000FEE7FEE7FEE7FEE7FEE7FEE7FEE7FEE701
:1017C000FEE7FEE7FEE7FEE7FEE7FEE7FEE7FEE7F1
:1017D000FEE7FEE7FEE7FEE7FEE7FEE7FEE7FEE7E1
:1017E000FEE7FEE7FEE7FEE7FEE7FEE7FEE7FEE7D1
:1017F000FEE7FEE7FEE7FEE7FEE7FEE7FEE7FEE7C1
:10180000FEE7FEE7FEE7FEE7FEE7FEE7FEE7FEE7B0
:10181000FEE7FEE7FEE7FEE7FEE7FEE7FEE7FEE7A0
:1018200008B51B4B83F30A881A4A82F3098883F3AD
:101830000B8800F087F9184B1849A3F10C028A4273
:1018400017D30020164B1749A3F108028A421DD373
:10185000FFF71AFF53F80C0C50F8224053F8080C0D
:1018600040F82240013253F8040C8242F2D30C3388
:10187000E3E70022F7E753F8084C44F8220001326E
:1018800053F8044CA242F6D30833DDE70022F7E711
:10189000E0260020E0360020506604085C6604085C
:1018A000646604086C6604080120704701207047D4
:1018B000012070470120704701207047FEE7FEE7D6
:1018C00002F028BC1FB5002302226846CDE9003291
:1018D000CDE9023301F058FE05B05DF804FB036862
:1018E0005A1C1F2A03440260197105D900232021C4
:1018F00040F8043B00F0E2B870472DE9FF410024B6
:10190000642A07460D46CDE90144039406D1A1425D
:1019100004DA2D21FFF7E3FF01246D4201AB00261D
:1019200098460A20B5FBF0F100FB1152303203F863
:10193000012B2A46092A0D4606F10106F2D8354642
:10194000013D384618F80510FFF7C9FF002DF7D103
:10195000A01904B0BDE8F081F0B5002485B001AB5A
:1019600006461F46CDE90144039401F00F00105CC8
:10197000090904F1010403F8010BF6D12546013DE4
:101980003046795DFFF7ABFF002DF8D1204605B05A
:10199000F0BD70B506460D460024295D09B9204604
:1019A00070BD3046FFF79BFF0134F6E70FB400200F
:1019B0002DE9F04782468AB012AC54F8045BDFF898
:1019C000F480DFF8F490394E00940190297859B9E9
:1019D000019919B102A800F071F8824450460AB08A
:1019E000BDE8F04704B07047252905F1010756D13D
:1019F0006978692910D018D8582933D008D82529F2
:101A000047D0414601A8FFF7C4FF82443D46DDE7C9
:101A100063293BD06429F4D1642254F8041B01A843
:101A2000FFF76BFF8244AF1CF0E77039CBB2082B95
:101A3000E7D80829E5D801A353F821F0731A040860
:101A4000031A0408031A0408811A0408031A040874
:101A5000611A0408031A0408031A04087D1A04080A
:101A60007522DAE7124A54F8041B01A8FFF774FF45
:101A7000D8E7494601A8FFF78CFF82443246F2E7D7
:101A800054F8041B01A8FFF784FFCBE754F8041BAC
:101A9000C9B201A8FFF723FF0AF1010AC3E701A8B1
:101AA000FFF71DFF0AF1010AB0E700BF0564040853
:101AB00015640408F3630408F063040837B5084CA0
:101AC0006369984748B9E56AA847C307FCD4236A05
:101AD000019303B0BDE830401847002003B030BD8B
:101AE000E864040808461146FFF7E8BF10B5114C3A
:101AF0000020A368984728B15B210F4B0F4A10487C
:101B000002F082FD02202369984718B15E210A4B3A
:101B10000A4AF4E74FF4E1310120A46AA04718B162
:101B20006221054B054AEAE72346BDE81040012142
:101B300015201847E8640408256404087F64040835
:101B40003A64040870470000064B82B0186800230E
:101B500082B262F30F03000C60F31F43184602B019
:101B6000704700BFE46404080120704700207047FC
:101B7000002070476FF0030070470020704700207E
:101B80007047002382B00193019802B070476FF054
:101B900003007047002382B00193019802B07047A0
:101BA00010B50C46014630B12CB10448A2B200F089
:101BB00033FE204610BD6FF00400FBE788250020AF
:101BC0000A4608B5014640B13AB14FF47A73044869
:101BD00092B200F0F6FC002008BD6FF00400FBE7B5
:101BE0008825002030B52C4C8BB0E36C082543F0E1
:101BF0004003E364E36C03F040030193019BA36D96
:101C000043F08053A365A36D03F080530293029BBE
:101C100000F04CF8E36C802243F04003E364E36C93
:101C200005A903F040030393039BE36D43F0010315
:101C3000E365E36D194C03F001030493049B022355
:101C4000CDE905230893012320460793099500F069
:101C500035F84FF48073204605A90593099500F0E7
:101C60002DF84FF4E1330E480E490C22C0E9001361
:101C70000023C0E905234FF40042C0E90233C0E964
:101C800007230361436200F02CFD003818BF0120D8
:101C900040420BB030BD00BF0010024000180242AD
:101CA000882500200080004000207047024A5368C9
:101CB00043F40073536070470070004000232DE927
:101CC000F04F5F4CDFF88081DFF880910A6832FACC
:101CD00003F501D1BDE8F08F4FF0010C0CFA03FCC5
:101CE0001CEA020200F09D8003264D684FEA430E75
:101CF00025F0100A0AF1FF3706FA0EF6012F6FEAF7
:101D0000060611D8876807EA060BCF6807FA0EF7B0
:101D100047EA0B078760476827EA0C0CC5F30017F2
:101D20009F4047EA0C074760C768BAF1020F07EA0D
:101D3000060C8F6807FA0EF747EA0C07C76016D142
:101D40004FF00F0C4FEAD30A00EB8A0A03F0070B9F
:101D5000DAF820704FEA8B0B0CFA0BFC27EA0C0C1C
:101D60000F6907FA0BF747EA0C07CAF820700768F3
:101D70003E4005F0030707FA0EFE4EEA060606602F
:101D8000EE004ED54FF00F0C23F0030707F180470C
:101D900007F53D3703F0030E3E6E4FEACE0E0CFA08
:101DA0000EFC26EA0C0C274EB0423CD006F58066AD
:101DB000B0423AD006F58066B04238D006F580666B
:101DC000B04236D006F58066B04234D0404534D0BB
:101DD00048450CBF0626072606FA0EF646EA0C060C
:101DE0003E66D743D4F8806015F4803F0CBF3E4078
:101DF0001643C4F88060D4F8846015F4003F0CBF2B
:101E00003E401643C4F88460266815F4801F0CBF5A
:101E10003E40164326606668AD0254BF3E401643FE
:101E20006660013352E70026D6E70126D4E7022692
:101E3000D2E70326D0E70426CEE70526CCE700BF8D
:101E400000F4024000000242001402420018024264
:101E50007047704770477047D0F8882010B5222A25
:101E60000446036830D15B6A90F86010826D0B40C5
:101E70001370836D01338365B0F85E30013B9BB214
:101E8000A0F85E30B0F85E2092B2CAB90368196853
:101E900021F490711960996821F001019960202165
:101EA000C0F888100267C26E012A0AD11A68B0F819
:101EB0005C1022F010021A60FFF7CDFF0023E366EA
:101EC00010BDFFF7C6FFF9E79A6942F008029A6170
:101ED000F6E7D0F8882010B5222A044603682ED1F0
:101EE000596AB0F860201140826D22F8021B8265A9
:101EF000B0F85E20013A92B2A0F85E20B0F85E2001
:101F000092B2C2B9196821F490711960996821F0F0
:101F1000010199602021C0F888100267C26E012A71
:101F20000AD11A68B0F85C1022F010021A60FFF7AC
:101F300092FF0023E36610BDFFF78BFFF9E79A6974
:101F400042F008029A61F6E72DE9F84F036804466B
:101F5000DD69D3F800909E68D0F88820222A40F0EE
:101F600085800027B0F86080B0F868A0DFF80CB179
:101F700006F00106BAF1000F01D0AB0614D4B4F894
:101F80005E309BB273B1B4F868209A420AD92368D4
:101F90009A6822F080529A60374A22671A6842F0A3
:101FA00020021A60BDE8F88F2368A26D5B6A03EA1D
:101FB00008031370A36D0133A365B4F85E30013BD1
:101FC0009BB2A4F85E302368DD696A072AD0E8076F
:101FD0000AD519F4807F07D001221A62D4F88C2028
:101FE00042F00102C4F88C20A90708D53EB10222B4
:101FF0001A62D4F88C2042F00402C4F88C206A07DC
:1020000008D53EB104221A62D4F88C3043F00203A2
:10201000C4F88C30D4F88C3023B12046FFF71AFF77
:10202000C4F88C70B4F85E2092B2002AA2D1236862
:10203000196821F480711960996801EA0B019960AF
:102040002021C4F888102267E26E012A0AD11A689A
:10205000204622F01002B4F85C101A60FFF7FBFE75
:10206000E76687E72046FFF7F4FEF9E79A6942F052
:1020700008029A6196E700BF591E0408FEFFFFEFB1
:102080002DE9F84F03680446DD69D3F800909E6897
:10209000D0F88820222A40F083800027B0F86080A2
:1020A000B0F868A0DFF808B106F00106BAF1000F39
:1020B00001D0AB0614D4B4F85E309BB273B1B4F85F
:1020C00068209A420AD923689A6822F080529A605E
:1020D000364A22671A6842F020021A60BDE8F88F7B
:1020E0002368A26D596A08EA010122F8021BA26561
:1020F000B4F85E20013A92B2A4F85E20DD696A0766
:102100002AD0E8070AD519F4807F07D001221A6285
:10211000D4F88C2042F00102C4F88C20A90708D51D
:102120003EB102221A62D4F88C2042F00402C4F8B4
:102130008C206A0708D53EB104221A62D4F88C308C
:1021400043F00203C4F88C30D4F88C3023B120461D
:10215000FFF780FEC4F88C70B4F85E2092B2002ABB
:10216000A4D12368196821F480711960996801EA83
:102170000B0199602021C4F888102267E26E012AC1
:102180000AD11A68204622F01002B4F85C101A60D6
:10219000FFF761FEE76689E72046FFF75AFEF9E799
:1021A0009A6942F008029A6198E700BFD31E0408BA
:1021B000FEFFFFEFF8B504462169A26803680A43F1
:1021C00061691D68C0690A43A149024329400A4365
:1021D0001A605A68E16822F440520A435A609D4AE4
:1021E000A16993421CBF226A11439A6822F06E4291
:1021F00022F430620A439A60DA6A616A22F00F02BE
:102200000A43DA62944A93421BD1944BD3F8883044
:1022100003F00303013B022B00F2EA80904AB0F581
:10222000004FD35C40F0AB80082B26D8DFE813F0DA
:10223000EF00E300A5002500E900250025002500AA
:10224000F300884A934206D1844B874AD3F88830FA
:1022500003F00C03E3E7854A934219D17F4BD3F88F
:10226000883003F03003202B00F0BD8007D8002B0E
:1022700000F0CA80102B00F0C18001204EE0302B0E
:10228000FBD1B0F5004F00F0C6804FF4004093E062
:10229000774A93420FD1714BD3F8883003F0C003D3
:1022A000802B00F0A08004D8002B00F0AD80402BE4
:1022B000E1E7C02BE4E76F4A934212D1674BD3F8B2
:1022C000883003F44073B3F5007F00F08C8005D8AC
:1022D000002B00F09980B3F5807FCCE7B3F5407F09
:1022E000CEE75C4A9342C8D15C4BD3F8883003F404
:1022F0004063B3F5006F18D006D85BB1B3F5806FBB
:10230000BBD100F0B5FA07E0B3F5406FB5D14FF49B
:1023100000400BE000F00AFB40B900204FF0011331
:10232000A3660023C4E91C33F8BD5348534B626ACB
:10233000656833F8122005EB4501B0FBF2F39942D2
:102340009BD8B3EB053F98D80023002101F0DEFFB6
:102350000F0247EA10670602680830182A464FF055
:10236000000347F1000101F0D1FF454BA0F5407299
:102370009A4282D82368D860CFE73F484BE0082BC9
:102380003FF67BAF01A252F823F000BFB12304084F
:10239000DB230408ED2304087B220408E12304085E
:1023A0007B2204087B2204087B2204088B22040879
:1023B00000F0BCFA0028B0D0616A304A636832F895
:1023C0001120B0FBF2F000EB5300B0FBF3F080B251
:1023D0004FF6EF73A0F11002CAE700F0B7FAE9E791
:1023E00000F046FAE6E7B0F5004FC6D02248E3E732
:1023F000B0F5004FF1D100F0A9FA0AE0B0F5004FB6
:10240000EED100F035FA04E0B0F5004FD0D100F085
:102410008DFA002881D0616A184B626833F8113058
:10242000B0FBF3F3500800EB4300B0FBF2F04FF6C3
:10243000EF7283B2A3F1100191423FF61EAF20F07C
:102440000F00226880B2C3F342031843D06064E7F0
:10245000F369FFCF008000400038014000100240C7
:10246000206504080044004023650408004800403B
:10247000004C0040005000400024F4003065040887
:10248000FFFC0F00836A10B5DA0706D50168C46A3D
:102490004A6822F4003222434A609C0706D501684C
:1024A000046B4A6822F4803222434A60590706D5F9
:1024B0000168446B4A6822F4802222434A601A076A
:1024C00006D50168846B4A6822F4004222434A60C0
:1024D000DC0606D50168C46B8A6822F48052224368
:1024E0008A60990606D50168046C8A6822F4005255
:1024F00022438A605A0610D50168446C4A68B4F5D4
:10250000801F22F4801242EA04024A6005D14A6820
:10251000846C22F4C00222434A601B0606D502687E
:10252000C16C536823F400230B43536010BD2DE9A5
:10253000F04104460E4615461F46DDF81880226815
:10254000D36936EA03030CBF01230023AB4201D059
:1025500000201CE0B8F1FF3FF2D000F083F9C01B6F
:1025600040452068036802D8B8F1000F11D123F468
:10257000D0730360836823F0010383602023C4F8D1
:102580008430C4F888300023032084F88030BDE80C
:10259000F0815A07D3D5C3691B05D0D54FF400632A
:1025A0000362036823F4D0730360836823F001039C
:1025B00083602023C4F88430C4F88830C4F88C3099
:1025C000E1E72DE9F7439846D0F884300446202B04
:1025D0000E4617464FD100294BD0002A49D090F81B
:1025E0008030012B47D00123002580F88030212343
:1025F000C0F88C50C0F8843000F034F9A3688146EC
:10260000B3F5805FA4F85470A4F8567003D1236921
:102610000BB935461E46002384F88030B4F85620A6
:102620004B4692B2CDF8008042B940212046FFF7D8
:102630007EFF48B92023C4F8843006E000228021C0
:102640002046FFF774FF18B1032003B0BDE8F08304
:1026500022685EB935F8023BC3F308039362B4F80D
:102660005620013A92B2A4F85620D7E716F8013B5B
:10267000F4E70120E9E70220E7E773B50026044606
:10268000C0F88C6000F0EEF8236805461B681A0756
:1026900018D423681B685B070AD56FF07E430022BD
:1026A00000934FF480012B462046FFF740FFA8B966
:1026B00020230020C4F8843084F88000C4F88830D7
:1026C000E0660CE06FF07E43324600934FF4001159
:1026D00003462046FFF72BFF0028DAD0032002B084
:1026E00070BD10B5044650B3D0F884301BB980F8E3
:1026F0008030FFF7ADFB24232268C4F884301368D0
:10270000204623F001031360FFF754FD012816D083
:10271000A36A13B12046FFF7B5FE23682046BDE843
:1027200010405A6822F490425A609A6822F02A02B5
:102730009A601A6842F001021A60FFF79EBF0120FA
:1027400010BD0000002310B581658168A0F85C20F1
:10275000B1F5805FA0F85E20036731D103696BBBE0
:1027600040F2FF13A0F860300023C0F88C30222321
:10277000C0F8883003689C6844F001049C60446E93
:10278000B4F1005F2CD1B0F86840944228D8B1F57C
:10279000805F23D104691C4A1C49002C08BF0A46EB
:1027A0000267002280F880201A6842F480721A6062
:1027B0009A6842F080529A60002010BDFF23D1E752
:1027C00021B90369002BF9D07F23CBE7B1F1805FFA
:1027D000C8D10369002BF7D03F23C3E70A4ADFE7DC
:1027E000B1F5805F0ED10469094A0A49002C08BF7F
:1027F0000A460267002280F880201A6842F490722C
:102800001A60D9E7024AF4E7491F04088120040846
:10281000591E0408D31E0408D0F8883010B4202BA9
:102820001BD1B9B1B2B190F88030012B15D0012382
:1028300080F8803000230A4CC3660368A34206D0A8
:102840005C68240242BF1C6844F080641C6010BCB9
:10285000FFF778BF012010BC70470220FBE700BFE4
:1028600000800040014B1868704700BFBC26002064
:10287000234B9A68D96812F00C0205D00C2A15D1A6
:1028800001F00301012918D119681E48090755BF35
:10289000D3F894101968C1F30321C1F3031150F860
:1028A000210012B10C2A09D000207047042A24D03C
:1028B000082A154818BF002070470020D968DA6838
:1028C00001F00301C2F30312022902F1010205D053
:1028D000032903D0D968C1F3062103E0D9680A4867
:1028E000C1F30621B0FBF2F0DB684843C3F3416358
:1028F00001335B00B0FBF3F070470348704700BF43
:1029000000100240A46404080024F40008B5FFF796
:10291000AFFF044B044A9B68C3F30313D35CD84056
:1029200008BD00BF001002408A64040808B5FFF724
:10293000EDFF044B044A9B68C3F30223D35CD840E9
:1029400008BD00BF001002409A64040808B5FFF7F4
:10295000DDFF044B044A9B68C3F3C223D35CD84019
:1029600008BD00BF001002409A64040808B5024880
:10297000FFF71CF8FEE700BF486504081EF0040FCF
:102980000CBFEFF30880EFF30980816911F8021C96
:10299000002933D101B590E80F10E047BDE80050A1
:1029A0008CE803003C4B93E80600914208BF704757
:1029B00069B1086C20B10EB5FEF77EFFBDE80E4090
:1029C000EFF3098020E9F00F886381F822E01A60B4
:1029D000106C18B10CB4FEF76DFF0CBC106B92F8C4
:1029E000221080F30B88906B61F0FF0E1EF0400FF9
:1029F00001D1B0E8F00F80F309887047274A1368C7
:102A00009942FAD801B552F821C00FC8E047BDE895
:102A10000050CCF80000704701B500F07BF8BDE82D
:102A2000014000F007B801B500F03AF8BDE80140F8
:102A300000F000B8184B93E80600914208BF7047B9
:102A4000086C50B10EB5FEF737FFBDE80E401EF022
:102A5000400F18BFEFF3098003D1EFF3098020E99D
:102A6000F00F886381F822E01A60106C18B10CB482
:102A7000FEF720FF0CBC106B92F8221080F30B883D
:102A8000906B61F0FF0E1EF0400F01D1B0E8F00F27
:102A900080F3098870470000180100208C63040847
:102AA00038B51B4C01F098FBE368226D0133E360FD
:102AB00002B1904700F090FE002000F0EBFE236C86
:102AC0002BB1A16BA269914202D0C4E90E2338BD9B
:102AD000E36BC3B9237A022BF9D1656A002DF6D0D6
:102AE00091F9203095F920209A42F0D1284600F043
:102AF0003FFEA06B00F046FE284600F0C1FE236CAE
:102B0000C4E90E5338BD013BE363002BE2D038BD6E
:102B10000401002070B5284E06F1560406F15A054E
:102B2000B6F85420D4E85F3F13B9BFF32F8F04E009
:102B3000591EC4E8501F00B1F4E79BB2002B36D0F9
:102B4000D5E85F3F591C8A4200D80021C5E8501FD4
:102B500000B1F5E79BB2F26D52F8230038B3037869
:102B6000F13B082BDCD801A252F823F0A92B040872
:102B7000212B0408A32B0408212B0408212B040873
:102B80009D2B0408972B0408212B0408912B040883
:102B9000336F9847C4E7F36E9847C1E7B36E984721
:102BA000BEE7736E9847BBE7336E9847B8E70020DF
:102BB000BDE8704000F06EBE040100201A4A70B4F7
:102BC000B2F8543002F15605D5E85F4FA34202D85F
:102BD000BFF32F8F04E0611CC5E8561F06B1F3E771
:102BE000A4B2A34204D80146022070BCFEF767BE1F
:102BF00002F15805D5E85F4F611C8B4200D80021D7
:102C0000C5E8561F06B1F5E7A3B2D16D41F8230020
:102C1000537A1BB10123937270BC7047034B4FF082
:102C2000805270BC5A6070470401002000ED00E043
:102C30002DE9F04F0F4683B0064600284CD00029FE
:102C40004AD0CB1CB0FA80F123F0030313F10C053A
:102C500004D0B5FA85F30B441F2B3DDD05FB06F9C7
:102C6000002A3ED09468002C57D0A30734D1D368F3
:102C7000332B31D9D2F81080D2F800A05269B8F1C4
:102C8000000F55D018F0030318BF0123914588BFEA
:102C900043F0010303BB3CB3DFF8FCB04FF0000C82
:102CA000FA20A3702A4643462070C4F804A0314697
:102CB000676204F10C00C4F808C0C4F830C0C4E96D
:102CC0000ACC00F00BFB334B2046CBF8703003B03E
:102CD000BDE8F08F002C53D10024204603B0BDE89E
:102CE000F08F924601239046DFF8ACB00193DBF8F9
:102CF000A000002833D000F015FB019B0446002CF7
:102D0000E8D0002BE6D000224946DBF87C0000F03A
:102D100069FB804660B3032319E0D368002BDBD145
:102D2000D2F81080D2F800A05269B8F1000FA9D1F2
:102D3000002AD1D164B3DFF860B042464946DBF8DF
:102D40007C0000F04FFB80460028C5D002234A4695
:102D500000214046019301F06DFD019B9EE7012299
:102D60003421DBF8800000F03DFB019B0446C6E700
:102D7000DBF8A000214628B100F0F0FA4446ACE7A9
:102D800001238BE7DBF88000444600F069FBA4E7F1
:102D90000123A9E72D300408040100202DE9F041AA
:102DA0009C460F4690460546002800F0B280027807
:102DB000FA2A40F0AE80002900F0AB8000F128062E
:102DC00056E8002F12B9BFF32F8F04E0511E46E8DA
:102DD000001000B1F4E7D2B1EC6AC4B1A01C01222A
:102DE000D0E84F1FC0E8432F03B1F9E711F0FF0F00
:102DF00009D11AE0D0E84F1FC0E8432F03B1F9E72B
:102E000011F0FF0F11D0A468A01C002CF2D1BCF16E
:102E1000000F00F081806146832000F0E7FF00286A
:102E200066D16FF00100BDE8F081D4E90132002BDA
:102E300049D09A60A268002A49D0536038466A6A2D
:102E400004F10C0101F080FCB8F1000F02D0E3782E
:102E500088F80030002705F10C082146277040460D
:102E600000F07CFAAB68002B3FD0404600F05AFAE5
:102E70000446002839D0284600F070FC8046012224
:102E8000394600F097FD404600F0E2FC80466A6A51
:102E900004F10C00D8F8081001F056FCF923A770D3
:102EA000237098F80C10E1702B6B0BB92CE01346D3
:102EB000DA788A420DD25A681F46002AF7D1C4E94F
:102EC0000123EC6209E0EA62A268002AB5D12B6313
:102ED000B4E7C4E901379C60CFB17C6056E8003F9D
:102EE0005A1C46E8002101B1F8E70020BDE8F08156
:102EF0000B4B2846596900F00FFCEFF309836FF084
:102F00000100C3E90278F1E7C4E90133EC622C6304
:102F1000E4E76FF00300E9E76FF00200E6E700BFC7
:102F2000040100202DE9F0410F461646984604465C
:102F3000002872D00278FA2A6FD1B1FA81F56D09B2
:102F4000002D6AD1826812B15378832B3CD004F1F2
:102F50000C0000F0E7F9054618B3626A39460C30F8
:102F600001F0F2FBF9230022EE702B70AA70236BA4
:102F70000BB940E00B46D978B1421ED259681A46C7
:102F80000029F7D1C5E90113E5625560283454E8FA
:102F9000003F5A1C44E8002101B1F8E70020BDE8D9
:102FA000F081B8F1000F3BD04146932000F01EFFA6
:102FB00030BB6FF00100BDE8F081C5E901329D60D2
:102FC000002AE2D12563E1E700F0C8FB8046012238
:102FD000294600F0EFFC404600F03AFC8046626A69
:102FE0003946806801F0B0FBD8F80C000028E2D028
:102FF00006702846DFE7C5E90133E5622563C5E7CA
:10300000094B2046596900F087FBEFF309836FF005
:103010000100C3E90276BDE8F0816FF00300CAE762
:103020006FF00200C7E700BF04010020F8B5867802
:1030300004468568002E48D04368C668002B69D0D6
:103040009D60A268002A69D05360002506F10C0734
:1030500021462570384600F081F9B368002B33D043
:10306000384600F05FF9044600282DD0304600F0C5
:1030700075FB07462A46294600F09CFC384600F0BE
:10308000E7FB0746726A04F10C00B96801F05CFBCB
:10309000F923A5702370397BE170336B0BB96AE0BB
:1030A0001346DA788A425FD25A681D46002AF7D161
:1030B000C4E90123F4626C60283656E8003F5A1CCC
:1030C00046E8002101B1F8E7F8BDAB6813B15B78C1
:1030D000832B2AD02B6B1BB3E0780021DA78824255
:1030E00011D25A6819461346002AF7D1C4E90121C2
:1030F000EC624C60283555E8003F5A1C45E8002139
:1031000001B1F8E7F8BDC4E901319C600029F0D1B4
:103110002C63EFE7F562A268002A95D1336394E748
:10312000C4E90133EC622C63E4E7284600F016FBA7
:1031300007463246314600F03DFC384600F088FB39
:1031400006466A6A04F10C01806801F0FDFAF36832
:103150000BB1E2781A70002305F10C0021462370B0
:10316000BDE8F84000F0FAB8C4E901359C60002DD4
:10317000A1D13463A0E7C4E90133F462F9E700BFE9
:10318000EFF3058313B9EFF310830BB10020704701
:10319000EFF31183002BF9D1DFF804C000DF704793
:1031A000312C04082DE9F04106460F4690461C4696
:1031B000EFF3058515B9EFF3108505B346B3337802
:1031C000FA2B25D127B3003418BF012404BB06F124
:1031D0000C0000F0A7F80546E8B1726A39460C30D9
:1031E00001F0B2FAF9232846AC7085F803802B7001
:1031F000C5E90176FFF7E2FC2046BDE8F081EFF378
:103200001185002DDAD1DFF814C000DFBDE8F081B0
:103210006FF00300F1E76FF00200EEE7252F0408DE
:10322000F8B59C4605460E461746EFF305841CB9D3
:10323000EFF31084002C35D0002D4AD02B78FA2BD8
:1032400047D1002E45D0BCF1000F42D105F1280333
:1032500053E8002F12B9BFF32F8F04E0511E43E84B
:10326000001000B1F4E7D2B1EC6AC4B1A21C012392
:10327000D2E84F1FC2E8403F00B1F9E711F0FF0F5D
:1032800009D117E0D2E84F1FC2E8403F00B1F9E78B
:1032900011F0FF0F0ED0A468A21C002CF2D16FF029
:1032A0000200F8BDEFF31184002CC5D1DFF828C06F
:1032B00000DFF8BD30466A6A04F10C0101F044FAFF
:1032C0000FB1E3783B702046E560FFF777FC002004
:1032D000F8BD6FF00300F8BD9D2D040870B4F0B187
:1032E000E9B1E2B1B3FA83F46409C4B902FB01F5B0
:1032F0000160013903EB0506C360C0E90142C0E982
:10330000046307D018468418013904602046FAD1B6
:10331000AA1A1344002201201A6070BC70470020D2
:1033200070BC704710B40346A8B100F1140252E813
:10333000000F10B9BFF32F8F04E0016842E80014BA
:1033400004B1F4E738B1043353E8002F511C43E8CB
:10335000001404B1F8E710BC704700BF30B4F8B1F6
:10336000C3688B421CD803698B4219D900F114033E
:103370001A680A60BFF35F8F53E8002F0C6894420D
:10338000F6D143E8001505B1F2E7043050E8003FFC
:103390005A1E40E8002101B1F8E7002030BC704718
:1033A0006FF00300FAE700BF30B4034640B140EAD3
:1033B0000102500704D117298CBF0022012212B14B
:1033C000002030BC7047A1F10805102419600120CD
:1033D000E918C3E90141EA5099684C60DA6030BCF1
:1033E000704700BFF0B468B3B1FA81F35B094BBB1F
:1033F00032F0030426D10F3100F10805846821F072
:10340000070703E023682546CBB11C466968631BA8
:1034100021F003069B1B9F42F4D8D0E900360344F9
:103420003E444660083B5868864201D95E60696840
:103430003A4351B905F108006A60F0BC704718467C
:10344000F0BC70470020F0BC704721F003016B18FE
:103450006C5003F108005A602B60F0BC704700BF4D
:1034600030B4F8B1F1B1A1F1080400F10802A242B0
:103470001BD08168B1B18C4224D00B6823B911E014
:103480001A68194613466AB19C42F9D15C684268D1
:1034900024F00304121B426079B11B6801200B6009
:1034A00030BC7047002030BC704751F8041C1346F4
:1034B000426821F00301521A4260002201205A6042
:1034C00030BC70474D680B464468114625F0030236
:1034D000A41A4460E1E700BF38B5034610B3806822
:1034E000D3E9004588B110F0030219D1DB681B2B2A
:1034F00016D90023F5218270C570446001700376EF
:10350000C0E90233C0E9043338BDDB6843B90C4B72
:10351000D3F8940068B1FFF705FF08B10122E8E78E
:10352000002038BD064B04460546D3F89400002819
:10353000F1D1D3F8800001221C21FFF753FFECE703
:10354000040100202DE9F0410446D8B100274FF0D6
:103550000108E37865691B0711D5A3682046277623
:103560006BB100F0FBF800220646114600F022FA8B
:10357000F36AE660C4E90473F46284F818802C46A8
:10358000002DE6D1BDE8F081EFF3058313B9EFF329
:1035900010830BB100207047EFF31183002BF9D19A
:1035A000DFF804C000DF7047D9340408DFF804C036
:1035B00000DFFEE7FD3C040810B500230446006C64
:1035C0002380E8B9A3789A0709D513F0100F216B6F
:1035D000104B10D0D3F88400FFF7C0FEA378DB07B0
:1035E00008D50C4B2146D3F8880060B1BDE81040E7
:1035F000FFF7B4BE10BD586FFFF732FFA378EEE7B8
:10360000FEF756F9DEE7D3F88000BDE81040FFF77B
:1036100027BF00BF040100204378332B30B401D012
:1036200030BC704790F82330426A9D0703F00101D7
:1036300041D400F12804002944D054E8003F03EAB3
:103640000201914203D0BFF32F8F002305E023EA4C
:10365000020144E8001505B1EFE7002BE0D0816BD3
:1036600002690B62C16943694C1C3DD022B1D46927
:10367000536121444369D161002B44D01A61002178
:10368000234B4161012290F9204042705A6A002A7E
:103690003CD092F92030A34205DA2DE093F92010B6
:1036A0008C422BDC1A469368002BF7D10023C0E92B
:1036B00002329060B4E7836A02EA030489B9002CFD
:1036C000AED0CCE754E8003F134203D1BFF32F8FB5
:1036D000002305E023EA020144E8001505B1F1E703
:1036E000BBE7A2429CD1B8E70AB153614369002B02
:1036F000C4D1074B1A63C5E71346064AC0E9023234
:103700009060D8608CE7024BDA62BBE7014ACDE7F4
:103710000401002020010020826810B491F92040AB
:10372000D2B192F92030A34205DA0DE093F92000DE
:1037300084420BDC1A469368002BF7D1002310BC9F
:10374000C1E90232916070471346024610BCC1E9DC
:1037500002329160D96070470246EFE783689A6849
:10376000826002B1D06000221846DA60704700BF64
:10377000C3682BB182689A6002B1D3600023C36032
:10378000704700BF0123134943704A6A10B490F98F
:103790002040DAB192F92030A34205DA0DE093F926
:1037A00020108C420CDC1A469368002BF7D10023C2
:1037B00010BCC0E9023290607047134601F11C0250
:1037C00010BCC0E902329060D860704701F11C0261
:1037D000EDE700BF04010020F0B41C4EF06A50B3C6
:1037E000C569013DC56135BB012706F11C0CC368E5
:1037F00023B182689A6002B1D360C5604770726A73
:1038000090F9204002B392F92030A34205DA14E087
:1038100093F920108C4212DC1A469368002BF7D1E2
:10382000C0E902529060006920B1C369002BDED06C
:1038300000234361F062F0BC704713466246C0E962
:1038400002329060D860EEE76246E9E704010020AA
:10385000806B2030704700BF074B596951B10B6B2B
:103860008A6B934203D21A68044B9A4202D0012019
:10387000FEF725B8704700BF04010020A52E5AE2CC
:10388000022208B5024B42709861FFF7E5FF08BDC0
:1038900004010020454B70B55D691A7A00283CD0C0
:1038A000022A90F920404FF0010215D042705A6A66
:1038B000002A74D092F92030A34205DA26E093F969
:1038C00020108C4224DC1A469368002BF7D1002389
:1038D000C0E90232906070BD95F92060A642E5DA39
:1038E0006A70596A00295CD091F92020B24205DC47
:1038F0003CE092F92040A6423BDA11468A68002A51
:10390000F7D10022C5E902218D6036E01346284A2E
:10391000C0E902329060D86070BD022A5C6ADAD1D8
:10392000002CD8D095F9206094F92020B242D2DD45
:10393000E2682AB1A168916001B1CA600022E26028
:1039400001226A70596A79B391F92020B24205DCEC
:1039500019E092F92000864217DA11468A68002A97
:10396000F7D10022C5E902218D6012E00A4603F179
:103970001C01C5E902218D60D56002224270986168
:10398000FFF76AFF70BD0A460949C5E902218D604B
:10399000D560022262709C61FFF75EFF70BD044A31
:1039A00095E703F11C01ACE70149DAE704010020C7
:1039B0002001002030B4846B03692162C46941692D
:1039C000651C2ED023B1DD6959612C444169DC614D
:1039D000002932D000240B6144615ABB01231A49EB
:1039E00090F9204043704A6A52B392F92030A342C2
:1039F00005DA0DE093F920108C420CDC1A4693682E
:103A0000002BF7D1002330BCC0E902329060704730
:103A1000134601F11C02C0E9023230BC9060D8604C
:103A200070470BB1596141690029D3D106490B6335
:103A3000002AD3D030BCFFF72DBF0349CB62CCE7BF
:103A400001F11C02DEE700BF040100202DE9F04F68
:103A500087B081460091002800F0C680002A00F05F
:103A6000C8809468002C00F0E580A50740F0BC8079
:103A7000D368432B40F2B880D2F81880D2E90465AD
:103A8000002E00F0E180700740F0AE80002D00F0C5
:103A9000AB80B8F1000F00F0E28008F1FF33372B64
:103AA00000F2A280690740F09F80472D40F29C8081
:103AB000D169B6FA86F310680F1C526803914FEA79
:103AC0005313019018BF01270292002C00F09A8036
:103AD00012224FF0000B0492002C00F0A580002B66
:103AE00000F0CD80DFF810A2002D40F0BB807D4BB0
:103AF000DAF884005D6D002800F0B480FFF712FC56
:103B00000646002800F0C380DDF810B0002F51D128
:103B10003846A5F14002734B4FFA88F840F2F1178E
:103B200002EB060E1968029A00234FF0BC0C84F8D1
:103B300002B0E270E362019A84F8208084F8218068
:103B40006260C4F838E02780A4F822C0C4E90F906E
:103B5000C4E90233C4E90433C4E90633C4E90933D0
:103B600061484B07C4E90C65306009D5AD08112DDB
:103B700006D05E4A301DCC212A44920000F05AFE45
:103B8000A36B342200215A4D184600F053FE4FF02B
:103B900080710346009E574AC0F8389020461E6246
:103BA0005D63D963CAF86020FFF774FE204607B052
:103BB000BDE8F08F0398FDF779FE0028A9D11BF02E
:103BC000100F216B00F08380DAF88400FFF7C6FB4A
:103BD0001BF0010F08D0484B2146D3F88850002D28
:103BE0007AD02846FFF7BAFB0024204607B0BDE88C
:103BF000F08F174601234FF018081546164603921A
:103C000001920292DFF8F0A00593DAF8880000280C
:103C100050D013234FF0010B0493FFF783FB0446AE
:103C2000059B002C7FF45BAF002CDDD00020DFF87B
:103C3000C8A06EE7D368002BD6D1D2F81880D2E99D
:103C40000465002E7FF41FAFB8F1000F2CD008F1EF
:103C5000FF33372BC8D8002D3FF42AAF22E74FF0AF
:103C600018081FE700222946DAF87400FFF7BAFBAC
:103C7000064660B14BF002035FFA83FB46E7002F74
:103C8000D2D00398FDF712FE0028D0D1A0E7BBF1F7
:103C9000000FA9D0DAF8880021460028A2D1DAF86E
:103CA0008000FFF7DDFB9FE74FF01808002D3FF481
:103CB000FFAEF7E61323DAF88000012244210493D3
:103CC0004FF0010BFFF78EFB059B044604E7DAF883
:103CD0007400FFF7C5FB7BE7D3F880002C46FFF7A5
:103CE000BFFB82E724630408A52E5AE2EFFFFF3FE3
:103CF000AD3504081936040804010020F8B5394C24
:103D0000237A022B3ED1636A002B3BD06569E86AB7
:103D1000FFF718FCAA69002A35D0916B00201369BF
:103D20000862D0695169461C50D023B1DE695961DF
:103D300030445169D86100294FD000200B61506197
:103D4000012392F920705370606A002847D090F9DF
:103D50002030BB4233DB014604E093F92060B742D8
:103D60002FDC19468B68002BF7D10023C2E9023102
:103D70008A6009E00422EB606A70636BAB6003B198
:103D8000DD606563F8BD606AEFF309828368AA634A
:103D900063620BB1144ADA60022300264370C660E6
:103DA000A061FFF759FD6661EB78DB0702D5AB69CF
:103DB000002BDFD02846BDE8F840FFF7FDBB0346E7
:103DC0000949C2E902318A60DA60DDE70BB1596165
:103DD00051690029B1D12363B2E7E362B0E7024938
:103DE000C3E700BF040100202001002070B52A4C69
:103DF000237A022B26D1626A22B366694B1C70704B
:103E000022D0E56A002D42D0E869814204D232E036
:103E1000D869884226D81D462B69091A002BF7D18C
:103E2000F161C6E904352E61936863620BB11B49E9
:103E3000D96000210223D1605370A261FFF70CFD0D
:103E4000012070BD002070BD206B08B91AE0184633
:103E50000369002BFBD14FF0FF31C6E90430F1615B
:103E60000661E1E7F161C6E904352E61D8695E615A
:103E7000411AD961D8E70020F16135612B467061A4
:103E8000E662F3E7F161C6E904002663CCE7F1617D
:103E9000C6E90455E662C7E70401002020010020BE
:103EA00038B50B4C00210B48A26DFFF7CFFD0A4D32
:103EB000636EA8620BB9012038BDE26D002107488E
:103EC000FFF7C4FDA864003018BF012038BD00BF53
:103ED00024630408BD18040804010020B542040846
:103EE000EFF3058313B9EFF310830BB10020704794
:103EF000EFF31183002BF9D1DFF804C000DF704726
:103F00004D3A0408F8B5584D2E7A012E00F0A780DE
:103F1000002E40F0A680FDF7C7FC002800F0A1802D
:103F2000524C31469C2205F1080000F083FCE36806
:103F3000E66A228AEB653046A368216BA5F8542017
:103F40002B64FFF731FA08B1C5F88060D4E9057138
:103F50003846FFF729FA002876D06F67D4E9076161
:103F60003046FFF721FA002863D0AE67D4E9097123
:103F70003846FFF719FA002854D0666BEF673EB158
:103F8000F3683046B2683168FFF7A8F9C5F8846075
:103F9000A66B3EB1F3683046B2683168FFF79EF910
:103FA000C5F88860E66B3EB1F3683046B2683168A8
:103FB000FFF794F9C5F88C60266C3EB1F368304683
:103FC000B2683168FFF78AF9C5F89060666C3EB157
:103FD000F3683046B2683168FFF780F9C5F894603D
:103FE000A66C3EB1F3683046B2683168FFF776F9E7
:103FF000C5F89860E66C3EB1F3683046B268316847
:10400000FFF76CF9C5F89C60246D3CB1E36820466D
:10401000A2682168FFF762F9C5F8A04001230020DB
:104020002B72F8BDD5F88070666BEF67002EA7D1B4
:10403000AEE7D4E90971D5F880603846AE67FFF77E
:10404000B3F9002899D1EDE7D4E90761D5F880707C
:1040500030466F67FFF7A8F9002886D1E9E700200E
:10406000F8BD4FF0FF30F8BD0401002024630408C0
:1040700070B5224C237A012B3CD1FFF711FF0028A9
:1040800038D01F4AFF2382F8223092F8223063F0A2
:10409000FF03DB4329D0B3FA83F3D268C3F12003D3
:1040A000C2F30222934223D9FE22154E154D02FA85
:1040B00003F315496868DBB2F37700F053F8C8B929
:1040C00000F090F8206100F071F81048FFF746FB0F
:1040D000FFF7D6FB2B68DB074CBF0223032383F3D8
:1040E000148802230020237270BDD268C2F302221A
:1040F000531CD9E74FF0FF3070BD00BF0401002012
:1041000000ED00E024630408272A040820010020B1
:10411000704700BF08B5FFF7FBFFEFF305834BB90E
:10412000EFF3108333B9EFF311831BB9DFF80CC041
:1041300000DF08BD6FF0050008BD00BF053F0408A3
:10414000EFF305834BB9EFF3108333B9EFF311832A
:104150001BB9DFF80CC000DF70476FF00500704737
:104160007140040830B4B0B10C4B1B68B3FBF0F3E2
:10417000013BB3F1807F0ED209490022094C062091
:10418000FF2584F8235008601046074C4B608A6076
:10419000227030BC70474FF0FF30FAE7000100207A
:1041A00010E000E000ED00E018260020074B1A7830
:1041B0002AB10020064A4FF0806118705160054A0C
:1041C000136843F001031360704700BF18260020F6
:1041D00000ED00E010E000E0014B1B68704700BFFD
:1041E00010E000E04FF0FF30704700BF2DE9F041D4
:1041F0002F4E746CE4B12369013B2361C3B9984627
:104200000127E5680DB1A368AB60002304F1180134
:10421000F06C1A467564FEF7C5FF58B9E378716C07
:10422000012B0FD0677019B10A690C46002AE8D03B
:10423000BDE8F08121460320FDF741FBE378716C76
:10424000012BEFD1626909B3D1F810E0724524D394
:104250008C4605E01D6985420CD89C46AE46024658
:10426000DCF80C30A2EB0E00002BF3D12061C4E986
:1042700002C308E020611869C4F808C0821AE3602C
:104280009C6072441A61CCF80C40CDE72261C4E90D
:1042900002117464002AB4D0CAE722610B69C4F821
:1042A00008809A1AE1608C600A612269F1E700BF18
:1042B000040100200B4B08210B4C00B5D3E918205A
:1042C00083B0FEF75DFF094BC4E913034FF0FF33E2
:1042D00000226946FEF7A4FF10B9DDE900309847D7
:1042E000E06CF3E72463040804010020ED410408B6
:1042F00008B5FDF7E7FA18B1034B1860002008BDB8
:104300004FF0FF30FBE700BF1C26002053B94AB92D
:10431000002908BF00281CBF4FF0FF314FF0FF30CD
:1043200000F070B9ADF1080C6DE904CE00F006F8AC
:10433000DDF804E0DDE9022304B070472DE9F04721
:10434000089E0D4604468A46002B7FD18A421746B6
:1043500041D9B2FA82F24AB1C2F1200105FA02F360
:104360009740944020FA01F141EA030A4FEA1748C6
:104370004FEA144C1FFA87F9BAFBF8FE08FB1EA39C
:104380000EFB09F14CEA0343994206D9FB1802D20D
:10439000994200F224810EF1FF3E591AA3B2B1FBFB
:1043A000F8F008FB101100FB09F943EA0144A145AC
:1043B00005D93C1902D2A14500F20E810138A4EBC7
:1043C000090440EA0E4000211EB1D4400023C6E992
:1043D0000043BDE8F08702B9FFDEB2FA82F2002A9C
:1043E0004FD1CB1B4FEA174E1FFA87F80121250C3E
:1043F000B3FBFEFC0EFB1C302B4608FB0CF945EA18
:104400000045A9450AD97D192CBF01230023A945E0
:1044100002D9002B00F0D9800CF1FF3CA5EB090577
:10442000A3B2B5FBFEF00EFB105508FB00F843EA03
:104430000544A04505D93C1902D2A04500F2C98027
:104440000138A4EB080440EA0C40BDE78B4208D9D0
:10445000002E00F0B1800021C6E900050846BDE845
:10446000F087B3FA83F1002946D1AB42C0F0A780B0
:10447000824240F2A4800846002EAAD0C6E9004A33
:10448000A7E7C2F12000974001FA02F34FEA174E66
:10449000C14024FA00F51FFA87F894401D43B1FB90
:1044A000FEF02B0C0EFB101100FB08FC43EA01434D
:1044B0009C4509D9FB182CBF012100219C4502D93C
:1044C000002900F095800138A3EB0C03ADB2B3FBDB
:1044D000FEF10EFB113301FB08FC45EA0345AC4538
:1044E00005D97D1902D2AC4500F289800139A5EBCE
:1044F0000C0341EA00417AE7C1F120048B4002FA43
:1045000001F705FA01FCE24020FA04F8E54000FA60
:1045100001FE134348EA0C024FEA13484FEA124CDB
:104520001FFA83F9B5FBF8FA08FB1A550AFB09F0E4
:104530004CEA054C60450AD913EB0C0C2CBF012545
:104540000025604501D9002D55D00AF1FF3AACEBAA
:10455000000C92B2BCFBF8F008FB10CC00FB09F990
:1045600042EA0C4CE14505D913EB0C0C01D2E145B4
:104570003BD8013840EA0A40ACEB090CA0FB0789A4
:10458000CC4545464A4602D306D1C64504D2013839
:10459000B8EB070569EB03022EB3BEEB05036CEB2A
:1045A000020C23FA01F20CFA04F42CFA01F30021B4
:1045B0001443C6E900430CE73146304609E7841A44
:1045C00065EB030301209A4656E7ACF1020C3D442B
:1045D00024E702383C4434E702383C44EFE6AEF1CD
:1045E000020E3B44D9E63146F3E602389C44C1E76B
:1045F00002383B4468E7AAF1020A9C44A7E7023963
:104600003D4474E7704700BF0A4C1D4606462368C8
:1046100000B5D86885B052B1074C029233462A469D
:1046200000910194054900F057F800F069FE044C30
:104630002246F2E7A80100205865040868650408CE
:104640006465040808B513460022FFF7DDFF00BFCC
:10465000002301461A46184600F0AABD08B5074BCC
:10466000044613B1002100F0FBFD054B1868836A76
:1046700003B19847204601F003FE00BF61520408D1
:104680009865040838B50A4C0A4D641BA4100AD07A
:104690006FF04043234405EB8305013C55F8043992
:1046A0009847002CF9D1BDE8384001F0F1BD00BFBA
:1046B00014020020100200200CB410B582B004AC2B
:1046C00054F8042B2346019400F046F902B0BDE8EB
:1046D000104002B0704700BF0EB410B583B0074B56
:1046E000014605AC186854F8042B2346019400F0E9
:1046F00033F903B0BDE8104003B07047A8010020B3
:1047000070B50D4E0D4D761BB61006D00024013449
:1047100055F8043B9847A642F9D1094E01F0B2FD85
:10472000084D761BB61006D00024013455F8043B22
:104730009847A642F9D170BD0C0200200C0200205F
:10474000100200200C020020844641EA000313F00E
:10475000030349D1403A23D30B6803604B6843609D
:104760008B688360CB68C3600B6903614B694361ED
:104770008B698361CB69C3610B6A03624B6A4362D5
:104780008B6A8362CB6AC3620B6B03634B6B4363BD
:104790008B6B8363CB6BC36340304031403ADBD2D9
:1047A00030320BD30B6803604B6843608B688360C7
:1047B000CB68C36010301031103AF3D20C3205D3FD
:1047C00051F8043B40F8043B043AF9D2043208D0D3
:1047D000D2071CBF11F8013B00F8013B01D30B8845
:1047E00003806046704700BF082A13D38B07B1D0FF
:1047F00010F00303AED0C3F10403D21ADB071CBFD1
:1048000011F8013B00F8013BA4D331F8023B20F83A
:10481000023B9FE7043AD9D3013A11F8013B00F873
:10482000013BF9D20B7803704B7843708B7883701F
:1048300060467047F0B4860746D0541E002A3CD02C
:10484000CAB2034602E014F1FF3436D303F8012B59
:104850009D07F8D1032C29D9CDB20F2C45EA0525A7
:1048600045EA054533D9A4F1100603F1200703F109
:104870001002360907EB061742E9045542E90255D2
:104880001032BA42F8D1721C14F00C0F04F00F066B
:1048900003EB021213D0331F23F00303043313443A
:1048A00042F8045B9342FBD106F003042CB1C9B279
:1048B0001C4403F8011B9C42FBD1F0BC70473446FA
:1048C0001346002CF3D1F8E714460346C2E71A4614
:1048D0002646E0E79368013B002B93600FDA10B4A3
:1048E0009469A34208DB0A2906D01368581C10609B
:1048F0000846197010BC704710BC00F079BB1368F3
:10490000581C106008461970704700BF9BB1F8B57D
:1049100013440F460646541E5D1E01E0AC4208D00B
:104920003A4614F8011F3046FFF7D4FF431CF5D177
:10493000F8BD0020F8BD0020704700BF936810B597
:10494000144613B95360184610BD00F0C7FE00238B
:10495000C4E9013310BD00BF2DE9F04F9FB08B4675
:1049600090461C46039018B18369002B00F0B58077
:104970009F4B9B4500F0B7809E4B9B4500F0C58048
:104980009D4B9B4500F03081BBF80C30180740F17F
:10499000B280DBF81030002B00F0AD803023002116
:1049A000202205948DF83230012798F800300B91C1
:1049B000252B8DF83120914E77D0002B75D04546B0
:1049C00000E025466B786C1C0BB1252BF9D1B4EBBC
:1049D000080A75D1002B6BD000234FF0FF32013451
:1049E00006938DF85B301C930792CDE9083306E0FF
:1049F000801B069B2C4607FA00F0184306902546BC
:104A00000522304615F8011B01F0C0F8AA4600281F
:104A1000EED1069BD90602D520228DF85B201A071D
:104A200002D52B228DF85B2021782A2971D1059A95
:104A3000111D1268002A0591C0F2A68009926178C2
:104A4000A51C2E297CD06E4C0322204601F09EF836
:104A5000002800F08F80001B4024069B05F1010810
:104A600004FA00F0034306932B78062265481946A2
:104A70008DF8303001F08AF8002800F08B80624B0E
:104A8000002B7AD005A8614B5A4606A900900398DE
:104A900000E000BF8146B9F1FF3F09D00B9B4B44BA
:104AA0000B9398F80030252B87D14446002B93D1E7
:104AB000BBF80C305B0625D40B981FB0BDE8F08F17
:104AC0004246534659460398FFF720FF0130EFD086
:104AD0000B9A6B7852440B927CE700F0DFFD444B5D
:104AE0009B457FF449AF039BD3F804B0BBF80C306F
:104AF00018073FF54EAF5946039800F0D9FA002841
:104B00003FF44CAF4FF0FF30D7E7039BD3F808B02A
:104B10003AE7A1F13002092A61D8099B01E02C464D
:104B2000013503EB83032978AA4602EB4303A1F185
:104B30003002092AF3D92E2904F10205099382D102
:104B40009AF801102A292FD1059B0AF102029AF83E
:104B500002100AF10305181D1B68002B059007932E
:104B600038DB274C92460322204601F00FF800283C
:104B70007FF471AFA846554676E7059B073323F0CF
:104B800007030833059389E7524243F00203099271
:104B9000069354E705A81D4B5A4606A900900398B2
:104BA00000F0D6F8814676E7A1F130020023092A09
:104BB000079301D915E0554603EB8303697805F1A6
:104BC000010A02EB4303A1F13002092AF3D90235AD
:104BD000079338E74FF0FF339246079333E7A24637
:104BE0002FE7AA4601352EE7039BD3F80CB0CBE69E
:104BF00018660408F8650408D86504089C6504086C
:104C0000A4650408A8650408000000000D49040814
:104C100010B4044C13460A460146206810BCFFF746
:104C20009BBE00BFA80100202DE9F04791461F461A
:104C30008A680C460B690646DDF820809342B8BFAF
:104C40001346C9F8003091F8432012B10133C9F876
:104C50000030236899066AD5D9F800200232C9F8D5
:104C60000020236813F0060F19461BD1E1688A1A49
:104C7000002A6BDD04F1190A002505E0E368D9F884
:104C800000209B1AAB420CDD0123524639463046C8
:104C9000C047013005F10105F0D14FF0FF30BDE80C
:104CA000F087216894F84330003318BF01238A0647
:104CB0000AD5E1185A1C30200233224481F84300FF
:104CC00094F8451082F8431004F143023946304607
:104CD000C0470130E1D02368E16803F00603D9F84A
:104CE0000000A268042BA1EB0009216902D1B9F1EF
:104CF000000F14DA8A4217DD4FF00009521A91446E
:104D00001A34002501E04D450EDA012322463946CA
:104D10003046C047013005F10105F4D1BDE78A42B4
:104D2000ECDCB9F1000FEBD10020BDE8F08713F007
:104D3000060F05D094F84330003318BF0123C3E7B2
:104D4000D9F80020E1688A1A002A93DC1946A9E7FD
:104D50002DE9F04317460A7E85B006466E2A0C46BA
:104D6000984601F1430C0C986DD039D9732A00F0A4
:104D7000F68044D9752A00F00481782A40F0118128
:104D80007823DFF864E20A6884F845300168150684
:104D900051F8043B016040F1A180D10702D542F0F7
:104DA00020022260002B00F093801022002184F862
:104DB000431060680028A060C0F2C880216821F01C
:104DC00004012160002B40F0A580002840F0C08045
:104DD0006546082A00F0AD80ACEB0503236141E095
:104DE000632A00F0E5801AD8002A38D0582A40F00B
:104DF000D88081F84520DFF8F4E10A68C6E76F2A19
:104E000000F0BF80702A40F0CC800A687823DFF879
:104E1000D8E142F020020A6084F84530B6E7642AFF
:104E200002D0692A40F0BD8022680368110603F1B0
:104E300004055AD5196805600B4600295CDBDFF8CC
:104E4000ACE10A22B5E703680A681D1D49690560DF
:104E500015061B6802D4500600F1BD8019600023BE
:104E600065462361CDF800803B4603AA21463046C3
:104E7000FFF7DAFE013020D02A4623693946304652
:104E8000C047013019D0226803989207E36819D50A
:104E90001A1A002A16DD04F11909002504E0E36856
:104EA00003981A1AAA420DDD01234A4639463046B4
:104EB000C047013005F10105F1D14FF0FF3005B0D9
:104EC000BDE8F0839842B8BF184605B0BDE8F0834E
:104ED0002168102221F02001216067E7500648BFB9
:104EE0009BB2D1077FF55EAF59E75106A2D5B3F962
:104EF000003005601946A0E761682D205B4200295B
:104F000084F84300A1606ADB22F00401DFF8DCE0F2
:104F10000A22216065469342B3FBF2F102FB113095
:104F20000B461EF8000005F8010DF4D2082A7FF4A4
:104F300053AF2368DB077FF54FAF626823699A425E
:104F40003FF74AAF3023013D2B7045E7002BE1D1FD
:104F50009EF8003004F1420584F8423039E70368D6
:104F6000002162681D1D05601D68284600F00EFEC8
:104F7000002832D0401B60602061002384F8433059
:104F800070E72168036811F0800F03F104051AD05F
:104F90001B6805606F2ADFF854E00CBF08220A2264
:104FA00004E7012384F8422004F142052361E4E789
:104FB0000368012204F14205191D1B68016084F891
:104FC00042302261D9E7490602D505601B88E1E736
:104FD0001B680560DEE7198041E76068CCE7DFF811
:104FE0000CE00A2296E700BFC4650408B065040817
:104FF000F8B50D461446064608B1836943B3254B00
:105000009C422AD0244B9C4229D0244B9C4208BF6E
:10501000F468A269A389A2601A0722D5236903B3A1
:105020002268EDB26169D31A2F46994229DD013316
:10503000A168501C01392060A160157062699A4214
:1050400016D00A2D02D1237BDB0711D43846F8BDD8
:1050500000F024FB0F4B9C42D4D17468D9E7B468AC
:10506000D7E72146304600F023F838B92369D7E75F
:105070002146304600F0E6F90028E7D04FF0FF3730
:10508000E4E72146304600F0DDF90028F6D1226839
:105090000123CDE718660408F8650408D8650408FC
:1050A000024B0A4601461868FFF7A2BFA80100207C
:1050B0003B4B70B51D6806460C460DB1AB69DBB1C4
:1050C000384B9C421ED0384B9C424AD0374B9C42B6
:1050D00008BFEC68B4F90C2093B2190718D5206901
:1050E00008B313F001022CD0636900225B42A26076
:1050F000A36160B3002070BD284600F0CFFA294BB1
:105100009C42E0D16C68B4F90C2093B21907E6D444
:10511000DD063CD5580726D4206942F0080293B238
:10512000A2810028DDD103F42072B2F5007FD8D02F
:105130003046214600F0E0FCA389206913F001020B
:10514000D2D1990758BF6269A2600028D2D1B4F9C0
:105150000C301A06CFD543F040034FF0FF30A38147
:1051600070BDAC68B6E7616B51B104F1440399427C
:1051700004D0304600F0B8FDB4F90C20002363637E
:105180000023206922F02402C4E90003C5E742F0AD
:10519000400209234FF0FF303360A28170BD00BF91
:1051A000A801002018660408F8650408D8650408FA
:1051B0002DE9F041264C82B0256815B36C681F2C90
:1051C00043DC9846064698B1D5F8880040B3D0F83D
:1051D00000C1012740F8242000EB8403022E07FAC7
:1051E00004F242EA0C07C0F80071C3F8808011D0C5
:1051F000631C002002346B6045F8241002B0BDE847
:10520000F081144E144D2660EDB12C683546C6F879
:105210008840D3E7D0F804311A43C0F80421E7E707
:105220000E4BCDE9001283B14FF4847000E000BF53
:1052300058B100236C689C46C0E94033DDE9001298
:10524000C5F88800C5E73546B8E74FF0FF30D5E729
:10525000AC260020202600200000000000000000F6
:105260002DE9F04FDFF8948083B00F464FF0010A2C
:10527000D8F8005001908DB16C68D5F88860013C79
:105280000CD405F1080B67B12EB106F1800353F879
:105290002430BB4205D014F1FF34F4D203B0BDE892
:1052A000F08F6B685BF82420013BA34220D00023E1
:1052B0004BF82430002AEED0D5F80490B6B10AFAA3
:1052C00004F3D6F800110B4210D0D6F8040156F8BA
:1052D000241003420ED1019890476B68D8F8002043
:1052E0004B4501D1AA42D6D01546C4E79047F4E712
:1052F0006C60DFE708469047EFE700BFAC26002070
:1053000008B5062000F06CFE012000F0B9FF00BFD8
:105310008B891A072DE9F0410C4680462ED44A6845
:10532000002A47DDE66A002E41D00022D8F800505E
:10533000216AC8F8002013F480523FD1012340466F
:10534000B047431C6CD0A389E66A216A5F0705D584
:105350006268636B801A0BB1236CC01A024600238B
:105360004046B047461C33D1D8F800201D2A47D903
:10537000B4F90C1041F04001A18119E00E69B6B1F9
:105380000D680E609907A5EB06050CBF6369002345
:10539000A3600AE02B463246A76A4046216AB84716
:1053A0000028A5EB000506440ADD002DF2DC0020F4
:1053B000BDE8F0810A6C002AB4DCF8E7606DC5E74F
:1053C000A3894FF0FF3043F04003A381BDE8F08193
:1053D00022690021A389C4E90021DA0400D56065AF
:1053E000616BC8F800500029E1D004F144039942F0
:1053F00002D0404600F078FC00206063BDE8F081F8
:105400000F4BB4F90C10D340DB4313F00103B1D1BF
:105410002669C4E90063CB04E2D5002AE0D1DEE7C7
:10542000D8F80030002B8ED01D2B06D0162B04D0C0
:10543000A38943F04003A381BAE7C8F80050B6E758
:10544000010040200B6923B310B5044682B008B1B7
:105450008369BBB1104B994212D0104B994216D0C0
:105460000F4B994208BFE168B1F90C302BB12046CF
:1054700002B0BDE81040FFF74BBF002002B010BDE6
:105480006168F1E7019100F009F90199E2E7A1688B
:10549000EAE70020704700BF18660408F8650408B2
:1054A000D865040820B1054B01461868FFF7CABF4C
:1054B000034B0449186800F0C9BA00BFA8010020D6
:1054C000986504084554040800207047014900F01D
:1054D000BDBA00BF455404080020704770B54A1E8D
:1054E00068250E4605FB02F505F1740100F056FC37
:1054F000044640B100210C30666005F1680221606D
:10550000A060FFF797F9204670BD00BF1E4B70B535
:105510001D680646AB693BB34835D5E90134013B0C
:1055200004D51DE0013B68345A1C19D0B4F90C2095
:10553000002AF7D10025154B082204F15C006566AE
:105540002946A560A561E360C4E90055C4E9045596
:10555000FFF770F9C4E90D55C4E91255204670BD36
:105560002C682CB12546D8E7284600F011F8D3E77F
:1055700004213046FFF7B2FF044628600028F1D12D
:105580000C233360EAE700BF986504080100FFFFC1
:10559000354A364912682DE9F84F90424FF0000322
:1055A000054681620365C0E912335AD028460024BB
:1055B000FFF7ACFF68602846DFF8BCA0FFF7A6FF46
:1055C000A8602846DFF8B490FFF7A0FF6E680423B8
:1055D000E86021467466F36006F15C0034600822DE
:1055E000B461DFF89CB0DFF89C80C6E90144C6E9ED
:1055F0000444FFF71FF9AF681D4B214636620822AD
:1056000007F15C00C6E909A9C6E90BB8FB607C6636
:10561000BC60BC61C7E90044C7E90444FFF70AF96C
:10562000EE68144B21463F6206F15C00C7F824A0E7
:105630000822C7F83080C7E90A9BF3607466B4603B
:10564000B461C6E90044C6E90444FFF7F3F8012356
:10565000C6F83080C6E9086AC6E90A9BAB61BDE8B6
:10566000F88F01238361A1E798650408CD540408ED
:10567000090001001200020051600408796004086A
:10568000B9600408DD600408024B0349186800F0A3
:10569000DDB900BF9865040845540408836903B95F
:1056A00076E77047704700BF704700BF704700BF84
:1056B000704700BF024B0349186800F0A3B900BF50
:1056C000A8010020C9540408024B0349186800F0DF
:1056D00099B900BFA8010020D95404089368002B91
:1056E00000F01081B1F90CC01FFA8CFC1CF0080FFF
:1056F0002DE9F04F0C4683B08146904635D00B69BA
:105700009BB31CF00203D8F800603ED00027D4F809
:1057100028B0D4F820C03D46DFF8E4A255452B461A
:105720003A46614628BF53464846D5B1D847002877
:1057300040F3DE80D8F8083007442D1A181AC8F84C
:105740000800002800F0C380D4F820C055452B463F
:10575000D4F828B028BF53463A4661464846002D43
:10576000E4D1D6E900750836D8E721464846FFF768
:105770009FFC002840F03F81B4F90CC0D8F80060CD
:105780001FFA8CFC1CF00203C0D11CF0010A40F08F
:10579000BB80A76855462068002D5CD01CF4007FB4
:1057A00000F0C680AF423B4600F2F4801CF4906FDC
:1057B00032D06A1CD4E9041313EB4303A0EB0107B6
:1057C00048BF01334FEA630B13463B445A465B45DF
:1057D00001D99B461A461CF4806F00F0F3801146F5
:1057E000484600F0DBFA002800F0FF803A462169C5
:1057F0000190FEF7A9FFA289019B22F4906242F07A
:105800008002A281D819ABEB070223612F462B46F9
:105810002060A260C4F814B01A465146019300F00B
:10582000FBF9A168AB4622680025019BCF1B1344FE
:10583000A7602360D8F80800DA44A0EB0B00C8F892
:105840000800002843D0B4F90CC0A7681FFA8CFCEC
:105850002068002DA2D1D6E900A508369CE70BF1FF
:10586000080353F8047C9B4653F8086C0833002F58
:10587000F7D03A460A21304600F088F9002854D083
:105880000130A0EB060A5346BB42206821696269D9
:1058900028BF3B46A5688842154401D9AB421ADCB3
:1058A0009A4200F381801346A56A3246216A48462F
:1058B000A847051E1CDDBAEB050A6ED00120D8F8FA
:1058C00008302E447F1B5D1BC8F8085015BB002014
:1058D00003B0BDE8F08F31462A4600F09DF92368F9
:1058E000214648462B442360FFF7ACFD0028E2D058
:1058F000B4F90C3043F040034FF0FF30A38103B004
:10590000BDE8F08F002070479A4618461F46334680
:1059100056469B46002FA2D00028B4D13A460A2111
:10592000304600F033F90028AAD17B1C9A46ABE739
:105930002369834217D36369AB4214D82F4A484680
:10594000A76A9542216A524694BFAC466FF0004C5C
:105950009CFBF3FC03FB0CF3B847B0F1000BC7DD75
:10596000A5EB0B0566E7AF42514628BF2F463A46E6
:10597000BB4600F051F9A3682268DB1B3A44A360E0
:105980002260002BECD121464846FFF75BFD002842
:10599000E6D0ADE72F462B463EE721464846FFF7C7
:1059A00051FD00288BD0A3E71A46314601931D46CE
:1059B00000F032F9A1682268019BC91A1344A16062
:1059C000236078E7484600F04DFA034600287FF44C
:1059D00019AF2169484600F087F9B4F90C300C2260
:1059E00023F08003C9F8002084E70C22B4F90C30BE
:1059F000C9F800207EE74FF0FF3069E7FEFFFF7F28
:105A000000FCFF7F2DE9F04110F148071AD08846CD
:105A10000026D7E90154013D0ED4A389013D012B95
:105A200006D9B4F90E302046013301D0C0470643F1
:105A30006B1C04F16804F0D13F68002FE9D13046B7
:105A4000BDE8F0813E463046BDE8F0812DE9F843DF
:105A500010F148071ED0884606464FF00009D7E9E6
:105A60000154013D10D4A389013D012B08D9B4F99B
:105A70000E3021463046013302D0C04749EA0009C2
:105A80006B1C04F16804EED13F68002FE7D1484653
:105A9000BDE8F883B9464846BDE8F88370B50C46C2
:105AA000B1F90E1096B0164600291D4613DB6A4662
:105AB00000F040FB00280EDB019A4FF480630020C9
:105AC00002F47042A2F50052B2FA82F252092A6040
:105AD000336016B070BDA38900221B062A6004D56E
:105AE00040230020336016B070BD4FF48063002067
:105AF000336016B070BD00BF8A890B46920706D589
:105B000001F1470201211A60C3E90421704770B511
:105B100082B006460C4601AB6A46FFF7BFFF00990C
:105B20000546304600F03AF9B4F90C3070B1164A27
:105B300043F080030099B262019AA3812060C4E916
:105B400004018AB92B43A38102B070BD9A05FBD42E
:105B500023F0030304F14702012143F00203226012
:105B60002261A3816161EFE73046B4F90E1000F0C5
:105B7000F5FA10B9B4F90C30E4E7A38923F0030374
:105B800043F001031BB2DDE7CD540408830770B472
:105B9000CDB23CD0541E02B30378AB421ED0431C9E
:105BA00005E014F1FF3418D30278AA4216D013F09E
:105BB000030F184603F10103F3D1032C10D844B3AB
:105BC0000378AB420AD00444431C02E00278AA42A4
:105BD00004D0184601338442F8D1002070BC7047CD
:105BE0000902024689B241EA050646EA064610461F
:105BF000043203687340A3F1013121EA030313F077
:105C0000803FDDD1043C1046032CF0D8D7E7144682
:105C1000D3E72046E2E700BF8842F0B40DD98B18E5
:105C200083420AD9841832B1224613F8014D9942B1
:105C300002F8014DF9D1F0BC70470F2A0ED8034687
:105C4000541E002AF7D00134013B0C4411F8012BFB
:105C5000A14203F8012FF9D1F0BC704740EA0103DB
:105C60009B073BD1A2F1100501F1200401F11006C0
:105C700000F110072D0904EB051456F8103C1036FE
:105C8000103747F8203C56F81C3C47F81C3C56F8A7
:105C9000183C47F8183C56F8143CA64247F8143C08
:105CA000EBD16B1C12F00C0F02F00F054FEA03133F
:105CB0001944034415D0043D1C1F0E46AD0803EBE8
:105CC000850C56F8047B44F8047F6445F9D101350E
:105CD00002F00302AD002B442944B1E7541E0346F1
:105CE000B1E72A46ACE700BF002941D038B551F8EA
:105CF000043C0C1F0546002BB8BFE41800F056FA10
:105D0000254B196829B1A1420BD92268A0188142FC
:105D100028D0616028461C60BDE8384000F048BAD1
:105D200019464B68A3428CBF00220122002B08BFFA
:105D30000022002AF4D10A688818A04219D024D879
:105D40002268A018834206D063604C602846BDE8F4
:105D5000384000F02DBAD3E900030244C4E900231F
:105D60004C60F3E7D1E900010244C4E90021D1E726
:105D700070472068024488180A608342E6D1D3E95C
:105D800000030244C1E90023E0E70C2328462B600E
:105D9000BDE8384000F00CBAB0260020F8B5CD1CA4
:105DA000064625F0030508350C2D38BF0C25002DBF
:105DB0003ADBA94238D82A4F00F0F8F93A6852B1D4
:105DC00013685B1B04D43FE023685B1B25D5224688
:105DD0005468002CF8D1796800293BD02946304618
:105DE00000F066F8431C28D0C41C24F00304A04231
:105DF00005D0211A304600F05BF801301DD0256037
:105E0000304600F0D5F904F10B00231D20F0070007
:105E1000C21A01D01B1AA350F8BD0B2B09D8A242FD
:105E2000636815D05360EBE70C2200203260F8BDA8
:105E3000144623601C442560E2E70C23304633609F
:105E400000F0B6F90020F8BD0B2BF1D853681446CA
:105E50003B60D5E7304600F02BF87860BEE700BF26
:105E6000B026002009B3F8B51446CAB106460D465F
:105E700000F0A0F9A04202D32F463846F8BD2146D3
:105E80003046FFF78BFF07460028F6D0224629460A
:105E9000FEF75AFC30462946FFF726FF3846F8BD84
:105EA0002746FFF721FF3846F8BD1146FFF776BFBA
:105EB00038B50023064C05460846236000F0D2F9A9
:105EC000431C00D038BD2368002BFBD02B6038BDAD
:105ED000C026002010B504468021FFF75FFF6064F4
:105EE00040B1031F00227C3043F8042F8342FBD1D2
:105EF000002010BD4FF0FF3010BD00BF436C0BB150
:105F000000207047E6E700BF1F2970B5054608D896
:105F1000436C16460C464BB153F8240043F82460FA
:105F200070BD16224FF0FF302A6070BDFFF7D2FF20
:105F300008B96B6CF0E74FF0FF3070BD1F2938B522
:105F4000054620D8426C0C466AB152F8213053B154
:105F5000012B16D0591C10D00025204642F82450A1
:105F60009847284638BD284600F070F8224601467A
:105F70002846BDE8384000F055B8162301202B60B4
:105F800038BD002038BD16234FF0FF302B6038BDE0
:105F90001F2921D838B5436C05460C4683B153F808
:105FA000242003EB84034AB1511C10D0012A0CD0E9
:105FB000002520461D609047284638BD012038BD89
:105FC000FFF788FF28B96B6CE9E7032038BD022092
:105FD00038BD4FF0FF3038BD4FF0FF30704700BF85
:105FE000024B01461868FFF7A9BF00BFA8010020B7
:105FF000024B0A4601461868FFF786BFA801002039
:10600000034B1868436C0BB10020704762E700BF78
:10601000A8010020024B01461868FFF7B9BF00BF76
:10602000A801002070B50D460023074C0646114616
:106030002846236000F0FEF8431C00D070BD2368A2
:10604000002BFBD0336070BDC026002000F0E2B80A
:1060500010B50C46B1F90E1000F0B6F8002803DBBD
:10606000636D0344636510BDA38923F48053A3814A
:1060700010BD00BF002070472DE9F0411F46B1F967
:106080000C3016460C46DA050546B1F90E1009D457
:1060900023F4805032463B46A0812846BDE8F041BB
:1060A00000F020B80223002200F06AF8B4F90C30A6
:1060B000B4F90E10ECE700BF10B50C46B1F90E10A4
:1060C00000F05EF8421CA38904D043F4805360655D
:1060D000A38110BD23F48053A38110BDB1F90E102C
:1060E00000F016B8F8B50E46084C002511460746D4
:1060F0001A4630462560FBF7F5FC431C00D0F8BD7E
:106100002368002BFBD03B60F8BD00BFC0260020F9
:1061100038B50023064C05460846236000F06AF8AF
:10612000431C00D038BD2368002BFBD02B6038BD4A
:10613000C026002070B50D460023074C06461146C8
:106140002846236000F05EF8431C00D070BD236831
:10615000002BFBD0336070BDC026002038B5002373
:10616000064C05460846236000F05CF8431C00D04E
:1061700038BD2368002BFBD02B6038BDC026002023
:10618000F8B50E46084C0025114607461A4630461B
:10619000256000F057F8431C00D0F8BD2368002BA1
:1061A000FBD03B60F8BD00BFC0260020704700BF99
:1061B000704700BF51F8043C002BA3F1040000DB42
:1061C00070470B5818447047F8B50E46084C002528
:1061D000114607461A463046256000F03BF8431C3E
:1061E00000D0F8BD2368002BFBD03B60F8BD00BF9A
:1061F000C0260020024B58224FF0FF301A60704733
:10620000C0260020024B58224FF0FF301A60704722
:10621000C0260020024B58224FF0FF301A60704712
:10622000C0260020024B582200201A60704700BF91
:10623000C0260020024B58224FF0FF301A607047F2
:10624000C0260020024B58224FF0FF301A607047E2
:10625000C0260020024B58224FF0FF301A607047D2
:10626000C0260020044A05491368002B08BF0B46CE
:106270001918184611607047B8260020E036002033
:10628000FEE700BFF8B500BFF8BC08BC9E467047EB
:10629000F8B500BFF8BC08BC9E4670474E6F6E2D27
:1062A0005365637572652073797374656D207374BB
:1062B000617274696E672E2E2E0D0A0074657374F8
:1062C0005F74687265616400BC62040800000000CD
:1062D00000000000000000000000000000100000AE
:1062E00000000000FFFFFFFF0000000000000000B2
:1062F000000000000000000000000000000000009E
:10630000000000000000000000000000000000008D
:10631000000000000000000000000000000000007D
:106320000000000003000000E8030000050000007A
:1063300038020020100000000000000000000000F3
:10634000000000000000000000000000000000004D
:106350007802002000200000000000000000000083
:10636000000000000000000000000000000000002D
:10637000000000000000000000010000906304081D
:10638000CC630408B46304080400000000000000AB
:106390000000000000000000402300204400000036
:1063A000882400200001000001000000000000001F
:1063B0000000000000000000000000007822002023
:1063C00034000000AC22002050000000000000005B
:1063D00000000000FC220020440000008823002070
:1063E0000001000028000000000000000000000084
:1063F0003078005B556E737570706F7274656420D1
:106400005461675D003031323334353637383961A5
:10641000626364656630313233343536373839413A
:106420004243444546726574203D3D2041524D5FD4
:106430004452495645525F4F4B002F686F6D652F90
:1064400062656E746F2F747275737465642D6669FE
:10645000726D776172652D6D2F74666D2F706C6132
:1064600074666F726D2F6578742F636F6D6D6F6ECC
:106470002F756172745F7374646F75742E6300732B
:106480007464696F5F696E69740000000000000049
:1064900000000102030406070809000000000102D1
:1064A00003040000A0860100400D0300801A0600CE
:1064B00000350C0040420F0080841E0000093D00A2
:1064C00000127A000024F40000366E010048E80152
:1064D000006CDC0200000000000000000000000072
:1064E0000000000003020202491B0408691B0408A3
:1064F000E51B04086D1B0408711B0408C11B04087C
:10650000A11B0408751B04087B1B0408A91C0408B4
:106510007F1B0408831B04088F1B0408951B0408B9
:1065200004020800101010041010100210101008BF
:10653000010002000400060008000A000C00100020
:106540002000400080000001040000005254582048
:1065500056352E352E3000002C2066756E6374691A
:106560006F6E3A2000000000617373657274696F8A
:106570006E2022257322206661696C65643A20666C
:10658000696C6520222573222C206C696E6520259C
:1065900064257325730A0000AC010020232D302BE5
:1065A00020000000686C4C006566674546470000A7
:1065B0003031323334353637383941424344454639
:1065C00000000000303132333435363738396162FB
:1065D0006364656600000000000000000000000029
:1065E00000000000000000000000000000000000AB
:1065F000000000000000000000000000000000009B
:10660000000000000000000000000000000000008A
:10661000000000000000000000000000000000007A
:10662000000000000000000000000000000000006A
:0C6630000000000000000000000000005E
:08663C0044B0FF7F01000000E3
:106644006C66040800010020450000000000000002
:0866540000000000000000003E
:10665C00180200202B0900000000000000000000C0
:10666C0000093D004C650408D0B3FB02000000009B
:10667C00000000000000000000000000000000000E
:10668C0000000000000000000000000000000000FE
:10669C0000000000000000000000000000000000EE
:1066AC0000000000000000000000000000000000DE
:1066BC0000000000000000000000000000000000CE
:1066CC0000000000000000000000000000000000BE
:1066DC0000000000000000000000000000000000AE
:1066EC00000000000000000000000000000000009E
:1066FC00000000000000000000000000000000008E
:10670C000000000000000000AC01002000000000B0
:10671C0018660408F8650408D86504080000000031
:10672C00000000000000000000000000000000005D
:10673C00000000000000000000000000000000004D
:10674C00000000000000000000000000000000003D
:10675C00000000000000000000000000000000002D
:10676C00000000000000000000000000611604089A
:04677C0039160408BE
:0400000508041821B2
:00000001FF
